:100000001CC600000C9454360C9429360C94FE3512
:100010000C94D3350C94A8350C947D350C94523542
:100020000C9427353BC6000039C6000037C60000D7
:1000300035C6000033C6000031C600002FC60000E0
:100040002DC600002BC6000029C6000027C60000F0
:1000500025C6000023C6000021C600000C94DD3434
:100060001DC600000C94A7340C947D3417C6000004
:1000700015C6000013C6000011C600000FC6000020
:100080000DC600000BC6000009C6000007C6000030
:1000900005C6000003C6000001C60000FFC5000041
:1000A000FDC50000FBC50000F9C50000F7C5000054
:1000B000F5C50000F3C50000F1C50000EFC5000064
:1000C000EDC50000EBC50000E9C50000E7C5000074
:1000D000E5C50000E3C50000E1C50000DFC5000084
:1000E000DDC500003A204572726F723A20556E6B82
:1000F0006E6F776E20436F6D6D616E643A200044C1
:10010000002C2052656365697665642074686973A4
:100110003A20003A204572726F723A204578706535
:10012000637465643A2000440020202052656365B2
:10013000697665643A2000202020457870656374F4
:1001400065643A20004572726F723A2053656E649E
:10015000696E6720426C6F636B3A2000202020524A
:10016000656365697665643A2000202020457870D3
:1001700065637465643A20004572726F723A205369
:10018000656E64696E6720426C6F636B3A20002075
:1001900052657472792E2E2E004572726F723A205B
:1001A00053656E64696E6720426C6F636B3A200022
:1001B0003A203C204E6F204469736B203E0044007F
:1001C0002F003A200044003A204572726F723A20A4
:1001D00046696C6520746F6F206C6172676520746E
:1001E0006F20666F726D6174004400466F726D61BE
:1001F0007420636F6D706C657465002E004E756DB4
:10020000626572206F6620426C6F636B733A2000E8
:1002100053697A65206F662066696C653A200045EF
:1002200072726F723A20466F726D617474696E6794
:10023000206120524F4D2046696C65206E6F7420FE
:10024000737570706F72746564005265636569766A
:10025000656420466F726D617420436F6D6D616ED1
:100260006420666F722044726976652044004D6F89
:10027000756E74696E672044313A20004E6F2042DB
:100280006F6F74204469736B2020202000426F6FD1
:1002900074204469736B204F6E00426F6F7420446A
:1002A00069736B204F6E2020202000426F6F7420F6
:1002B0004469736B204F666600426F6F7420446917
:1002C000736B204F6666202020004C6F6164696E5E
:1002D00067204469722E2E2E20200020202020200E
:1002E0002020202020202020202020004368616E34
:1002F00067696E6720746F204469726563746F72FA
:10030000793A20004C6F6164696E67204469722EEF
:100310002E2E2020002020202020202020202020E1
:100320002020202020004368616E67696E6720747A
:100330006F204469726563746F72793A2000556E5C
:100340006D6F756E74696E672044004C6F616469EF
:100350006E67204469722E2E2E202000202020203F
:100360002020202020202020202020200043686101
:100370006E67696E6720746F204469726563746F7D
:1003800072793A20004C6F6164696E67204469722B
:100390002E2E2E2020002020202020202020202053
:1003A000202020202020004368616E67696E67204E
:1003B000746F204469726563746F72793A20004CDF
:1003C0006F6164696E67204469722E2E2E202000B2
:1003D000202020202020202020202020202020201D
:1003E000004368616E67696E6720746F20446972AC
:1003F0006563746F72793A20003A20004D6F756E14
:1004000074696E67204400436F6D70617469626C3B
:100410006520426C6F636B204D6F646520456E6193
:10042000626C656400536B697070696E67207468F4
:100430006973207265736574003A20003A003A00CF
:10044000546F6F204D616E792046696C6573002092
:1004500020202020202020202020202020202000BC
:100460005761726E696E673A204D6178696D756D7E
:10047000204E756D626572206F662046696C6573EB
:10048000205265616368656400466F726D61742017
:10049000436F6D6D616E64204572726F7200466FBE
:1004A000726D617420436F6D6D616E6420436F6E79
:1004B0006669726D6564004164616D20436F6D6DA6
:1004C000616E643A20466F726D617420440041642D
:1004D000616D20436F6D6D616E643A20577269746F
:1004E000696E6720746F20746865204C4344203A1D
:1004F000004164616D20436F6D6D616E643A2052FE
:10050000656672657368204C4344004368616E679A
:10051000696E6720746F204469726563746F7279C5
:100520003A20004368616E67696E6720746F2044EB
:1005300069726563746F72793A20004368616E670F
:10054000696E6720746F204469726563746F727995
:100550003A20003A20004D6F756E74696E67204432
:1005600000556E6D6F756E74696E6720440041644E
:10057000616D20436F6D6D616E643A2043757272D8
:10058000656E74204469736B206F6E2044003A00DE
:100590004E756D626572206F662046696C65733AB0
:1005A0000043757272656E74204469726563746F7E
:1005B00072793A0046696C657320696E20426C6FEF
:1005C000636B3A0046696C656E616D65204C656EC3
:1005D0006774683A004164616D20436F6D6D616EB0
:1005E000643A205344204361726420446972656315
:1005F000746F727920426C6F636B3A20003A003A54
:10060000003A0053443D00203A2000203A200020C8
:100610003A2000534420436F6D6D616E643A2000B0
:1006200000002200250028002B002E00310034009D
:1006300002010000050108010B0100002000230059
:10064000260029002C002F003200000100000301C9
:100650000601090100000A0B02090C0D0E08070330
:100660000401000000000000000000000000000085
:10067000000000000000000000000000000000007A
:100680001211100000000000000000000000000037
:10069000000000000000000000004F6666004F6E82
:1006A000004F6666004F6E004F6666004F6E004F4B
:1006B0006666004F6E004F6666004F6E00446576BA
:1006C00069636520436F6E66696700414445205643
:1006D0006363203D200041444520566363203D2054
:1006E0000000002100240027002A002D00300033E4
:1006F0000001010000040107010A0101021020208D
:100700000808102040102040800201020108040265
:1007100001010204081020408080402010080402DB
:100720000180040201804020100804020108040234
:10073000010102040810204080010204081020403A
:100740008005050505070508080808020202020AD7
:100750000A08080404040401010101010101010364
:1007600003030303030303040707070C0C0C0C0C1F
:100770000C0C0C0202020206060606060606060B12
:100780000B0B0B0B0B0B0B2C3058005344206572DA
:10079000726F72436F64653A203058004E6F206369
:1007A0006172642C2077726F6E67206368697020B5
:1007B00073656C6563742070696E2C206F722053B2
:1007C00050492070726F626C656D3F0043616E2707
:1007D00074206163636573732053442063617264A2
:1007E0002E20446F206E6F74207265666F726D618B
:1007F000742E004E6F206572726F7220666F756E78
:10080000642E0043616E2774206F70656E20726FD6
:100810006F74206469726563746F72792E00496E1B
:1008200076616C696420666F726D61742C207265EC
:10083000666F726D61742053442E002020204E6F2D
:100840002053442043617264004368616E67696E9F
:100850006720746F2074686520496E697469616CE3
:10086000204469723A20004465627567204D6F64C8
:10087000652044697361626C6564004465627567F4
:10088000204D6F646520456E61626C656400443183
:100890003A203C626F6F743E3A2000426F6F7420C2
:1008A0004469736B20496E6465783A2000426F6F2B
:1008B00074204469736B204469723A2000456E616C
:1008C000626C6564004E6F20447269766573004403
:1008D00065627567204D6F6465206861732062658D
:1008E000656E2064697361626C65640044312C201C
:1008F00044322C20443320616E64204434206861EB
:100900007665206265656E20656E61626C65640067
:10091000496E697469616C697A696E6720454550F2
:10092000524F4D002E0045726173696E6720454538
:1009300050524F4D3A00454550524F4D204E6F7426
:1009400020496E697469616C697A656400467265F4
:1009500065205352414D3A2000456E746572696EB0
:100960006720566F6C746167652054657374204D01
:100970006F646500456E746572696E6720436F6EC3
:1009800066696775726174696F6E204D6F6465008A
:10099000456E61626C696E6720616C6C204465769F
:1009A000696365730044697361626C696E672044B2
:1009B00065766963652035005374617274696E678A
:1009C0003A2041444520760062793A205365616EB1
:1009D000204D79657273004144452020202020205D
:1009E0007600206973206C6172676572207468619B
:1009F0006E2066696C653A20003A204572726F720B
:100A000020736176696E6720626C6F636B202D20A6
:100A1000426C6F636B206C6F636174696F6E3A2018
:100A20000044004572726F723A2057726974696EA1
:100A30006720746F206120524F4D2046696C6520FD
:100A40006E6F7420737570706F727465640020200F
:100A50002020202020202020202020202020003A9C
:100A60002057726974696E673A200044003A204545
:100A700072726F723A20496E76616C6964204368C5
:100A800065636B73756D2C20426C6F636B3A004429
:100A9000003A204572726F723A2052657175657323
:100AA00074656420626C6F636B206F7574206F6671
:100AB0002072616E67653A20004400206973206CE3
:100AC0006172676572207468616E2066696C653A50
:100AD00020003A204572726F72206C6F6164696EFB
:100AE0006720626C6F636B202D20426C6F636B20FC
:100AF0006C6F636174696F6E3A200044006B005242
:100B00004F4D2046696C652053697A653A2000573D
:100B100061726E696E673A20524F4D2066696C654E
:100B2000206C6172676572207468616E2033326B6D
:100B30002C206C6F6164696E672033326B0020205B
:100B40002020202020202020202020202020003AAB
:100B50002052656164696E673A200044003A20457E
:100B600072726F723A205265717565737465642094
:100B7000626C6F636B206F7574206F662072616E9C
:100B800067653A20004400456E68616E63656420C5
:100B9000426C6F636B204D6F646520456E61626CC3
:100BA000656400436F6D70617469626C6520426CAE
:100BB0006F636B204D6F646520456E61626C656488
:100BC00000536F66742052657365742066726F6D92
:100BD000204164616D4E657400436F6D706174698E
:100BE000626C6520426C6F636B204D6F64652045BD
:100BF0006E61626C65640048617264205265736561
:100C0000742066726F6D204164616D4E657400449E
:100C1000313A203C626F6F743E3A20004D6F756E22
:100C200074696E6720426F6F74204469736B20494A
:100C30006D61676500006D37224A11241FBECFEF3A
:100C4000D1E2DEBFCDBF00E00CBF13E0A0E0B2E018
:100C5000E4EDFFE900E00BBF02C007900D92A23661
:100C6000B107D9F72AE1A2E6B3E001C01D92AA3884
:100C7000B207E1F716E0CCE1D6E000E006C021972C
:100C80000109802FFE010E949E4ECB31D10780E0EA
:100C90000807A9F70E94EA370C94D94FB1C9089503
:100CA000DB0114964D915C9115976D917C91DC015F
:100CB000ED91FC910280F381E02D1994EF92FF9267
:100CC0000F931F93CF93DF938C017B01D0E0C0E0A3
:100CD000F701EC0FFD1F6491662361F0D801ED91DF
:100CE000FC910190F081E02DC8011995892B11F03C
:100CF0002196EECFCE01DF91CF911F910F91FF9002
:100D0000EF900895AF92BF92CF92DF92EF92FF9251
:100D10000F931F93CF93DF936C017B018B01040F23
:100D2000151FEB015E01AE18BF08C017D10759F0BF
:100D30006991D601ED91FC910190F081E02DC60101
:100D40001995892B79F7C501DF91CF911F910F91EB
:100D5000FF90EF90DF90CF90BF90AF900895FC018F
:100D6000538D448D252F30E0842F90E0821B930B10
:100D7000541710F0CF96089501970895FC01918DB6
:100D8000828D981761F0A28DAE0FBF2FB11D5D96B9
:100D90008C91928D9F5F9F73928F90E008958FEF5B
:100DA0009FEF0895FC01918D828D981731F0828D0F
:100DB000E80FF11D858D90E008958FEF9FEF089566
:100DC000FC01918D228D892F90E0805C9F4F821BCA
:100DD00091098F739927089585E497E1F1DF21E068
:100DE000892B09F420E0822F0895FC01A48DA80F1F
:100DF000B92FB11DA35ABF4F2C91848D90E001965D
:100E00008F739927848FA689B7892C93A089B1897C
:100E10008C91837080648C93938D848D981306C01D
:100E20000288F389E02D80818F7D80830895EF9281
:100E3000FF920F931F93CF93DF93EC0181E0888F94
:100E40009B8D8C8D98131AC0E889F989808185FF64
:100E500015C09FB7F894EE89FF896083E889F98906
:100E600080818370806480839FBF81E090E0DF9108
:100E7000CF911F910F91FF90EF900895F62E0B8D5B
:100E800010E00F5F1F4F0F731127E02E8C8D8E1116
:100E90000BC00FB607FCFACFE889F989808185FF7E
:100EA000F5CFCE01A2DFF2CFEB8DEC0FFD2FF11DC0
:100EB000E35AFF4FF0829FB7F8940B8FEA89FB89C2
:100EC00080818062D0CFCF93DF93EC01888D88231F
:100ED000B1F0AA89BB89E889F9898C9185FD03C0A5
:100EE000808186FD0CC00FB607FCF7CF8C9185FF83
:100EF000F2CF808185FFEDCFCE0177DFEACFDF91A2
:100F0000CF91089580E090E0892B21F065DF811179
:100F10000E94000080E090E0892B49F080E090E0A2
:100F2000892B29F00E94000081110E94000080E0BE
:100F300090E0892B49F080E090E0892B29F00E9415
:100F4000000081110E94000080E090E0892B49F0B0
:100F500080E090E0892B29F00E94000081110C9420
:100F6000000008958150823108F05AC0E82FF0E067
:100F70008827E254F84F8F4F0C949E4EDE07E2070D
:100F8000D007D607DA071008E507EB07EF07F507E4
:100F9000F907FD070308070810080B0811081508D2
:100FA000809180008F7780938000089580918000E9
:100FB0008F7DF9CF80918000877FF5CF84B58F77C3
:100FC00084BD089584B58F7DFBCF8091B0008F776D
:100FD0008093B00008958091B0008F7DF9CF80910B
:100FE00090008F77809390000895809190008F7D7E
:100FF000F9CF80919000877FF5CF8091A0008F7707
:101000008093A00008958091A0008F7DF9CF8091FA
:10101000A000877FF5CF809120018F7780932001FA
:101020000895809120018F7DF9CF80912001877FE5
:10103000F5CFCF93DF93282F30E0F901EC5AF94F29
:101040008491F901E550F94FD491F901EF5BF84F24
:10105000C491CC2399F0811185DFEC2FF0E0EE0FE5
:10106000FF1FE65CF94FA591B491EC91ED2381E06F
:1010700090E009F480E0DF91CF91089580E090E066
:10108000FACF1F93CF93DF93282F30E0F901EC5A6A
:10109000F94F8491F901E550F94FD491F901EF5BD3
:1010A000F84FC491CC23A1F0162F81115BDFEC2FF8
:1010B000F0E0EE0FFF1FE05EF94FA591B4918FB7FE
:1010C000F894EC91111108C0D095DE23DC938FBF0A
:1010D000DF91CF911F910895DE2BF8CFCF93DF934F
:1010E00090E0FC01E550F94F24918F5B984FFC0193
:1010F00084918823D1F090E0880F991FFC01EF5173
:10110000F94FA591B491FC01E05EF94FC591D491DE
:10111000623071F49FB7F8943C91822F80958323BD
:101120008C93E8812E2B28839FBFDF91CF91089568
:101130008FB7F894EC912E2B2C938FBFF6CF3FB73F
:10114000F8948091090790910A07A0910B07B0913C
:101150000C0726B5A89B05C02F3F19F00196A11DCD
:10116000B11D3FBFBA2FA92F982F8827BC01CD01F1
:10117000620F711D811D911D42E0660F771F881F50
:10118000991F4A95D1F708958F929F92AF92BF927F
:10119000CF92DF92EF92FF926B017C01D0DF4B0187
:1011A0005C01C114D104E104F104B1F0C8DF681995
:1011B00079098A099B09683E73408105910588F386
:1011C00021E0C21AD108E108F10888EE880E83E018
:1011D000981EA11CB11CE5CFFF90EF90DF90CF903F
:1011E000BF90AF909F908F9008952FB7F894609123
:1011F00005077091060780910707909108072FBF98
:1012000008950895CF93DF93EC01E981FA819081ED
:1012100081819CBD8DBDE981FA8160E0828131DFF1
:1012200081E08B83DF91CF9108958EBD0DB407FED1
:10123000FDCF08958FEF8EBD0DB407FEFDCF8EB5A7
:1012400008950F931F93CF93DF93EC01CEDF8B01B3
:10125000F1DF8F3F61F0C9DF601B710BC617D70745
:10126000B8F780E0DF91CF911F910F91089581E051
:10127000F9CFCF93DF93FC012381222351F0EC01BE
:101280000180F281E02D61E08281FBDE8FEFCDDF16
:101290001B82DF91CF910895EF92FF920F931F93DE
:1012A000CF93DF93EC017B01A0DF8B01C3DF8C8345
:1012B0008F3F91F49ADF601B710B693E7340B0F36E
:1012C00085E58883CE01D5DF80E0DF91CF911F9146
:1012D0000F91FF90EF9008958E3F11F080E5F1CFD0
:1012E0008FEF8EBDF701D701A150BE4F9FEF0DB418
:1012F00007FEFDCF8EB59EBD8193AE17BF07B9F730
:101300000DB407FEFDCF8EB58C931C8293DF92DF68
:1013100081E0DBCF0F931F93CF93DF938C01862F58
:10132000EA0183DF88818EBD8981FE013296DE5F0E
:101330000DB407FEFDCF8EBDEC17FD0711F08191B6
:10134000F7CF0DB407FEFDCF8FEF6FDF8FEF6DDFAF
:1013500071DFF80184838F71853051F087E58083D8
:10136000C80187DF80E0DF91CF911F910F91089531
:1013700081E0F9CFDF92EF92FF920F931F93CF930B
:10138000DF938C01C62FD22FF32EE42ED52EFC0135
:101390008381811102C0C80135DFCC2319F08CE2B2
:1013A00091E04FDF8C2F806440DF8D2D3EDF8E2D4E
:1013B0003CDF8F2D3ADF8D2F38DF87E8C11101C068
:1013C00085E933DF37DFCBE035DFF801848387FF42
:1013D00002C0C150C9F7DF91CF911F910F91FF90CB
:1013E000EF90DF9008950F931F93CF93DF93EC015D
:1013F00089018D81833039F089E0440F551F661FC4
:10140000771F8A95D1F79A01AB0168E1CE01B2DF6F
:10141000882331F082E38883CE012BDF10E01CC0EB
:10142000A8016EEFCE0176DF8823B1F380ED97E05F
:1014300008DF182F8AE5112371F320E030E0A901BD
:101440006DE0CE0197DF882311F089E2E4CFF2DE70
:101450008111FBCFCE010DDF812FDF91CF911F9145
:101460000F9108950F931F93CF93DF93EC018901A0
:101470008D81833039F089E0440F551F661F771F37
:101480008A95D1F79A01AB0161E1CE0173DF882320
:1014900031F080E38883CE01ECDE10E008C0B801B3
:1014A000CE01FADE182F8823B1F3CE01E2DE812FC0
:1014B000DF91CF911F910F910895EF92FF921F93AB
:1014C000CF93DF93FC01208111E020FF13C0EC01DA
:1014D0007C01F7E0EF0EF11C4B815C816D817E8118
:1014E000E981FA819701808191817DDF182F811137
:1014F00008C010E0812FDF91CF911F91FF90EF90F6
:101500000895888181FD04C088818E7F8883F2CF11
:10151000E981FA814B815C816D817E81848595852D
:10152000A685B785480F591F6A1F7B1F97018081C9
:10153000918159DF8111E8CFDCCFCF92DF92EF921A
:10154000FF921F93CF93DF93EC016A017B01122F6F
:101550008B819C81AD81BE818C159D05AE05BF053B
:10156000A9F0CE01AADF81110AC090E080E0DF91EE
:10157000CF911F91FF90EF90DF90CF90089512FFD1
:101580000CC01882CB82DC82ED82FE8213708881CF
:10159000182B1883CE010796EACFE981FA819E01C4
:1015A000295F3F4FB701A601808191815BDF8111E7
:1015B000E8CFDBCF8F929F92AF92BF92CF92DF9214
:1015C000EF92FF920F931F9310920B1841E050E09F
:1015D00060E070E040930E1850930F18609310185D
:1015E0007093111826E038E13093281820932718BB
:1015F000109226184FEF5FEFBA01409329185093CD
:101600002A1860932B1870932C18882309F44EC065
:1016100020E040E050E0BA0186E298E18EDF0097DA
:1016200061F480E01F910F91FF90EF90DF90CF90D9
:10163000BF90AF909F908F900895FC01E254FE4FB1
:1016400020812F7771F78A539E4FFC01C080D18093
:10165000E280F380C114D104E104F10411F320E02D
:10166000B701A60186E298E168DFFC01892BC9F287
:101670008385948581159240A1F68089823089F610
:1016800086859785892B69F22585209308188FEF29
:10169000820F8093091880E091E0291769F08F5F2D
:1016A000893041F488E080930A18BBCFC12CD12C3B
:1016B0007601D5CF990FF1CF80930A1846895789C3
:1016C00070E060E04115510521F444A155A166A1E7
:1016D00077A14093121850931318609314187093C5
:1016E00015182685378546015701820E931EA11CC9
:1016F000B11C80921A1890921B18A0921C18B092DC
:101700001D182189328930930D1820930C18440F2D
:10171000551F661F771F480D591D6A1D7B1D40937D
:101720002218509323186093241870932518218948
:101730003289A5E0220F331FAA95E1F721503E4FD1
:10174000232F33272695420F531F611D711D409390
:101750001618509317186093181870931918038966
:10176000148930E020E00115110521F400A111A138
:1017700022A133A1C41AD50AE60AF70AC00ED11E67
:10178000E21EF31E04C0F694E794D794C7948A959A
:10179000D2F7D701C6010196A11DB11D80931E1875
:1017A00090931F18A0932018B093211885EFC816A6
:1017B0008FE0D806E104F10420F48CE080930B184C
:1017C00030CF80E125EFC2162FEFD206E104F104FD
:1017D00068F084A595A5A6A5B7A580932218909337
:1017E0002318A0932418B093251880E280930B1837
:1017F00081E018CF0F931F93CF93DF93EC014091BB
:10180000FA175091FB176091FC177091FD178091AA
:10181000EC179091ED1720E080968FDE009709F489
:1018200044C0A091EA17B091EB17AF70BB2725E039
:10183000AA0FBB1F2A95E1F7A80FB91F1097A9F1AE
:10184000AD0138E070E080E06EE2FA019191AF0105
:101850009032F1F0883039F49E01270F311DF901E3
:1018600060837F5F30E18A0101501109F8019081A6
:101870002FEB290F2A3130F41C962C911C9723232F
:1018800009F0905E8E01070F111DF80190837F5FB4
:101890008F5F8B30D1F6FE01E70FF11D108281E0E2
:1018A000DF91CF911F910F91089580E0F9CF8F9232
:1018B0009F92AF92BF92CF92DF92EF92FF920F93DF
:1018C0001F93423051056105710560F480E01F915E
:1018D0000F91FF90EF90DF90CF90BF90AF909F90CF
:1018E0008F900895FC01C08CD18CE28CF38CC416CF
:1018F000D506E606F70650F3480159016A017B0157
:101900008581803239F584899589A689B78917E060
:1019100076956795579547951A95D1F7480F591FB2
:101920006A1F7B1F23E0CF01809607DE009771F2CC
:10193000E894C7F8DD24EE24FF24CC0CDD1CCC0C8D
:10194000DD1C8C0D9D1DFC0180829182A282B382E0
:1019500081E0BDCF803109F0B9CF448955896689CE
:1019600077894D0D511D611D711D23E0CF018096BA
:10197000E4DD009709F4AACFDD24EE24FF24CC0C8B
:10198000DD1CC80ED91EF60111830083E1CFCF9272
:10199000DF92EF92FF920F931F93CF93DF9342302A
:1019A00051056105710550F48FEFDF91CF911F91C3
:1019B0000F91FF90EF90DF90CF900895FC01C08CC5
:1019C000D18CE28CF38CC416D506E606F70660F3DC
:1019D00089016A017B01EC0185818032B1F584893E
:1019E0009589A689B789E7E07695679557954795D4
:1019F000EA95D1F7480F591F6A1F7B1F22E0CE01DD
:101A000080969BDD009781F2E894C7F8DD24EE24F0
:101A1000FF24CC0CDD1CCC0CDD1C8C0D9D1DFC01B1
:101A200080819181A281B381BF70488D598D6A8D6B
:101A30007B8D481759076A077B0730F1F8018083CF
:101A40009183A283B38381E0B0CF803109F0ACCF22
:101A500044895589668977894D0D511D611D711D18
:101A600022E0CF01809669DD009709F49DCFDD2447
:101A7000EE24FF24CC0CDD1CC80ED91EF60180819B
:101A80009181B0E0A0E0D1CF80E08FCFFC019C013C
:101A9000255F3F4F80E080FB879587F99191890F03
:101AA0002E173F07C1F70895CF93DF93FC012081E4
:101AB000211104C081E0DF91CF910895EC01828172
:101AC00082FF38C0448955896689778986819781E4
:101AD00021E0809632DD009729F489818160898335
:101AE00080E0E9CFEC81FD81EF70FF2725E0EE0F6C
:101AF000FF1F2A95E1F7E80FF91F309771F38081F6
:101B0000853E59F3888183FF08C0888D998DAA8D01
:101B1000BB8D848F958FA68FB78F8C8D9D8D938F66
:101B2000828F8C8D9D8DAE8DBF8DB58BA48B8A8160
:101B30008B7F8A838E819F818096BFDC882369F2A8
:101B4000B9CF4F925F926F927F928F929F92AF9296
:101B5000BF92CF92DF92EF92FF920F931F93CF939A
:101B6000DF93EC014A015B014C845D846E847F84C9
:101B7000A881AA2309F485C0488959896A897B8983
:101B8000481559056A057B0569F081149104A10483
:101B9000B10451F41C861D861E861F86888A998A88
:101BA000AA8ABB8A81E072C0A3FF58C0088D198D34
:101BB0002A8D3B8D081519052A053B0508F461C0DF
:101BC000EE81FF81848190E009968A019B0101509A
:101BD000110921093109082E04C03695279517955A
:101BE00007950A94D2F775016401B1E0CB1AD108C8
:101BF000E108F10804C0F694E794D794C7948A9555
:101C0000D2F7C016D106E206F30628F0452B462B84
:101C1000472B09F051C0A6FF4AC0848D958DA68D33
:101C2000B78D8C879D87AE87BF878E01045F1F4F5E
:101C3000C114D104E104F10409F4B0CF4C855D85F1
:101C40006E857F8598018E819F81A1DE91E0C91A02
:101C5000D108E108F10818165CF313C0A5FFB0CF56
:101C6000EE81FF818681978125E0880F991F2A9553
:101C7000E1F7B0E0A0E088159905AA05BB0508F0DA
:101C80008DCF4C865D866E867F8680E0DF91CF911A
:101C90001F910F91FF90EF90DF90CF90BF90AF908A
:101CA0009F908F907F906F905F904F9008958C8D54
:101CB0009D8DAE8DBF8DB5CFC01AD10AE20AF30A51
:101CC000B4CFCF93DF93EC01EFDE1882DF91CF9199
:101CD00008953F924F925F926F927F928F929F9260
:101CE000AF92BF92CF92DF92EF92FF920F931F932A
:101CF000CF93DF9300D01F92CDB7DEB74C01FC012C
:101D0000828184608283A680B780448455846684FF
:101D10007784F501C084D184E284F384C414D504AB
:101D2000E604F70410F011E003C07301620110E053
:101D3000FFEFCF1ADF0AEF0AFF0AF501808D918DC0
:101D4000A28DB38D8C159D05AE05BF0538F411111C
:101D50002FC0C084D184E284F384E5CF4C145D04A9
:101D60006E047F0429F19E012F5F3F4FB701A6014A
:101D7000C5010DDE87FD1CC08823D1F289819A81BF
:101D8000AB81BC81892B8A2B8B2B91F6112329F0F7
:101D9000F501C086D186E286F3860FEF1FEF2FEFA5
:101DA0003FE0B701A601C50182DD382E811118C0C0
:101DB000312C832D0F900F900F900F90DF91CF91CA
:101DC0001F910F91FF90EF90DF90CF90BF90AF9059
:101DD0009F908F907F906F905F904F903F9008956D
:101DE000411451046104710431F4F401C486D586B0
:101DF000E686F786DECF97018601B301A201C50111
:101E000056DD8111F2CFD4CF462F4450550B96E0CA
:101E1000949FF001959FF00D1124E451F94F605803
:101E20006083118224E0228391E0938384832827B6
:101E30009227958308954F925F926F927F929F921F
:101E4000AF92BF92CF92DF92EF92FF920F931F93C8
:101E5000CF93DF93CAD96B017C0140901207509059
:101E60001307609014077090150789E1E2D8982E47
:101E700087E1DFD8A82E88E1DCD8B82E8AE1D9D84E
:101E8000082F86E1D6D8182F8AE2D3D8D82F911000
:101E900041C062E370E080E090E076D989E1C9D882
:101EA000892B09F008C180916303811104C181E08D
:101EB00080936303C12CD12C760189E1BAD8892B98
:101EC00051F480EAC81686E8D80681E0E806F104F5
:101ED000D9F48BE509C081E090EAC91696E8D906E5
:101EE00091E0E906F104A9F3DF91CF911F910F91E1
:101EF000FF90EF90DF90CF90BF90AF909F907F903A
:101F00006F905F904F9008958FEFC81AD80AE80A33
:101F1000F80AD3CFC418D508E608F708CA2DA110CF
:101F20001BC062E370E080E090E02ED987E181D8A9
:101F3000892B81F494EBC916D104E104F10450F02B
:101F400054D96093120770931307809314079093EA
:101F50001507C2E08C2FC8CFB1102EC062E370E02D
:101F600080E090E011D988E164D8892BA1F080E06D
:101F700091E09912B9CFA912B7CFB912B5CF0130FC
:101F800009F0B2CF113009F0AFCFD13009F0ACCFAA
:101F900010926303A9CF84EBC816D104E104F104C5
:101FA00030F323D9609312077093130780931407BB
:101FB0009093150783E0DCCF011131C062E370E03C
:101FC00080E090E0E1D88AE134D8892B81F68091D5
:101FD00063038111CCCF81E080936303C12CD12CAA
:101FE00076018AE126D8892B51F490EAC91696E841
:101FF000D90691E0E906F10461F48EE5B9CF80EAF3
:10200000C81686E8D80681E0E806F104B1F384E05A
:10201000AFCF9FEFC91AD90AE90AF90AE2CF111125
:1020200034C062E370E080E090E0AED886E101D891
:10203000892B09F09CCF80916303811198CF81E0B7
:1020400080936303C12CD12C760186E10E9419088C
:10205000892B51F480EAC81686E8D80681E0E806A4
:10206000F10469F48FE584CF85E090EAC91696E81B
:10207000D90691E0E906F10409F07ACFF3CF8FEFAA
:10208000C81AD80AE80AF80AE0CF811170CF62E3D3
:1020900070E080E090E078D88AE20E941908892BED
:1020A00009F065CF80916303811161CF81E0809356
:1020B000630386E05DCF80E017CF90E024E034E05A
:1020C000829FB001839F700D929F700D112423E0B9
:1020D00030E040E00497F901E60FF71FE55FF840B4
:1020E000508145272F5F3F4F233054E0350799F744
:1020F00024E034E0829FF001839FF00D929FF00D69
:102100001124E25EF44F40830895DC0114964D9152
:102110005C91159730E020E090E080E024173507CF
:1021200099F0ED91FC911197309759F41092620358
:10213000E2E6F3E060816F3209F401962F5F3F4FD2
:10214000EDCFE20FF31FF6CF2130310511F490E00F
:1021500080E0089589B190E080E04A99FBCF85380E
:1021600023E0920711F489B108950196F6CF049601
:102170009BCC90E080E00895CF93DF93EC0160E08A
:102180008E810E94410861E08E810E94410860E0DA
:102190008E810E9441088BE891E00197F1F7DF9171
:1021A000CF910895CF92DF92EF92FF920F931F93FA
:1021B000CF93DF936C017C0187E0E80EF11CD0E047
:1021C000C0E0062F10E0B8010C2E02C0759567958F
:1021D0000A94E2F76170F70181917F010E94410842
:1021E0002196C430D10579F7C601DF91CF911F91B7
:1021F0000F91FF90EF90DF90CF90BECFCF92DF9204
:10220000EF92FF920F931F93CF93DF93EC01F62E83
:10221000642F8C810E9441088D818F3F19F060E00E
:102220000E9441080F2D10E08F8584FF24C06E01AD
:1022300087E0C80ED11CF12CE12CB8010E2C02C095
:10224000759567950A94E2F76170F60181916F01C7
:102250000E944108FFEFEF1AFF0A88E0E816F10438
:1022600061F7CE01DF91CF911F910F91FF90EF9019
:10227000DF90CF9081CFB80184E0759567958A95FE
:10228000E1F7CE018FDF6F2DCE01DF91CF911F914E
:102290000F91FF90EF90DF90CF9084CF40E0682FB8
:1022A0008CE59AE1ABCF81E0F9DF8BE39FE1019709
:1022B000F1F70895CF93DF93823029F490916B1A50
:1022C000986090936B1A80936F1A1092701A80E442
:1022D0008093711A80E18093721A80E58093731A5B
:1022E00061E08091601A0E946E088091611A8F3FB0
:1022F00019F061E00E946E0861E08091621A0E940C
:102300006E08CCE5DAE19E012C553A4180916B1ABA
:1023100084FD0BC084E090E021962817390744F42F
:1023200061E08E810E946E08EECF88E090E0F4CFED
:102330008BE39DE00197F1F760E08091601A0E94C5
:10234000410860E08091621A0E9441088091611A00
:102350008F3F19F060E00E94410880916B1A84FD64
:102360002CC063E08CE59AE11DDFCBE4D6E4CE011E
:102370000197F1F763E08CE59AE114DF2197F1F71B
:1023800063E08CE59AE10EDF83E592E00197F1F7D7
:1023900062E08CE59AE106DF80916B1A80627EDF55
:1023A00084E080936C1A8CE079DF7DDF82E080939B
:1023B0006D1A86E0DF91CF9171CF80626FDF8BE481
:1023C00096E40197F1F780916B1A806267DF83E5ED
:1023D00092E00197F1F780916B1A80625FDFDCCFAA
:1023E00090916F1A891710F08FEF890FE82FF0E0A6
:1023F000E45AF54E8489806851CF41E0FFDE81E0E8
:1024000090E008958F929F92AF92BF92DF92EF92E9
:10241000FF920F931F93CF93DF93EC017B012881F1
:10242000222309F4B9C08A8180FFB6C088889988C0
:10243000AA88BB8823FF21C0888D998DAA8DBB8D6A
:1024400088199909AA09BB0982309105A105B1052E
:1024500018F5009709F530E020E0A901481B590B59
:10246000CA01DF91CF911F910F91FF90EF90DF9004
:10247000BF90AF909F908F90089525FF0DC0EE8183
:10248000FF818681978135E0880F991F3A95E1F7A2
:102490008815990509F486C084011170EE81FF81C9
:1024A000B501A40189E076956795579547958A957A
:1024B000D1F725FF26C0848D958DA68DB78D480F49
:1024C000591F6A1F7B1F8E819F8120E0809635D81F
:1024D000009709F461C0800F911FFC018081F70112
:1024E000808388899989AA89BB890196A11DB11D1C
:1024F000888B998BAA8BBB8B21E030E090E080E049
:10250000ACCFD380D4220115110581F4D1100EC0B7
:1025100089288A288B2881F526FF29C0848D958DEE
:10252000A68DB78D8C879D87AE87BF87EE81FF8193
:102530004C855D856E857F85425051096109710921
:10254000848104C0440F551F661F771F8A95D2F7F8
:1025500080899189A289B389840F951FA61FB71F0F
:10256000AC01BD014D0D511D611D711DACCF8C8D98
:102570009D8DAE8DBF8DD6CF4C855D856E857F855B
:102580009E01245F3F4FCF0102DA87FD05C0811114
:10259000CDCF8881807749F48981826089838FEFEC
:1025A0009FEF5FCF30E020E0A9CF21E030E081E075
:1025B00090E053CFCF93DF931F92CDB7DEB7BE012C
:1025C0006F5F7F4F86EE97E11DDF019731F48981C0
:1025D00090E00F90DF91CF9108958FEF9FEFF9CFAB
:1025E000EF92FF920F931F93CF93DF931F92CDB77C
:1025F000DEB77C01962FF701408951896289738982
:102600008A019B0185E036952795179507958A9550
:10261000D1F70F7011F0911128C0BE016F5F7F4F8D
:10262000C701F0DE813051F090E080E00F90DF9143
:10263000CF911F910F91FF90EF900895F70180893E
:102640009189A289B3894F96A11DB11D808B918B71
:10265000A28BB38BF701868197818796F0E20F9F5B
:1026600090011124820F931FE1CF405E5F4F6F4FA7
:102670007F4F408B518B628B738BECCF2F923F92AD
:102680004F925F926F927F928F929F92AF92BF9282
:10269000CF92DF92EF92FF920F931F93CF93DF932E
:1026A00000D000D000D01F92CDB7DEB79E838D83BF
:1026B0003B015A834983DC018C9183FFE8C0129669
:1026C0008C9181FFE4C083FDD6C0E981FA81AF011E
:1026D00070E060E0ED81FE8180899189A289B389F3
:1026E00080959095A095B09584179507A607B70794
:1026F00008F4CDC0C980DA8022242A94322C21012A
:102700003C96FC83EB83ED81FE814089518962898F
:102710007389C114D10409F478C1868197818A0133
:102720009B0169E036952795179507956A95D1F72E
:10273000DC011396EC910E237A01B1E0FB2201112A
:102740001DC0ED81FE814485558566857785E11440
:10275000F10409F092C1411551056105710509F4B3
:10276000A1C02B813C8113D987FD91C0811106C086
:102770008D819E81AEDA882309F489C0AD81BE8146
:102780001696ED91FC9117971C964D915D916D9168
:102790007C911F974250510961097109848104C0DD
:1027A000440F551F661F771F8A95D2F7808991893C
:1027B000A289B389840F951FA61FB71FAC01BD0165
:1027C000400F511D611D711DE114F10429F4C11464
:1027D000B2E0DB0608F086C080E092E08E199F0927
:1027E00086018C159D0508F48C01E114F104A1F417
:1027F000AD81BE8150968D909D90AD90BC905397C9
:1028000058968D919D910D90BC91A02D25E0881634
:102810009906AA06BB0608F421E0CF0180960E9423
:102820009D0A0097A1F1A801B3018E0D9F1D0E9482
:10283000974FE00EF11EE114B2E0FB0649F4ED8182
:10284000FE818681978180960E945D0A8823F9F037
:10285000ED81FE8180899189A289B389800F911FC2
:10286000A11DB11D808B918BA28BB38B600E711E4D
:10287000C01AD10A48CFAD81BE8158964D915D9165
:102880006D917C915B97CD015CD981111ECFAD819B
:10289000BE8111968C911197816011968C938FEF68
:1028A0009FEFCCC0ED81FE81848D958DA68DB78D77
:1028B0000097A105B10579F4CF010BDA882339F32C
:1028C000ED81FE8184859585A685B785848F958F5A
:1028D000A68FB78F53CFED81FE8184879587A6871A
:1028E000B7874CCF83A194A1A5A1B6A1C11424E0C0
:1028F000D20608F470C09601232F332726958280D4
:10290000801A912C2815390508F4490148175907F0
:102910006A077B0770F0880D991DA11DB11D48172E
:1029200059076A077B0728F410A223A234A245A204
:1029300056A2AD81BE811696ED91FC91E080F180AA
:10294000F7018581833039F099E0440F551F661FE8
:10295000771F9A95D1F79A01AB0169E1C7010E94EF
:10296000BA09882351F083E3D7018C93C7010E94F1
:102970003909C7010E9439098ACF530110E000E0EC
:1029800080ED97E008151905A1F00E942109811139
:1029900004C08BE5F7018083E9CFA5016CEFC70187
:1029A0000E948A09882311F30F5F1F4FFEEFBF1AA1
:1029B000E7CF0E942109882351F0102F0027110F23
:1029C0008DEF0E941509C7010E94390941CF86E5A4
:1029D000D7018C93CECF481759076A077B0729F494
:1029E00010A223A234A245A256A2AD81BE811696A2
:1029F000ED91FC919301808191810E94F3098823DC
:102A000009F445CF00E012E023CFED81FE81808DF7
:102A1000918DA28DB38D84179507A607B70738F45B
:102A20008281408F518F628F738F84608283ED81AA
:102A3000FE81828187FD1BC089819A812A960FB60B
:102A4000F894DEBF0FBECDBFDF91CF911F910F91E4
:102A5000FF90EF90DF90CF90BF90AF909F908F90BE
:102A60007F906F905F904F903F902F9008958D8151
:102A70009E811AD88111E0CF0ACFFC014250510942
:102A800061097109848104C0440F551F661F771FB7
:102A90008A95D2F780899189A289B389480F591FF5
:102AA0006A1F7B1F99CE0496E9CDCF93DF931F92C7
:102AB000CDB7DEB7698341E050E0BE016F5F7F4F65
:102AC0000496DCDD0F90DF91CF910895FC018081A9
:102AD00081110FC080E2DF01982F1D929A95E9F7CE
:102AE00077836683DB0115969C91903129F09032B3
:102AF00011F080E0089580E4808381E0828308956E
:102B00002F923F924F925F926F927F928F929F92FD
:102B1000AF92BF92CF92DF92EF92FF920F931F93EB
:102B2000CF93DF93CDB7DEB7A0970FB6F894DEBF93
:102B30000FBECDBF8C016B0119821A828091E617FE
:102B4000882309F4CEC06D30710508F4CAC0909195
:102B5000E917911128C0807609F18FE2D8018C9392
:102B600011961C9299249394892DA0960FB6F894EF
:102B7000DEBF0FBECDBFDF91CF911F910F91FF90B0
:102B8000EF90DF90CF90BF90AF909F908F907F900D
:102B90006F905F904F903F902F900895C8010E94D2
:102BA000FA0B982EE1CF8091EE179091EF17A0913C
:102BB000F017B091F1176091EC177091ED17FE01CD
:102BC00031965F010097A105B10509F071C0CF01F1
:102BD0007DDF882309F485C066246394712CF12C71
:102BE000E12C28014C0C5D1CF1E04F1A510880913A
:102BF000E917861508F475C04091EA175091EB1754
:102C00004619570970E060E085E0440F551F661FC4
:102C1000771F8A95D1F7C5010E94A10D982E8823B0
:102C200009F45FC060E0C501DBDCFC01892B09F41D
:102C300058C083858F3009F054C080818F7168122D
:102C400050C0A8014E0D5F1D1F01970160E0D1012A
:102C50006530E8F511968D919C91009799F02C15AF
:102C60003D05D0F48F37910510F08FE390E02F5F92
:102C70003F4FDA018D93AD016F5FB2E02B0E311C37
:102C80006D3029F72C153D0538F4808186FF04C08E
:102C9000200F311FD9011C92D2011C92BDE0EB0E16
:102CA000F11C2FEF621A720A808186FFA0CF5CCFE1
:102CB0002CE111922A95E9F720E1298321E02B8369
:102CC00078876F838D8F9E8FAF8FB8A385CF6B3042
:102CD00020F414968D919C91C0CF16968D919C9165
:102CE000BCCFD8011C92912C3FCFCF92DF92EF92B4
:102CF000FF920F931F93CF93DF93FC0180E2DF01DC
:102D00001D928A95E9F7EB01AE81BF81B783A68357
:102D100055834483CC8CDD8CEE8CFF8CC086D186B1
:102D2000E286F3864F705527ED01A79695E0440F94
:102D3000551F9A95E1F7BE01640F751FEB018B8556
:102D400083FD52C0CD01840F951FEC018AA98771C4
:102D50008083EB019B85987111F4886080830383E5
:102D600081E0213009F482E08283828181FF03C007
:102D700080818171C9F593960D911D912D913C91A2
:102D80009697048B158B268B378BA40FB51FDB967C
:102D90004D915C91DC9770E060E0BA0155274427C3
:102DA000ED01CF5BDF4F0881198130E020E0402B3F
:102DB000512B622B732B448F558F668F778FAD5BB2
:102DC000BF4F8D919D910D90BC91A02D808F918FC3
:102DD000A28FB38F81E0DF91CF911F910F91FF9070
:102DE000EF90DF90CF900895108280E0F4CF2F9283
:102DF0003F924F925F926F927F928F929F92AF928B
:102E0000BF92CF92DF92EF92FF920F931F93CF93D7
:102E1000DF9300D0CDB7DEB76C017B836A83FA0104
:102E2000DB018C918077B9F480E00F900F900F90C8
:102E3000DF91CF911F910F91FF90EF90DF90CF9096
:102E4000BF90AF909F908F907F906F905F904F90CA
:102E50003F902F900895D6018C918111E5CFA180EC
:102E6000B2808081837011E041F0C5010C966DE065
:102E700070E00E94774E11E0160F7F0140E050E0B5
:102E8000BA018A819B810E94A10D1982212C312CCB
:102E900000E04701B6E08B0E911CEA81FB8140887F
:102EA00051886288738861E0CF019ADB009709F44A
:102EB000BBCFDC012C91253E09F491C0222309F4FB
:102EC00099C0311668F12E3209F492C0FC013385A5
:102ED0003F3009F05CC0011125C026FFDECF022F74
:102EE0000F71F585F983202EE22DE150FF0BAF0124
:102EF000FDE0F49F9001F59F300D11242A153B054C
:102F000008F076C0FC01712C64E0671598F08181AF
:102F10009281A216B306B9F4892B09F069C0BDCF1E
:102F2000312CD1CF2A94221163C02585B9812B176A
:102F3000D9F25EC08AE0871518F084819581E9CFC7
:102F400086819781E6CF8F3F910511F008F050C040
:102F50004FEB480F4A3108F4805EB9016F5F7F4F35
:102F6000D70113964D915C91240F351FD9019C9187
:102F70002FEB290F2A3108F4905E981339C073940F
:102F80003296BDE07B1609F488CF9B01BDCF33FD9F
:102F90002FC00023B9F0E1E02E1246CF0E94460D6B
:102FA000F981F81341CFB301A20185E076956795C9
:102FB000579547958A95D1F720E06A817B81C601B4
:102FC00094DE33CF4BE050E0B4010E948A4F892B4E
:102FD00009F063CFD7018C9180FD5FCFE4CF31162C
:102FE00038F43394222309F41FCF253E09F06BCF28
:102FF00000E053CF3116A8F317CF2F923F924F9294
:103000005F926F927F928F929F92AF92BF92CF9278
:10301000DF92EF92FF920F931F93CF93DF93CDB781
:10302000DEB7E7970FB6F894DEBF0FBECDBF7C01C9
:103030008A0119821A82DC018C918823D1F080E008
:10304000E7960FB6F894DEBF0FBECDBFDF91CF91EC
:103050001F910F91FF90EF90DF90CF90BF90AF90B6
:103060009F908F907F906F905F904F903F902F90A8
:103070000895FB018081807711F3DA018C91FA01C8
:103080008F3209F4A2C0FE01F296FFABEEABF8015D
:103090009F012F5F3F4F8081803209F4ACC0FDA3B8
:1030A000ECA39F01A9014E1B5F0B8901D9018D91F2
:1030B0009D01882371F08F3209F09FC0CF01840FEA
:1030C000951F8C01DC012D91CD012032D1F32F32DF
:1030D000C1F3DA01AE0FBF1FAD014E1B5F0BEA1744
:1030E000FB0709F4A4C08E918E32B1F38032A1F3B4
:1030F0004F3F510511F00CF0A2CF5BA34AA3DE01B4
:1031000097966D0180E28D93AEA8BFA8AA16BB0664
:10311000D1F7DF01CD018E1B9F0B2D912E32D1F304
:103120002032C1F377247394009709F0712C9A012F
:10313000215031095F01A40EB51E2F3F320709F05F
:1031400079C08EA0512CB7E0BAAB312C612CA8E02D
:103150004A2E841795070CF0ACC0DF01A80FB91FE9
:10316000AC90ADAAAA2DA03209F4A1C0AE3221F4D0
:103170008217930709F09BC09DA8B92DB232A9F020
:10318000BC3799F0BA52B63018F4A92DAD3269F4B3
:10319000BDA9BA53B63048F0BDA9BB55B33028F02D
:1031A000BDA9B152BE3508F44FC08217930709F08C
:1031B000BDC08AA98A3009F4C4C0C901BAE0BAAB5B
:1031C000A8E03A2EB0E14B2E5EC08F0181918F3284
:1031D000E1F3DB0116966D917C91811103C0C7016B
:1031E00075DC2ECFCE01019671DCBE016F5F7F4F83
:1031F000811149CF24CFF9014BCF8C3509F41FCF72
:10320000982F977F923209F41ACF8A3309F417CF97
:10321000982F9F7B9C3309F412CF92EC980F923039
:1032200008F40DCF80528F3508F43CCF08CF50E022
:1032300040E063CFD5019E905D01BEE29B1609F48C
:1032400080CF2150310979CF8217930709F4B1CF8C
:10325000BAA9B31508F46EC0BDA9B156BA31D0F4FD
:10326000ADA9A052ADAB542822242394230C5601BF
:10327000A30CB11CD501ADA8AC92A6E0BA2E322C9D
:10328000B21408F0822C019664CF712CBFE5BDAB5F
:10329000BFE59B2EBFEBB90DBA3130F76428E4CF00
:1032A000C901AAE0AAABA8E03A2EB0E14B2E712CDE
:1032B000EACF8EA28FA1803209F4C1CE772009F126
:1032C000852D862111F082E0582E59A2F8018081C7
:1032D000AE014F5D5F4F882331F1C70188DD882340
:1032E00009F4ADCE80E2F701DE01119601900D9256
:1032F0008A95E1F7C7010E94610EBE016F5F7F4FA3
:10330000C6CE81E089A3912CF601E80DF91D8EE768
:103310008083E8E2F0E0EC0FFD1F8E0E9F1E81E33C
:10332000D4018C93D3CFC70162DD8ACEAAA9A3159D
:1033300008F0ABCFBAA9BA3021F0281739070CF042
:10334000AFCF8EA2712CB6CFCF93DF93CDB7DEB7C0
:10335000A0970FB6F894DEBF0FBECDBF19821A82B8
:10336000FC0120812F3221F52181211121C08DE224
:103370009AE10E94610E66E078E18DE29AE1A6DBB7
:1033800081110AC080E0A0960FB6F894DEBF0FBE90
:10339000CDBFDF91CF91089580912D1A807791F361
:1033A0008DE29AE1909344178093431781E0EBCF2D
:1033B000AC016DE27AE1CE0101961FDE882311F3A4
:1033C00099819077F9F290E2FE013196ADE2BAE18F
:1033D00001900D929A95E1F790912D1A907701F74F
:1033E000D2CFFF920F931F93CF93DF93EC01809185
:1033F000E617882339F080E0DF91CF911F910F917C
:10340000FF90089590912D1A9077A9F3F62E2097AA
:1034100009F445C0AE014150510970E060E085E01B
:10342000440F551F661F771F8A95D1F78DE29AE1E9
:103430000E94A10D8823F9F260E08DE29AE1D0D8D4
:10344000FC01892BC1F283858F3081F580818F71DA
:10345000813061F515850C2FC531D10508F004E1E7
:1034600060E08DE29AE1BCD8009729F2FC0120814E
:10347000253E09F4C0CF222309F4BDCF2E3209F432
:10348000BACF002321F00E94460D8113B4CF2F2D17
:10349000AE016DE27AE186EE97E127DCADCF40E048
:1034A00050E0BA018DE29AE10E94A10D00E010E027
:1034B000D7CFCF92DF92EF92FF920F93CF9380916D
:1034C000E617811116C080912D1A807791F08091B6
:1034D0003D1A90913E1AA0913F1AB091401A8F71F7
:1034E0009927AA27BB2700E0C0E0892B8A2B8B2BCA
:1034F00019F080E02FC000E0C0903D1AD0903E1A35
:10350000E0903F1AF090401A60E08DE29AE168D8AE
:10351000009779F3FC012081222359F32E3259F3CD
:10352000253E49F3338533FD1CC0002321F00E9462
:10353000460D8C13DECFB701A60185E07695679521
:10354000579547958A95D1F720E06DE27AE186EEAE
:1035500097E1CBDBCF910F91FF90EF90DF90CF9071
:1035600008953F3041F626FFC7CF022F0F71C58562
:10357000C3CFAF92BF92CF92DF92EF92FF920F93A1
:103580001F93CF93DF932091781A3091791AFC0121
:1035900044815581E901C41BD50B4115510549F101
:1035A0002115310531F12417350718F1C217D3075A
:1035B00010F0E90121975C01C090741AD090751A3F
:1035C000C6010FEF1FEF7601EC0EFD1EE816F9069F
:1035D00090F0F501608171810E94BF4F009759F012
:1035E0009C012C193D09C217D30708F089010196E7
:1035F000EDCF0FEF1FEFC801DF91CF911F910F911A
:10360000FF90EF90DF90CF90BF90AF9008954091E2
:10361000781A5091791A8417950700F52091741A39
:103620003091751A415051095093791A4093781A84
:10363000481B590BBC016F5F7F4F620F731F820FD6
:10364000931F0E94B04FE091741AF091751A809107
:10365000781A9091791AE80FF91F108208950F9344
:103660001F93CF93DF934115510541F0FC01048175
:1036700015810115110539F4FB011082DF91CF91FD
:103680001F910F910895415051094017510708F4B7
:103690008A01EB01FC0160817181A801CE010E94C9
:1036A000B04FC00FD11F1882E9CF680F791F58980B
:1036B00025E42A95F1F7000000000000000000005A
:1036C0000000000028E030E041E0FC01508154237C
:1036D00009F440C0589AFAE4FA95F1F700C00000E6
:1036E00000000000000000000000000000000000DA
:1036F00000000000000000000000000000000000CA
:1037000000000000440F21503109F9F6589AE0E515
:10371000EA95F1F700000000000000000000000042
:103720000000000000000000000000000000000099
:103730000000000000000000000000000000000089
:10374000000000000000000001966817790709F0EA
:10375000AECF089558985AE45A95F1F700C000008A
:103760000000000000000000000000000000000059
:103770000000000000000000000000000000C2CFB8
:10378000680F791F4A9BFECF2AE22A95F1F700C005
:10379000000038E020E0422F50E055954795242F57
:1037A000E0E5EA95F1F700000000000000000000ED
:1037B000000000004A9B2068315069F7F5E4FA9553
:1037C000F1F70000FC012193CF016E177F07D1F6BE
:1037D0000895FB0101900020E9F73197AF01461BE6
:1037E000570BDC01ED91FC910280F381E02D1994DF
:1037F00062EB72E085E497E1ECCFCF93DF93BC01FD
:1038000085E497E10E945E06EC01F2DF8C0F9D1FBC
:10381000DF91CF9108950F931F938091BE05811181
:1038200032C00E94F50800911102109112022091FD
:10383000130230911402601B710B820B930B693CD5
:10384000710581059105D0F080913B17811116C05B
:103850000E94F50860931102709312028093130284
:103860009093140290E080E0499905C0019682315E
:1038700027E29207C9F781E080933B1782E08CBB77
:103880001F910F91089585E294E0B7DF87E094E0FF
:10389000B4DF81E0809300021092BE05EFCFCF939A
:1038A000DF93BC0185E497E10E945006EC01A0DFA4
:1038B0008C0F9D1FDF91CF9108958F929F92AF92B1
:1038C000BF92EF92FF920F931F93CF93DF93CDB7E9
:1038D000DEB7A1970FB6F894DEBF0FBECDBF7C0157
:1038E000FA01CB0119A2223008F42AE08E010F5D03
:1038F0001F4F822E912CB12CA12CBF01A501940148
:103900000E94014DF901CA016A3004F5605DD801D9
:103910006E938D01232B242B252B79F790E080E0EB
:10392000109719F0BD01C70154DFA1960FB6F894A6
:10393000DEBF0FBECDBFDF91CF911F910F91FF90E2
:10394000EF90BF90AF909F908F900895695CDFCF0C
:10395000CF92DF92EF92FF92CF93DF936C01990F9A
:10396000EE08FF086A307105E9F42AE0F7FE1BC093
:103970006DE285E497E10E941707EC014427552783
:10398000BA014C195D096E097F092AE085E497E1C7
:1039900094DF8C0F9D1FDF91CF91FF90EF90DF9010
:1039A000CF900895262FB701A60185E497E1DF9116
:1039B000CF91FF90EF90DF90CF907FCFCF93DF93A9
:1039C0006AE070E0C5DFEC0113DF8C0F9D1FDF9113
:1039D000CF91089572CFCF93DF939A01AB01BC01D1
:1039E00085E497E1F7DFEC0103DF8C0F9D1FDF918A
:1039F000CF9108959A01462F50E070E060E0EACF41
:103A0000CF93DF93AB01682F85E497E1F3DFEC01FF
:103A1000EFDE8C0F9D1FDF91CF9108950F931F93C1
:103A2000CF93DF938C01EB010E94CF4C8883C801B8
:103A300001960E94CF4C8983CE01DF91CF911F91D7
:103A40000F9108950F931F93CF93DF93CDB7DEB7F8
:103A50002D970FB6F894DEBF0FBECDBF1A861B861A
:103A60001C861D8680913C17811198C18091421758
:103A7000811194C110913B17111190C128E0812F41
:103A800090E095958795182F30E53A95F1F700006D
:103A900000000000000000004A9B1068215079F7E8
:103AA00085E48A95F1F70000812F8F70809341178C
:103AB00090911107843069F090911007853049F09A
:103AC00090910F07863029F0873009F075C29091E8
:103AD0000E07992309F470C280578C87812F90E0DC
:103AE000B4E095958795BA95E1F78D30910509F089
:103AF000F5C104E014E087E592E00197F1F700C01A
:103B0000000061E070E0CE010C96CFDD69E070E06E
:103B1000CE01019635DE898190E0A4E095958795E8
:103B2000AA95E1F7069709F0AEC187E592E0019703
:103B3000F1F700C0000061E070E0CE010C96B5DD49
:103B400061E070E0CE010A961BDE8F8190E0B0E06C
:103B5000A0E0B82FAA27992788274E8150E070E06F
:103B600060E0BA0155274427840F951FA61FB71F91
:103B70004D8150E070E060E0762F652F542F442790
:103B8000840F951FA61FB71F2C81820F911DA11DA9
:103B9000B11D80932B1790932C17A0932D17B093E2
:103BA0002E178F3E2EEB92072DEAA2072EEDB207BD
:103BB00011F41092000220910002213051F4AA2742
:103BC000BB2780932B1790932C17A0932D17B0939E
:103BD0002E178A8590E054E0959587955A95E1F7E0
:103BE0008430910509F020C1E0914117E450FF0BAA
:103BF000EE0FFF1FEE0FFF1FEF5FFD4F4081518162
:103C00006281738180912B1790912C17A0912D17B1
:103C1000B0912E17481759076A077B0709F000C1B2
:103C200087E592E00197F1F700C0000061E070E0E5
:103C3000CE010C963ADD61E070E0CE010B96A0DD7E
:103C40008B8590E034E0959587953A95E1F7039759
:103C500009F0B1C0209141172450330B209FC001BF
:103C6000219F900D309F900D112464E074E0855EDB
:103C7000984F1BDD61E070E0CE010D9681DD8D85F2
:103C800090E024E0959587952A95E1F7823091059B
:103C900009F56091411780912B1790912C17A091F5
:103CA0002D17B0912E170097A044B10588F0862FEC
:103CB0008450990BFC01EE0FFF1FEE0FFF1FEF5F0B
:103CC000FD4F8FEF9FEFDC0180839183A283B3834D
:103CD00080E401C10D97B9F469E971E085E497E1E9
:103CE0000E945E0640912B1750912C1760912D1762
:103CF00070912E172AE030E085E497E16BDE8FE8C3
:103D000091E07BDDF8CE68E771E085E497E10E9401
:103D10005E0640912B1750912C1760912D177091D2
:103D20002E172AE030E085E497E154DE6AE671E080
:103D300085E497E10E945E068091411790E060E182
:103D400070E0809605DE6CE571E085E497E10E9405
:103D50005E0660E170E08D8553DE10914117612FA2
:103D600081E40E94040F212F2450330BF901EE0F40
:103D7000FF1FEE0FFF1FEF5FFD4F8FEF9FEFDC0187
:103D800080839183A283B3830E94F50860933D17DB
:103D900070933E1780933F179093401784E08CBB3D
:103DA0002D960FB6F894DEBF0FBECDBFDF91CF9139
:103DB0001F910F91089565E471E085E497E10E94F9
:103DC0005E0640912B1750912C1760912D17709122
:103DD0002E172AE030E085E497E1FCDD67E371E02F
:103DE00085E497E10E945E068091411790E060E1D2
:103DF00070E0C096ADDD69E271E085E497E10E9474
:103E00005E0660E170E08B85FBDD10914117612F4C
:103E100081E40E94040F812F8450990BFC01A7CFED
:103E200081E080933C17B0CF0D9709F0ADCF87E5C7
:103E300092E00197F1F700C0000061E070E0CE0170
:103E40000C9633DC209141172450330B44E054E0AE
:103E5000249FC001259F900D349F900D112464E094
:103E600074E0855E984F8CDC87E592E00197F1F76E
:103E700000C0000061E070E0CE010C9616DC81E02D
:103E80008093421781CF67E271E085E497E10E9459
:103E90005E06809141176AE070E08350990B58DD0F
:103EA00063E171E085E497E10E945E06809141172D
:103EB00090E06AE070E0805A9F4F4ADD61E071E077
:103EC00085E497E10E945E0660E170E0898198DDFB
:103ED0006091411782E40E94040F56CF0197A1F52B
:103EE00087E592E00197F1F700C0000020914117AB
:103EF0002450330B46E0429FC001439F900D112494
:103F000066E070E08451994FD0DB61E070E0CE0153
:103F10000D9636DC10914117BE016F5F7F4F80E92F
:103F200091E09C01129FC001139F900D112476DD3A
:103F300089819A81612F892B09F0CACE8091391726
:103F40008111C6CE83E4C7CF6FEF70E085E497E1BF
:103F50000E945E06809141176AE070E08350990BE1
:103F6000F7DC64EE70E085E497E10E945E0660E1B4
:103F700070E0812F45DD6091411781E40E94040FBC
:103F800087E592E00197F1F700C0000080914117AA
:103F90008054898361E070E0CE01019686DB81E088
:103FA00080933A170E94AA10EA9881E099E09093D2
:103FB0002B0280932A02F2CE0E94AA10EFCE0C941C
:103FC000CF4CAF92BF92CF92DF92EF92FF920F93BE
:103FD0001F93CF93DF93DC01CD90DC901197C11438
:103FE000D10439F01496CD91DC918C0176012097A3
:103FF00061F4DF91CF911F910F91FF90EF90DF90CF
:10400000CF90BF90AF90089575015701BFEFAB1AE5
:10401000BB0AF7018081082E000C990B0E949B4B74
:10402000892B91F72197CC0DDD1D8881082E000C7E
:10403000990B0E949B4B892B29F0CE15DF0510F0C0
:104040002197F3CFAE014F5F5F4F4E195F09D80143
:1040500015965C934E931497CE14DF0420F4B701A9
:10406000C6010E94974FD801ED91FC9111971496CB
:104070008D919C91E80FF91F1082BBCFCF93DF93F6
:10408000FC01C081D181209761F08991882349F09A
:10409000082E000C990B0E94824FFE0131978083FD
:1040A000F4CFDF91CF910895FC0124813581232B3A
:1040B00039F421E0FB018081882349F020E007C02A
:1040C000808191810E94A04F21E0892BB9F7822F36
:1040D00008950F931F93CF93DF938C01EB01FC01A5
:1040E000808191810097E1F0688179816115710586
:1040F000A9F0428153812C813D814217530770F012
:104100000E94A94F8C819D81F801958384831D8233
:104110001C82DF91CF911F910F9108950E94CE4A8A
:1041200088819981F801918380838A819B8193831F
:1041300082838C819D8195838483198218821B825E
:104140001A82E5CFCF93DF93EC01888199810097A4
:1041500011F00E94CE4A198218821D821C821B8295
:104160001A82DF91CF910895FC01808191810C9496
:10417000CE4A0F931F93CF93DF93EC0188819981EF
:10418000009759F02A813B812617370730F081E0EC
:10419000DF91CF911F910F9108958B016F5F7F4F3A
:1041A0000E94A64E009759F0998388831B830A8347
:1041B0002C813D81232B59F7FC011082E8CF80E050
:1041C000E7CFEF92FF920F931F93CF93DF93611589
:1041D000710541F480E0DF91CF911F910F91FF9025
:1041E000EF90089541155105A9F07B01EC010C8178
:1041F0001D81040F151FB801BCDF882359F32881E6
:1042000039818C819D81B701820F931F0E94A94F34
:104210001D830C8381E0DFCFEF92FF920F931F93FA
:10422000CF93DF93CDB7DEB72D970FB6F894DEBFEF
:104230000FBECDBF7C01CB01BA012AE08E010F5F1A
:104240001F4FA8010E94614BF80101900020E9F77F
:104250003197AF01401B510BB801C701B2DF81118B
:1042600002C0C7016FDFC7012D960FB6F894DEBFFD
:104270000FBECDBFDF91CF911F910F91FF90EF90B7
:104280000895CF93DF93EC01FB0101900020E9F743
:104290003197AF01461B570B94DF811102C0CE014D
:1042A00051DFCE01DF91CF910895CF93DF93EC01E1
:1042B000FB01448155816081718183DF811102C0DE
:1042C000CE0140DFCE01DF91CF910895EF92FF92B2
:1042D0000F931F93CF93DF93EC017B018A01BA0107
:1042E00048DF81110AC0CE012DDFCE01DF91CF91D1
:1042F0001F910F91FF90EF9008951D830C83B701DC
:10430000888199810E94A94FF0CFFB010190002084
:10431000E9F73197AF01461B570BD8CF0F931F9387
:10432000CF93DF9300D000D000D0CDB7DEB78C01A3
:10433000862FF80111821082138212821582148254
:104340004AE0BE016F5F7F4F90E00E94824BBE014A
:104350006F5F7F4FC801D9DF29960FB6F894DEBF93
:104360000FBECDBFDF91CF911F910F910895CF93D5
:10437000DF93EC01FB018617970741F060817181A3
:104380006115710539F044815581A0DFCE01DF91BF
:10439000CF910895D7DEFACFFC01118210821382EB
:1043A000128215821482E3CF0F931F93CF93DF9372
:1043B00000D000D0CDB7DEB764E77AE1CE01019638
:1043C000EBDFCE0101960E9485108C01CE01019693
:1043D000CBDE0130110589F482E090E09093180261
:1043E0008093170226960FB6F894DEBF0FBECDBF9E
:1043F000DF91CF911F910F91089581E090E00230FD
:10440000110564F38091190790911A07039720F31F
:1044100083E090E0E3CFFC011182108213821282CC
:1044200015821482FB0101900020E9F73197AF015A
:10443000461B570B4BCFAF92BF92CF92DF92EF92BA
:10444000FF920F931F93CF93DF936C015B017A016F
:1044500089012417350720F48F2D7901042F182F97
:1044600064EB72E0C601D7DFD5011496CD91DC91E3
:10447000EC16FD06D8F40C171D0708F4E801D50169
:10448000ED91FC911197EC0FFD1F108110826D9141
:104490007C916E0D7F1DC6016115710599F035DFA8
:1044A000F50180819181C80FD91F1883C601DF9162
:1044B000CF911F910F91FF90EF90DF90CF90BF9021
:1044C000AF9008953FDEECCFAF92BF92CF92DF92D4
:1044D000EF92FF920F931F93CF93DF93CDB7DEB789
:1044E000C456D1090FB6F894DEBF0FBECDBF5C0134
:1044F0006B01CB0164DD8E010F5F1F4F7801C01A85
:10450000D10AF701E01BF10B882341F0C6018E0DA3
:104510009F1D55DDF70181937F01F3CFE00FF11F60
:104520001082B801C50177DFC501CC59DF4F0FB646
:10453000F894DEBF0FBECDBFDF91CF911F910F91D9
:10454000FF90EF90DF90CF90BF90AF9008954F9283
:104550005F926F927F928F929F92AF92BF92CF9213
:10456000DF92EF92FF920F931F93CF93DF93CDB71C
:10457000DEB7C850D2400FB6F894DEBF0FBECDBF35
:10458000082F10E080E991E0089F5001099FB00CCE
:10459000189FB00C1124C50104960E94CF4CF82E30
:1045A0006AE472E085E497E10E945E06680183E0B8
:1045B000C81AD108C60102DAECE0FE121BC08FE176
:1045C00092E01BD9C85FDD4F0FB6F894DEBF0FBE77
:1045D000CDBFDF91CF911F910F91FF90EF90DF90B2
:1045E000CF90BF90AF909F908F907F906F905F9093
:1045F0004F9008957E01FFEFEF1AFDEFFF0A64EB85
:1046000072E0C70108DFB50167597F4FCE010196FF
:104610005BDFBE016F5F7F4FC7015BDDCE0101969F
:10462000A3DDBE01695F7D4FC5010296F7D9F70191
:10463000808191810E94A41961E0C95FDD4F88816A
:104640009981C750D2400E94F1194090FE175090B6
:10465000FF176090001870900118530142012AE082
:10466000B694A794979487942A95D1F7000F111FB9
:10467000000F111FF801EF50FE4F8FEF9FEFDC018D
:1046800080839183A283B38360E172E085E497E144
:104690000E945E064AE050E0C301B2019CD96DEF72
:1046A00071E085E497E10E945E064AE050E0C501B2
:1046B000B40191D985E497E10E946307FAE6FA957F
:1046C000F1F700C081E048168CEF58068FEF6806BE
:1046D000780608F044C0FE01319685EE8193EE1510
:1046E000FF05E1F7880C991CAA1CBB1C412C512C1E
:1046F0003201439408E210E084149504A604B70440
:1047000020F140E052E0BE016F5F7F4F82EE97E103
:104710000E94531586EE97E10E94540D6BEF71E0F5
:1047200085E497E10E945E06C201B8010E948B4EAB
:10473000892B29F45DD885E497E10E946307EFEFA8
:104740004E1A5E0A6E0A7E0AD7CF8BEE91E055D8DC
:1047500086EE97E10E94610EC70106DD33CF69EE58
:1047600071E085E497E10E945E066AE070E0C601B0
:10477000EFD887EC91E0EBCFFF920F931F93CF938D
:10478000DF938C01EB01F8800E94CF4CF81621F0EA
:104790006F2DC8010E94D74CCE01DF91CF911F91A0
:1047A0000F91FF900895FF920F931F93CF93DF9384
:1047B000EC018B01FB01F0800E94CF4CF81621F038
:1047C0006F2DCE010E94D74CF801F1802196CE01C9
:1047D0000E94CF4CF81621F06F2DCE010E94D74CCD
:1047E000C801DF91CF911F910F91FF9008950C9414
:1047F000D74CCF92DF92EF92FF920F931F93CF93FC
:10480000DF937C018B01DB011496CD90DC90D0E02E
:10481000C0E0CC15DD05CCF4F80184819581C81782
:10482000D90728F40190F081E02D309759F41092C7
:104830006203E2E6F3E06081C7018C0F9D1FD7DFC2
:104840002196E7CFEC0FFD1FF6CF60E0C6018E0D7D
:104850009F1DDF91CF911F910F91FF90EF90DF90FF
:10486000CF90C5CF6F927F928F929F92AF92BF925F
:10487000CF92DF92EF92FF920F931F93CF93DF932C
:10488000CDB7DEB7AC970FB6F894DEBF0FBECDBF85
:10489000782E64EB72E0CE018196BDDD64EB72E0B0
:1048A000CE018796B8DD072D10E080E991E0089FE2
:1048B0007001099FF00C189FF00C1124470145E08E
:1048C000840E911CB401CE010196FEDDBE016F5F26
:1048D0007F4FCE018196FDDBCE01019645DC57016D
:1048E00089E6A80EB11CB501CE010196EDDDBE0131
:1048F0006F5F7F4FCE018796ECDBCE01019634DCF3
:104900008FA198A50E94A419682E49A15AA11982C5
:104910001A826DE27AE1CE0101960E94FD176801CC
:1049200093E0C91AD10804501109882309F476C00C
:10493000662009F473C065EC71E085E497E10E949C
:104940005E066AE070E0C60103D862EC71E085E4BF
:1049500097E10E945E06BE01695D7F4F85E497E1A5
:104960000E94500661EC72E0CE0187969DDB8111BA
:1049700006C060EC71E085E497E10E945E06CE011E
:1049800081960E944F1C672D80E40E94040FF8015D
:10499000EE0FFF1FEE0FFF1FEF5FFD4F8FEF9FEF3B
:1049A000DC0180839183A283B38384E094E0089F39
:1049B0009001099F300D189F300D1124F901E55E1B
:1049C000F84F80EB870D808384E08183128283E03F
:1049D00090E0FC01E20FF31FE55EF84F10820196B4
:1049E00084309807B1F7CE018796BEDBCE01819661
:1049F000BBDBAC960FB6F894DEBF0FBECDBFDF9128
:104A0000CF911F910F91FF90EF90DF90CF90BF90CB
:104A1000AF909F908F907F906F900895672D83E463
:104A20000E94040F60E0C701E2DE60E0C701029669
:104A3000DEDE60E0C7010496DADE64EB72E0CE01F0
:104A40000196E9DCBE016F5F7F4FC401D2DECE016B
:104A500001968ADB64EB72E0CE010196DCDCBE01DC
:104A60006F5F7F4FC501C5DECE0101967DDB6EEB2A
:104A700071E085E497E10E945E066AE070E0C6019D
:104A80000E94A81C80EB91E00E94FD1B8ECF3F92FC
:104A90004F925F926F927F928F929F92AF92BF924E
:104AA000CF92DF92EF92FF920F931F93CF93DF93FA
:104AB000CDB7DEB72C970FB6F894DEBF0FBECDBFD3
:104AC0008C016B01442E6DB67EB6842E912CC401F0
:104AD00001962DB73EB7281B390B0FB6F8943EBF91
:104AE0000FBE2DBF8DB79EB701967C0164EB72E0BF
:104AF000CE01079690DCF601E154FA4F5F01808108
:104B000063EC72E0882321F0813029F567EC72E0D4
:104B1000C80181DCCE01079627DBC8010FB6F894E7
:104B20007EBE0FBE6DBE2C960FB6F894DEBF0FBED4
:104B3000CDBFDF91CF911F910F91FF90EF90DF904C
:104B4000CF90BF90AF909F908F907F906F905F902D
:104B50004F903F90089564EB72E08F3FC9F2512C63
:104B6000CC0CDD1C96012C593C4F69019FE2392E7B
:104B700060E0F601808191810E94F119811105C0E8
:104B8000539486EE97E10E94610EFCE0F41508F460
:104B900059C08091E617882309F452C0807609F441
:104BA0004BC0F7013082118281E0811105C053941E
:104BB00086EE97E10E94610EB701CE0101962BDCD3
:104BC000BE016F5F7F4FCE01079683DACE0101965B
:104BD000CBDAFAE0F51508F03AC06CEC72E0CE01E1
:104BE000079693DB86EE97E10E94610EF5018081C6
:104BF0008230A9F46AED72E0CE0101960CDCBE01B0
:104C0000695F7F4FCE01019650DB6AEC72E039DBC1
:104C1000BC01CE010796ABDBCE010196A5DAF80107
:104C2000118210821382128215821482BE01695F82
:104C30007F4FC8014EDA6ECFC7010E94FA0BB5CF85
:104C400080E0B3CFB401C7010E948015AECF86EEDD
:104C500097E10E94610E51108BCFC4CF5F926F928B
:104C60007F928F929F92AF92BF92CF92DF92EF92FC
:104C7000FF920F931F93CF93DF93CDB7DEB7CB5047
:104C8000D1400FB6F894DEBF0FBECDBF10921A0709
:104C900010921907FFEBCF2EF5E0DF2EA4E6EA2EE7
:104CA000A3E0FA2EF701D6012FEF8FEF9FEF35E04B
:104CB000EE3BF30721F02D9381939193F8CF64EBB2
:104CC00072E0CE018A5F9E4FA6DB64E77AE1CE01F7
:104CD000019662DBCE0101960E9485108C01CE0107
:104CE000019642DA0130110509F0B7C010931A0796
:104CF0000093190781E08093C00522E0B22E3CE0CA
:104D0000A32E48E1942E57E1852E66E1762E7BE0B6
:104D1000672EEAE05E2E0091190710911A070C32F7
:104D200081E0180708F06EC10E94591A882309F41F
:104D300094C18091E61781FD8BC06FEF70E0CE01CA
:104D400001960E948015BE016F5F7F4FCE01939543
:104D500062DBBE017395CE018A5F9E4FBAD9CE0148
:104D6000939502DACE018A5F9E4F2BD9CE018A5FDE
:104D70009E4F84D9C65FDE4F28813981CA50D14009
:104D80003327A90144505109BE016A5F7E4FCE010D
:104D9000939551DBCE01939571D98091E61784FDEF
:104DA000B7C063E073E0CE0193957ED9811131C025
:104DB0006CED72E0CE01939577D981112AC061EE36
:104DC00072E0CE01939570D9811123C066EE72E036
:104DD000CE01939569D981111CC06BEE72E0CE01B2
:104DE000939562D9811115C060EF72E0CE01939561
:104DF0005BD981110EC065EF72E0CE01939554D955
:104E0000811107C06AEF72E0CE0193954DD98823D6
:104E1000E1F00F5F1F4F10931A0700931907F80175
:104E2000EE0FFF1FEC59FC4F8091EA179091EB17A2
:104E30009183808363E073E0CE01939535D9882315
:104E4000E1F0F801E154FA4F5082CE0193958CD9EC
:104E500086EE97E10E94610E5ECF023011050CF4E0
:104E60004CCF1092C00582E090E090931A07809397
:104E7000190781E08093C10540CF6CED72E0CE014F
:104E8000939512D9882329F0F801E154FA4F6082F2
:104E9000DCCF61EE72E0CE01939506D9811121C07D
:104EA00066EE72E0CE019395FFD881111AC06BEEC9
:104EB00072E0CE019395F8D8811113C060EF72E0D3
:104EC000CE019395F1D8811111C065EF72E0CE014A
:104ED0009395EAD8882379F0F801E154FA4F80825B
:104EE000B4CFF801E154FA4FA082AFCFF801E154FA
:104EF000FA4F7082AACF6AEF72E0CE019395D4D8B0
:104F0000882309F4A2CFF801E154FA4F90829DCF93
:104F10000F5F1F4F10931A0700931907F801EE0F48
:104F2000FF1FEC59FC4F8091EA179091EB1791838A
:104F3000808301541A4FF801B08287CF019693C045
:104F400001E010E0F2E0EF0EF11C3FEFC31AD30ACC
:104F50008091190790911A0780179107C0F16AE0B4
:104F600070E0C8010E94A81C6EE374E085E497E13C
:104F70000E945E06F7014081518170E060E02AE006
:104F800085E497E10E945D1C6CE374E085E497E1A1
:104F90000E945E064AE050E0F601608185E497E1F8
:104FA0000E94FA1C69E374E085E497E10E945E06C2
:104FB00043E6B801CE0101966ADDCE0101960E945A
:104FC0004F1CCE010196D0D80F5F1F4FBBCFCE0133
:104FD0008A5F9E4FC9D8C55FDE4F0FB6F894DEBF1B
:104FE0000FBECDBFDF91CF911F910F91FF90EF903A
:104FF000DF90CF90BF90AF909F908F907F906F90F9
:105000005F9008950E94591A182F86EE97E10E942A
:10501000610E112311F180E694E00E94FD1B81E0F6
:105020000E94F0116FE474E08CE59AE10E945E0644
:1050300081E00E94F01160E474E08CE59AE10E9446
:105040005E0680E49CE9A0E0B0E0809319029093B2
:105050001A02A0931B02B0931C02209119073091F1
:105060001A0781E090E08217930708F069CFA0EC5F
:10507000B5E004E613E0AD014F5B5540421753071E
:1050800008F05CCF4D915C91541778F4BD016150EC
:105090007109FB0150834C93F80142815381648173
:1050A000758173836283558344830E5F1F4FE3CF03
:1050B000CF92DF92EF92FF920F931F93CF93DF93E4
:1050C000CDB7DEB7C151D1400FB6F894DEBF0FBEE9
:1050D000CDBF8B016A0143E6BC01CE018A5F9E4FC2
:1050E000D6DCC65FDE4F28813981CA50D1402450BA
:1050F000310950E040E0BE016A5F7E4FCE0101966B
:105100009AD9BE016F5F7F4FCE018A5F9E4F0E948A
:105110006920CE01019628D8BE016A5F7E4FCE017C
:1051200001963AD9B601CE010196BFD8BC01CE0195
:10513000845F9E4F31D9CE01019616D8CE01845F8F
:105140009E4F0E943E20F801808191810E94A41907
:105150000E94591A882309F460C08091E617827171
:1051600009F041C06FEF70E0CE0101960E948015FA
:10517000BE016F5F7F4FCE0193954DD9CE019395C0
:105180000E94E11FCE0193950E943E20CC5FDE4F2E
:1051900028813981C450D140C05FDE4F8881998118
:1051A000C051D14028173907D1F4C050DF4F888152
:1051B0009981C050D140C45FDE4F68817981CC5065
:1051C000D1400097A9F06115710531F4232BE9F066
:1051D000FC01808190E017C00E94A04F14C0CE0156
:1051E00093950E94B42086EE97E10E94610EB0CFA5
:1051F0006115710551F0232B41F0FB01808190E096
:10520000919581959109892B51F7E090EA17F090DB
:10521000EB17CE0193950E94B42086EE97E10E9491
:10522000610EE4E6F3E010E000E0819191918E15CB
:105230009F0541F00F5F1F4F0D3281E01807A9F75E
:1052400010E000E0CE01845F9E4F0E94B420CE01AA
:105250008A5F9E4F0E94B420C801CF5EDE4F0FB61A
:10526000F894DEBF0FBECDBFDF91CF911F910F919C
:10527000FF90EF90DF90CF900895EF92FF920F9301
:105280001F93CF93DF93CDB7DEB766970FB6F89431
:10529000DEBF0FBECDBF0E941B0F813009F015C2CB
:1052A0008091741A9091751A0E94A4196091170246
:1052B00070911802FB01E154FA4F808196EF980F2C
:1052C000933028F09AEE980F933008F09BC043E695
:1052D000CE010796DCDB6CEF73E085E497E10E947A
:1052E0005E06809138176AE070E08350990B0E9447
:1052F000A81C69EF73E085E497E10E945E06CE0189
:1053000007960E944F1C60913817E62EF12CF7018A
:10531000EE0FFF1FEE0FFF1FEF50FE4F8FEF9FEFBF
:10532000DC0180839183A283B38380E40E94040F15
:1053300000E911E067E172E0E09EC001E19E900D9E
:10534000F09E900D11242FDA6091170270911802CF
:10535000660F771F6C597C4F20913817209FC00132
:10536000219F900D112402961EDA60911702709110
:10537000180261547A4F20913817209FC001219F55
:10538000900D11240496F8D9BE01695F7F4FCE01BC
:10539000019602D820913817209FC001219F900DBF
:1053A0001124BE016F5F7F4F059623DACE0101966F
:1053B0000E94B42064E77AE1CE0101960E94CC21DC
:1053C00020913817209FC001219F900D1124BE010C
:1053D0006F5F7F4F87599F4F0CDACE0101960E9475
:1053E000B4201092391781E090E0A0E0B0E0809303
:1053F0001D0290931E02A0931F02B0932002CE01C3
:1054000007964CC1811141C061EC72E084E79AE1DA
:105410000E94852161EE73E085E497E10E945E06BB
:1054200084E79AE10E944F1C8091741A9091751A3A
:105430000E94A41980E00E94F01160ED73E08CE5F9
:105440009AE10E945E0680E00E94F01164E77AE132
:105450008CE59AE10E94500680E49CE9A0E0B0E06F
:1054600080931D0290931E02A0931F02B09320020E
:1054700081E00E94F0116FEB73E08CE59AE10E94ED
:105480005E06ECDB81E090E0AFC1813009F088C0BE
:105490008091781A9091791A01970E94071B61EC0C
:1054A00072E0CE0101960E940B22CE0101960E946D
:1054B000B91A8C01CE0101960E94B4201016110673
:1054C0000CF459C061EC72E084E79AE10E948521F6
:1054D00067EA73E085E497E10E945E0684E79AE15B
:1054E0000E944F1C8091741A9091751A0E94A41901
:1054F00080E00E94F01166E973E08CE59AE10E9479
:105500005E0680E00E94F01164E77AE18CE59AE1A2
:105510000E94500680E49CE9A0E0B0E080931D0268
:1055200090931E02A0931F02B093200281E00E947C
:10553000F01165E873E08CE59AE10E945E068EDB6F
:105540000E94D42181E090E0A0E0B0E080931902B5
:1055500090931A02A0931B02B0931C0266960FB69A
:10556000F894DEBF0FBECDBFDF91CF911F910F9199
:10557000FF90EF900895980150E040E064E77AE1F1
:10558000CE0101960E941B22BE016F5F7F4F84E710
:105590009AE10E946920CE0101960E94B42098CF22
:1055A0008230E1F643E6CE01019671DA61EC72E0F9
:1055B00084E79AE10E9454202D813E8121503109D7
:1055C00041E050E0BE016F5F7F4F882309F469C05E
:1055D000CE010D960E941B2264E77AE1CE01079668
:1055E0000E94CC21BE01635F7F4FCE0107960E94CF
:1055F0005521BC0184E79AE10E94B721CE010796AC
:105600000E94B420CE010D960E94B4206DE673E096
:1056100085E497E10E945E0684E79AE10E944F1CB0
:105620008091741A9091751A0E94A41980E00E94CA
:10563000F0116CE573E08CE59AE10E945E0680E073
:105640000E94F01164E77AE18CE59AE10E9450062D
:1056500080E49CE9A0E0B0E080931D0290931E02DC
:10566000A0931F02B093200281E00E94F0116BE42E
:1056700073E08CE59AE10E945E06F0DA0E94D42184
:1056800081E090E0A0E0B0E08093190290931A02CC
:10569000A0931B02B0931C02CE0101960E94B4207D
:1056A0005DCFCE010D960E941B2264E77AE1CE0108
:1056B00007960E94CC2161EC72E0CE0107960E9411
:1056C0004121BE01635F7F4F92CF8B3509F07FC0D0
:1056D0002091381780E991E0AC01249FC001259FFB
:1056E000900D11240E94CF4C882309F46BC06EE307
:1056F00073E085E497E10E945E068091381783503D
:10570000990B0E94DE1CF09038176F2D83E40E94E5
:10571000040F00E911E060E0F09EC001F19E900DE1
:10572000112465D820913817209FC001219F900D2A
:10573000112460E002965BD820913817209FC001A9
:10574000219F900D112460E0049651D864EB72E023
:10575000CE0101960E940B2220913817209FC00194
:10576000219F900D1124BE016F5F7F4F059641D898
:10577000CE0101960E94B42064EB72E0CE01019646
:105780000E940B2220913817209FC001219F900D6D
:105790001124BE016F5F7F4F87599F4F2AD8CE01DA
:1057A00001960E94B4201092391781E090E0A0E0A9
:1057B000B0E080931D0290931E02A0931F02B0934D
:1057C0002002CCCE80913917813079F790CF82308A
:1057D00091F480911702909118028130910549F45B
:1057E0008091190790911A079093180280931702DD
:1057F000A9CE0197F9CF833071F48091170290916F
:1058000018022091190730911A078217930709F49B
:1058100039CE0196E9CF843009F068C08091781ABA
:105820009091791A01970E94071B61EC72E0CE01FA
:1058300001960E940B22CE0101960E94B91A8C019A
:10584000CE0101960E94B42010161106D4F161EC2D
:1058500072E084E79AE10E94852166E273E085E4C4
:1058600097E10E945E0684E79AE10E944F1C8091B6
:10587000741A9091751A0E94A41980E00E94F01188
:1058800065E173E08CE59AE10E945E0680E00E948B
:10589000F01164E77AE18CE59AE10E94500680E419
:1058A0009CE9A0E0B0E080931D0290931E02A093BB
:1058B0001F02B093200281E00E94F01164E073E0C7
:1058C0003ACE980150E040E064E77AE1CE010196DB
:1058D0000E941B22BE016F5F7F4F84E79AE10E9406
:1058E0006920CE0101960E94B420B7CF8E35D1F544
:1058F00061EC72E084E79AE10E9485216CEE72E02F
:1059000085E497E10E945E0684E79AE10E944F1CBD
:105910008091741A9091751A0E94A41980E00E94D7
:10592000F0116BED72E08CE59AE10E945E0680E07A
:105930000E94F01164E77AE18CE59AE10E9450063A
:1059400080E49CE9A0E0B0E080931D0290931E02E9
:10595000A0931F02B093200281E00E94F0116AEC34
:1059600072E0E9CD853009F04EC08091381785305E
:1059700079F148F48430C1F06091381783E090E009
:105980000E94F72312CF863089F18730A9F78091E2
:105990001107811129C080911007811109C08091E0
:1059A0000F0781110DC012C080911007882321F0CC
:1059B00085E080933817E0CF80910F07882311F09E
:1059C00086E0F7CF80910E07882371F087E0F1CF52
:1059D00080910F078111F4CF80910E078111F6CFCE
:1059E00080911107882321F384E0E3CF80910E0793
:1059F0008111ECCF809111078111F6CF80911007B2
:105A00008111D6CFDDCF8F35D1F580913017813020
:105A1000C1F480913117813041F51092301780E048
:105A20000E94F01169EB72E08CE59AE10E945E063B
:105A30008BEA92E00E94FD1B80E49CE9A0E0B0E0CC
:105A4000B8CE811112C080913117813071F48093EA
:105A5000301780E00E94F0116AE972E08CE59AE16B
:105A60000E945E068DE892E0E5CF80E00E94F01192
:105A70006CE772E08CE59AE10E945E06DDCF86302D
:105A800009F06CCD64EB72E0CE0107960E940B2208
:105A900069EA76E0CE0101960E946422BE016F5F42
:105AA0007F4FCE0107960E946920CE0101960E9489
:105AB000B420BE016B5E7F4F80E496E00E940E1D15
:105AC00084E496E00E94CF4C2D893E89232B09F473
:105AD00096CC8A3009F048C060EF72E0CE010D9696
