:100000001CC400000C94B01C0C94851C0C945A1C4D
:100010000C942F1C0C94041C0C94D91B0C94AE1B38
:100020000C94831B3BC4000039C4000037C400009B
:1000300035C4000033C4000031C400002FC40000E8
:100040002DC400002BC4000029C4000027C40000F8
:1000500025C4000023C4000021C400000C946223C6
:100060001DC400000C94D51D0C94AC1D17C40000D9
:1000700015C4000013C4000011C400000FC4000028
:100080000DC400000BC4000009C4000007C4000038
:1000900005C4000003C4000001C40000FFC3000049
:1000A000FDC30000FBC30000F9C30000F7C300005C
:1000B000F5C30000F3C30000F1C30000EFC300006C
:1000C000EDC30000EBC30000E9C30000E7C300007C
:1000D000E5C30000E3C30000E1C30000DFC300008C
:1000E000DDC300002C222F221E222222282266227B
:1000F000332237223D22412245224B224F225322D6
:10010000662259225D2261224F6666004F6E004FC3
:100110006666004F6E004F6666004F6E004F666663
:10012000004F6E0044657669636520436F6E6669B3
:10013000670041444520566363203D20004144450B
:1001400020566363203D20002C3058005344206526
:1001500072726F72436F64653A203058004E6F20A0
:10016000636172642C2077726F6E672063686970B8
:100170002073656C6563742070696E2C206F72202B
:100180005350492070726F626C656D3F0043616E21
:100190002774206163636573732053442063617225
:1001A000642E20446F206E6F74207265666F726DCE
:1001B00061742E004E6F206572726F7220666F75CB
:1001C0006E642E0043616E2774206F70656E20721E
:1001D0006F6F74206469726563746F72792E004961
:1001E0006E76616C696420666F726D61742C20722A
:1001F00065666F726D61742053442E003A20003A98
:10020000004444503A0044534B3A002020204E6FA3
:1002100020534420436172640044313A203C626FB1
:100220006F743E3A2000456E61626C6564004E6FEB
:10023000204472697665730044312C2044322C20AE
:10024000443320616E642044342068617665206206
:1002500065656E20656E61626C656400496E6974E7
:1002600069616C697A696E6720454550524F4D004F
:100270002E0045726173696E6720454550524F4D9F
:100280003A00454550524F4D204E6F7420496E69DB
:100290007469616C697A65640046726565205352C1
:1002A000414D3A2000456E746572696E6720566F45
:1002B0006C746167652054657374204D6F646500CC
:1002C000456E746572696E6720436F6E6669677507
:1002D000726174696F6E204D6F6465005374617252
:1002E00074696E673A2041444520760062793A206D
:1002F0005365616E204D796572730041444520203D
:10030000202020207600206973206C61726765725E
:10031000207468616E2066696C653A20003A204559
:1003200072726F7220736176696E6720626C6F63A0
:100330006B202D20426C6F636B206C6F636174695E
:100340006F6E3A20003A2057726974696E673A20DE
:100350000044003A204572726F723A20496E76610D
:100360006C696420436865636B73756D2C20426C07
:100370006F636B3A0044003A204572726F723A2004
:1003800052657175657374656420626C6F636B2070
:100390006F7574206F662072616E67653A20004445
:1003A00000206973206C6172676572207468616EE9
:1003B0002066696C653A20003A204572726F72209F
:1003C0006C6F6164696E6720626C6F636B202D20B7
:1003D000426C6F636B206C6F636174696F6E3A205F
:1003E000003A2052656164696E673A200044003A21
:1003F000204572726F723A2052657175657374652B
:100400006420626C6F636B206F7574206F6620725E
:10041000616E67653A2000440044313A203C626FC7
:100420006F743E3A20004D6F756E74696E6720429E
:100430006F6F74204469736B20496D616765004874
:100440006172642052657365742066726F6D20411D
:1004500064616D4E6574004164616D20506F776515
:10046000726564204F666600536F66742052657330
:1004700065742066726F6D204164616D4E65740015
:100480003A004400556E6D6F756E74696E67204456
:10049000003A20004D6F756E74696E6720440055F8
:1004A0006E6D6F756E74696E672044003A204572F8
:1004B000726F723A20556E6B6E6F776E20436F6D60
:1004C0006D616E643A200044002C205265636569BA
:1004D00076656420746869733A20003A2045727228
:1004E0006F723A2045787065637465643A20004401
:1004F0000020202052656365697665643A200020FB
:10050000202045787065637465643A2000457272F6
:100510006F723A2053656E64696E6720426C6F6338
:100520006B3A200020202052656365697665643A45
:10053000200020202045787065637465643A2000AF
:100540004572726F723A2053656E64696E6720421D
:100550006C6F636B3A20003A203C204E6F20446958
:10056000736B203E0044003A200044003A2045725C
:10057000726F723A2046696C6520746F6F206C61EF
:1005800072676520746F20666F726D61740044003D
:10059000466F726D617420636F6D706C6574650079
:1005A0002E004E756D626572206F6620426C6F631F
:1005B0006B733A200053697A65206F662066696C18
:1005C000653A2000526563656976656420466F72FE
:1005D0006D617420436F6D6D616E6420666F722073
:1005E0004472697665204400436F6D70617469627E
:1005F0006C6520426C6F636B204D6F646520456EA7
:1006000061626C656400536B697070696E67207419
:10061000686973207265736574004164616D20437D
:100620006F6D6D616E643A20466F726D6174204427
:10063000004164616D20436F6D6D616E643A2057B7
:10064000726974696E6720746F20746865204C430A
:1006500044203A004164616D20436F6D6D616E64AA
:100660003A2052656672657368204C4344003A2014
:10067000004164616D20436F6D6D616E643A204D81
:100680006F756E742044004164616D20436F6D6D21
:10069000616E643A20556E6D6F756E742044004132
:1006A00064616D20436F6D6D616E643A20437572B5
:1006B00072656E74204469736B206F6E2044003A3B
:1006C0000046696C657320696E20426C6F636B3AFB
:1006D0000046696C656E616D65204C656E67746877
:1006E0003A004164616D20436F6D6D616E643A2024
:1006F00053442043617264204469726563746F726D
:100700007920426C6F636B3A2000203A2000203A37
:100710002000203A200000002100240027002A00A9
:100720002D003000330001010000040107010A011F
:1007300000002200250028002B002E00310034008C
:1007400002010000050108010B0100002000230048
:10075000260029002C002F003200000100000301B8
:100760000601090105050505070508080808020234
:1007700002020A0A0808040404040101010101013B
:1007800001010303030303030303040707070C0C1E
:100790000C0C0C0C0C0C02020202060606060606E5
:1007A00006060B0B0B0B0B0B0B0B0102102020088A
:1007B00008102040102040800201020108040201BC
:1007C000010204081020408080402010080402012B
:1007D0008004020180402010080402010804020184
:1007E000010204081020408001020408102040800B
:1007F00000000A0B02090C0D0E080703040100009B
:1008000000000000000000000000000000000000E8
:1008100000000000000000000000000012111000A5
:1008200000000000000000000000000000000000C8
:10083000000000000000D634013411241FBECFEFA9
:10084000D1E2DEBFCDBF00E00CBF12E0A0E0B2E01D
:10085000ECEBF4E700E00BBF02C007900D92A23D65
:10086000B107D9F729E1A2EDB2E001C01D92AD3E7A
:10087000B207E1F714E0CCE1D4E000E006C0219734
:100880000109802FFE010E943139CB31D10780E070
:100890000807A9F70E94AC230C944D3AB1CB80E035
:1008A00090E008950F931F938091921681111AC0C2
:1008B0000E94562300911002109111022091120201
:1008C00030911302DC01CB01801B910BA20BB30B07
:1008D000893C9105A105B10558F080914F158823F9
:1008E00099F006C086E096E00E943B1F1092921697
:1008F00088EE95E00E943B1F81E080932A0282E00F
:100900008CBB1F910F9108950E9456236093100293
:1009100070931102809312029093130280E090E092
:10092000499905C00196823127E29207C9F781E013
:1009300080934F15DDCFDC01FC01CF018A1B9B0B9F
:10094000861797070CF058C0589880E58A95F1F7FC
:100950000000000000000000000028E030E091E00E
:1009600040814923B9F0589A8AE48A95F1F700C08A
:100970000000000000000000000000000000000077
:100980000000000000000000000000000000000067
:10099000000017C058988AE48A95F1F700C000005B
:1009A0000000000000000000000000000000000047
:1009B0000000000000000000000000000000000037
:1009C0000000990F2150310909F0CACF589A8AE4E2
:1009D0008A95F1F700C00000000000000000000050
:1009E0000000000000000000000000000000000007
:1009F000000000003196A1CF0895DC01FC01CF0179
:100A00008A1B9B0B8617970714F54A9BFECF8AE239
:100A10008A95F1F700C0000048E090E0292F30E00F
:100A200035952795922F80E58A95F1F70000000013
:100A3000000000000000000000004A9B9068415048
:100A400069F785E48A95F1F700009193D8CF08956E
:100A500004960C94871FCF93DF931F92CDB7DEB718
:100A6000698341E050E0BE016F5F7F4F04960E94B2
:100A7000871F0F90DF91CF910895CF93DF93FC01F3
:100A80002381222361F0EC010180F281E02D61E0FD
:100A900082810E94B4228FEF0E949B1E1B82DF91F5
:100AA000CF910895FF920F931F93CF93DF9300D0C0
:100AB0001F92CDB7DEB78C01F62E29833A834B8384
:100AC0005C83FC018381811103C0C8010E94881EE0
:100AD000FF2029F06CE271E0C8010E94D81E8F2D22
:100AE00080640E949B1E8C810E949B1E8B810E94B1
:100AF0009B1E8A810E949B1E89810E949B1EFF2053
:100B000011F087E801C085E90E949B1E0E94A01E8B
:100B10008BE0F82E0E94A01EF801848387FF03C09B
:100B2000FA94F110F7CF0F900F900F900F90DF9184
:100B3000CF911F910F91FF9008950F931F93CF9323
:100B4000DF93EC0189018D81833039F089E0440F16
:100B5000551F661F771F8A95D1F79A01AB0161E196
:100B6000CE01A0DF882319F080E388830AC0B80192
:100B7000CE010E94481F182F882319F0CE017DDF77
:100B800003C0CE017ADF10E0812FDF91CF911F915A
:100B90000F910895EF92FF921F93CF93DF93FC0183
:100BA000208120FF32C0EC017C01F7E0EF0EF11C48
:100BB0004B815C816D817E81E981FA819701808121
:100BC00091810E94F01E182F811102C010E01EC0FA
:100BD000888181FD04C088818E7F888317C0E98168
:100BE000FA814B815C816D817E8184859585A685A6
:100BF000B785480F591F6A1F7B1F9701808191811C
:100C00000E94F01E8111E7CFE1CF11E0812FDF912B
:100C1000CF911F91FF90EF900895CF92DF92EF92C6
:100C2000FF921F93CF93DF93EC016A017B01122F98
:100C30008B819C81AD81BE8184179507A607B7077C
:100C4000E1F0CE01A7DF811103C080E090E01BC07E
:100C500012FF06C01882CB82DC82ED82FE820DC0BC
:100C6000E981FA819E01295F3F4FB701A60180818A
:100C7000918163DF8111EECFE8CF13708881182B4B
:100C80001883CE010796DF91CF911F91FF90EF90CF
:100C9000DF90CF9008958F929F92AF92BF92CF92A4
:100CA000DF92EF92FF920F931F934230510561053F
:100CB000710510F480E053C0FC01C08CD18CE28C33
:100CC000F38CC416D506E606F706A0F348015901D1
:100CD0006A017B018581803231F584899589A689F5
:100CE000B78917E076956795579547951A95D1F787
:100CF000480F591F6A1F7B1F23E0CF0180968DDFAD
:100D00000097C1F2E894C7F8DD24EE24FF24CC0C50
:100D1000DD1CCC0CDD1CFC01EC0DFD1D80829182E4
:100D2000A282B3821BC0803129F644895589668925
:100D300077894D0D511D611D711D23E0CF018096F6
:100D40006CDF009709F4B6CFDD24EE24FF24CC0C31
:100D5000DD1CFC01EC0DFD1D9182808281E01F9164
:100D60000F91FF90EF90DF90CF90BF90AF909F904A
:100D70008F900895CF92DF92EF92FF920F931F937F
:100D8000CF93DF93423051056105710510F48FEF69
:100D900066C0FC01C08CD18CE28CF38CC416D506E5
:100DA000E606F706A0F389016A017B01EC01858163
:100DB000803239F584899589A689B789E7E07695E7
:100DC000679557954795EA95D1F7480F591F6A1FC0
:100DD0007B1F22E0CE01809620DF0097C1F2E894CD
:100DE000C7F8DD24EE24FF24CC0CDD1CCC0CDD1C6C
:100DF000FC01EC0DFD1D80819181A281B381BF704A
:100E00001DC0803121F644895589668977894D0D49
:100E1000511D611D711D22E0CF018096FEDE0097FD
:100E200009F4B5CFDD24EE24FF24CC0CDD1CFC013D
:100E3000EC0DFD1D80819181A0E0B0E0488D598DC1
:100E40006A8D7B8D481759076A077B0738F0F801D0
:100E500080839183A283B38381E001C080E0DF912E
:100E6000CF911F910F91FF90EF90DF90CF90089559
:100E70003F924F925F926F927F928F929F92AF922A
:100E8000BF92CF92DF92EF92FF920F931F93CF9377
:100E9000DF9300D01F92CDB7DEB75C012A013B0182
:100EA0004901FC01C084D184E284F384C416D506D0
:100EB000E606F706C0F46A017B0110E0FFEFCF1AE7
:100EC000DF0AEF0AFF0AF501808D918DA28DB38DA7
:100ED0008C159D05AE05BF0540F4111130C0C084CE
:100EE000D184E284F38411E0E9CF4C145D046E04F4
:100EF0007F0429F19E012F5F3F4FB701A601C50175
:100F000039DF87FD1CC08823C9F289819A81AB81B2
:100F1000BC81892B8A2B8B2B89F6112329F0F501B3
:100F2000C086D186E286F3860FEF1FEF2FEF3FE0FA
:100F3000B701A601C501AFDE382E811102C0312CE8
:100F400014C0411451046104710431F4F401C082ED
:100F5000D182E282F38209C097018601B301A20126
:100F6000C50199DE8111F2CFEACF832D0F900F904A
:100F70000F900F90DF91CF911F910F91FF90EF9005
:100F8000DF90CF90BF90AF909F908F907F906F90A9
:100F90005F904F903F9008956115710579F0FB01C6
:100FA00001900020E9F73197AF01461B570BDC0198
:100FB000ED91FC910280F381E02D199480E090E0A6
:100FC0000895CF93DF93FC012081211102C081E0BD
:100FD00041C0EC01828182FF36C04489558966890F
:100FE00077898681978121E0809617DE009729F422
:100FF00089818160898380E02DC0EC81FD81EF7063
:10100000FF2725E0EE0FFF1F2A95E1F7E80FF91FF4
:10101000309771F38081853E59F3888183FF08C042
:10102000888D998DAA8DBB8D848F958FA68FB78F54
:101030008C8D9D8DAE8DBF8D938F828FB58BA48B44
:101040008A818B7F8A838E819F818096A3DD88230E
:1010500079F2BDCFDF91CF9108950496B2CF4F9230
:101060005F926F927F928F929F92AF92BF92CF9238
:10107000DF92EF92FF920F931F93CF93DF93EC01D8
:101080004A015B014C845D846E847F84A881AA231D
:1010900009F490C0488959896A897B89481559059E
:1010A0006A057B0509F48CC081149104A104B10484
:1010B00029F41C861D861E861F8677C0A3FF0BC0E1
:1010C000088D198D2A8D3B8D081519052A053B05BC
:1010D00008F470C014C0A5FF12C0EE81FF818681A4
:1010E000978125E0880F991F2A95E1F7A0E0B0E0ED
:1010F00088159905AA05BB0508F45CC056C0EE81A9
:10110000FF81848190E009968A019B0101501109B9
:1011100021093109082E04C03695279517950795A2
:101120000A94D2F775016401B1E0CB1AD108E10845
:10113000F10804C0F694E794D794C7948A95D2F73F
:10114000C016D106E206F30620F0452B462B472BAE
:1011500099F4A6FF05C0848D958DA68DB78D04C02A
:101160008C8D9D8DAE8DBF8D8C879D87AE87BF8703
:101170008E01045F1F4F14C0C01AD10AE20AF30A9D
:10118000F7CF4C855D856E857F8598018E819F8127
:10119000F1DD91E0C91AD108E108F108181654F4FC
:1011A000C114D104E104F10461F7888A998AAA8AFA
:1011B000BB8A06C04C865D866E867F8680E001C055
:1011C00081E0DF91CF911F910F91FF90EF90DF9021
:1011D000CF90BF90AF909F908F907F906F905F90D7
:1011E0004F900895CF93DF93EC01EBDE1882DF91EF
:1011F000CF9108950C94BD370C94B537262F30E06D
:101200002450310996E0929FF001939FF00D112434
:10121000ED56F94E60586083118294E0928391E01C
:101220009383848395E08927858308954F925F9205
:101230006F927F929F92AF92BF92CF92DF92EF9286
:10124000FF920F931F93CF93DF93C82F64EC75E049
:101250008BEA96E10E94881DD0E08E0103501109AF
:10126000C8010E94CF172497FE01EE0FFF1FE95B14
:10127000FA4E0190F081E02DEE0FFF1FE351FD4E7D
:1012800061E0808191810E943E17C0906417D090E8
:101290006517E0906617F0906717260137013AE06E
:1012A00076946794579447943A95D1F7FE01EE0FE0
:1012B000FF1FEE0FFF1FEC5EFD4F8FEF9FEFDC0176
:1012C00080839183A283B38365EB75E08BEA96E11B
:1012D0000E94881D4AE050E0C701B6010E94D0215B
:1012E00062EA75E08BEA96E10E94881D4AE050E0D0
:1012F000C301B2010E94D0218BEA96E10E943A1903
:101300008AE68A95F1F700C081E0C8168CEFD8060E
:101310008FEFE806F806D0F5CF5CDD4F988061E0EE
:10132000892D0E94B422C12CD12C7601C39408E2ED
:1013300010E056014C145D046E047F0400F1C0E01F
:10134000D4E065EE88E497E186DB2197D1F760EA87
:1013500075E08BEA96E10E94881DC501B8010E94E4
:101360001E39892B31F40E94351F8BEA96E10E94C9
:101370003A198FEFC81AD80AE80AF80ADACF60E0FB
:10138000892D0E94B42280E995E00FC06EE875E0D7
:101390008BEA96E10E94881D4AE050E0B8018BEA92
:1013A00096E10E94301D8CE695E00E943B1F8CE484
:1013B00097E1DF91CF911F910F91FF90EF90DF9018
:1013C000CF90BF90AF909F907F906F905F904F9025
:1013D00009CFEF92FF920F931F93CF93DF937C017E
:1013E0008B01C0E0D0E0D80114968D919C911597A7
:1013F000C817D90720F4ED91FC91309729F4109289
:101400009116E1E9F6E102C0EC0FFD1F6081C70112
:101410008C0F9D1FEFDE2196C436D10521F7DF9199
:10142000CF911F910F91FF90EF90089590E024E0ED
:1014300034E0829FB001839F700D929F700D112444
:1014400023E030E040E00497F901E60FF71FEE5388
:10145000FD40508145272F5F3F4F233054E0350733
:1014600099F724E034E0829FF001839FF00D929F72
:10147000F00D1124EB52F94F4083089589B120E01B
:1014800030E080E04A990AC08111089581E0293551
:1014900092E03907BCF72F5F3F4FF3CF882371F3FA
:1014A00008951F93CF93DF93CDB7DEB72D970FB677
:1014B000F894DEBF0FBECDBF1A861B861C861D8624
:1014C0008091501581116EC28091551581116AC2AB
:1014D00080914F15811166C228E010E0812F90E0C5
:1014E00095958795182F30E53A95F1F700000000A3
:1014F0000000000000004A9B1068215079F785E445
:101500008A95F1F70000812F8F708093E21284306A
:1015100019F49091E7120FC0853019F49091EA12F6
:101520000AC0863019F49091E91205C0873009F09D
:1015300038C29091E812992309F433C280578C87FE
:10154000812F90E0B4E095958795BA95E1F78D30BD
:10155000910509F0D2C187E592E00197F1F700C04B
:10156000000061E070E0CE010C96E5D969E070E022
:10157000CE01019642DA898190E0A4E095958795A5
:10158000AA95E1F7069709F086C187E592E00197F1
:10159000F1F700C0000061E070E0CE010C96CBD9FD
:1015A00061E070E0CE010A9628DA8F8190E0A0E039
:1015B000B0E0782F6627552744279E81892F90E039
:1015C000A0E0B0E0DC0199278827840F951FA61FB3
:1015D000B71F4D8150E060E070E0762F652F542FEB
:1015E0004427840F951FA61FB71F2C81820F911DC2
:1015F000A11DB11D8093E3129093E412A093E51214
:10160000B093E6128F3E2EEB92072DEAA2072EED45
:10161000B20711F410922A0220912A02213051F4CB
:10162000AA27BB278093E3129093E412A093E512BC
:10163000B093E6128A8590E044E0959587954A95A7
:10164000E1F78430910509F0F6C0E091E21234E050
:10165000E39FF0011124EC5FFD4F408151816281D5
:1016600073818091E3129091E412A091E512B09100
:10167000E612481759076A077B0709F0D8C087E5C3
:1016800092E00197F1F700C0000061E070E0CE0148
:101690000C9651D961E070E0CE010B96AED98B85E6
:1016A00090E034E0959587953A95E1F7039709F036
:1016B0007AC02091E21230E02450310944E054E035
:1016C000249FC001259F900D349F900D112464E04C
:1016D00074E08E529D4F2FD961E070E0CE010D96DF
:1016E0008CD98D8590E024E0959587952A95E1F732
:1016F0000297F1F48091E3129091E412A091E51227
:10170000B091E6120097A044B10578F0E091E212A2
:1017100034E0E39FF0011124EC5FFD4F8FEF9FEF6A
:10172000DC0180839183A283B3836091E21210C1B4
:1017300060E475E08BEA96E10E94881D4091E31217
:101740005091E4126091E5127091E6122AE030E0C7
:101750008BEA96E10E94241D62E375E08BEA96E134
:101760000E94881D6091E21270E0605E7F4F40E150
:1017700050E08BEA96E10E94301D64E275E08BEA4E
:1017800096E10E94881D60E170E08D850E94B1178E
:101790006091E21281E432DDE091E21284E0E89FA0
:1017A000F00111243AC06DE075E08BEA96E10E94E9
:1017B000881D4091E3125091E4126091E5127091FE
:1017C000E6122AE030E08BEA96E10E94241D6FEFDA
:1017D00074E08BEA96E10E94881D6091E21270E04D
:1017E000605D7F4F40E150E08BEA96E10E94301D42
:1017F00061EF74E08BEA96E10E94881D60E170E081
:101800008B850E94B1176091E21281E4F7DCE091D0
:10181000E21294E0E99FF0011124EC5FFD4F8FEF9D
:101820009FEFDC0180839183A283B383AFC081E00B
:1018300080935015ABC00D9709F0A8C087E592E0E2
:101840000197F1F700C0000061E070E0CE010C9656
:1018500072D82091E21230E02450310944E054E083
:10186000249FC001259F900D349F900D112464E0AA
:1018700074E08E529D4FC1D887E592E00197F1F751
:1018800000C0000061E070E0CE010C9654D881E009
:10189000809355157BC06FEE74E08BEA96E10E9451
:1018A000881D6091E21270E0635071094AE050E0D7
:1018B0008BEA96E10E94301D6BED74E08BEA96E1B5
:1018C0000E94881D6091E21270E0605A7F4F4AE0EA
:1018D00050E08BEA96E10E94301D69EC74E08BEADF
:1018E00096E10E94881D60E170E089810E94B11735
:1018F0006091E21282E482DC49C0019759F587E5E4
:1019000092E00197F1F700C000002091E21230E070
:101910002450310946E0429FC001439F900D11249D
:1019200066E070E08D56994E06D861E070E0CE0119
:101930000D9663D86091E212E62FF0E0EE0FFF1FE4
:10194000E15CFA4E80819181892B11F483E4D3CF3D
:1019500080E4D1CF67EC74E08BEA96E10E94881DA9
:101960006091E21270E0635071094AE050E08BEA46
:1019700096E10E94301D6CEA74E08BEA96E10E94C9
:10198000881D60E170E0812F0E94B1170E945623EC
:10199000609351157093521580935315909354157D
:1019A00001C06CDD84E08CBB2D960FB6F894DEBFD1
:1019B0000FBECDBFDF91CF911F9108958F929F925F
:1019C000AF92BF92CF92DF92FF920F931F93CF936C
:1019D000DF93CDB7DEB7C057D1090FB6F894DEBF9D
:1019E0000FBECDBF8C016B0161ED72E0CE01855958
:1019F0009F4F0E942C1BC114D10431F461ED72E0A1
:101A0000C8010E942C1B6FC0F12C4601A12CB12CE7
:101A1000B501A40183E999E122DB60E0C6010E94DF
:101A20003E17811104C0F3948CE497E1DBDBCE0117
:101A30000196CED7811104C0F3948CE497E1D2DBF8
:101A4000BE016F5F7F4FCE018B599F4F0E942C1BB1
:101A5000BE016B597F4FCE0185599F4F0E94921A4C
:101A6000CE018B599F4F0E94271BCE0185599F4F56
:101A70000E94D21924E630E040E050E0BE016559F2
:101A80007F4FCE018B599F4F0E94401BBE016B5967
:101A90007F4FCE0185599F4F0E94921ACE018B59DC
:101AA0009F4F0E94271B8AE08F1540F46DE972E07A
:101AB000CE0185599F4F0E94FD1A05C08CE497E125
:101AC00091DBF110A5CF8CE497E18CDBF80111825A
:101AD00010821382128215821482BE0165597F4FD3
:101AE000C8010E94921ACE0185599F4F0E94271B60
:101AF000C801C059DF4F0FB6F894DEBF0FBECDBF8F
:101B0000DF91CF911F910F91FF90DF90CF90BF9009
:101B1000AF909F908F9008952F923F924F925F9237
:101B20006F927F928F929F92AF92BF92CF92DF92ED
:101B3000EF92FF920F931F93CF93DF93CDB7DEB752
:101B400064970FB6F894DEBF0FBECDBF382E2DB709
:101B50003EB73A8B298B3091E3123D87432E50904C
:101B6000E4126090E5127090E612C72CFF24C7FCC7
:101B7000F094DF2CEF2C1C2D4301BB2497FCB09478
:101B8000AB2C082D452C562C672C772467FC7A94B7
:101B9000242C61ED72E0CE0107960E942C1B6BEAAB
:101BA00072E08BEA96E1F8D9B701A60155276627BE
:101BB000772720E18BEA96E10E94DB1C62E177E067
:101BC0008BEA96E10E94881DB501A401552766277E
:101BD000772720E18BEA96E10E94DB1C6EE077E03C
:101BE0008BEA96E10E94881DB301A2015527662762
:101BF000772720E18BEA96E10E94DB1C6AE077E020
:101C00008BEA96E10E94881D60E170E08D850E945C
:101C1000B117113F09F00BC162EE76E08BEA96E155
:101C20000E94881D6AE070E08D850E94B1178FEFD9
:101C3000840D8B3310F05CE3252E61ED76E08BEAAA
:101C400096E10E94881D6AE070E0822D0E94B11723
:101C5000E22CF12C80E094E0B7010E941E398B0148
:101C600061EC76E08BEA96E10E94881D6AE070E004
:101C7000802F0E94B117E32DF0E09F01245031091D
:101C800084E094E0289F6001299FD00C389FD00CFD
:101C90001124D601AE52BD4F80EB830D8C9384E0AE
:101CA00011968C93119712961C9211274D85242F13
:101CB00030E08091EB129091EC12B8010E940A3949
:101CC0006F5F7F4F6217730708F4A1C08DB79EB78F
:101CD000988B8F87ADB7BEB7AE19BF090FB6F89412
:101CE000BEBF0FBEADBF4DB75EB74F5F5F4F5A016E
:101CF00083E090E0DC01AC0DBD1DAE52BD4F1C92E7
:101D00000196843054E09507A9F721503109209FAE
:101D1000A001219F500D309F500D11249A01220FD8
:101D2000331FD901A151BD4EBE87AD87E89F200169
:101D3000E99F500CF89F500C1124812C912CC12C40
:101D4000D12CE22DF0E0FC8BEB8BF0E14F1A5F0A17
:101D5000C016D10609F453C0AD85BE856D917D9145
:101D6000BE87AD87CE01019629DEBE016F5F7F4F32
:101D7000CE0107960E94921ACE0101960E94271B5F
:101D8000BFEFCB1ADB0A4AE050E0B6018BEA96E1DE
:101D90000E94301D6FEB76E08BEA96E10E94881D71
:101DA000CE0107960E94C2173501F5011192CF01AD
:101DB0008A199B098E159F05CCF34B895C89B50167
:101DC000CE0107960E942B189201280D391D80E044
:101DD00090E0F30141913F01FC01E20FF31FEE524D
:101DE000FD4F438301968E159F059CF364E670E0DA
:101DF00080E090E00E941E238E0C9F1CA9CF2F85AF
:101E000038890FB6F8943EBF0FBE2DBF0DC083E0DA
:101E100090E0FC01EC0DFD1DEE52FD4F108201968D
:101E2000833034E09307A9F7832D00DB93C1123F81
:101E300009F07DC0EDB6FEB66FE976E08BEA96E17B
:101E40000E94881D032D10E0C80103970E94CF1740
:101E5000C801049724E034E0829F8001839F100D25
:101E6000929F100D11240E521D4F20EB230DD8010F
:101E70002C9324E011962C93119712961C92129792
:101E8000880F991FFC01E95BFA4E808191811396BE
:101E90009C93139714968C93880F991FFC01E35120
:101EA000FD4E60817181CE01019688DD4D815E819C
:101EB0004F5F5F4FEDB7FEB7E41BF50B0FB6F8941D
:101EC000FEBF0FBEEDBF2DB73EB72F5F3F4F69017D
:101ED000B901CE0101960E942B188D819E81AC0123
:101EE0004B5F5F4FF60125E030E04217530740F0AB
:101EF0006191D801A20FB31F6C932F5F3F4FF5CFB5
:101F00000696833034E0930734F4F801E80FF91FA4
:101F100010820196F6CF832D89DACE0101960E94B8
:101F2000271B0FB6F894FEBE0FBEEDBE13C1133FC4
:101F300009F096C0013011F480929216032D10E042
:101F4000211017C04D85411114C0F801EE0FFF1F7D
:101F5000E15CFA4E1182108267E876E08BEA96E146
:101F60000E94881DC80103970E94CF17632D83E448
:101F70004AC0780154E0E51AF108C701880F991F9B
:101F8000DC01A95BBA4E6D01BD858B2F90E09429D1
:101F9000F6019183808361E776E08BEA96E10E9407
:101FA000881D4AE050E0B801635071098BEA96E160
:101FB0000E94301D6EE676E08BEA96E10E94881D55
:101FC000D601ED91FC91EE0FFF1FE351FD4E6081B4
:101FD0007181CE010196F2DCCE010196D3D7CE01FC
:101FE00001960E94271BF701EE0FFF1FEE0FFF1F48
:101FF000EC5EFD4F8FEF9FEFDC0180839183A28326
:10200000B383632D80E4FAD8F801EE0FFF1FE15C83
:10201000FA4E0190F081E02DEE0FFF1FE351FD4ECF
:1020200060817181CE010196C9DC80E991E0089F51
:102030007001099FF00C189FF00C1124BE016F5F16
:102040007F4FC7010296C5D9CE0101960E94271B7A
:10205000642DC701CFD86D85C7010196CBD80CC0C0
:10206000143F09F069C0BD85B13011F0013041F471
:1020700084E596E00E943B1F81E0809329026AC0BC
:1020800081E396E00E943B1FB5D380E054D4832DBA
:1020900090E024E034E0829F8001839F100D929FA6
:1020A000100D11240B531D4023E0E22EF12C5C0196
:1020B000E4E0AE1AB1086801D8016D918D0182EC9F
:1020C00099E10E94831EF60160818BEA96E10E94ED
:1020D000EE18FFEFEF1AFF0A23E1E216F10459F7B9
:1020E0000E94351F81E027D484E094E0A89E60011F
:1020F000A99ED00CB89ED00C112403E110E0C801B9
:102100008C0D9D1DAC014E525D4F7A01DA016C9130
:1021100082EC99E10E94831EF70160818BEA96E1CF
:102120000E94EE180F5F1F4F0332110541F70E9406
:10213000351F109228020EC01A3F61F46AE176E062
:102140008BEA96E10E94881D832D90E0039727D7A4
:10215000832D6CD8CE0107960E94271B29893A89C6
:102160000FB6F8943EBF0FBE2DBF64960FB6F8941D
:10217000DEBF0FBECDBFDF91CF911F910F91FF90BA
:10218000EF90DF90CF90BF90AF909F908F907F9017
:102190006F905F904F903F902F9008958F929F92F5
:1021A000AF92BF92CF92DF92EF92FF920F931F9365
:1021B000CF93DF93CDB7DEB764970FB6F894DEBF49
:1021C0000FBECDBFA82E61ED72E0CE010D960E942C
:1021D0002C1BEA2CF12C80E991E0E89E6001E99E3D
:1021E000D00CF89ED00C1124C60106D8B82EC6011A
:1021F000019602D8870104501109000F111FF80140
:10220000E95BFA4E2B2D30E0322F2227282B318329
:10221000208361ED72E0CE0107960E942C1B4601DF
:1022200022E0820E911C86E6C80ED11CC4010E94D9
:10223000FC08B82E882349F11A8219821C821B825D
:102240001E821D82BE01695F7F4FCE0101960E94F2
:10225000121BBB8A1C8A41E050E0BE016D5E7F4FBD
:10226000CE0101960E94651A811104C0CE0101962B
:102270000E94CC1ABE016F5F7F4FCE0107960E946D
:10228000121BCE0101960E94271B9FEF891A990A03
:102290008C149D0459F6CE0107960E94D219BE01F6
:1022A000695F7F4FCE010D960E94921ACE0107966C
:1022B0000E94271BF801E95BFA4E6F018081918132
:1022C0008D32F1E09F0730F0F801E95BFA4E1182A0
:1022D000108235C0880F991FFC01E351FD4E6081CB
:1022E0007181CE0101966ADBBE016F5F7F4FCE0127
:1022F0000D960E94DF21B82ECE0101960E94271B69
:10230000BB2011F3F60180819181892BC1F06AE62F
:1023100075E08BEA96E10E94881D4AE050E0B70123
:10232000635071098BEA96E10E94301D67E675E003
:102330008BEA96E10E94881DCE010D9623D6F80106
:10234000E95BFA4E808191816A2D892BB9F483E48F
:102350000E94FE0865E675E08BEA96E10E94881D02
:10236000B701635071094AE050E08BEA96E10E94A0
:10237000301D87E595E00E943B1F03C080E40E946A
:10238000FE08CE010D960E94271B64960FB6F894A6
:10239000DEBF0FBECDBFDF91CF911F910F91FF9098
:1023A000EF90DF90CF90BF90AF909F908F90089567
:1023B000DF92EF92FF920F931F93CF93DF93EC0185
:1023C0008B0128812223E9F08A8180FF1AC01FC077
:1023D000D380D422E114F10409F078C0D11076C082
:1023E000892B8A2B8B2B09F456C04C855D856E8515
:1023F0007F859E01245F3F4FCF010E94BA0687FF71
:102400005AC08981826089838FEF9FEFA2C023FF2A
:1024100014C0888D998DAA8DBB8D488959896A8988
:102420007B89841B950BA60BB70B82309105A10508
:10243000B105A0F4009791F46AC025FF0FC0EE81AA
:10244000FF818681978145E0880F991F4A95E1F7C2
:10245000488959898417950709F457C0888999894B
:10246000AA89BB897C0131E0F322EE81FF81AC01B6
:10247000BD0139E076956795579547953A95D1F71F
:1024800025FFA6CF848D958DA68DB78D480F591F3A
:102490006A1F7B1F41C026FF05C0848D958DA68DC8
:1024A000B78D04C08C8D9D8DAE8DBF8D8C879D8723
:1024B000AE87BF870BC0811109C08881807709F47E
:1024C000A0CF81E090E021E030E023C0EE81FF81E9
:1024D0004C855D856E857F85425051096109710982
:1024E000048004C0440F551F661F771F0A94D2F75B
:1024F00080899189A289B389480F591F6A1F7B1F60
:102500004D0D511D611D711D07C080E090E020E060
:1025100030E0821B930B1DC08E819F8120E080964E
:102520000E940D06009709F46CCFFC01EE0DFF1D13
:102530008081F801808388899989AA89BB8901965D
:10254000A11DB11D888B998BAA8BBB8B81E090E07C
:10255000DECFDF91CF911F910F91FF90EF90DF9031
:10256000089540E0682F82EC99E10C94361ECF93D9
:10257000DF931F92CDB7DEB7BE016F5F7F4F8CE454
:1025800097E116DF019719F4898190E002C08FEF7F
:102590009FEF0F90DF91CF910895CF92DF92EF924E
:1025A000FF920F931F93CF93C82F1092711781E062
:1025B00090E0A0E0B0E08093741790937517A0931B
:1025C0007617B09377178CE697E190938E178093E8
:1025D0008D1710928C178FEF9FEFDC0180938F1770
:1025E00090939017A0939117B0939217CC2331F149
:1025F000C53008F0DEC020E040E050E0BA018CE8D1
:1026000097E10E940D06009709F4D3C000E1C09F36
:10261000800D911D11244097FC01E254FE4F208152
:102620002F7709F0C6C03896C080D180E280F38051
:10263000C114D104E104F10421F4BBC0C12CD12C9C
:10264000760120E0B701A6018CE897E10E940D0613
:10265000FC01892B09F4ADC08385948581159240D6
:1026600009F0A7C08089823009F0A3C0268537858C
:102670002115310509F49DC0958590936E178FEF54
:10268000890F80936F17C0E081E0981751F041E007
:102690004C0F493019F4C09370178BC0880FC42FAA
:1026A000F4CFC0937017468957894115510519F029
:1026B00060E070E004C044A155A166A177A14093F9
:1026C00078175093791760937A1770937B17D70117
:1026D000C601820F931FA11DB11D8C019D01809326
:1026E000801790938117A0938217B09383178189E5
:1026F00092899093731780937217440F551F661F2A
:10270000771F400F511F621F731F4093881750930C
:10271000891760938A1770938B17B5E0880F991FFC
:10272000BA95E1F781509E4F892F99278695480FDA
:10273000591F611D711D40937C1750937D17609345
:102740007E1770937F17238934892115310521F075
:10275000C901A0E0B0E004C080A191A1A2A1B3A1F1
:1027600097018601041B150B260B370BB901A80135
:10277000480F591F6A1F7B1F04C0769567955795B0
:102780004795CA95D2F7DB01CA010196A11DB11D7B
:102790008093841790938517A0938617B09387171B
:1027A000453F1FE051076105710528F48CE08093D7
:1027B000711780E017C0453F5F4F6105710510F448
:1027C00080E10DC084A595A5A6A5B7A5809388171F
:1027D00090938917A0938A17B0938B1780E2809308
:1027E000711781E0CF911F910F91FF90EF90DF90D3
:1027F000CF90089581E0B5DE8BE39FE10197F1F77B
:102800000895CF93DF93823028F09091D11998608A
:102810009093D1198093D5191092D61980E48093A2
:10282000D71980E18093D81980E58093D91961E0A8
:102830008091C6190E94E2228091C7198F3F19F03A
:1028400061E00E94E22261E08091C8190E94E222C8
:10285000C2ECD9E19E01225C39418091D11984FDFD
:1028600003C084E090E002C088E090E02196281741
:1028700039072CF461E08E810E94E222EBCF8BE3DA
:102880009DE00197F1F760E08091C6190E94B422A3
:1028900060E08091C8190E94B4228091C7198F3FCF
:1028A00019F060E00E94B4228091D11984FD20C00B
:1028B00063E082EC99E10E940B1ECBE4D6E4CE01EA
:1028C0000197F1F763E082EC99E10E940B1E2197DA
:1028D000F1F763E082EC99E10E940B1E83E592E040
:1028E0000197F1F762E082EC99E10E940B1E12C0A1
:1028F000806237DE8BE496E40197F1F78091D1197D
:1029000080622FDE83E592E00197F1F78091D11983
:10291000806227DE8091D119806223DE84E080937B
:10292000D2198CE01EDE66DF82E08093D31986E048
:10293000DF91CF9116CE843008F083E09091D519C5
:10294000891710F08FEF890FE82FF0E0EE53F64E65
:102950008489806806CEFF920F931F93CF93DF93F5
:102960001F92CDB7DEB78C01FC0180899189A289C5
:10297000B38925E0B695A795979587952A95D1F7C0
:10298000F82FFF70FF2EBE016F5F7F4FC80110DD73
:10299000813019F080E090E014C0F80180899189BD
:1029A000A289B3894F96A11DB11D808B918BA28BFB
:1029B000B38B868197818796F0E2FF9E800D911DF3
:1029C00011240F90DF91CF911F910F91FF900895E7
:1029D0007F928F929F92AF92BF92CF92DF92EF92AF
:1029E000FF920F931F93CF93DF93CDB7DEB7A097DE
:1029F0000FB6F894DEBF0FBECDBF8C0119821A82CC
:102A000080914C17882309F44EC051C08A2C912C18
:102A100040915017509151174819590960E070E0E2
:102A200095E0440F551F661F771F9A95D1F7C70190
:102A30000E942F08B82E8823B1F1C7018CDFFC015A
:102A4000892B89F183858F3071F580818F7190E0BA
:102A50008816990641F521E0821A9108789C900128
:102A6000799C300D1124C801820F931F4F0160E043
:102A7000D401653008F0B7C011964D915C91129762
:102A80004115510509F4CBC02F3F310508F4B7C0FB
:102A9000D6011C92808186FDCEC0A39480914F17F1
:102AA0008A1508F0B3CFF8011082B12CC4C0909100
:102AB0004F17911157C0807631F08FE2D8018C9377
:102AC00011961C924CC04091601750916117609113
:102AD000621770916317809152179091531720E0FD
:102AE00080960E940D06009701F3E0915017F09137
:102AF0005117EF70FF2725E0EE0FFF1F2A95E1F732
:102B00007F01E80EF91EE114F10479F2D70148E0E3
:102B100080E090E05EE22C912032C9F0983039F4E8
:102B20009801280F311DF90150838F5F40E12C91EE
:102B30003FEB320F3A3128F4F7013485342309F0A2
:102B4000205EB801680F711DFB0120838F5F9F5FBE
:102B500011969B3001F7F801E80FF11D1082BB249C
:102B6000B39469C08091541790915517A09156174E
:102B7000B091571740915217509153179E012F5FF4
:102B80003F4F79010097A105B105A9F480E2D90171
:102B9000E82F1D92EA95E9F758874F83DA011596D9
:102BA0009C91903121F0903209F07DCF80E48983AF
:102BB00081E08B830FC020E2F70111922A95E9F79B
:102BC00020E1298321E02B8358874F838D8F9E8FAF
:102BD000AF8FB8A3AA24A3948DE0782E6801FEEFEE
:102BE000CF0ED11C5BCF6B3028F414964D915C91C5
:102BF000159746CF16964D915C91179741CF2F5F51
:102C00003F4F4F37510508F04FE3DC014D93CD01A5
:102C10006F5FB2E08B0E911C6D3009F029CF2F3F12
:102C2000310508F035CF808186FF32CFD801A20F61
:102C3000B31F1C922DCF8B2DA0960FB6F894DEBF3C
:102C40000FBECDBFDF91CF911F910F91FF90EF90FD
:102C5000DF90CF90BF90AF909F908F907F9008951E
:102C60008F929F92AF92BF92CF92DF92EF92FF929C
:102C70000F931F93CF93DF9300D01F92CDB7DEB792
:102C800020E2ECE4F7E1DF011D922A95E9F7A0903C
:102C90009919B0909A19B0925317A0925217909325
:102CA000511780935017C090AF19D090B019E09091
:102CB000B119F090B219C0925417D0925517E09202
:102CC0005617F09257178F709927FC0195E0EE0F79
:102CD000FF1F9A95E1F7D501AE0FBF1FD2962C9139
:102CE00023FDB0C0922F9771287109F498609093DA
:102CF0004C1740934F17862F8370813051F028F086
:102D0000823009F09FC083E005C065FD9BC081E073
:102D100001C082E080934E1790914E1791FF05C03D
:102D200080914C17817109F08DC0962E862F88787E
:102D3000982B90934E17D50193964D915D916D917F
:102D40007C91969740936017509361176093621738
:102D500070936317EA0DFB1DC3ACD4ACE12CF12CCE
:102D6000B601552744279F012F5B3F4FD901CD90D6
:102D7000DC90E12CF12CC42AD52AE62AF72A95FE0C
:102D80003BC0C114D104E104F10409F45FC09E0109
:102D90002F5F3F4FB701A601C5010E94BA06882EDA
:102DA00087FD50C000E010E09801B701A601C50101
:102DB0000E944B06882309F445C0F50140855185E2
:102DC000628573854C155D056E057F0560F0F1E049
:102DD000CF1AD108E108F108D5011896CD92DD92FD
:102DE000ED92FC921B97C980DA80EB80FC80811009
:102DF000CECF81112BC026C0C0926817D092691720
:102E0000E0926A17F0926B17ED5BFF4F8081918122
:102E1000A281B3818093641790936517A09366177E
:102E2000B093671792FE18C04091641750916517D0
:102E300060916617709167178CE497E10E942F08E4
:102E400081110AC010924C1780E007C080914E1784
:102E5000846080934E17E6CF81E00F900F900F9023
:102E60000F90DF91CF911F910F91FF90EF90DF9026
:102E7000CF90BF90AF909F908F900895FF920F9347
:102E80001F93CF93DF938C0180914C17811162C007
:102E900090919319907709F45DC066FD5BC0D62FC1
:102EA0000115110541F1A8014150510960E070E0A0
:102EB00085E0440F551F661F771F8A95D1F783E978
:102EC00099E10E942F08882309F444C083E999E11D
:102ED00042DDFC01892B09F43DC083858F3091F4DC
:102EE00080818F71813071F4F584C02F0531110517
:102EF00058F0C4E109C040E050E0BA0183E999E12B
:102F00000E942F08C0E0F12C83E999E124DD0097AD
:102F100009F1FC012081253EE9F02223D9F02E326F
:102F2000C9F0CC2371F09C01255F3F4F80E080FB0E
:102F3000879587F99191890F2E173F07C1F7F812EE
:102F400009C04C2F6D2FC801DF91CF911F910F91B8
:102F5000FF9086CE80E0DF91CF911F910F91FF907F
:102F60000895CF93DF939B01482F50E060E070E01D
:102F70008BEA96E169D5EC0178D78C0F9D1FDF9124
:102F8000CF910895CF93DF93BC018BEA96E1B2D540
:102F9000EC016BD78C0F9D1FDF91CF910895CF93DC
:102FA000DF934AE050E0BC018BEA96E159D5EC0191
:102FB0005CD78C0F9D1FDF91CF910895CF93DF9346
:102FC000EC01FB0144815581608171817ED28111C8
:102FD00002C0CE01E1D2CE01DF91CF910895CF930F
:102FE000DF93EC0141E050E068EB72E06ED28111BA
:102FF00002C0CE01D1D2CE01DF91CF9108950F93BF
:103000001F93CF93DF93CDB7DEB729970FB6F89410
:10301000DEBF0FBECDBF8C01862FF801118210825A
:1030200013821282158214824AE0BE016F5F7F4FC5
:1030300090E00E946836BE016F5F7F4FC801DDD20D
:1030400029960FB6F894DEBF0FBECDBFDF91CF91AA
:103050001F910F9108950F931F93CF93DF93411505
:103060005105E1F061157105C9F0FC01C481D581FC
:10307000209719F4FB01108211C0415051094C17DF
:103080005D0708F4EA018B01FC0160817181AE01EA
:10309000C8010E943E3AC00FD11F1882DF91CF9124
:1030A0001F910F91089508950895DC01ED91FC9111
:1030B0000190F081E02D1994CF92DF92EF92FF9270
:1030C0000F931F93CF93DF936C017A018B01C0E0C4
:1030D000D0E0CE15DF0581F0D8016D918D01D601CC
:1030E000ED91FC910190F081E02DC6011995892B9D
:1030F00011F02196EECF7E01C701DF91CF911F9194
:103100000F91FF90EF90DF90CF900895FC01538DC9
:10311000448D252F30E0842F90E0821B930B5417B1
:1031200010F0CF96089501970895FC01918D828D3E
:10313000981761F0828DDF01A80FB11D5D968C910B
:10314000928D9F5F9F73928F90E008958FEF9FEF16
:103150000895FC01918D828D981731F0828DE80FD2
:10316000F11D858D90E008958FEF9FEF0895FC018C
:10317000918D228D892F90E0805C9F4F821B910959
:103180008F73992708958BEA96E1F1DF21E0892B6F
:1031900009F420E0822F0895FC01848DDF01A80F3F
:1031A000B11DA35ABF4F2C91848D90E001968F736F
:1031B0009927848FA689B7892C93A089B1898C918E
:1031C000837080648C93938D848D981306C00288DD
:1031D000F389E02D80818F7D80830895EF92FF92A7
:1031E0000F931F93CF93DF93EC0181E0888F9B8D2A
:1031F0008C8D981305C0E889F989808185FD25C0EB
:10320000F62E0B8D10E00F5F1F4F0F731127E02E6E
:103210008C8DE8120BC00FB607FCFACFE889F9894C
:10322000808185FFF5CFCE01B7DFF2CF8B8DFE0118
:10323000E80FF11DE35AFF4FF0829FB7F8940B8F10
:10324000EA89FB89808180620AC09FB7F894EE8981
:10325000FF896083E889F989808183708064808335
:103260009FBF81E090E0DF91CF911F910F91FF9080
:10327000EF900895CF93DF93EC01888D8823C1F000
:10328000EA89FB89808185FD05C0A889B9898C916F
:1032900086FD0EC00FB607FCF5CF808185FFF2CF0B
:1032A000A889B9898C9185FFEDCFCE0175DFE8CF74
:1032B000DF91CF91089580E090E0892B19F063DFD2
:1032C000811125C080E090E0892B41F080E090E002
:1032D000892B21F00E94000081111CC080E090E049
:1032E000892B41F080E090E0892B21F00E940000C2
:1032F000811113C080E090E0892BA1F080E090E084
:10330000892B81F00E94000081110AC008950E945B
:103310000000D8CF0E940000E1CF0E940000EACF59
:103320000C94000008950E94193A0F931F93CF93B5
:10333000DF93EC0188819981009729F02A813B81F4
:103340002617370788F48B016F5F7F4F0E9439394A
:10335000009761F0998388831B830A832C813D81C8
:10336000232B11F4FC01108281E001C080E0DF9189
:10337000CF911F910F910895CF93DF93EC0160E0FF
:103380008E810E94B42261E08E810E94B42260E0AE
:103390008E810E94B4228BE891E00197F1F7DF91D2
:1033A000CF910895AF92BF92CF92DF92EF92FF92AA
:1033B0000F931F93CF93DF93DC01CD90DC90119797
:1033C000C114D10409F443C01496CD91DC91159732
:1033D0002097E9F18C0176015701BFEFAB1ABB0AC8
:1033E000F7018081082E000C990B0E948136892BF1
:1033F00011F07501F1CF2197CC0DDD1D8881082ECC
:10340000000C990B0E948136892B29F0CE15DF051F
:1034100010F02197F3CFAE014F5F5F4F4E195F0958
:10342000D80115965C934E931497CE14DF0420F4C4
:10343000B701C6010E94253AD801ED91FC91119780
:1034400014968D919C911597E80FF91F1082DF91CA
:10345000CF911F910F91FF90EF90DF90CF90BF9091
:10346000AF900895CF93DF93FC01C081D181209765
:1034700051F08881882339F0082E000C990B0E94A6
:103480001D3A8993F6CFDF91CF910895FC012481F5
:103490003581232B31F421E061157105A1F0FB0189
:1034A00008C0FC01808191816115710531F421E032
:1034B000FC018081882339F005C00E942E3A21E06A
:1034C000892B09F020E0822F0895EF92FF920F934D
:1034D0001F93CF93DF936115710511F480E01BC03A
:1034E00041155105B9F07B01EC018C819D818A0168
:1034F000080F191FB801CE0118DF882379F328813E
:1035000039818C819D81B701820F931F0E94373AC8
:103510001D830C8381E0DF91CF911F910F91FF906C
:10352000EF9008950F931F93CF93DF938C01EB01DE
:10353000FC0180819181009739F068817981611562
:103540007105A1F40E94DF3588819981F80191838A
:1035500080838A819B81938382838C819D819583E3
:103560008483198218821B821A820FC0F80142815B
:1035700053812C813D814217530720F30E94373A33
:103580008C819D81F801958384831D821C82DF914B
:10359000CF911F910F910895CF93DF93EC01888114
:1035A0009981009711F00E94DF35198218821D82DF
:1035B0001C821B821A82DF91CF910895EF92FF92B5
:1035C0000F931F93CF93DF93EC017B018A01BA0124
:1035D000ACDE811103C0CE01DFDF07C01D830C8389
:1035E000B701888199810E94373ACE01DF91CF914E
:1035F0001F910F91FF90EF900895CF93DF93EC010F
:103600006115710551F0FB0101900020E9F7319738
:10361000AF01461B570BD2DF01C0BEDFCE01DF91E9
:10362000CF910895CF93DF93EC01FB0186179707A5
:1036300051F0608171816115710521F044815581DE
:10364000BDDF01C0A9DFCE01DF91CF910895FC015C
:10365000808191810C94DF35FC01118210821382EC
:103660001282158214826115710549F0FB010190E7
:103670000020E9F73197AF01461B570B9FCF089504
:10368000BF92CF92DF92EF92FF920F931F93CF934F
:10369000DF937C016B018A01E9012417350720F4CF
:1036A000812F8901C42FD82F61ED72E0C701D4DFCB
:1036B000D60114968D919C91159708171907C0F49F
:1036C0008C179D0708F4EC01D601ED91FC91119740
:1036D000EC0FFD1FB08010826D917C91600F711F07
:1036E000C7018BDFD601ED91FC91EC0FFD1FB0827D
:1036F000C701DF91CF911F910F91FF90EF90DF9065
:10370000CF90BF9008951F920F920FB60F92112481
:103710000BB60F922F933F934F935F936F937F93CB
:103720008F939F93AF93BF93EF93FF93E0910E021C
:10373000F0910F021995FF91EF91BF91AF919F9179
:103740008F917F916F915F914F913F912F910F904A
:103750000BBE0F900FBE0F901F9018951F920F92E7
:103760000FB60F9211240BB60F922F933F934F93E6
:103770005F936F937F938F939F93AF93BF93EF93D9
:10378000FF93E0910C02F0910D021995FF91EF91DA
:10379000BF91AF919F918F917F916F915F914F9169
:1037A0003F912F910F900BBE0F900FBE0F901F9067
:1037B00018951F920F920FB60F9211240BB60F920D
:1037C0002F933F934F935F936F937F938F939F9329
:1037D000AF93BF93EF93FF93E0910202F091030246
:1037E0001995FF91EF91BF91AF919F918F917F912B
:1037F0006F915F914F913F912F910F900BBE0F9062
:103800000FBE0F901F9018951F920F920FB60F9238
:1038100011240BB60F922F933F934F935F936F93A7
:103820007F938F939F93AF93BF93EF93FF93E09119
:103830000002F09101021995FF91EF91BF91AF91B4
:103840009F918F917F916F915F914F913F912F91B8
:103850000F900BBE0F900FBE0F901F9018951F92E8
:103860000F920FB60F9211240BB60F922F933F9326
:103870004F935F936F937F938F939F93AF93BF9378
:10388000EF93FF93E0910A02F0910B021995FF91DB
:10389000EF91BF91AF919F918F917F916F915F91C8
:1038A0004F913F912F910F900BBE0F900FBE0F9035
:1038B0001F9018951F920F920FB60F9211240BB6FE
:1038C0000F922F933F934F935F936F937F938F93B9
:1038D0009F93AF93BF93EF93FF93E0910802F09112
:1038E00009021995FF91EF91BF91AF919F918F912F
:1038F0007F916F915F914F913F912F910F900BBEF0
:103900000F900FBE0F901F9018951F920F920FB639
:103910000F9211240BB60F922F933F934F935F9307
:103920006F937F938F939F93AF93BF93EF93FF9387
:10393000E0910602F09107021995FF91EF91BF9176
:10394000AF919F918F917F916F915F914F913F9137
:103950002F910F900BBE0F900FBE0F901F901895D8
:103960001F920F920FB60F9211240BB60F922F9346
:103970003F934F935F936F937F938F939F93AF93F7
:10398000BF93EF93FF93E0910402F0910502199524
:10399000FF91EF91BF91AF919F918F917F916F9127
:1039A0005F914F913F912F910F900BBE0F900FBEE3
:1039B0000F901F9018958F929F92AF92BF92EF92A7
:1039C000FF920F931F93CF93DF93CDB7DEB7A197ED
:1039D0000FB6F894DEBF0FBECDBF7C01FA01CB015C
:1039E00019A2223008F42AE08E010F5D1F4F822EAB
:1039F000912CA12CB12CBF01A50194010E94E737A5
:103A0000F901CA01015011096A3014F4605D01C066
:103A1000695CD8016C93232B242B252B61F7B8010B
:103A2000C7010E94CC07A1960FB6F894DEBF0FBE67
:103A3000CDBFDF91CF911F910F91FF90EF90BF907D
:103A4000AF909F908F9008952115310541F4DC01CE
:103A5000ED91FC910190F081E02D642F1994ABCF92
:103A6000CF92DF92EF92FF920F931F93CF93DF934A
:103A70004115510579F4DC01ED91FC910190F08143
:103A8000E02DDF91CF911F910F91FF90EF90DF908C
:103A9000CF9019946B01770FEE08FF084A3051055B
:103AA000E9F4F7FE19C0EC016DE2FFDA8C0144275E
:103AB0005527BA014C195D096E097F092AE0CE012C
:103AC0007ADF800F911FDF91CF911F910F91FF90AF
:103AD000EF90DF90CF9008952AE001C0242FB70126
:103AE000A601DF91CF911F910F91FF90EF90DF9092
:103AF000CF9061CFDB0114964D915C9115976D913C
:103B00007C91DC01ED91FC910280F381E02D199410
:103B1000EF92FF920F931F93CF93DF938C017B0162
:103B2000C0E0D0E0F701EC0FFD1F6491662361F067
:103B3000D801ED91FC910190F081E02DC80119951B
:103B4000892B11F02196EECFCE01DF91CF911F91FD
:103B50000F91FF90EF9008951F920F920FB60F9262
:103B600011240BB60F922F933F934F935F936F9354
:103B70007F938F939F93AF93BF93EF93FF938BEAC2
:103B800096E10ADBFF91EF91BF91AF919F918F91E9
:103B90007F916F915F914F913F912F910F900BBE4D
:103BA0000F900FBE0F901F9018951F920F920FB697
:103BB0000F9211240BB60F922F938F939F93EF9335
:103BC000FF93E091BB16F091BC168081E091C11685
:103BD000F091C21682FD12C090818091C4168F5F51
:103BE0008F732091C516821751F0E091C416F0E052
:103BF000E555F94E958F8093C41601C08081FF91E1
:103C0000EF919F918F912F910F900BBE0F900FBE50
:103C10000F901F901895CF92DF92EF92FF920F9323
:103C20001F93CF93DF936C017C0187E0E80EF11CBA
:103C3000C0E0D0E0062F10E0B8010C2E02C0759550
:103C400067950A94E2F76170F70181917F018CD446
:103C50002196C430D10581F7C601DF91CF911F9124
:103C60000F91FF90EF90DF90CF9086CBCF92DF92B5
:103C7000EF92FF920F931F93CF93DF93EC01F62EF9
:103C8000642F8C8171D48D818F3F11F060E06CD4F2
:103C90008F850F2D10E084FF23C06E0187E0C80ED2
:103CA000D11CE12CF12CB8010E2C02C07595679542
:103CB0000A94E2F76170F60181916F0155D4FFEF2C
:103CC000EF1AFF0A88E0E816F10469F7CE01DF91E8
:103CD000CF911F910F91FF90EF90DF90CF904CCB41
:103CE000B80184E0759567958A95E1F7CE0193DF79
:103CF0006F2DCE01DF91CF911F910F91FF90EF902B
:103D0000DF90CF9088CF41E0B1DF81E090E008956F
:103D1000CF93DF93EC01E981FA81908181819CBD91
:103D20008DBDE981FA8160E082811ED481E08B83C0
:103D3000DF91CF9108958EBD0DB407FEFDCF08959C
:103D40008FEF8EBD0DB407FEFDCF8EB508950F9396
:103D50001F93CF93DF938C01862FEA01ECDF8881DC
:103D60008EBD8981FE013296DE5F0DB407FEFDCF68
:103D70008EBDEC17FD0711F08191F7CF0DB407FE52
:103D8000FDCF8FEFD8DF8FEFD6DFDADFF801848346
:103D90008F71853039F087E58083C8010E943D0529
:103DA00080E001C081E0DF91CF911F910F910895D4
:103DB0000F931F93CF93DF93EB0178D48B01C0DF78
:103DC0008F3F41F073D4601B710BC617D707B8F74C
:103DD00080E001C081E0DF91CF911F910F910895A4
:103DE0000F931F93CF93DF93EC0189018D81833073
:103DF00039F089E0440F551F661F771F8A95D1F768
:103E00009A01AB0168E1CE010E945205882311F0AE
:103E100082E320C0A8016EEFCE0199DF8823D9F09C
:103E200060ED77E0CE01C4DF182F811102C08AE572
:103E300011C020E030E0A9016DE0CE010E945205E2
:103E4000811107C07DDF811104C0CE010E943D05B4
:103E500006C089E28883CE010E943D0510E0812FD3
:103E6000DF91CF911F910F9108956FEC72E08BEA73
:103E700096E10C94CC07CF93DF93BC018BEA96E1DB
:103E800047DEEC01F2DF8C0F9D1FDF91CF9108958B
:103E9000EF92FF920F931F93CF93DF93EC017B017F
:103EA00005D48B014DDF8C838F3F41F4FFD3601B22
:103EB000710B693E7340B0F385E503C08E3F39F066
:103EC00080E58883CE010E943D0580E019C08FEF18
:103ED0008EBDF701D701A150BE4F9FEF0DB407FE75
:103EE000FDCF8EB59EBD8193EA17FB07B9F70DB4E0
:103EF00007FEFDCF8EB58C931C8222DF21DF81E08F
:103F0000DF91CF911F910F91FF90EF9008952F9225
:103F10003F924F925F926F927F928F929F92AF9259
:103F2000BF92CF92DF92EF92FF920F931F93CF93A6
:103F3000DF93CDB7DEB72A970FB6F894DEBF0FBE7A
:103F4000CDBF9E838D833B015A834983DC018C91D5
:103F500083FFE1C112968C9181FFDDC183FF0CC00C
:103F6000ED81FE81408D518D628D738DCF010E9458
:103F70002F08882309F4CFC189819A81AC0160E0C0
:103F800070E0ED81FE8180899189A289B389809555
:103F90009095A095B09584179507A607B70708F4E4
:103FA000BAC1C980DA8022242A94322C21013C969D
:103FB000FC83EB83AD81BE8150964D915D916D91F7
:103FC0007C915397C114D10409F47EC116968D914A
:103FD0009C9117978A019B0169E036952795179563
:103FE00007956A95D1F7DC011396EC91BE2EB022AD
:103FF0007A01B1E0FB22B1105CC0E114F10409F0D8
:1040000058C0ED81FE8144855585668577854115CB
:1040100051056105710511F12B813C810E94BA06A1
:1040200087FD79C1811182C1AD81BE8112968C91CB
:104030001297846012968C9312971C964D915D9105
:104040006D917C911F972B813C8116968D919C914F
:1040500017970E943807811169C15DC1ED81FE810A
:10406000448D558D668D778D41155105610571051E
:10407000C1F42281246022832B813C8140E050E006
:10408000BA010E943807882309F445C1ED81FE81F9
:1040900084859585A685B785848F958FA68FB78FE4
:1040A00008C0AD81BE811C964D935D936D937C934A
:1040B0001F97AD81BE811696ED91FC9117971C96C6
:1040C0004D915D916D917C911F974250510961090D
:1040D0007109048004C0440F551F661F771F0A949E
:1040E000D2F780899189A289B389480F591F6A1F25
:1040F0007B1F4B0D511D611D711DE114F10429F44D
:10410000C114B2E0DB0608F040C080E092E08E19F6
:104110009F0986018C159D0508F48C01E114F104BA
:10412000A9F4AD81BE8150968D909D90AD90BC90CC
:10413000539758968D919D910D90BC91A02D881606
:104140009906AA06BB0610F025E001C021E0CF01C8
:1041500080960E940D06009709F4DDC0A801B30106
:104160008E0D9F1D0E94253AE00EF11EE114B2E073
:10417000FB0609F096C0ED81FE81868197818096CD
:104180000E94CA0581118DC0C6C003A114A125A13A
:1041900036A1C11484E0D80608F46BC082818B1963
:1041A00090E08D2C8694912C8815990508F44C018B
:1041B000401751076207730760F0D901C801880DE5
:1041C000991DA11DB11D481759076A077B0708F4FF
:1041D0009CC0AD81BE811696ED91FC911797E08051
:1041E000F180F7018581833039F099E0440F551F44
:1041F000661F771F9A95D1F79A01AB0169E1C70154
:104200000E945205811104C0530100E010E00EC06D
:1042100083E3D7018C9316C0A5016CEFC70197DD2E
:10422000882381F00F5F1F4FFEEFBF1A60ED77E02C
:10423000C7010815190551F0BBDD8111EDCF8BE5E4
:10424000F7018083C7010E943D050FC0B1DD8823BF
:1042500049F0102F0027110F8DEF6DDDC7010E946F
:104260003D051FC086E5D7018C93C7010E943D051F
:1042700052C0041715072607370729F410A223A2F6
:1042800034A245A256A2AD81BE811696ED91FC9155
:104290001797930180819181A3DD8823E1F100E0EC
:1042A00012E0ED81FE8180899189A289B389800F16
:1042B000911FA11DB11D808B918BA28BB38B600EC2
:1042C000711EC01AD10A76CEED81FE81808D918D4E
:1042D000A28DB38D84179507A607B70738F4408FD2
:1042E000518F628F738F828184608283ED81FE8122
:1042F000828187FD03C089819A8139C08D819E8129
:104300000E94E1078111F7CF06C010A223A234A2B8
:1043100045A256A25ECFAD81BE8111968C911197B8
:10432000816011968C938FEF9FEF21C0AD81BE818C
:104330001696ED91FC9117971C964D915D916D919C
:104340007C911F974250510961097109048004C092
:10435000440F551F661F771F0A94D2F780899189F1
:10436000A289B389480F591F6A1F7B1FC9CE2A969D
:104370000FB6F894DEBF0FBECDBFDF91CF911F9176
:104380000F91FF90EF90DF90CF90BF90AF909F90F4
:104390008F907F906F905F904F903F902F900895F7
:1043A000CF93DF939A01AB01BC018BEA96E14CDB22
:1043B000EC015BDD8C0F9D1FDF91CF910895FC0117
:1043C00024813581FB01448155812417350721F56E
:1043D000FC0180819181FB0160817181009719F05E
:1043E00061157105A1F46115710549F0232BB1F038
:1043F000FB01808190E09195819591090AC0009719
:1044000069F0232B59F0FC01808190E002C00E94EA
:104410002E3A21E0892B19F020E001C021E0822F03
:10442000089590E0FC013197E231F10508F04EC0AB
:104430008827EE58FF4F8F4F0C94313980918000C0
:104440008F7703C0809180008F7D809380000895D6
:1044500080918000877FF9CF84B58F7702C084B5C3
:104460008F7D84BD08958091B0008F7703C08091C7
:10447000B0008F7D8093B0000895809190008F7779
:1044800007C0809190008F7D03C080919000877F4E
:104490008093900008958091A0008F7707C080914D
:1044A000A0008F7D03C08091A000877F8093A00033
:1044B0000895809120018F7707C0809120018F7D22
:1044C00003C080912001877F8093200108953FB72A
:1044D000F8948091E5199091E619A091E719B091AF
:1044E000E81926B5A89B05C02F3F19F00196A11D1C
:1044F000B11D3FBFBA2FA92F982F8827820F911D7A
:10450000A11DB11DBC01CD0142E0660F771F881FC0
:10451000991F4A95D1F70895CF93DF93282F30E064
:10452000F901E051F84F8491F901E655F84FD49123
:10453000F901EC59F84FC491CC2389F0811171DF56
:10454000EC2FF0E0EE0FFF1FE65BF84FA591B49162
:10455000EC91ED2381E090E021F480E002C080E066
:1045600090E0DF91CF9108951F93CF93DF93282F91
:1045700030E0F901E051F84F8491F901E655F84F28
:10458000D491F901EC59F84FC491CC23B9F0162F0E
:10459000811147DFEC2FF0E0EE0FFF1FE05DF84FD9
:1045A000A591B4919FB7F894111104C08C91D09546
:1045B000D82302C0EC91DE2BDC939FBFDF91CF911B
:1045C0001F910895CF93DF9390E0FC01E655F84FDB
:1045D0002491FC01EC59F84F8491882361F190E01B
:1045E000880F991FFC01EA5EF84FC591D491FC0138
:1045F000E05DF84FA591B491611109C09FB7F8949F
:104600008881209582238883EC912E230BC0623011
:1046100061F49FB7F8948881322F30958323888383
:10462000EC912E2B2C939FBF06C08FB7F894E88196
:104630002E2B28838FBFDF91CF9108958F929F9269
:10464000AF92BF92CF92DF92EF92FF926B017C010B
:104650003EDF4B015C01C114D104E104F104E9F037
:1046600036DFDC01CB0188199909AA09BB09883E0C
:104670009340A105B10578F321E0C21AD108E10801
:10468000F10888EE880E83E0981EA11CB11CC114AD
:10469000D104E104F10421F7DECFFF90EF90DF9029
:1046A000CF90BF90AF909F908F9008952FB7F894C0
:1046B0006091E1197091E2198091E3199091E419E8
:1046C0002FBF08951F920F920FB60F9211242F93B0
:1046D0003F938F939F93AF93BF938091E1199091F4
:1046E000E219A091E319B091E4193091E01923E0A7
:1046F000230F2D3720F40196A11DB11D05C026E81A
:10470000230F0296A11DB11D2093E0198093E1199A
:104710009093E219A093E319B093E4198091E519FD
:104720009091E619A091E719B091E8190196A11DA1
:10473000B11D8093E5199093E619A093E719B09302
:10474000E819BF91AF919F918F913F912F910F9059
:104750000FBE0F901F901895CF93DF93CDB7DEB7A4
:10476000CD51D1400FB6F894DEBF0FBECDBF7894C7
:1047700084B5826084BD84B5816084BD85B5826066
:1047800085BD85B5816085BD80916E008160809317
:104790006E00109281008091810082608093810080
:1047A0008091810081608093810080918000816090
:1047B000809380008091B10084608093B1008091EB
:1047C000B00081608093B0008091910082608093FE
:1047D0009100809191008160809391008091900080
:1047E0008160809390008091A10082608093A100FD
:1047F0008091A10081608093A1008091A0008160E0
:104800008093A0008091210182608093210180919A
:10481000210181608093210180912001816080933A
:10482000200180917A00846080937A0080917A00E0
:10483000826080937A0080917A00816080937A0010
:1048400080917A00806880937A001092C100E09194
:10485000BB16F091BC1682E08083E091B716F09110
:10486000B8161082E091B916F091BA1680E18083F3
:104870001092C316E091BF16F091C01686E08083B7
:10488000E091BD16F091BE16808180618083E09139
:10489000BD16F091BE16808188608083E091BD16C0
:1048A000F091BE16808180688083E091BD16F09102
:1048B000BE1680818F7D808382E00E9401140E9459
:1048C000FA1380E00E949B146BEF72E082EC99E196
:1048D0001FD963E09E012F5F3F4F7901C9010E94FC
:1048E000FF1767E0CE0193950E94FF1760E0CE01AD
:1048F000845F9E4F0E94FF17CA5FDE4F19821882A5
:10490000C650D140C85FDE4F19821882C850D140CE
:10491000C65FDE4F19821882CA50D140BE01645F63
:104920007E4FCE018A5F9E4F0E94121BCE018A5F8E
:104930009E4F0E94EF17BE0173950E94DE17B701CC
:104940000E94DE17BC0182EC99E1D4D8CE018A5FC7
:104950009E4F0E94271BCE01845F9E4F0E94271B03
:10496000CE0193950E94271BC7010E94271B81E05F
:104970000E949B146CEE72E082EC99E1C9D860ED64
:1049800077E080E090E05ADE6CED72E08BEA96E131
:10499000BFD863E0C7010E94FF1767E0CE0193957F
:1049A0000E94FF1760E0CE01845F9E4F0E94FF17B8
:1049B000CA5FDE4F19821882C650D140C85FDE4FF1
:1049C00019821882C850D140C65FDE4F1982188202
:1049D000CA50D140BE01645F7E4FCE018A5F9E4FB8
:1049E0000E94121BCE018A5F9E4F0E94EF17BE01EC
:1049F00073950E94DE17B7010E94DE170E94C2174E
:104A0000CE018A5F9E4F0E94271BCE01845F9E4F7E
:104A10000E94271BCE0193950E94271BC7010E946D
:104A2000271BE1E3CE2EE2E0DE2ED601BD906D0124
:104A300061E08B2DC7DD60E08B2D96DDB5E3CB16F5
:104A4000B2E0DB0691F762E089E1BCDD62E087E17C
:104A5000B9DD62E088E1B6DD62E08AE1B3DD62E003
:104A600086E1B0DD87E158DD86E156DD892B09F06E
:104A700052C080EC92E0FFD964E872E0C7010E9466
:104A80002C1B69E872E0CE0107960E942C1B6EE891
:104A900072E0CE010D960E942C1B63E972E0CE01FC
:104AA00043960E942C1B68E972E0CE0149960E9451
:104AB0002C1B1092E7121092EA121092E912109237
:104AC000E81284E090E00E94FC08813011F48093A9
:104AD000E71285E090E00E94FC08813011F4809399
:104AE000EA1286E090E00E94FC08813011F4809385
:104AF000E91287E090E00E94FC08813011F4809375
:104B0000E81211E001E076E0D72E89E105DD00979B
:104B100009F468C0CAC089E1FFDC892B09F064C1CF
:104B200085EA92E0A8D91EE534EBC32E3BE2D32EF2
:104B300031E1E32EF12C10937C0010927B0062E0B7
:104B400070E080E090E07ADD80917A00806480936C
:104B50007A0080917A0086FDFCCF209178008091C8
:104B6000790030E0382B032E000C440B550BC701A5
:104B7000B6010E94CB37CA01B9010E949F3620E0DE
:104B800030E04AE754E40E946E384B015C016DE36B
:104B900071E08BEA96E10E94881D22E0B501A40134
:104BA0008BEA96E10E94093460D962E370E080E00C
:104BB00090E044DD0E94FA1381E00E949B1462E3BE
:104BC00071E082EC99E10E94881D22E0B501A40108
:104BD00082EC99E10E94093460ED77E080E090E09A
:104BE0002DDDA9CF113081F48091E712813021F4BD
:104BF0001092E71260E003C01093E71261E084E0D6
:104C000090E00E94FA085BC0123031F58091EA1200
:104C1000813021F41092EA1260E004C081E08093B8
:104C2000EA1261E085E090E00E94FA080E94FA131F
:104C300080E00E949B1464E271E082EC99E10E94A2
:104C4000881D81E00E949B14BE01635F7F4F82EC50
:104C500099E10E947A1D5CC0133009F08BC08091ED
:104C6000E912813021F41092E91260E004C081E081
:104C70008093E91261E086E090E00E94FA080E94C9
:104C8000FA1380E00E949B1464E271E082EC99E1E7
:104C90000E94881D81E00E949B14BE016D5E7F4FC3
:104CA00082EC99E10E947A1D3FC087E135DC892BB7
:104CB00009F08FC0143011F40C94EB331F5F0E9485
:104CC000FA1380E00E949B1464E271E082EC99E1A7
:104CD0000E94881D81E00E949B14B701D19E600D47
:104CE000711D112482EC99E10E947A1D113071F43A
:104CF0008091E712813019F461E271E002C06DE148
:104D000071E082EC99E10E94881D2DC0123051F4AF
:104D10008091EA12813019F46AE171E0F2CF66E124
:104D200071E0EFCF133079F48091E912813019F4FA
:104D300063E171E002C06FE071E082EC99E10E94F2
:104D4000881D13E010C0143071F48091E812813096
:104D500019F46CE071E002C068E071E082EC99E166
:104D60000E94881D14E068EC70E080E090E066DC52
:104D700000E0CBCE143089F48091E812813021F428
:104D80001092E81260E004C081E08093E81261E0D4
:104D900087E090E00E94FA0806C0111190CFFC0154
:104DA00019950C94EB330E94FA1380E00E949B1437
:104DB00064E271E082EC99E10E94881D81E00E942A
:104DC0009B14BE01675E7F4F82EC99E10E947A1DC1
:104DD000BCCF88E1A1DB892B19F0013049F66FCFF8
:104DE000112309F311506BCF61E085E3EBDB1092E7
:104DF000EC121092EB121092B6191092B319109295
:104E0000B81989EB99E19093B5198093B4194EDCE8
:104E10006B01A090B419B090B51985E3D501129635
:104E20008C9361E0CFDB61E0F50182819DDBBFB651
:104E3000F89480915615811123C0E9E9F7E0849137
:104E4000EFEDF7E09491E82FF0E0EE0FFF1FEA5E40
:104E5000F84FA591B491EC91E92319F461E085E351
:104E600083DB61E085E3AEDB8CB580618CBD8CB506
:104E700080648CBD61E084E3A5DB61E083E3A2DBB9
:104E8000809156158F5F80935615BFBEE091B4197F
:104E9000F091B51982E5808311828091B619811154
:104EA00004C083EB99E10E94881EE091B419F0914F
:104EB000B51961E0828158DB5AE0B52E8FEF0E9470
:104EC0009B1EBA94B110FACFE091B419F091B519C4
:104ED00060E0828149DB4BE0B42E20E030E0A901A4
:104EE00060E083EB99E10E945205A82EF1E08F1754
:104EF00099F0BA94B11002C080E262C08DEF0E94B6
:104F00009B1E38E0832E32E0932E0E94A01E21E0EB
:104F1000821A9108D1F7E1CF2AEA31E040E050E06F
:104F200068E083EB99E10E945205853019F4A09264
:104F3000B81911C024E0B22E0E94A01E8093B719A8
:104F4000BA94B110F9CF8A3A21F482E08093B8196B
:104F500002C085E235C08091B819823021F0812CE1
:104F6000912C540105C0812C912CA12C90E4B92ED8
:104F700020E030E0A90167E383EB99E10E9452054C
:104F8000A501940169E283EB99E10E94520588230F
:104F900041F08CDB6C197D09613D774048F383E477
:104FA0000FC08091B819823001F520E030E0A901EE
:104FB0006AE383EB99E10E945205882341F087E37D
:104FC0008093B31983EB99E10E943D0553C00E9481
:104FD000A01E807C803C19F483E08093B8190E9465
:104FE000A01E0E94A01E0E94A01E83EB99E10E94B9
:104FF0003D05E091B419F091B51980E5808381E019
:10500000818383EB99E190936D1780936C1783E90B
:1050100099E10E94F20881E00E94CD12882329F0D4
:1050200080919319811126C006C080E00E94CD12A4
:105030008111F6CF1FC080E2E3E9F9E1DF01282FFB
:105040001D922A95E9F72CE637E130939A192093BF
:10505000991990917117903119F0903259F480E4B8
:105060008093931981E080939519809193198077AB
:1050700009F055C00E94FA1380E00E949B146BE077
:1050800072E082EC99E10E94881D8091B319882317
:1050900079F18DE891E00E943B1F8091B319803235
:1050A00021F48DE591E00E943B1F8091B319882384
:1050B000A9F16CE471E08BEA96E10E94881D4091B1
:1050C000B31950E060E070E020E18BEA96E10E94C5
:1050D000DB1C68E471E08BEA96E10E94881D609118
:1050E000B71970E080E090E040E150E059D916C077
:1050F00080917117811105C08FED91E00E943B1FD7
:105100000DC080919319811105C084EC91E00E943B
:105110003B1F04C084EB91E00E943B1FFFCF77242C
:1051200073948091EB129091EC128C32914008F0C4
:1051300060C080914C1781115CC080919319807779
:1051400009F457C08091A3199091A419A091A519B1
:10515000B091A6198F719927AA27BB27892B8A2B73
:105160008B2B09F046C0D12CC12C8090A3199090B4
:10517000A419A090A519B090A61983E999E10E94FD
:10518000AB14FC01892BA9F18081882391F18E3227
:1051900011F4D12CEACF853EE1F3938593FD11C044
:1051A000DD20B9F09F01255F3F4F80E080FB8795B0
:1051B00087F99191890FE217F307C1F7C81219C057
:1051C00008C09F3031F786FFD0CF8F71D82EC584AD
:1051D000CCCFD501C40125E0B695A79597958795C5
:1051E0002A95D1F74D2D60E00E94301681110C9464
:1051F000FD321092E7121092EA121092E912109208
:10520000E81280E090E00E94FC08813409F065C05B
:1052100081E090E00E94FC08843409F05EC082E0E6
:1052200090E00E94FC08853409F057C080E290E0CD
:105230000E94FC08843609F050C080E190E00E9492
:10524000FC0881114AC081E190E00E94FC0887308F
:1052500009F043C082E190E00E94FC088330E9F548
:1052600084E090E00E94FC088130A9F58093E71269
:1052700011E085E090E00E94FC08813019F48093F1
:10528000EA121F5F86E090E00E94FC08813019F46A
:105290008093E9121F5F87E090E00E94FC08813054
:1052A00019F48093E8128AC0111188C00E94FA1381
:1052B00080E00E949B146EE272E082EC99E10E9411
:1052C000881D81E00E949B1466E272E082EC99E105
:1052D0000E94881DFFCF10E0CCCF82E892E00E94B0
:1052E0003B1F82E792E00E943B1F86E6C82ED12C2E
:1052F000013040E114079CF46FEFC8010E94FA08E6
:10530000C801B6010E941E39892B31F460E772E0B2
:105310008BEA96E10E94881D0F5F1F4FE9CF0E9424
:10532000351F8CE592E00E943B1F88E392E00E94CB
:105330003B1F81E08093E7128093EA128093E91289
:105340008093E81261E480E090E00E94FA0864E44F
:1053500081E090E00E94FA0865E482E090E00E941B
:10536000FA0864E083E090E00E94FA0861E084E0DB
:1053700090E00E94FA0861E085E090E00E94FA085F
:1053800061E086E090E00E94FA0861E087E090E04A
:105390000E94FA0860E080E190E00E94FA0867E06D
:1053A00081E190E00E94FA0863E082E190E00E94CF
:1053B000FA0864E680E290E00E94FA0883E090E058
:1053C0000E94FC08809386169091E712843021F4A5
:1053D000911102C01092861680918616853031F4A4
:1053E0008091EA12811102C0109286168091861671
:1053F000863031F48091E912811102C01092861634
:1054000080918616873031F48091E812811102C0B4
:10541000109286168091861684508430D0F099239D
:1054200021F084E08093861614C08091EA128823CC
:1054300011F085E00BC08091E912882311F086E01D
:1054400005C08091E812882329F187E080938616B1
:1054500021C09923F9F080918416909185160097C8
:10546000B1F0909348158093471569E172E08BEA9B
:1054700096E10E94881D8AED99E10E94C21764E0BE
:1054800080E40E94FE0881E08093290203C084E04A
:105490000E94CE108091EA12882319F085E00E94C4
:1054A000CE108091E912882319F086E00E94CE1078
:1054B0008091E812882319F087E00E94CE1069E9F4
:1054C00072E08BEA96E10E94881D8091E919909123
:1054D000EA19D701A81BB90BCD010E94CF17E6D856
:1054E00060935115709352158093531590935415F2
:1054F000DDD860938D1670938E1680938F169093DF
:105500009016D4D860931002709311028093120207
:105510009093130262E083E155D861E085E152D8AF
:1055200061E085E121D862E084E14CD884E08CBB65
:1055300082E08CBB81E59AE0909309028093080297
:1055400080916900806380936900EA9A82E594E023
:10555000909307028093060280916900837F8860A0
:1055600080936900E99A22242A94322C21018091A7
:105570005515813009F00CC2F894B091E212CE5E5C
:10558000DE4FB883C251D140AB2EB12C85010450FF
:105590001109E4E0F4E00E9FC0010F9F900D1E9FE3
:1055A000900D11249C012E523D4F390120E083E0E3
:1055B00090E0F301E80FF91F308123270196833033
:1055C00034E09307B1F744E054E0049FF001059FF5
:1055D000F00D149FF00D1124EB52F94F8081281328
:1055E00092C1C090E312D090E412E090E512F090E6
:1055F000E6125EECC5165AEFD506E104F10441F45B
:10560000CE5EDE4F8881C251D1400E941609A3C1EF
:10561000C114D10480E4E806F10408F02FC1F801B8
:10562000EF5CFD4F9081CC5EDE4F9883C451D1403A
:1056300061E0892F0E94B422D801AA0FBB1FC65E69
:10564000DE4FB983A883CA51D140A95BBA4EC45E6C
:10565000DE4FB983A883CC51D140ED91FC91EE0F80
:10566000FF1FE351FD4E61E0808191810E943E1752
:105670002091641730916517409166175091671714
:10568000CA5EDE4F288339834A835B83C651D1408B
:1056900061E573E08BEA96E10E94881D8501035065
:1056A00011094AE050E0B8018BEA96E10E94301DF2
:1056B00065E473E08BEA96E10E94881D4AE050E0C1
:1056C000C701B6010E94D02146015701BAE0880CFB
:1056D000991CAA1CBB1CBA95D1F7CA5EDE4F888103
:1056E0009981AA81BB81C651D14088169906AA0624
:1056F000BB0608F08BC0B501A4018CE497E10E94C1
:105700002F08C45EDE4FA881B981CC51D140ED9104
:10571000FC91E95AFA4E8081882391F0C65EDE4FF3
:10572000E881F981CA51D140E95BFA4E0190F081DC
:10573000E02DE95AFA4E8081813009F05AC049C003
:1057400003E010E0F301E00FF11F608188E497E1CE
:105750000E942B050F5F1F4F0330B2E01B0791F72C
:10576000E3E0CE22DD24B501A401F2E0CF16D1049E
:10577000C4F4565F6F4F7F4F8CE497E10E942F086F
:1057800003E012E0F301E00FF11F608188E497E18C
:105790000E942B050F5F1F4F033024E0120791F783
:1057A000BDCF5650610971098CE497E10E942F0822
:1057B00003E012E0F301E00FF11F608188E497E15C
:1057C0000E942B050F5F1F4F033034E0130791F742
:1057D000A5CF03E010E0F301E00FF11F608188E442
:1057E00097E10E942B050F5F1F4F033044E0140721
:1057F00091F78CE497E10E94F20860E0CC5EDE4F06
:105800008881C451D1400E94B422A5C066E672E0EE
:105810008BEA96E10E94CC074AE050E0B8018BEA9F
:1058200096E10E94301D6DE173E08BEA96E10E94E3
:10583000881D2AE030E0B501A4018BEA96E10E94C0
:10584000241D66E073E08BEA96E10E94881D4AE021
:1058500050E0CA5EDE4F688179818A819B81C651A2
:10586000D1400E94D0218CE497E10E94F208CE5EE4
:10587000DE4F6881C251D14082E46BC051EFF51A0E
:105880008FEFC816D806E8068EE0F80640F4CE5E24
:10589000DE4F8881C251D1400E948C0D5CC06FE9FF
:1058A00073E08BEA96E10E94881D6091E21270E03D
:1058B000635071094AE050E08BEA96E10E94301D86
:1058C00067E773E08BEA96E10E94881D6091E3121E
:1058D0007091E4128091E5129091E6124AE050E056
:1058E0000E94D0211091E212612F82E40E94FE08F2
:1058F00094E0199FF0011124EC5FFD4F208231826A
:105900004282538228C065E773E08BEA96E10E94E9
:10591000881D6091E21270E0635071094AE050E026
:105920008BEA96E10E94301D63E573E08BEA96E115
:105930000E94881D6091E3127091E4128091E5123B
:105940009091E6124AE050E00E94D0216091E2126C
:1059500081E40E94FE08E091E212A4E0EA9FF001D7
:105960001124EC5FFD4F20823182428253820E94DB
:10597000562360935115709352158093531590934D
:1059800054150E943E0AB4E0BCBB789410925515A1
:1059900080915015813009F04BC2F8948090E31249
:1059A0009090E412A090E512B090E6128114910458
:1059B000E0E4AE06B10408F070C16090E212062D7A
:1059C00010E0980124503109CC5EDE4F39832883E2
:1059D000C451D140F901EF5CFD4F708061E0872D2B
:1059E0000E94B422CC5EDE4F88819981C451D1409F
:1059F000880F991FAC01495B5A4EC65EDE4F598332
:105A00004883CA51D140DA01ED91FC91EE0FFF1F9E
:105A1000E351FD4E60E0808191810E943E1720910C
:105A20006417309165174091661750916717CA5EE9
:105A3000DE4F288339834A835B83C651D1406DEEA4
:105A400073E08BEA96E10E94881D035011094AE039
:105A500050E0B8018BEA96E10E94301D61EE73E0E0
:105A60008BEA96E10E94881D4AE050E0C501B4012E
:105A70000E94D021CC5EDE4F88819981C451D140F3
:105A8000A4E0B4E08A9FA0018B9F500D9A9F500D17
:105A90001124C45EDE4F59834883CC51D1404E520D
:105AA0005D4FCE5EDE4F59834883C251D14080EBBB
:105AB000860DFA01808324E021831282750164013E
:105AC0007AE0CC0CDD1CEE1CFF1C7A95D1F7CA5E87
:105AD000DE4F88819981AA81BB81C651D140C81609
