:10000000FBC300000C942B1C0C94001C0C94D51BFF
:100010000C94AA1B0C947F1B0C94541B0C94291B4E
:100020000C94FE1A1AC4000018C4000016C4000084
:1000300014C4000012C4000010C400000EC400006C
:100040000CC400000AC4000008C4000006C400007C
:1000500004C4000002C4000000C400000C94F82294
:10006000FCC300000C94501D0C94271DF6C3000027
:10007000F4C30000F2C30000F0C30000EEC30000B0
:10008000ECC30000EAC30000E8C30000E6C30000C0
:10009000E4C30000E2C30000E0C30000DEC30000D0
:1000A000DCC30000DAC30000D8C30000D6C30000E0
:1000B000D4C30000D2C30000D0C30000CEC30000F0
:1000C000CCC30000CAC30000C8C30000C6C3000000
:1000D000C4C30000C2C30000C0C30000BEC3000010
:1000E000BCC300009A219D218C2190219621D4210E
:1000F000A121A521AB21AF21B321B921BD21C1216E
:10010000D421C721CB21CF214F6666004F6E004F0F
:100110006666004F6E004F6666004F6E004F666663
:10012000004F6E0044657669636520436F6E6669B3
:10013000670041444520566363203D20004144450B
:1001400020566363203D20002C3058005344206526
:1001500072726F72436F64653A203058004E6F20A0
:10016000636172642C2077726F6E672063686970B8
:100170002073656C6563742070696E2C206F72202B
:100180005350492070726F626C656D3F0043616E21
:100190002774206163636573732053442063617225
:1001A000642E20446F206E6F74207265666F726DCE
:1001B00061742E004E6F206572726F7220666F75CB
:1001C0006E642E0043616E2774206F70656E20721E
:1001D0006F6F74206469726563746F72792E004961
:1001E0006E76616C696420666F726D61742C20722A
:1001F00065666F726D61742053442E003A20003A98
:10020000004444503A0044534B3A002020204E6FA3
:1002100020534420436172640044313A203C626FB1
:100220006F743E3A2000456E61626C6564004E6FEB
:10023000204472697665730020496E697469616C47
:10024000697A696E6720456570726F6D00467265E8
:1002500065205352414D3A2000456E746572696EB7
:100260006720566F6C746167652054657374204D08
:100270006F646500456E746572696E6720436F6ECA
:1002800066696775726174696F6E204D6F64650091
:100290005374617274696E673A2041444520760058
:1002A00062793A205365616E204D79657273004121
:1002B00044452020202020207600206973206C6196
:1002C00072676572207468616E2066696C653A2099
:1002D000003A204572726F7220736176696E6720F2
:1002E000626C6F636B202D20426C6F636B206C6FB0
:1002F000636174696F6E3A20003A205772697469BD
:100300006E673A200044003A204572726F723A20BC
:10031000496E76616C696420436865636B73756DC3
:100320002C20426C6F636B3A0044003A2045727295
:100330006F723A2052657175657374656420626CE2
:100340006F636B206F7574206F662072616E6765D6
:100350003A20004400206973206C61726765722046
:100360007468616E2066696C653A20003A204572B7
:10037000726F72206C6F6164696E6720626C6F636C
:100380006B202D20426C6F636B206C6F636174690E
:100390006F6E3A20003A2052656164696E673A20B8
:1003A0000044003A204572726F723A2052657175AE
:1003B000657374656420626C6F636B206F75742065
:1003C0006F662072616E67653A20004400436F6D6E
:1003D00070617469626C6520426C6F636B204D6F55
:1003E000646520456E61626C65640044313A203C6E
:1003F000626F6F743E3A20004D6F756E74696E6760
:1004000020426F6F74204469736B20496D6167658A
:1004100000486172642052657365742066726F6D66
:10042000204164616D4E657400436F6D7061746945
:10043000626C6520426C6F636B204D6F6465204574
:100440006E61626C656400536F66742052657365FB
:10045000742066726F6D204164616D4E6574004159
:1004600064616D20506F7765726564204F66660029
:100470003A004400556E6D6F756E74696E67204466
:10048000003A20004D6F756E74696E672044005508
:100490006E6D6F756E74696E672044003A20457208
:1004A000726F723A20556E6B6E6F776E20436F6D70
:1004B0006D616E643A200044002C205265636569CA
:1004C00076656420746869733A20003A2045727238
:1004D0006F723A2045787065637465643A20004411
:1004E0000020202052656365697665643A2000200B
:1004F000202045787065637465643A200045727207
:100500006F723A2053656E64696E6720426C6F6348
:100510006B3A200020202052656365697665643A55
:10052000200020202045787065637465643A2000BF
:100530004572726F723A2053656E64696E6720422D
:100540006C6F636B3A20003A203C204E6F20446968
:10055000736B203E0044003A200044003A2045726C
:10056000726F723A2046696C6520746F6F206C61FF
:1005700072676520746F20666F726D61740044004D
:10058000466F726D617420636F6D706C6574650089
:100590002E004E756D626572206F6620426C6F632F
:1005A0006B733A200053697A65206F662066696C28
:1005B000653A2000526563656976656420466F720E
:1005C0006D617420436F6D6D616E6420666F722083
:1005D00044726976652044004164616D20436F6D0B
:1005E0006D616E643A20466F726D61742044004103
:1005F00064616D20436F6D6D616E643A205772695E
:1006000074696E6720746F20746865204C434420C1
:100610003A004164616D20436F6D6D616E643A20F4
:1006200052656672657368204C4344003A2000416D
:1006300064616D20436F6D6D616E643A204D6F751E
:100640006E742044004164616D20436F6D6D616E76
:10065000643A20556E6D6F756E742044004164617C
:100660006D20436F6D6D616E643A204375727265E3
:100670006E74204469736B206F6E2044003A00460C
:10068000696C657320696E20426C6F636B3A00463B
:10069000696C656E616D65204C656E6774683A00C3
:1006A0004164616D20436F6D6D616E643A20534407
:1006B0002043617264204469726563746F727920AB
:1006C000426C6F636B3A2000203A2000203A2000F1
:1006D000203A200000002100240027002A002D00DD
:1006E0003000330001010000040107010A0100008D
:1006F0002200250028002B002E00310034000201CA
:100700000000050108010B01000020002300260065
:1007100029002C002F003200000100000301060117
:100720000901050505050705080808080202020277
:100730000A0A08080404040401010101010101017D
:100740000303030303030303040707070C0C0C0C48
:100750000C0C0C0C02020202060606060606060631
:100760000B0B0B0B0B0B0B0B0102102020080810BE
:100770002040102040800201020108040201010211
:1007800004081020408080402010080402018004EA
:100790000201804020100804020108040201010245
:1007A000040810204080010204081020408000004E
:1007B0000A0B02090C0D0E080703040100000000DB
:1007C0000000000000000000000000000000000029
:1007D00000000000000000000000121110000000E6
:1007E0000000000000000000000000000000000009
:1007F000000000000A34353311241FBECFEFD1E2D0
:10080000DEBFCDBF00E00CBF12E0A0E0B2E0E4E24A
:10081000F3E700E00BBF02C007900D92AE3CB107BA
:10082000D9F729E1AEECB2E001C01D92AC3EB207AF
:10083000E1F713E0CBEFD3E000E006C02197010918
:10084000802FFE010E946538CA3FD10780E008076B
:10085000A9F70E9442230C948139D2CB80E090E02A
:1008600008950E94EC226093E3127093E412809347
:10087000E5129093E61281E080934F1582E08CBBE5
:100880000895DC01FC01CF018A1B9B0B861797079B
:100890000CF049C0589880E58A95F1F700000000F7
:1008A00000000000000028E030E091E04081492392
:1008B000B9F0589A8AE48A95F1F700C00000000068
:1008C0000000000000000000000000000000000028
:1008D000000000000000000000000000000017C041
:1008E00058988AE48A95F1F700C0000000000000E3
:1008F00000000000000000000000000000000000F8
:100900000000000000000000000000000000990F3F
:100910002150310909F0CACF589A80E58A95F1F73C
:1009200000003196B0CF0895DC01FC01CF018A1B95
:100930009B0B8617970714F54A9BFECF8AE28A9590
:10094000F1F700C0000048E090E0292F30E0359535
:100950002795922F80E58A95F1F7000000000000AE
:1009600000000000000000004A9B9068415069F7B9
:1009700085E48A95F1F700009193D8CF0895049605
:100980000C94EF1ECF93DF931F92CDB7DEB7698330
:1009900041E050E0BE016F5F7F4F04960E94EF1E62
:1009A0000F90DF91CF910895CF93DF93FC012381C6
:1009B000222361F0EC010180F281E02D61E082816F
:1009C0000E944A228FEF0E94161E1B82DF91CF9158
:1009D0000895FF920F931F93CF93DF9300D01F9240
:1009E000CDB7DEB78C01F62E29833A834B835C8327
:1009F000FC018381811103C0C8010E94031EFF20F6
:100A000029F06CE271E0C8010E94531E8F2D8064B2
:100A10000E94161E8C810E94161E8B810E94161E3B
:100A20008A810E94161E89810E94161EFF2011F0E5
:100A300087E801C085E90E94161E0E941B1E8BE0FC
:100A4000F82E0E941B1EF801848387FF03C0FA94CE
:100A5000F110F7CF0F900F900F900F90DF91CF9183
:100A60001F910F91FF9008950F931F93CF93DF93E2
:100A7000EC0189018D81833039F089E0440F551FE5
:100A8000661F771F8A95D1F79A01AB0161E1CE010C
:100A9000A0DF882319F080E388830AC0B801CE0163
:100AA0000E94B01E182F882319F0CE017DDF03C0ED
:100AB000CE017ADF10E0812FDF91CF911F910F914E
:100AC0000895EF92FF921F93CF93DF93FC01208153
:100AD00020FF32C0EC017C01F7E0EF0EF11C4B81EE
:100AE0005C816D817E81E981FA81970180819181AC
:100AF0000E946B1E182F811102C010E01EC0888159
:100B000081FD04C088818E7F888317C0E981FA81C6
:100B10004B815C816D817E8184859585A685B785B5
:100B2000480F591F6A1F7B1F9701808191810E9486
:100B30006B1E8111E7CFE1CF11E0812FDF91CF91C3
:100B40001F91FF90EF900895CF92DF92EF92FF9266
:100B50001F93CF93DF93EC016A017B01122F8B81EE
:100B60009C81AD81BE8184179507A607B707E1F088
:100B7000CE01A7DF811103C080E090E01BC012FF0F
:100B800006C01882CB82DC82ED82FE820DC0E98134
:100B9000FA819E01295F3F4FB701A60180819181B3
:100BA00063DF8111EECFE8CF13708881182B188393
:100BB000CE010796DF91CF911F91FF90EF90DF90CC
:100BC000CF9008958F929F92AF92BF92CF92DF9273
:100BD000EF92FF920F931F9342305105610571050B
:100BE00010F480E053C0FC01C08CD18CE28CF38CFB
:100BF000C416D506E606F706A0F3480159016A01B6
:100C00007B018581803231F584899589A689B789F0
:100C100017E076956795579547951A95D1F7480F40
:100C2000591F6A1F7B1F23E0CF0180968DDF00973D
:100C3000C1F2E894C7F8DD24EE24FF24CC0CDD1CBF
:100C4000CC0CDD1CFC01EC0DFD1D80829182A2828A
:100C5000B3821BC0803129F644895589668977891A
:100C60004D0D511D611D711D23E0CF0180966CDF7C
:100C7000009709F4B6CFDD24EE24FF24CC0CDD1C54
:100C8000FC01EC0DFD1D9182808281E01F910F918E
:100C9000FF90EF90DF90CF90BF90AF909F908F909C
:100CA0000895CF92DF92EF92FF920F931F93CF930D
:100CB000DF93423051056105710510F48FEF66C076
:100CC000FC01C08CD18CE28CF38CC416D506E606F0
:100CD000F706A0F389016A017B01EC01858180326E
:100CE00039F584899589A689B789E7E0769567956E
:100CF00057954795EA95D1F7480F591F6A1F7B1FF3
:100D000022E0CE01809620DF0097C1F2E894C7F878
:100D1000DD24EE24FF24CC0CDD1CCC0CDD1CFC01FE
:100D2000EC0DFD1D80819181A281B381BF701DC03A
:100D3000803121F644895589668977894D0D511D89
:100D4000611D711D22E0CF018096FEDE009709F43F
:100D5000B5CFDD24EE24FF24CC0CDD1CFC01EC0D12
:100D6000FD1D80819181A0E0B0E0488D598D6A8D94
:100D70007B8D481759076A077B0738F0F801808395
:100D80009183A283B38381E001C080E0DF91CF91A2
:100D90001F910F91FF90EF90DF90CF9008953F92B9
:100DA0004F925F926F927F928F929F92AF92BF927B
:100DB000CF92DF92EF92FF920F931F93CF93DF9327
:100DC00000D01F92CDB7DEB75C012A013B0149017B
:100DD000FC01C084D184E284F384C416D506E606FF
:100DE000F706C0F46A017B0110E0FFEFCF1ADF0ABB
:100DF000EF0AFF0AF501808D918DA28DB38D8C15C0
:100E00009D05AE05BF0540F4111130C0C084D184EA
:100E1000E284F38411E0E9CF4C145D046E047F0496
:100E200029F19E012F5F3F4FB701A601C50139DFB0
:100E300087FD1CC08823C9F289819A81AB81BC815E
:100E4000892B8A2B8B2B89F6112329F0F501C0867B
:100E5000D186E286F3860FEF1FEF2FEF3FE0B70159
:100E6000A601C501AFDE382E811102C0312C14C09D
:100E7000411451046104710431F4F401C082D1823F
:100E8000E282F38209C097018601B301A201C50184
:100E900099DE8111F2CFEACF832D0F900F900F9042
:100EA0000F90DF91CF911F910F91FF90EF90DF9006
:100EB000CF90BF90AF909F908F907F906F905F90FA
:100EC0004F903F9008956115710579F0FB010190F5
:100ED0000020E9F73197AF01461B570BDC01ED917C
:100EE000FC910280F381E02D199480E090E0089558
:100EF000CF93DF93FC012081211102C081E041C02A
:100F0000EC01828182FF36C04489558966897789E0
:100F10008681978121E0809617DE009729F48981E8
:100F20008160898380E02DC0EC81FD81EF70FF2717
:100F300025E0EE0FFF1F2A95E1F7E80FF91F309724
:100F400071F38081853E59F3888183FF08C0888DC5
:100F5000998DAA8DBB8D848F958FA68FB78F8C8D21
:100F60009D8DAE8DBF8D938F828FB58BA48B8A8123
:100F70008B7F8A838E819F818096A3DD882379F27F
:100F8000BDCFDF91CF9108950496B2CF4F925F927B
:100F90006F927F928F929F92AF92BF92CF92DF9289
:100FA000EF92FF920F931F93CF93DF93EC014A01CF
:100FB0005B014C845D846E847F84A881AA2309F43C
:100FC00090C0488959896A897B89481559056A05FD
:100FD0007B0509F48CC081149104A104B10429F4A7
:100FE0001C861D861E861F8677C0A3FF0BC0088D3A
:100FF000198D2A8D3B8D081519052A053B0508F426
:1010000070C014C0A5FF12C0EE81FF818681978158
:1010100025E0880F991F2A95E1F7A0E0B0E0881538
:101020009905AA05BB0508F45CC056C0EE81FF8196
:10103000848190E009968A019B01015011092109E0
:101040003109082E04C036952795179507950A94FF
:10105000D2F775016401B1E0CB1AD108E108F108BB
:1010600004C0F694E794D794C7948A95D2F7C01633
:10107000D106E206F30620F0452B462B472B99F4C8
:10108000A6FF05C0848D958DA68DB78D04C08C8D6F
:101090009D8DAE8DBF8D8C879D87AE87BF878E015E
:1010A000045F1F4F14C0C01AD10AE20AF30AF7CF37
:1010B0004C855D856E857F8598018E819F81F1DDF0
:1010C00091E0C91AD108E108F108181654F4C114C6
:1010D000D104E104F10461F7888A998AAA8ABB8A5B
:1010E00006C04C865D866E867F8680E001C081E00A
:1010F000DF91CF911F910F91FF90EF90DF90CF90F4
:10110000BF90AF909F908F907F906F905F904F9027
:101110000895CF93DF93EC01EBDE1882DF91CF913E
:1011200008950C94F1360C94E936262F30E02450C3
:10113000310996E0929FF001939FF00D1124EE5635
:10114000F94E60586083118294E0928391E093831A
:10115000848395E08927858308954F925F926F92EB
:101160007F929F92AF92BF92CF92DF92EF92FF92C7
:101170000F931F93CF93DF93C82F64EB75E08AEA38
:1011800096E10E94031DD0E08E0103501109C801B1
:101190000E9471172497FE01EE0FFF1FE95BFA4EC4
:1011A0000190F081E02DEE0FFF1FE351FD4E61E055
:1011B000808191810E94D016C0906317D0906417EF
:1011C000E0906517F0906617260137013AE07694B3
:1011D0006794579447943A95D1F7FE01EE0FFF1F9D
:1011E000EE0FFF1FEF5EFD4F8FEF9FEFDC0180835F
:1011F0009183A283B38365EA75E08AEA96E10E944F
:10120000031D4AE050E0C701B6010E943E2162E999
:1012100075E08AEA96E10E94031D4AE050E0C301AE
:10122000B2010E943E218AEA96E10E94B5188AE640
:101230008A95F1F700C081E0C8168CEFD8068FEFD1
:10124000E806F806D0F5C35DDD4F988061E0892D92
:101250000E944A22C12CD12C7601C39408E210E0EE
:1012600056014C145D046E047F0400F1C0E0D4E02C
:1012700065EE87E497E186DB2197D1F760E975E0B9
:101280008AEA96E10E94031DC501B8010E94523806
:10129000892B31F40E9438218AEA96E10E94B51820
:1012A0008FEFC81AD80AE80AF80ADACF60E0892D69
:1012B0000E944A2280E895E00FC06EE775E08AEA56
:1012C00096E10E94031D4AE050E0B8018AEA96E1E7
:1012D0000E94AB1C8CE595E00E9455178BE497E1CA
:1012E000DF91CF911F910F91FF90EF90DF90CF9002
:1012F000BF90AF909F907F906F905F904F9009CF7D
:10130000EF92FF920F931F93CF93DF937C018B019A
:10131000C0E0D0E0C436D105D1F0D80114968D914B
:101320009C911597C817D90720F4ED91FC9130973F
:1013300029F410929116E1E9F6E102C0EC0FFD1FCD
:101340006081C7018C0F9D1FECDE2196E3CFDF91FA
:10135000CF911F910F91FF90EF90089590E024E0BE
:1013600034E0829FB001839F700D929F700D112415
:1013700023E030E040E00497F901E60FF71FE25464
:10138000FD40508145272F5F3F4F233054E0350704
:1013900099F724E034E0829FF001839FF00D929F43
:1013A000F00D1124EF52F94F4083089589B120E0E8
:1013B00030E080E04A990AC08111089581E02D341F
:1013C00099E03907BCF72F5F3F4FF3CF882371F3C4
:1013D00008951F93CF93DF93CDB7DEB72D970FB648
:1013E000F894DEBF0FBECDBF1A861B861C861D86F5
:1013F0008091501581116EC28091551581116AC27C
:1014000080914F15811166C228E010E0812F90E095
:1014100095958795182F30E53A95F1F70000000073
:101420000000000000004A9B1068215079F785E415
:101430008A95F1F70000812F8F708093DE1284303F
:1014400019F49091E7120FC0853019F49091EA12C7
:101450000AC0863019F49091E91205C0873009F06E
:1014600038C29091E812992309F433C280578C87CF
:10147000812F90E0B4E095958795BA95E1F78D308E
:10148000910509F0D2C187E592E00197F1F700C01C
:10149000000061E070E0CE010C96F3D969E070E0E5
:1014A000CE01019641DA898190E0A4E09595879577
:1014B000AA95E1F7069709F086C18FE891E00197B8
:1014C000F1F700C0000061E070E0CE010C96D9D9C0
:1014D00061E070E0CE010A9627DA8F8190E0A0E00B
:1014E000B0E0782F6627552744279E81892F90E00A
:1014F000A0E0B0E0DC0199278827840F951FA61F84
:10150000B71F4D8150E060E070E0762F652F542FBB
:101510004427840F951FA61FB71F2C81820F911D92
:10152000A11DB11D8093DF129093E012A093E112F0
:10153000B093E2128F3E2EEB92072DEAA2072EED1A
:10154000B20711F41092100220911002213051F4D0
:10155000AA27BB278093DF129093E012A093E11299
:10156000B093E2128A8590E044E0959587954A957C
:10157000E1F78430910509F0F6C0E091DE1234E025
:10158000E39FF0011124EF5FFD4F408151816281A3
:1015900073818091DF129091E012A091E112B091DD
:1015A000E212481759076A077B0709F0D8C087E598
:1015B00092E00197F1F700C0000061E070E0CE0119
:1015C0000C965FD961E070E0CE010B96ADD98B85AA
:1015D00090E034E0959587953A95E1F7039709F007
:1015E0007AC02091DE1230E02450310944E054E00A
:1015F000249FC001259F900D349F900D112464E01D
:1016000074E082539D4F3DD961E070E0CE010D96AC
:101610008BD98D8590E024E0959587952A95E1F703
:101620000297F1F48091DF129091E012A091E11203
:10163000B091E2120097A044B10578F0E091DE127B
:1016400034E0E39FF0011124EF5FFD4F8FEF9FEF38
:10165000DC0180839183A283B3836091DE1210C189
:1016600060E375E08AEA96E10E94031D4091DF1273
:101670005091E0126091E1127091E2122AE030E0A4
:101680008AEA96E10E949F1C62E275E08AEA96E18E
:101690000E94031D6091DE1270E0605E7F4F40E1AA
:1016A00050E08AEA96E10E94AB1C64E175E08AEAA8
:1016B00096E10E94031D60E170E08D850E94431752
:1016C0006091DE1281E431DDE091DE1284E0E89F7A
:1016D000F00111243AC06DEF74E08AEA96E10E94AD
:1016E000031D4091DF125091E0126091E112709160
:1016F000E2122AE030E08AEA96E10E949F1C6FEE37
:1017000074E08AEA96E10E94031D6091DE1270E0A7
:10171000605D7F4F40E150E08AEA96E10E94AB1C99
:1017200061EE74E08AEA96E10E94031D60E170E0D8
:101730008B850E9443176091DE1281E4F6DCE09114
:10174000DE1294E0E99FF0011124EF5FFD4F8FEF6F
:101750009FEFDC0180839183A283B383AFC081E0DC
:1017600080935015ABC00D9709F0A8C08FE891E0A9
:101770000197F1F700C0000061E070E0CE010C9627
:1017800080D82091DE1230E02450310944E054E04A
:10179000249FC001259F900D349F900D112464E07B
:1017A00074E082539D4FC0D88FE891E00197F1F724
:1017B00000C0000061E070E0CE010C9662D881E0CC
:1017C000809355157BC06FED74E08AEA96E10E9424
:1017D000031D6091DE1270E0635071094AE050E031
:1017E0008AEA96E10E94AB1C6BEC74E08AEA96E10F
:1017F0000E94031D6091DE1270E0605A7F4F4AE044
:1018000050E08AEA96E10E94AB1C69EB74E08AEA38
:1018100096E10E94031D60E170E089810E944317F8
:101820006091DE1282E481DC49C0019759F58FE8AE
:1018300091E00197F1F700C000002091DE1230E046
:101840002450310946E0429FC001439F900D11246E
:1018500066E070E08E56994E14D861E070E0CE01DB
:101860000D9662D86091DE12E62FF0E0EE0FFF1FBA
:10187000E15CFA4E80819181892B11F483E4D3CF0E
:1018800080E4D1CF67EB74E08AEA96E10E94031D01
:101890006091DE1270E0635071094AE050E08AEA1C
:1018A00096E10E94AB1C6CE974E08AEA96E10E9422
:1018B000031D60E170E0812F0E9443170E94EC221B
:1018C000609351157093521580935315909354154E
:1018D00001C06CDD84E08CBB2D960FB6F894DEBFA2
:1018E0000FBECDBFDF91CF911F9108958F929F9230
:1018F000AF92BF92CF92DF92FF920F931F93CF933D
:10190000DF93CDB7DEB7C057D1090FB6F894DEBF6D
:101910000FBECDBF8C016B016DEC72E0CE0185591D
:101920009F4F0E94A71AC114D10431F46DEC72E0EC
:10193000C8010E94A71A6FC0F12C4601A12CB12C3E
:10194000B501A40182E999E121DB60E0C6010E94B2
:10195000D016811104C0F3948BE497E1DADBCE0159
:101960000196C8D7811104C0F3948BE497E1D1DBD1
:10197000BE016F5F7F4FCE018B599F4F0E94A71A08
:10198000BE016B597F4FCE0185599F4F0E940D1AA2
:10199000CE018B599F4F0E94A21ACE0185599F4FAD
:1019A0000E944D1924E630E040E050E0BE01655948
:1019B0007F4FCE018B599F4F0E94BB1ABE016B59BE
:1019C0007F4FCE0185599F4F0E940D1ACE018B5932
:1019D0009F4F0E94A21A8AE08F1540F469E972E0D5
:1019E000CE0185599F4F0E94781A05C08BE497E17C
:1019F00090DBF110A5CF8BE497E18BDBF80111822E
:101A000010821382128215821482BE0165597F4FA3
:101A1000C8010E940D1ACE0185599F4F0E94A21A3B
:101A2000C801C059DF4F0FB6F894DEBF0FBECDBF5F
:101A3000DF91CF911F910F91FF90DF90CF90BF90DA
:101A4000AF909F908F9008952F923F924F925F9208
:101A50006F927F928F929F92AF92BF92CF92DF92BE
:101A6000EF92FF920F931F93CF93DF93CDB7DEB723
:101A700066970FB6F894DEBF0FBECDBF382E2DB7D8
:101A80003EB73C8B2B8BB090DF124B2C5090E0126A
:101A90006090E1127090E212C72CFF24C7FCF09412
:101AA000DF2CEF2C1C2DC301BB2797FDB095AB2F6E
:101AB0008D879E87AF87B88B452C562C672C772453
:101AC00067FC7A94242C6DEC72E0CE0107960E949C
:101AD000A71A67EA72E08AEA96E1F5D9B701A6018A
:101AE00055276627772720E18AEA96E10E94561C4F
:101AF00060ED76E08AEA96E10E94031D4D855E85E1
:101B00006F85788955276627772720E18AEA96E14D
:101B10000E94561C6CEC76E08AEA96E10E94031D56
:101B2000B301A20155276627772720E18AEA96E1CB
:101B30000E94561C68EC76E08AEA96E10E94031D3A
:101B400060E170E08B2D0E944317113F09F009C13D
:101B500060EA76E08AEA96E10E94031D6AE070E09E
:101B60008B2D0E9443178FEF840D8B3310F05CE3B5
:101B7000252E6FE876E08AEA96E10E94031D6AE06E
:101B800070E0822D0E944317E22CF12C80E094E05B
:101B9000B7010E9452388B016FE776E08AEA96E13E
:101BA0000E94031D6AE070E0802F0E944317E32D1E
:101BB000F0E09F012450310984E094E0289F600107
:101BC000299FD00C389FD00C1124D601A253BD4FB1
:101BD00080EB830D8C9384E011968C931197129671
:101BE0001C9211272B2D30E08091EB129091EC127A
:101BF000B8010E943E386F5F7F4F6217730708F489
:101C0000A0C0ADB7BEB7BA8BA98B4DB75EB74E19A2
:101C10005F090FB6F8945EBF0FBE4DBF8DB79EB77C
:101C200001965C0183E090E0DC01AC0DBD1DA25388
:101C3000BD4F1C9201968430A4E09A07A9F7215069
:101C40003109209FA001219F500D309F500D11247C
:101C50009A01220F331FA90141515D4E5E874D87C6
:101C6000E89F2001E99F500CF89F500C1124812C13
:101C7000912CC12CD12C822D90E09E8B8D8B90E1EC
:101C8000491A590AC016D10609F453C0AD85BE855C
:101C90006D917D91BE87AD87CE01019627DEBE0195
:101CA0006F5F7F4FCE0107960E940D1ACE010196FD
:101CB0000E94A21ABFEFCB1ADB0A4AE050E0B6013D
:101CC0008AEA96E10E94AB1C6DE776E08AEA96E12B
:101CD0000E94031DCE0107960E9463173501F5018E
:101CE0001192CF018A199B098E159F05CCF34D895E
:101CF0005E89B501CE0107960E94FA219201280D56
:101D0000391D80E090E0F30141913F01FC01E20FB9
:101D1000F31FE253FD4F438301968E159F059CF3FD
:101D200064E670E080E090E00E94B4228E0C9F1C7C
:101D3000A9CF29893A890FB6F8943EBF0FBE2DBFAF
:101D40000DC083E090E0FC01EC0DFD1DE253FD4F62
:101D500010820196833034E09307A9F7832DFEDAD1
:101D60008BC1123F09F07DC0EDB6FEB66DE576E0A1
:101D70008AEA96E10E94031D032D10E0C801039733
:101D80000E947117C801049724E034E0829F80010B
:101D9000839F100D929F100D112402531D4F20EBB5
:101DA000230DD8012C9324E011962C9311971296B1
:101DB0001C921297880F991FFC01E95BFA4E8081F3
:101DC000918113969C93139714968C93880F991F67
:101DD000FC01E351FD4E60817181CE01019686DDEB
:101DE0004D815E814F5F5F4FEDB7FEB7E41BF50B92
:101DF0000FB6F894FEBF0FBEEDBF2DB73EB72F5FF5
:101E00003F4F6901B901CE0101960E94FA218D81EF
:101E10009E81AC014B5F5F4FF60125E030E0421739
:101E2000530740F06191D801A20FB31F6C932F5F4D
:101E30003F4FF5CF0696833034E0930734F4F80132
:101E4000E80FF91F10820196F6CF832D87DACE01B5
:101E500001960E94A21A0FB6F894FEBE0FBEEDBE08
:101E60000BC1133F09F08FC0032D10E0411016C0C5
:101E7000B11014C0F801EE0FFF1FE15CFA4E1182A1
:101E8000108265E476E08AEA96E10E94031DC801AB
:101E900003970E947117632D83E448C0780144E0E2
:101EA000E41AF108C701880F991FDC01A95BBA4E3B
:101EB0006D018B2D90E094298D939C936FE276E0D9
:101EC0008AEA96E10E94031D4AE050E0B80163509F
:101ED00071098AEA96E10E94AB1C6CE276E08AEA1C
:101EE00096E10E94031DD601ED91FC91EE0FFF1FBC
:101EF000E351FD4E60817181CE010196F7DCCE0188
:101F00000196E1D7CE0101960E94A21AF701EE0FC9
:101F1000FF1FEE0FFF1FEF5EFD4F8FEF9FEFDC0106
:101F200080839183A283B383632D80E4FED8F8017C
:101F3000EE0FFF1FE15CFA4E0190F081E02DEE0FF5
:101F4000FF1FE351FD4E60817181CE010196CEDC11
:101F50008CE291E0089F7001099FF00C189FF00C33
:101F60001124BE016F5F7F4FC7010296C9D9CE0110
:101F700001960E94A21A642DC701D3D86B2DC70108
:101F80000196CFD80CC0143F09F068C0B1E0BB1671
:101F900019F0ED85E13039F482E196E086D781E0F1
:101FA0008093260269C08FEE95E07FD7B5D380E09D
:101FB00054D4832D90E024E034E0829F8001839FFD
:101FC000100D929F100D11240F531D4023E0E22E9F
:101FD000F12C5C01F4E0AF1AB1086801D8016D91F1
:101FE0008D0181EC99E10E94FE1DF60160818AEA73
:101FF00096E10E946918FFEFEF1AFF0A23E1E2164B
:10200000F10459F70E94382181E027D484E094E05C
:10201000A89E6001A99ED00CB89ED00C112403E1AB
:1020200010E0C8018C0D9D1DAC0142535D4F7A013B
:10203000DA016C9181EC99E10E94FE1DF70160814B
:102040008AEA96E10E9469180F5F1F4F033211055B
:1020500041F70E943821109225020EC01A3F61F408
:1020600068ED75E08AEA96E10E94031D832D90E0F9
:10207000039737D7832D71D8CE0107960E94A21AF5
:102080002B893C890FB6F8943EBF0FBE2DBF6696D4
:102090000FB6F894DEBF0FBECDBFDF91CF911F9179
:1020A0000F91FF90EF90DF90CF90BF90AF909F90F7
:1020B0008F907F906F905F904F903F902F900895FA
:1020C0008F929F92AF92BF92CF92DF92EF92FF9248
:1020D0000F931F93CF93DF93CDB7DEB764970FB6FF
:1020E000F894DEBF0FBECDBFA82E6DEC72E0CE011E
:1020F0000D960E94A71AEA2CF12C8CE291E0E89E42
:102100006001E99ED00CF89ED00C1124C6010BD8BA
:10211000B82EC601019607D8870104501109000F97
:10212000111FF801E95BFA4E2B2D30E0322F2227E8
:10213000282B318320836DEC72E0CE0107960E943C
:10214000A71A460122E0820E911C86E6C80ED11C19
:10215000C814D90499F1C4010E949308B82E8823A9
:1021600049F11A8219821C821B821E821D82BE01C5
:10217000695F7F4FCE0101960E948D1ABB8A1C8A2F
:1021800041E050E0BE016D5E7F4FCE0101960E949E
:10219000E019811104C0CE0101960E94471ABE01C8
:1021A0006F5F7F4FCE0107960E948D1ACE01019678
:1021B0000E94A21A9FEF891A990ACACFCE010796E8
:1021C0000E944D19BE01695F7F4FCE010D960E949E
:1021D0000D1ACE0107960E94A21AF801E95BFA4E89
:1021E0006F01808191818D32F1E09F0730F0F8011D
:1021F000E95BFA4E1182108235C0880F991FFC01ED
:10220000E351FD4E60817181CE0101966FDBBE010D
:102210006F5F7F4FCE010D960E944D21B82ECE01EB
:1022200001960E94A21ABB2011F3F60180819181D0
:10223000892BC1F06AE575E08AEA96E10E94031DE8
:102240004AE050E0B701635071098AEA96E10E94C2
:10225000AB1C67E575E08AEA96E10E94031DCE019A
:102260000D9631D6F801E95BFA4E808191816A2D95
:10227000892BB1F483E40E94950865E575E08AEA4C
:1022800096E10E94031DB701635071094AE050E0D6
:102290008AEA96E10E94AB1C87E495E006D603C06B
:1022A00080E40E949508CE010D960E94A21A6496C1
:1022B0000FB6F894DEBF0FBECDBFDF91CF911F9157
:1022C0000F91FF90EF90DF90CF90BF90AF909F90D5
:1022D0008F900895DF92EF92FF920F931F93CF9309
:1022E000DF93EC018B0128812223E9F08A8180FFB2
:1022F0001AC01FC0D380D422E114F10409F078C0C1
:10230000D11076C0892B8A2B8B2B09F456C04C85B3
:102310005D856E857F859E01245F3F4FCF010E94C2
:10232000510687FF5AC08981826089838FEF9FEFB2
:10233000A2C023FF14C0888D998DAA8DBB8D4889BA
:1023400059896A897B89841B950BA60BB70B823050
:102350009105A105B105A0F4009791F46AC025FF8D
:102360000FC0EE81FF818681978145E0880F991F1C
:102370004A95E1F7488959898417950709F457C0A8
:1023800088899989AA89BB897C0131E0F322EE8191
:10239000FF81AC01BD0139E076956795579547956A
:1023A0003A95D1F725FFA6CF848D958DA68DB78D53
:1023B000480F591F6A1F7B1F41C026FF05C0848D2F
:1023C000958DA68DB78D04C08C8D9D8DAE8DBF8DE6
:1023D0008C879D87AE87BF870BC0811109C088811C
:1023E000807709F4A0CF81E090E021E030E023C0C5
:1023F000EE81FF814C855D856E857F854250510958
:1024000061097109048004C0440F551F661F771FBE
:102410000A94D2F780899189A289B389480F591FFC
:102420006A1F7B1F4D0D511D611D711D07C080E08E
:1024300090E020E030E0821B930B1DC08E819F81D5
:1024400020E080960E94A405009709F46CCFFC015F
:10245000EE0DFF1D8081F801808388899989AA8902
:10246000BB890196A11DB11D888B998BAA8BBB8B53
:1024700081E090E0DECFDF91CF911F910F91FF902F
:10248000EF90DF90089540E0682F81EC99E10C9483
:10249000B11DCF93DF931F92CDB7DEB7BE016F5F43
:1024A0007F4F8BE497E116DF019719F4898190E063
:1024B00002C08FEF9FEF0F90DF91CF910895CF92E1
:1024C000DF92EF92FF920F931F93CF93C82F10923A
:1024D000701781E090E0A0E0B0E0809373179093D4
:1024E0007417A0937517B09376178BE697E19093C6
:1024F0008D1780938C1710928B178FEF9FEFDC0155
:1025000080938E1790938F17A0939017B093911785
:10251000CC2331F1C53008F0DEC020E040E050E0CF
:10252000BA018BE897E10E94A405009709F4D3C093
:1025300000E1C09F800D911D11244097FC01E254E1
:10254000FE4F20812F7709F0C6C03896C080D18019
:10255000E280F380C114D104E104F10421F4BBC092
:10256000C12CD12C760120E0B701A6018BE897E1C0
:102570000E94A405FC01892B09F4ADC083859485D4
:102580008115924009F0A7C08089823009F0A3C06C
:10259000268537852115310509F49DC095859093D1
:1025A0006D178FEF890F80936E17C0E081E0981749
:1025B00051F041E04C0F493019F4C0936F178BC0B4
:1025C000880FC42FF4CFC0936F17468957894115E0
:1025D000510519F060E070E004C044A155A166A166
:1025E00077A140937717509378176093791770937A
:1025F0007A17D701C601820F931FA11DB11D8C014F
:102600009D0180937F1790938017A0938117B093BB
:102610008217818992899093721780937117440F62
:10262000551F661F771F400F511F621F731F409376
:102630008717509388176093891770938A17B5E0AE
:10264000880F991FBA95E1F781509E4F892F9927DE
:102650008695480F591F611D711D40937B1750933C
:102660007C1760937D1770937E1723893489211519
:10267000310521F0C901A0E0B0E004C080A191A122
:10268000A2A1B3A197018601041B150B260B370BE2
:10269000B901A801480F591F6A1F7B1F04C0769516
:1026A000679557954795CA95D2F7DB01CA01019600
:1026B000A11DB11D8093831790938417A093851754
:1026C000B0938617453F1FE051076105710528F457
:1026D0008CE08093701780E017C0453F5F4F610525
:1026E000710510F480E10DC084A595A5A6A5B7A538
:1026F0008093871790938817A0938917B0938A17B0
:1027000080E28093701781E0CF911F910F91FF902D
:10271000EF90DF90CF90089581E0B5DE8BE39FE1ED
:102720000197F1F70895CF93DF93823028F09091CD
:10273000D01998609093D0198093D4191092D5191C
:1027400080E48093D61980E18093D71980E5809347
:10275000D81961E08091C5190E9478228091C6192C
:102760008F3F19F061E00E94782261E08091C719E3
:102770000E947822C1ECD9E19E01215C394180910F
:10278000D01984FD03C084E090E002C088E090E0AE
:102790002196281739072CF461E08E810E94782257
:1027A000EBCF8BE39DE00197F1F760E08091C519D5
:1027B0000E944A2260E08091C7190E944A228091BB
:1027C000C6198F3F19F060E00E944A228091D0190B
:1027D00084FD20C063E081EC99E10E94861DCBE47A
:1027E000D6E4CE010197F1F763E081EC99E10E9414
:1027F000861D2197F1F763E081EC99E10E94861D27
:1028000083E592E00197F1F762E081EC99E10E94A3
:10281000861D12C0806237DE8BE496E40197F1F7E3
:102820008091D01980622FDE83E592E00197F1F765
:102830008091D019806227DE8091D019806223DEDA
:1028400084E08093D1198CE01EDE66DF82E0809305
:10285000D21986E0DF91CF9116CE843008F083E064
:102860009091D419891710F08FEF890FE82FF0E0BD
:10287000EF53F64E8489806806CEFF920F931F9324
:10288000CF93DF931F92CDB7DEB78C01FC01808917
:102890009189A289B38925E0B695A79597958795E3
:1028A0002A95D1F7F82FFF70FF2EBE016F5F7F4F83
:1028B000C80110DD813019F080E090E014C0F8010B
:1028C00080899189A289B3894F96A11DB11D808B02
:1028D000918BA28BB38B868197818796F0E2FF9EC6
:1028E000800D911D11240F90DF91CF911F910F91B9
:1028F000FF9008957F928F929F92AF92BF92CF9256
:10290000DF92EF92FF920F931F93CF93DF93CDB798
:10291000DEB7A0970FB6F894DEBF0FBECDBF8C0117
:1029200019821A8280914B17882309F44EC051C036
:102930008A2C912C40914F175091501748195909E2
:1029400060E070E095E0440F551F661F771F9A9571
:10295000D1F7C7010E94C607B82E8823B1F1C7017D
:102960008CDFFC01892B89F183858F3071F58081A3
:102970008F7190E08816990641F521E0821A91083E
:10298000789C9001799C300D1124C801820F931F0F
:102990004F0160E0D401653008F0B7C011964D9149
:1029A0005C9112974115510509F4CBC02F3F3105B9
:1029B00008F4B7C0D6011C92808186FDCEC0A394D6
:1029C00080914E178A1508F0B3CFF8011082B12C10
:1029D000C4C090914E17911157C0807631F08FE2AC
:1029E000D8018C9311961C924CC040915F17509166
:1029F00060176091611770916217809151179091E3
:102A0000521720E080960E94A405009701F3E09100
:102A10004F17F0915017EF70FF2725E0EE0FFF1FC3
:102A20002A95E1F77F01E80EF91EE114F10479F22D
:102A3000D70148E080E090E05EE22C912032C9F0BE
:102A4000983039F49801280F311DF90150838F5FB8
:102A500040E12C913FEB320F3A3128F4F7013485F5
:102A6000342309F0205EB801680F711DFB0120833B
:102A70008F5F9F5F11969B3001F7F801E80FF11D02
:102A80001082BB24B39469C080915317909154175E
:102A9000A0915517B0915617409151175091521768
:102AA0009E012F5F3F4F79010097A105B105A9F461
:102AB00080E2D901E82F1D92EA95E9F758874F8304
:102AC000DA0115969C91903121F0903209F07DCF7A
:102AD00080E4898381E08B830FC020E2F7011192AB
:102AE0002A95E9F720E1298321E02B8358874F833A
:102AF0008D8F9E8FAF8FB8A3AA24A3948DE0782EDC
:102B00006801FEEFCF0ED11C5BCF6B3028F414961A
:102B10004D915C91159746CF16964D915C91179704
:102B200041CF2F5F3F4F4F37510508F04FE3DC0196
:102B30004D93CD016F5FB2E08B0E911C6D3009F0AB
:102B400029CF2F3F310508F035CF808186FF32CF66
:102B5000D801A20FB31F1C922DCF8B2DA0960FB6BC
:102B6000F894DEBF0FBECDBFDF91CF911F910F91C3
:102B7000FF90EF90DF90CF90BF90AF909F908F909D
:102B80007F9008958F929F92AF92BF92CF92DF92E3
:102B9000EF92FF920F931F93CF93DF9300D01F927A
:102BA000CDB7DEB720E2EBE4F7E1DF011D922A9515
:102BB000E9F7A0909819B0909919B0925217A09285
:102BC00051179093501780934F17C090AE19D09023
:102BD000AF19E090B019F090B119C0925317D0928C
:102BE0005417E0925517F09256178F709927FC01F1
:102BF00095E0EE0FFF1F9A95E1F7D501AE0FBF1FCD
:102C0000D2962C9123FDB0C0922F9771287109F4B0
:102C1000986090934B1740934E17862F83708130A6
:102C200051F028F0823009F09FC083E005C065FDB7
:102C30009BC081E001C082E080934D1790914D17B9
:102C400091FF05C080914B17817109F08DC0962EC0
:102C5000862F8878982B90934D17D50193964D9198
:102C60005D916D917C91969740935F17509360179B
:102C70006093611770936217EA0DFB1DC3ACD4AC6F
:102C8000E12CF12CB601552744279F012F5B3F4FC4
:102C9000D901CD90DC90E12CF12CC42AD52AE62A6A
:102CA000F72A95FE3BC0C114D104E104F10409F4F4
:102CB0005FC09E012F5F3F4FB701A601C5010E9473
:102CC0005106882E87FD50C000E010E09801B70142
:102CD000A601C5010E94E205882309F445C0F5015B
:102CE00040855185628573854C155D056E057F05B0
:102CF00060F0F1E0CF1AD108E108F108D50118968B
:102D0000CD92DD92ED92FC921B97C980DA80EB8028
:102D1000FC808110CECF81112BC026C0C0926717D6
:102D2000D0926817E0926917F0926A17ED5BFF4F37
:102D300080819181A281B3818093631790936417FE
:102D4000A0936517B093661792FE18C04091631761
:102D50005091641760916517709166178BE497E145
:102D60000E94C60781110AC010924B1780E007C06D
:102D700080914D17846080934D17E6CF81E00F90CE
:102D80000F900F900F90DF91CF911F910F91FF90B7
:102D9000EF90DF90CF90BF90AF909F908F9008956D
:102DA000FF920F931F93CF93DF938C0180914B176A
:102DB000811162C090919219907709F45DC066FD0F
:102DC0005BC0D62F0115110541F1A80141505109F1
:102DD00060E070E085E0440F551F661F771F8A95FD
:102DE000D1F782E999E10E94C607882309F444C01B
:102DF00082E999E142DDFC01892B09F43DC083851C
:102E00008F3091F480818F71813071F4F584C02FFF
:102E10000531110558F0C4E109C040E050E0BA01A5
:102E200082E999E10E94C607C0E0F12C82E999E1AC
:102E300024DD009709F1FC012081253EE9F02223E1
:102E4000D9F02E32C9F0CC2371F09C01255F3F4FA1
:102E500080E080FB879587F99191890F2E173F07B6
:102E6000C1F7F81209C04C2F6D2FC801DF91CF9127
:102E70001F910F91FF9086CE80E0DF91CF911F913F
:102E80000F91FF900895CF93DF939B01482F50E05F
:102E900060E070E08AEA96E152D5EC010E943821A8
:102EA0008C0F9D1FDF91CF910895CF93DF93BC01CD
:102EB0008AEA96E1A8D5EC010E9438218C0F9D1F6B
:102EC000DF91CF910895CF93DF93BC018AEA96E119
:102ED0008CD5EC010E9438218C0F9D1FDF91CF9182
:102EE0000895CF93DF934AE050E0BC018AEA96E16F
:102EF00032D5EC010E9438218C0F9D1FDF91CF91BC
:102F00000895CF93DF93EC01FB01448155816081EB
:102F1000718156D2811102C0CE01B9D2CE01DF91AA
:102F2000CF910895CF93DF93EC0141E050E064EB43
:102F300072E046D2811102C0CE01A9D2CE01DF914A
:102F4000CF9108950F931F93CF93DF93CDB7DEB743
:102F500029970FB6F894DEBF0FBECDBF8C01862F28
:102F6000F8011182108213821282158214824AE0C3
:102F7000BE016F5F7F4F90E00E949C35BE016F5F86
:102F80007F4FC801B5D229960FB6F894DEBF0FBEA9
:102F9000CDBFDF91CF911F910F91089508950895AE
:102FA000DC01ED91FC910190F081E02D1994CF921C
:102FB000DF92EF92FF920F931F93CF93DF936C01F9
:102FC0007A018B01C0E0D0E0CE15DF0581F0D80199
:102FD0006D918D01D601ED91FC910190F081E02D74
:102FE000C6011995892B11F02196EECF7E01C701FC
:102FF000DF91CF911F910F91FF90EF90DF90CF90D5
:103000000895FC01538D448D252F30E0842F90E0EE
:10301000821B930B541710F0CF96089501970895D3
:10302000FC01918D828D981761F0828DDF01A80FD0
:10303000B11D5D968C91928D9F5F9F73928F90E0F2
:1030400008958FEF9FEF0895FC01918D828D981761
:1030500031F0828DE80FF11D858D90E008958FEF9E
:103060009FEF0895FC01918D228D892F90E0805C67
:103070009F4F821B91098F73992708958AEA96E1E1
:10308000F1DF21E0892B09F420E0822F0895FC0173
:10309000848DDF01A80FB11DA35ABF4F2C91848DE1
:1030A00090E001968F739927848FA689B7892C9316
:1030B000A089B1898C91837080648C93938D848D69
:1030C000981306C00288F389E02D80818F7D80836C
:1030D0000895EF92FF920F931F93CF93DF93EC012C
:1030E00081E0888F9B8D8C8D981305C0E889F989C4
:1030F000808185FD25C0F62E0B8D10E00F5F1F4FE0
:103100000F731127E02E8C8DE8120BC00FB607FC51
:10311000FACFE889F989808185FFF5CFCE01B7DF45
:10312000F2CF8B8DFE01E80FF11DE35AFF4FF082C5
:103130009FB7F8940B8FEA89FB89808180620AC06F
:103140009FB7F894EE89FF896083E889F9898081C7
:103150008370806480839FBF81E090E0DF91CF9196
:103160001F910F91FF90EF900895CF93DF93EC01A3
:10317000888D8823C1F0EA89FB89808185FD05C09F
:10318000A889B9898C9186FD0EC00FB607FCF5CFD2
:10319000808185FFF2CFA889B9898C9185FFEDCF19
:1031A000CE0175DFE8CFDF91CF91089580E090E008
:1031B000892B19F063DF811125C080E090E0892B15
:1031C00041F080E090E0892B21F00E940000811105
:1031D0001CC080E090E0892B41F080E090E0892BDA
:1031E00021F00E940000811113C080E090E0892B43
:1031F000A1F080E090E0892B81F00E940000811115
:103200000AC008950E940000D8CF0E940000E1CFBC
:103210000E940000EACF0C94000008950E944D39EE
:103220000F931F93CF93DF93EC01888199810097CF
:1032300029F02A813B812617370788F48B016F5FBD
:103240007F4F0E946D38009761F0998388831B83BC
:103250000A832C813D81232B11F4FC01108281E033
:1032600001C080E0DF91CF911F910F910895CF931E
:10327000DF93EC0160E08E810E944A2261E08E8142
:103280000E944A2260E08E810E944A228BE891E0EF
:103290000197F1F7DF91CF910895AF92BF92CF924E
:1032A000DF92EF92FF920F931F93CF93DF93DC0196
:1032B000CD90DC901197C114D10409F443C0149649
:1032C000CD91DC9115972097E9F18C01760157019A
:1032D000BFEFAB1ABB0AF7018081082E000C990BD7
:1032E0000E94B535892B11F07501F1CF2197CC0DD6
:1032F000DD1D8881082E000C990B0E94B535892BA5
:1033000029F0CE15DF0510F02197F3CFAE014F5F06
:103310005F4F4E195F09D80115965C934E93149731
:10332000CE14DF0420F4B701C6010E945939D80138
:10333000ED91FC91119714968D919C911597E80F42
:10334000F91F1082DF91CF911F910F91FF90EF90A5
:10335000DF90CF90BF90AF900895CF93DF93FC01A3
:10336000C081D181209751F08881882339F0082EBF
:10337000000C990B0E9451398993F6CFDF91CF91C0
:103380000895FC0124813581232B31F421E061155E
:103390007105A1F0FB0108C0FC01808191816115DC
:1033A000710531F421E0FC018081882339F005C0EA
:1033B0000E94623921E0892B09F020E0822F0895D4
:1033C000EF92FF920F931F93CF93DF9361157105D7
:1033D00011F480E01BC041155105B9F07B01EC01EF
:1033E0008C819D818A01080F191FB801CE0118DF59
:1033F000882379F3288139818C819D81B701820FDF
:10340000931F0E946B391D830C8381E0DF91CF9164
:103410001F910F91FF90EF9008950F931F93CF93FB
:10342000DF938C01EB01FC0180819181009739F0E1
:103430006881798161157105A1F40E941335888135
:103440009981F801918380838A819B819383828310
:103450008C819D8195838483198218821B821A82B4
:103460000FC0F801428153812C813D8142175307DF
:1034700020F30E946B398C819D81F80195838483B0
:103480001D821C82DF91CF911F910F910895CF93E0
:10349000DF93EC0188819981009711F00E94133528
:1034A000198218821D821C821B821A82DF91CF91A1
:1034B0000895EF92FF920F931F93CF93DF93EC0148
:1034C0007B018A01BA01ACDE811103C0CE01DFDFCE
:1034D00007C01D830C83B701888199810E946B39D5
:1034E000CE01DF91CF911F910F91FF90EF90089542
:1034F000CF93DF93EC016115710551F0FB01019051
:103500000020E9F73197AF01461B570BD2DF01C00E
:10351000BEDFCE01DF91CF910895CF93DF93EC0111
:10352000FB018617970751F0608171816115710564
:1035300021F044815581BDDF01C0A9DFCE01DF91BB
:10354000CF910895FC01808191810C941335FC0189
:103550001182108213821282158214826115710504
:1035600049F0FB0101900020E9F73197AF01461BBC
:10357000570B9FCF0895BF92CF92DF92EF92FF92A9
:103580000F931F93CF93DF937C016B018A01E901B5
:103590002417350720F4812F8901C42FD82F6DEC13
:1035A00072E0C701D4DFD60114968D919C911597D6
:1035B00008171907C0F48C179D0708F4EC01D60111
:1035C000ED91FC911197EC0FFD1FB08010826D9171
:1035D0007C91600F711FC7018BDFD601ED91FC91CB
:1035E000EC0FFD1FB082C701DF91CF911F910F91AA
:1035F000FF90EF90DF90CF90BF9008951F920F92B1
:103600000FB60F9211240BB60F922F933F934F9347
:103610005F936F937F938F939F93AF93BF93EF933A
:10362000FF93E0910E02F0910F021995FF91EF9137
:10363000BF91AF919F918F917F916F915F914F91CA
:103640003F912F910F900BBE0F900FBE0F901F90C8
:1036500018951F920F920FB60F9211240BB60F926E
:103660002F933F934F935F936F937F938F939F938A
:10367000AF93BF93EF93FF93E0910C02F0910D0293
:103680001995FF91EF91BF91AF919F918F917F918C
:103690006F915F914F913F912F910F900BBE0F90C3
:1036A0000FBE0F901F9018951F920F920FB60F929A
:1036B00011240BB60F922F933F934F935F936F9309
:1036C0007F938F939F93AF93BF93EF93FF93E0917B
:1036D0000202F09103021995FF91EF91BF91AF9112
:1036E0009F918F917F916F915F914F913F912F911A
:1036F0000F900BBE0F900FBE0F901F9018951F924A
:103700000F920FB60F9211240BB60F922F933F9387
:103710004F935F936F937F938F939F93AF93BF93D9
:10372000EF93FF93E0910002F09101021995FF9150
:10373000EF91BF91AF919F918F917F916F915F9129
:103740004F913F912F910F900BBE0F900FBE0F9096
:103750001F9018951F920F920FB60F9211240BB65F
:103760000F922F933F934F935F936F937F938F931A
:103770009F93AF93BF93EF93FF93E0910A02F09171
:103780000B021995FF91EF91BF91AF919F918F918E
:103790007F916F915F914F913F912F910F900BBE51
:1037A0000F900FBE0F901F9018951F920F920FB69B
:1037B0000F9211240BB60F922F933F934F935F9369
:1037C0006F937F938F939F93AF93BF93EF93FF93E9
:1037D000E0910802F09109021995FF91EF91BF91D4
:1037E000AF919F918F917F916F915F914F913F9199
:1037F0002F910F900BBE0F900FBE0F901F9018953A
:103800001F920F920FB60F9211240BB60F922F93A7
:103810003F934F935F936F937F938F939F93AF9358
:10382000BF93EF93FF93E0910602F0910702199581
:10383000FF91EF91BF91AF919F918F917F916F9188
:103840005F914F913F912F910F900BBE0F900FBE44
:103850000F901F9018951F920F920FB60F92112480
:103860000BB60F922F933F934F935F936F937F937A
:103870008F939F93AF93BF93EF93FF93E0910402D5
:10388000F09105021995FF91EF91BF91AF919F9132
:103890008F917F916F915F914F913F912F910F90F9
:1038A0000BBE0F900FBE0F901F9018958F929F9296
:1038B000AF92BF92EF92FF920F931F93CF93DF933C
:1038C000CDB7DEB7A1970FB6F894DEBF0FBECDBF60
:1038D0007C01FA01CB0119A2223008F42AE08E0102
:1038E0000F5D1F4F822E912CA12CB12CBF01A50181
:1038F00094010E941B37F901CA01015011096A3075
:1039000014F4605D01C0695CD8016C93232B242BF7
:10391000252B61F7B801C7010E946307A1960FB676
:10392000F894DEBF0FBECDBFDF91CF911F910F91F5
:10393000FF90EF90BF90AF909F908F9008952115CA
:10394000310541F4DC01ED91FC910190F081E02D15
:10395000642F1994ABCFCF92DF92EF92FF920F9327
:103960001F93CF93DF934115510579F4DC01ED915D
:10397000FC910190F081E02DDF91CF911F910F918B
:10398000FF90EF90DF90CF9019946B01770FEE08C6
:10399000FF084A305105E9F4F7FE19C0EC016DE269
:1039A000FFDA8C0144275527BA014C195D096E09CD
:1039B0007F092AE0CE017ADF800F911FDF91CF913E
:1039C0001F910F91FF90EF90DF90CF9008952AE024
:1039D00001C0242FB701A601DF91CF911F910F9154
:1039E000FF90EF90DF90CF9061CFDB0114964D9167
:1039F0005C9115976D917C91DC01ED91FC910280B9
:103A0000F381E02D1994EF92FF920F931F93CF93C0
:103A1000DF938C017B01C0E0D0E0F701EC0FFD1FCC
:103A20006491662361F0D801ED91FC910190F081E1
:103A3000E02DC8011995892B11F02196EECFCE010A
:103A4000DF91CF911F910F91FF90EF9008951F92FA
:103A50000F920FB60F9211240BB60F922F933F9334
:103A60004F935F936F937F938F939F93AF93BF9386
:103A7000EF93FF938AEA96E10ADBFF91EF91BF9102
:103A8000AF919F918F917F916F915F914F913F91F6
:103A90002F910F900BBE0F900FBE0F901F90189597
:103AA0001F920F920FB60F9211240BB60F922F9305
:103AB0008F939F93EF93FF93E091BA16F091BB160B
:103AC0008081E091C016F091C11682FD12C09081F4
:103AD0008091C3168F5F8F732091C416821751F0A7
:103AE000E091C316F0E0E655F94E958F8093C3162A
:103AF00001C08081FF91EF919F918F912F910F9045
:103B00000BBE0F900FBE0F901F901895CF92DF92B3
:103B1000EF92FF920F931F93CF93DF936C017C0181
:103B200087E0E80EF11CC0E0D0E0062F10E0B801FD
:103B30000C2E02C0759567950A94E2F76170F70143
:103B400081917F01A7D42196C430D10581F7C601A8
:103B5000DF91CF911F910F91FF90EF90DF90CF9069
:103B600086CBCF92DF92EF92FF920F931F93CF936A
:103B7000DF93EC01F62E642F8C818CD48D818F3FE6
:103B800011F060E087D48F850F2D10E084FF23C0F3
:103B90006E0187E0C80ED11CE12CF12CB8010E2C6F
:103BA00002C0759567950A94E2F76170F6018191FC
:103BB0006F0170D4FFEFEF1AFF0A88E0E816F104F6
:103BC00069F7CE01DF91CF911F910F91FF90EF9098
:103BD000DF90CF904CCBB80184E0759567958A95BE
:103BE000E1F7CE0193DF6F2DCE01DF91CF911F91D1
:103BF0000F91FF90EF90DF90CF9088CF41E0B1DF41
:103C000081E090E00895CF93DF93EC01E981FA81A0
:103C1000908181819CBD8DBDE981FA8160E08281C6
:103C200039D481E08B83DF91CF9108958EBD0DB49F
:103C300007FEFDCF08958FEF8EBD0DB407FEFDCFBB
:103C40008EB508950F931F93CF93DF938C01862F2A
:103C5000EA01ECDF88818EBD8981FE013296DE5F4C
:103C60000DB407FEFDCF8EBDEC17FD0711F081915D
:103C7000F7CF0DB407FEFDCF8FEFD8DF8FEFD6DF84
:103C8000DADFF80184838F71853039F087E580832E
:103C9000C8010E94D40480E001C081E0DF91CF918F
:103CA0001F910F9108950F931F93CF93DF93EB0113
:103CB00093D48B01C0DF8F3F41F08ED4601B710B1A
:103CC000C617D707B8F780E001C081E0DF91CF9138
:103CD0001F910F9108950F931F93CF93DF93EC01E2
:103CE00089018D81833039F089E0440F551F661FAB
:103CF000771F8A95D1F79A01AB0168E1CE010E9446
:103D0000E904882311F082E320C0A8016EEFCE0100
:103D100099DF8823D9F060ED77E0CE01C4DF182F5A
:103D2000811102C08AE511C020E030E0A9016DE0F8
:103D3000CE010E94E904811107C07DDF811104C01A
:103D4000CE010E94D40406C089E28883CE010E947D
:103D5000D40410E0812FDF91CF911F910F9108952E
:103D6000EF92FF920F931F93CF93DF93EC017B01B0
:103D700033D48B0160DF8C838F3F41F42DD4601BE3
:103D8000710B693E7340B0F385E503C08E3F39F097
:103D900080E58883CE010E94D40480E019C08FEFB3
:103DA0008EBDF701D701A150BE4F9FEF0DB407FEA6
:103DB000FDCF8EB59EBD8193EA17FB07B9F70DB411
:103DC00007FEFDCF8EB58C931C8235DF34DF81E09A
:103DD000DF91CF911F910F91FF90EF9008952F9257
:103DE0003F924F925F926F927F928F929F92AF928B
:103DF000BF92CF92DF92EF92FF920F931F93CF93D8
:103E0000DF93CDB7DEB72A970FB6F894DEBF0FBEAB
:103E1000CDBF9E838D833B015A834983DC018C9106
:103E200083FFE1C112968C9181FFDDC183FF0CC03D
:103E3000ED81FE81408D518D628D738DCF010E9489
:103E4000C607882309F4CFC189819A81AC0160E05B
:103E500070E0ED81FE8180899189A289B389809586
:103E60009095A095B09584179507A607B70708F415
:103E7000BAC1C980DA8022242A94322C21013C96CE
:103E8000FC83EB83AD81BE8150964D915D916D9128
:103E90007C915397C114D10409F47EC116968D917B
:103EA0009C9117978A019B0169E036952795179594
:103EB00007956A95D1F7DC011396EC91BE2EB022DE
:103EC0007A01B1E0FB22B1105CC0E114F10409F009
:103ED00058C0ED81FE8144855585668577854115FD
:103EE00051056105710511F12B813C810E9451063C
:103EF00087FD79C1811182C1AD81BE8112968C91FD
:103F00001297846012968C9312971C964D915D9136
:103F10006D917C911F972B813C8116968D919C9180
:103F200017970E94CF06811169C15DC1ED81FE81A5
:103F3000448D558D668D778D41155105610571054F
:103F4000C1F42281246022832B813C8140E050E037
:103F5000BA010E94CF06882309F445C1ED81FE8194
:103F600084859585A685B785848F958FA68FB78F15
:103F700008C0AD81BE811C964D935D936D937C937B
:103F80001F97AD81BE811696ED91FC9117971C96F7
:103F90004D915D916D917C911F974250510961093E
:103FA0007109048004C0440F551F661F771F0A94CF
:103FB000D2F780899189A289B389480F591F6A1F56
:103FC0007B1F4B0D511D611D711DE114F10429F47E
:103FD000C114B2E0DB0608F040C080E092E08E1928
:103FE0009F0986018C159D0508F48C01E114F104EC
:103FF000A9F4AD81BE8150968D909D90AD90BC90FE
:10400000539758968D919D910D90BC91A02D881637
:104010009906AA06BB0610F025E001C021E0CF01F9
:1040200080960E94A405009709F4DDC0A801B301A1
:104030008E0D9F1D0E945939E00EF11EE114B2E071
:10404000FB0609F096C0ED81FE81868197818096FE
:104050000E94610581118DC0C6C003A114A125A1D4
:1040600036A1C11484E0D80608F46BC082818B1994
:1040700090E08D2C8694912C8815990508F44C01BC
:10408000401751076207730760F0D901C801880D16
:10409000991DA11DB11D481759076A077B0708F430
:1040A0009CC0AD81BE811696ED91FC911797E08082
:1040B000F180F7018581833039F099E0440F551F75
:1040C000661F771F9A95D1F79A01AB0169E1C70185
:1040D0000E94E904811104C0530100E010E00EC009
:1040E00083E3D7018C9316C0A5016CEFC701AADD4D
:1040F000882381F00F5F1F4FFEEFBF1A60ED77E05E
:10410000C7010815190551F0CEDD8111EDCF8BE502
:10411000F7018083C7010E94D4040FC0C4DD882347
:1041200049F0102F0027110F8DEF80DDC7010E948D
:10413000D4041FC086E5D7018C93C7010E94D40424
:1041400052C0041715072607370729F410A223A227
:1041500034A245A256A2AD81BE811696ED91FC9186
:104160001797930180819181B6DD8823E1F100E00A
:1041700012E0ED81FE8180899189A289B389800F47
:10418000911FA11DB11D808B918BA28BB38B600EF3
:10419000711EC01AD10A76CEED81FE81808D918D7F
:1041A000A28DB38D84179507A607B70738F4408F03
:1041B000518F628F738F828184608283ED81FE8153
:1041C000828187FD03C089819A8139C08D819E815A
:1041D0000E9478078111F7CF06C010A223A234A253
:1041E00045A256A25ECFAD81BE8111968C911197EA
:1041F000816011968C938FEF9FEF21C0AD81BE81BE
:104200001696ED91FC9117971C964D915D916D91CD
:104210007C911F974250510961097109048004C0C3
:10422000440F551F661F771F0A94D2F78089918922
:10423000A289B389480F591F6A1F7B1FC9CE2A96CE
:104240000FB6F894DEBF0FBECDBFDF91CF911F91A7
:104250000F91FF90EF90DF90CF90BF90AF909F9025
:104260008F907F906F905F904F903F902F90089528
:104270006BEC72E08AEA96E10C946307CF93DF93CC
:104280009A01AB01BC018AEA96E159DBEC01F0DF4F
:104290008C0F9D1FDF91CF910895FC012481358102
:1042A000FB01448155812417350721F5FC018081EC
:1042B0009181FB0160817181009719F06115710591
:1042C000A1F46115710549F0232BB1F0FB01808148
:1042D00090E09195819591090AC0009769F0232B90
:1042E00059F0FC01808190E002C00E94623921E017
:1042F000892B19F020E001C021E0822F089590E081
:10430000FC013197E231F10508F04EC08827EE58E4
:10431000FF4F8F4F0C946538809180008F7703C0DA
:10432000809180008F7D809380000895809180002F
:10433000877FF9CF84B58F7702C084B58F7D84BD28
:1043400008958091B0008F7703C08091B0008F7D79
:104350008093B0000895809190008F7707C080917E
:1043600090008F7D03C080919000877F80939000A4
:1043700008958091A0008F7707C08091A0008F7D65
:1043800003C08091A000877F8093A0000895809152
:1043900020018F7707C0809120018F7D03C080911D
:1043A0002001877F8093200108953FB7F894809182
:1043B000E4199091E519A091E619B091E71926B595
:1043C000A89B05C02F3F19F00196A11DB11D3FBF4D
:1043D000BA2FA92F982F8827820F911DA11DB11DDB
:1043E000BC01CD0142E0660F771F881F991F4A95D7
:1043F000D1F708950F931F93CF93DF934115510584
:10440000E1F061157105C9F0FC01C481D5812097E7
:1044100019F4FB01108211C0415051094C175D077E
:1044200008F4EA018B01FC0160817181AE01C801D1
:104430000E947239C00FD11F1882DF91CF911F9156
:104440000F910895CF93DF93282F30E0F901E255C3
:10445000F84F8491F901E859F84FD491F901EE5DD4
:10446000F84FC491CC2389F0811149DFEC2FF0E0A3
:10447000EE0FFF1FE85FF84FA591B491EC91ED238B
:1044800081E090E021F480E002C080E090E0DF91E4
:10449000CF9108951F93CF93DF93282F30E0F90138
:1044A000E255F84F8491F901E859F84FD491F90198
:1044B000EE5DF84FC491CC23B9F0162F81111FDFA8
:1044C000EC2FF0E0EE0FFF1FE251F94FA591B491F0
:1044D0009FB7F894111104C08C91D095D82302C0D5
:1044E000EC91DE2BDC939FBFDF91CF911F9108955C
:1044F000CF93DF9390E0FC01E859F84F2491FC0141
:10450000EE5DF84F8491882361F190E0880F991F48
:10451000FC01EC52F94FC591D491FC01E251F94FE5
:10452000A591B491611109C09FB7F8948881209535
:1045300082238883EC912E230BC0623061F49FB7F5
:10454000F8948881322F309583238883EC912E2B29
:104550002C939FBF06C08FB7F894E8812E2B288339
:104560008FBFDF91CF9108958F929F92AF92BF92AC
:10457000CF92DF92EF92FF926B017C0116DF4B012D
:104580005C01C114D104E104F104E9F00EDFDC01A7
:10459000CB0188199909AA09BB09883E9340A10556
:1045A000B10578F321E0C21AD108E108F10888EEDC
:1045B000880E83E0981EA11CB11CC114D104E10433
:1045C000F10421F7DECFFF90EF90DF90CF90BF9006
:1045D000AF909F908F9008952FB7F8946091E01955
:1045E0007091E1198091E2199091E3192FBF08951C
:1045F0001F920F920FB60F9211242F933F938F9318
:104600009F93AF93BF938091E0199091E119A0918E
:10461000E219B091E3193091DF1923E0230F2D3710
:1046200020F40196A11DB11D05C026E8230F0296B6
:10463000A11DB11D2093DF198093E0199093E1191A
:10464000A093E219B093E3198091E4199091E519D0
:10465000A091E619B091E7190196A11DB11D8093B3
:10466000E4199093E519A093E619B093E719BF9167
:10467000AF919F918F913F912F910F900FBE0F900F
:104680001F901895CF93DF93CDB7DEB7CD51D140B2
:104690000FB6F894DEBF0FBECDBF789484B58260AC
:1046A00084BD84B5816084BD85B5826085BD85B5D6
:1046B000816085BD80916E00816080936E00109254
:1046C00081008091810082608093810080918100CF
:1046D0008160809381008091800081608093800060
:1046E0008091B10084608093B1008091B0008160BE
:1046F0008093B000809191008260809391008091BE
:1047000091008160809391008091900081608093FE
:1047100090008091A10082608093A1008091A1000F
:1047200081608093A1008091A00081608093A000AF
:10473000809121018260809321018091210181601B
:1047400080932101809120018160809320018091DC
:104750007A00846080937A0080917A0082608093EE
:104760007A0080917A00816080937A0080917A004B
:10477000806880937A001092C100E091BA16F0919F
:10478000BB1682E08083E091B616F091B7161082D6
:10479000E091B816F091B91680E180831092C216AC
:1047A000E091BE16F091BF1686E08083E091BC16C2
:1047B000F091BD16808180618083E091BC16F091FC
:1047C000BD16808188608083E091BC16F091BD1693
:1047D000808180688083E091BC16F091BD16808155
:1047E0008F7D808382E00E9493130E948C1380E06F
:1047F0000E942D146FEA72E081EC99E104D960E027
:104800009E012F5F3F4F7901C9010E94A21767E007
:10481000CE0193950E94A21760E0CE01845F9E4F67
:104820000E94A217CA5FDE4F19821882C650D1407B
:10483000C85FDE4F19821882C850D140C65FDE4F74
:1048400019821882CA50D140BE01645F7E4FCE01EA
:104850008A5F9E4F0E948D1ACE018A5F9E4F0E94F2
:104860009217BE0173950E948117B7010E948117AC
:10487000BC0181EC99E1B9D8CE018A5F9E4F0E94BC
:10488000A21ACE01845F9E4F0E94A21ACE01939578
:104890000E94A21AC7010E94A21A81E00E942D1450
:1048A00060EA72E081EC99E1AED860ED77E080E0FB
:1048B00090E05ADE60E972E08AEA96E1A4D860E00E
:1048C000C7010E94A21767E0CE0193950E94A2172C
:1048D00060E0CE01845F9E4F0E94A217CA5FDE4F48
:1048E00019821882C650D140C85FDE4F19821882E3
:1048F000C850D140C65FDE4F19821882CA50D140DD
:10490000BE01645F7E4FCE018A5F9E4F0E948D1A6A
:10491000CE018A5F9E4F0E949217BE0173950E943E
:104920008117B7010E9481170E946317CE018A5F29
:104930009E4F0E94A21ACE01845F9E4F0E94A21A2F
:10494000CE0193950E94A21AC7010E94A21A0DE2FD
:1049500012E0D801DD908D0161E08D2DC9DD60E0B0
:104960008D2D98DDB2E001331B0799F762E089E1F4
:10497000BFDD62E087E1BCDD62E088E1B9DD62E0D5
:104980008AE1B6DD62E086E1B3DD87E15BDD86E1E9
:1049900059DD892B09F053C084E792E00E94551736
:1049A00060E872E0C7010E94A71A65E872E0CE01D4
:1049B00007960E94A71A6AE872E0CE010D960E943F
:1049C000A71A6FE872E0CE0143960E94A71A64E925
:1049D00072E0CE0149960E94A71A1092E712109237
:1049E000EA121092E9121092E81284E090E00E941C
:1049F0009308813011F48093E71285E090E00E94E3
:104A00009308813011F48093EA1286E090E00E94CE
:104A10009308813011F48093E91287E090E00E94BE
:104A20009308813011F48093E81211E001E066E010
:104A3000D62E89E107DD009709F469C0CBC089E172
:104A400001DD892B09F065C189E592E00E945517C7
:104A50001EE534EBC32E3BE2D32E31E1E32EF12CE5
:104A600010937C0010927B0062E070E080E090E0A8
:104A70007BDD80917A00806480937A0080917A0057
:104A800086FDFCCF209178008091790030E0382BB2
:104A9000032E000C440B550BC701B6010E94FF36D4
:104AA000CA01B9010E94D33520E030E04AE754E45E
:104AB0000E94A2374B015C016DE371E08AEA96E146
:104AC0000E94031D22E0B501A4018AEA96E10E943A
:104AD0003D33CEDB62E370E080E090E045DD0E9494
:104AE0008C1381E00E942D1462E371E081EC99E166
:104AF0000E94031D22E0B501A40181EC99E10E940E
:104B00003D3360ED77E080E090E02EDDA9CF1130FD
:104B100081F48091E712813021F41092E71260E075
:104B200003C01093E71261E084E090E00E949108D6
:104B30005BC0123031F58091EA12813021F410927D
:104B4000EA1260E004C081E08093EA1261E085E04F
:104B500090E00E9491080E948C1380E00E942D1426
:104B600064E271E081EC99E10E94031D81E00E9402
:104B70002D14BE01635F7F4F81EC99E10E94F51C0B
:104B80005CC0133009F08BC08091E912813021F4B0
:104B90001092E91260E004C081E08093E91261E0C4
:104BA00086E090E00E9491080E948C1380E00E94B1
:104BB0002D1464E271E081EC99E10E94031D81E013
:104BC0000E942D14BE016D5E7F4F81EC99E10E9421
:104BD000F51C3FC087E136DC892B09F08FC014300B
:104BE00011F40C941F331F5F0E948C1380E00E940D
:104BF0002D1464E271E081EC99E10E94031D81E0D3
:104C00000E942D14B701D19E600D711D112481ECFD
:104C100099E10E94F51C113071F48091E712813006
:104C200019F461E271E002C06DE171E081EC99E19B
:104C30000E94031D2DC0123051F48091EA12813080
:104C400019F46AE171E0F2CF66E171E0EFCF133061
:104C500079F48091E912813019F463E171E002C0C6
:104C60006FE071E081EC99E10E94031D13E010C038
:104C7000143071F48091E812813019F46CE071E025
:104C800002C068E071E081EC99E10E94031D14E02C
:104C900068EC70E080E090E067DC00E0CACE1430A1
:104CA00089F48091E812813021F41092E81260E0DA
:104CB00004C081E08093E81261E087E090E00E9408
:104CC000910806C0111190CFFC0119950C941F3367
:104CD0000E948C1380E00E942D1464E271E081EC4C
:104CE00099E10E94031D81E00E942D14BE01675EC0
:104CF0007F4F81EC99E10E94F51CBCCF88E1A2DBDB
:104D0000892B19F0013049F66FCF112309F31150A7
:104D10006BCF61E085E3ECDB1092EC121092EB12AA
:104D20001092B5191092B2191092B71988EB99E147
:104D30009093B4198093B3194FDC8B01C090B319D1
:104D4000D090B41985E3D60112968C9361E0D0DB44
:104D500061E0F60182819EDBDFB6F8948091561502
:104D6000811123C0E7E5F7E08491EDE9F7E0949144
:104D7000E82FF0E0EE0FFF1FEC52F94FA591B49130
:104D8000EC91E92319F461E085E384DB61E085E3DC
:104D9000AFDB8CB580618CBD8CB580648CBD61E06F
:104DA00084E3A6DB61E083E3A3DB809156158F5F8C
:104DB00080935615DFBEE091B319F091B41982E5E6
:104DC000808311828091B519811104C082EB99E131
:104DD0000E94031EE091B319F091B41961E0828141
:104DE00059DB4AE0D42E8FEF0E94161EDA94D110C0
:104DF000FACFE091B319F091B41960E082814ADBF7
:104E00003BE0D32E20E030E0A90160E082EB99E1A5
:104E10000E94E904C82EF1E08F1799F0DA94D110BE
:104E200002C080E262C08DEF0E94161E28E0A22E12
:104E300022E0B22E0E941B1E21E0A21AB108D1F777
:104E4000E1CF2AEA31E040E050E068E082EB99E10E
:104E50000E94E904853019F4C092B71911C094E09A
:104E6000D92E0E941B1E8093B619DA94D110F9CF67
:104E70008A3A21F482E08093B71902C085E235C0F6
:104E80008091B719823021F0812C912C540105C0FA
:104E9000812C912CA12C80E4B82E20E030E0A901D7
:104EA00067E382EB99E10E94E904A501940169E2BC
:104EB00082EB99E10E94E904882341F08DDB601BBD
:104EC000710B613D774048F383E40FC08091B719BF
:104ED000823001F520E030E0A9016AE382EB99E13C
:104EE0000E94E904882341F087E38093B21982EBA2
:104EF00099E10E94D40453C00E941B1E807C803C18
:104F000019F483E08093B7190E941B1E0E941B1E98
:104F10000E941B1E82EB99E10E94D404E091B31918
:104F2000F091B41980E5808381E0818382EB99E17F
:104F300090936C1780936B1782E999E10E9489081E
:104F400081E00E945F12882329F0809192198111DB
:104F500026C006C080E00E945F128111F6CF1FC0FC
:104F600080E2E2E9F9E1DF01282F1D922A95E9F7B5
:104F70002BE637E130939919209398199091701787
:104F8000903119F0903259F480E48093921981E0C5
:104F90008093941980919219807709F055C00E94EE
:104FA0008C1380E00E942D146BE072E081EC99E19B
:104FB0000E94031D8091B219882379F18DE891E058
:104FC0000E9455178091B219803221F48DE591E04D
:104FD0000E9455178091B2198823A9F16CE471E001
:104FE0008AEA96E10E94031D4091B21950E060E008
:104FF00070E020E18AEA96E10E94561C68E471E0C4
:105000008AEA96E10E94031D6091B61970E080E083
:1050100090E040E150E032D916C0809170178111C4
:1050200005C08FED91E00E9455170DC08091921937
:10503000811105C084EC91E00E94551704C084EBF7
:1050400091E00E945517FFCFDD24D3948091EB129D
:105050009091EC128C32914008F060C080914B1717
:1050600081115CC080919219807709F457C08091BA
:10507000A2199091A319A091A419B091A5198F71AB
:105080009927AA27BB27892B8A2B8B2B09F046C08F
:1050900010E000E08090A2199090A319A090A419AC
:1050A000B090A51982E999E10E943D14FC01892B79
:1050B000A9F19081992391F19E3211F410E0EACF89
:1050C000953EE1F3838583FD11C01123B9F09F0163
:1050D000255F3F4F80E080FB879587F99191890F8D
:1050E000E217F307C1F7081319C008C08F3031F772
:1050F00096FFD0CF192F1F710585CCCFD501C401E4
:1051000025E0B695A795979587952A95D1F7412FD4
:1051100060E00E94C21581110C9432321092E712A5
:105120001092EA121092E9121092E81280E090E0D8
:105130000E949308813409F04AC081E090E00E9407
:105140009308843409F043C082E090E00E94930801
:105150008534E9F584E090E00E9493088130A9F558
:105160008093E71211E085E090E00E94930881307F
:1051700019F48093EA121F5F86E090E00E94930882
:10518000813019F48093E9121F5F87E090E00E945C
:105190009308813019F48093E8124EC011114CC06D
:1051A0000E948C1380E00E942D146EE272E081EC6C
:1051B00099E10E94031D81E00E942D1466E272E0D5
:1051C00081EC99E10E94031DFFCF10E0CCCF88E372
:1051D00092E00E94551781E08093E7128093EA12D3
:1051E0008093E9128093E81261E480E090E00E94ED
:1051F000910864E481E090E00E94910865E482E017
:1052000090E00E94910864E083E090E00E949108A1
:1052100061E084E090E00E94910861E085E090E028
:105220000E94910861E086E090E00E94910861E0B0
:1052300087E090E00E94910883E090E00E9493084C
:10524000809386169091E712843021F4911102C068
:105250001092861680918616853031F48091EA127C
:10526000811102C01092861680918616863031F424
:105270008091E912811102C01092861680918616E3
:10528000873031F48091E812811102C010928616A5
:105290008091861684508430D0F0992321F084E0E8
:1052A0008093861614C08091EA12882311F085E05D
:1052B0000BC08091E912882311F086E005C080912F
:1052C000E812882329F187E08093861621C099236C
:1052D000F9F080918416909185160097B1F0909323
:1052E00048158093471569E172E08AEA96E10E94C9
:1052F000031D89ED99E10E94631764E080E40E9438
:10530000950881E08093260203C084E00E9460102B
:105310008091EA12882319F085E00E946010809144
:10532000E912882319F086E00E9460108091E8124B
:10533000882319F087E00E9460106DE472E08AEA29
:1053400096E10E94031D8091E8199091E919A70147
:10535000481B590BCA010E9471173ED96093511521
:1053600070935215809353159093541535D96093CB
:105370008D1670938E1680938F169093901662E020
:1053800083E1B6D861E085E1B3D861E085E182D8F8
:1053900062E084E1ADD884E08CBB82E08CBB89EE16
:1053A00099E09093090280930802809169008063DC
:1053B00080936900EA9A81E394E0909307028093D6
:1053C000060280916900837F886080936900E99A72
:1053D00022242A94322C210180915515813009F024
:1053E0000CC2F8945091DE12CE5EDE4F5883C2514B
:1053F000D140A52EB12C850104501109A4E0B4E0E0
:105400000A9FC0010B9F900D1A9F900D1124FC0163
:10541000E253FD4F3F0120E083E090E0F301E80F0D
:10542000F91F3081232701968330F4E09F07B1F7FD
:1054300044E054E0049FF001059FF00D149FF00D2F
:105440001124EF52F94F8081281392C1C090DF12CE
:10545000D090E012E090E112F090E2125EECC516FE
:105460005AEFD506E104F10441F4CE5EDE4F8881A7
:10547000C251D1400E94AD08A3C1C114D10480E43F
:10548000E806F10408F02FC1F801E35DFD4F9081BB
:10549000CC5EDE4F9883C451D14061E0892F0E94D9
:1054A0004A22D801AA0FBB1FC65EDE4FB983A8836C
:1054B000CA51D140A95BBA4EC45EDE4FB983A883FE
:1054C000CC51D140ED91FC91EE0FFF1FE351FD4E09
:1054D00061E0808191810E94D01620916317309104
:1054E00064174091651750916617CA5EDE4F288396
:1054F00039834A835B83C651D14065E073E08AEA11
:1055000096E10E94031D8501035011094AE050E015
:10551000B8018AEA96E10E94AB1C69EF72E08AEA60
:1055200096E10E94031D4AE050E0C701B6010E94C7
:105530003E2146015701BAE0880C991CAA1CBB1CED
:10554000BA95D1F7CA5EDE4F88819981AA81BB8165
:10555000C651D14088169906AA06BB0608F08BC032
:10556000B501A4018BE497E10E94C607C45EDE4F3B
:10557000A881B981CC51D140ED91FC91E95AFA4E04
:105580008081882391F0C65EDE4FE881F981CA519F
:10559000D140E95BFA4E0190F081E02DE95AFA4ED4
:1055A0008081813009F05AC049C003E010E0F30166
:1055B000E00FF11F608187E497E10E94C2040F5F52
:1055C0001F4F0330B2E01B0791F7E3E0CE22DD244A
:1055D000B501A401F2E0CF16D104C4F4565F6F4FB9
:1055E0007F4F8BE497E10E94C60703E012E0F301CE
:1055F000E00FF11F608187E497E10E94C2040F5F12
:105600001F4F033024E0120791F7BDCF56506109B8
:1056100071098BE497E10E94C60703E012E0F301F1
:10562000E00FF11F608187E497E10E94C2040F5FE1
:105630001F4F033034E0130791F7A5CF03E010E0CC
:10564000F301E00FF11F608187E497E10E94C2043B
:105650000F5F1F4F033044E0140791F78BE497E18D
:105660000E94890860E0CC5EDE4F8881C451D14041
:105670000E944A22A5C062E672E08AEA96E10E9490
:1056800063074AE050E0B8018AEA96E10E94AB1C49
:1056900061ED72E08AEA96E10E94031D2AE030E0A3
:1056A000B501A4018AEA96E10E949F1C6AEB72E0B0
:1056B0008AEA96E10E94031D4AE050E0CA5EDE4F8E
:1056C000688179818A819B81C651D1400E943E21A7
:1056D0008BE497E10E948908CE5EDE4F6881C2515B
:1056E000D14082E46BC051EFF51A8FEFC816D8068F
:1056F000E8068EE0F80640F4CE5EDE4F8881C251A7
:10570000D1400E94240D5CC063E573E08AEA96E113
:105710000E94031D6091DE1270E0635071094AE03F
:1057200050E08AEA96E10E94AB1C6BE273E08AEAE1
:1057300096E10E94031D6091DF127091E01280914A
:10574000E1129091E2124AE050E00E943E21109155
:10575000DE12612F82E40E94950894E0199FF00107
:105760001124EF5FFD4F208231824282538228C094
:1057700069E273E08AEA96E10E94031D6091DE12FD
:1057800070E0635071094AE050E08AEA96E10E94B5
:10579000AB1C67E073E08AEA96E10E94031D60910A
:1057A000DF127091E0128091E1129091E2124AE0D2
:1057B00050E00E943E216091DE1281E40E94950833
:1057C000E091DE12A4E0EA9FF0011124EF5FFD4FAB
:1057D00020823182428253820E94EC2260935115D2
:1057E0007093521580935315909354150E94D609C7
:1057F000B4E0BCBB7894109255158091501581305F
:1058000009F04AC2F8948090DF129090E012A090C4
:10581000E112B090E21281149104E0E4AE06B1040A
:1058200008F070C16090DE12062D10E0980124503F
:105830003109CC5EDE4F39832883C451D140F90150
:10584000E35DFD4F708061E0872D0E944A22CC5EAF
:10585000DE4F88819981C451D140880F991FAC01D6
:10586000495B5A4EC65EDE4F59834883CA51D140C8
:10587000DA01ED91FC91EE0FFF1FE351FD4E60E068
:10588000808191810E94D016209163173091641716
:105890004091651750916617CA5EDE4F28833983A1
:1058A0004A835B83C651D14061EA73E08AEA96E19C
:1058B0000E94031D035011094AE050E0B8018AEA32
:1058C00096E10E94AB1C65E973E08AEA96E10E94CA
:1058D000031D4AE050E0C501B4010E943E21CC5EA8
:1058E000DE4F88819981C451D140A4E0B4E08A9F01
:1058F000A0018B9F500D9A9F500D1124C45EDE4F66
:1059000059834883CC51D14042535D4FCE5EDE4F28
:1059100059834883C251D14080EB860DFA018083C0
:1059200024E021831282750164017AE0CC0CDD1C35
:10593000EE1CFF1C7A95D1F7CA5EDE4F88819981F3
:10594000AA81BB81C651D140C816D906EA06FB061A
:1059500008F09CC0B701A6018BE497E10E94C6073E
:10596000C65EDE4FA881B981CA51D140ED91FC914C
:10597000E95AFA4E8081612C811155C003E010E094
:105980000E9449126826CE5EDE4FE881F981C2513D
:10599000D140E00FF11F80830F5F1F4F0330B2E053
:1059A0001B0771F7E3E08E229924B701A601F2E00C
:1059B0008F169104E4F4565F6F4F7F4F8BE497E1AD
:1059C0000E94C60703E012E00E9449126826CE5EDC
:1059D000DE4FE881F981C251D140E00FF11F808391
:1059E0000F5F1F4F033024E0120771F734C0565089
:1059F000610971098BE497E10E94C60703E012E098
:105A00000E9449126826CE5EDE4FE881F981C251BC
:105A1000D140E00FF11F80830F5F1F4F033034E050
:105A2000130771F718C08130B1F403E010E00E9451
:105A300049126826C45EDE4FE881F981CC51D1401D
:105A4000E00FF11FE253FD4F80830F5F1F4F0330C4
:105A500044E0140761F7CC5EDE4F88819981C45120
:105A6000D140A4E0B4E08A9FF0018B9FF00D9A9F93
:105A7000F00D1124EF52F94F60828BE497E10E9400
:105A8000890860E0872D0E944A2235C062E672E0F4
:105A90008AEA96E10E9463074AE050E0B8018AEA88
:105AA00096E10E94AB1C6CE673E08AEA96E10E94E4
:105AB000031D2AE030E0B701A6018AEA96E10E94C0
:105AC0009F1C65E573E08AEA96E10E94031D4AE0A7
:105AD00050E0CA5EDE4F688179818A819B81C65120
