:100000001CC600000C94F2350C94C7350C949C353A
:100010000C9471350C9446350C941B350C94F034CB
:100020000C94C5343BC6000039C6000037C600003A
:1000300035C6000033C6000031C600002FC60000E0
:100040002DC600002BC6000029C6000027C60000F0
:1000500025C6000023C6000021C600000C947B3496
:100060001DC600000C9445340C941B3417C60000C8
:1000700015C6000013C6000011C600000FC6000020
:100080000DC600000BC6000009C6000007C6000030
:1000900005C6000003C6000001C60000FFC5000041
:1000A000FDC50000FBC50000F9C50000F7C5000054
:1000B000F5C50000F3C50000F1C50000EFC5000064
:1000C000EDC50000EBC50000E9C50000E7C5000074
:1000D000E5C50000E3C50000E1C50000DFC5000084
:1000E000DDC500003A204572726F723A20556E6B82
:1000F0006E6F776E20436F6D6D616E643A200044C1
:10010000002C2052656365697665642074686973A4
:100110003A20003A204572726F723A204578706535
:10012000637465643A2000440020202052656365B2
:10013000697665643A2000202020457870656374F4
:1001400065643A20004572726F723A2053656E649E
:10015000696E6720426C6F636B3A2000202020524A
:10016000656365697665643A2000202020457870D3
:1001700065637465643A20004572726F723A205369
:10018000656E64696E6720426C6F636B3A20002075
:1001900052657472792E2E2E004572726F723A205B
:1001A00053656E64696E6720426C6F636B3A200022
:1001B0003A203C204E6F204469736B203E0044007F
:1001C0002F003A200044003A204572726F723A20A4
:1001D00046696C6520746F6F206C6172676520746E
:1001E0006F20666F726D6174004400466F726D61BE
:1001F0007420636F6D706C657465002E004E756DB4
:10020000626572206F6620426C6F636B733A2000E8
:1002100053697A65206F662066696C653A200045EF
:1002200072726F723A20466F726D617474696E6794
:10023000206120524F4D2046696C65206E6F7420FE
:10024000737570706F72746564005265636569766A
:10025000656420466F726D617420436F6D6D616ED1
:100260006420666F72204472697665204400436F93
:100270006D70617469626C6520426C6F636B204DB8
:100280006F646520456E61626C656400536B6970D4
:1002900070696E6720746869732072657365740095
:1002A0003A20003A003A00546F6F204D616E792079
:1002B00046696C657300202020202020202020200B
:1002C000202020202020005761726E696E673A203E
:1002D0004D6178696D756D204E756D626572206F28
:1002E000662046696C6573205265616368656400C9
:1002F000466F726D617420436F6D6D616E64204551
:1003000072726F7200466F726D617420436F6D6D13
:10031000616E6420436F6E6669726D65640041644E
:10032000616D20436F6D6D616E643A20466F726D32
:1003300061742044004164616D20436F6D6D616E96
:10034000643A2057726974696E6720746F2074680C
:1003500065204C4344203A004164616D20436F6D39
:100360006D616E643A2052656672657368204C4315
:1003700044004368616E67696E6720746F2044694A
:10038000726563746F72793A20004368616E6769C1
:100390006E6720746F204469726563746F72793A76
:1003A00020004368616E67696E6720746F2044693E
:1003B000726563746F72793A20003A20004D6F7550
:1003C0006E74696E67204400556E6D6F756E74694A
:1003D0006E672044004164616D20436F6D6D616EF6
:1003E000643A2043757272656E74204469736B20A1
:1003F0006F6E2044003A004E756D626572206F6624
:100400002046696C65733A0043757272656E74209C
:100410004469726563746F72793A0046696C6573FA
:1004200020696E20426C6F636B3A0046696C656EA2
:10043000616D65204C656E6774683A004164616D5A
:1004400020436F6D6D616E643A20534420436172A6
:1004500064204469726563746F727920426C6F63C3
:100460006B3A20003A003A003A0053443D00203AEB
:100470002000203A2000203A2000534420436F6D92
:100480006D616E643A20004D6F756E74696E672001
:1004900044313A20004E6F20426F6F7420446973DC
:1004A0006B2020202000426F6F74204469736B2002
:1004B0004F6E00426F6F74204469736B204F6E2043
:1004C00020202000426F6F74204469736B204F66B8
:1004D0006600426F6F74204469736B204F6666201C
:1004E0002020004C6F6164696E67204469722E2E73
:1004F0002E2020002020202020202020202020200E
:1005000020202020004368616E67696E6720746F49
:10051000204469726563746F72793A20004C6F6190
:1005200064696E67204469722E2E2E2020002020E0
:1005300020202020202020202020202020200043B8
:1005400068616E67696E6720746F204469726563C5
:10055000746F72793A2000556E6D6F756E74696EA6
:10056000672044004C6F6164696E67204469722E95
:100570002E2E20200020202020202020202020207F
:100580002020202020004368616E67696E67207418
:100590006F204469726563746F72793A20004C6F02
:1005A0006164696E67204469722E2E2E202000201F
:1005B000202020202020202020202020202020005B
:1005C0004368616E67696E6720746F204469726565
:1005D00063746F72793A20004C6F6164696E6720B2
:1005E0004469722E2E2E2020002020202020202042
:1005F000202020202020202020004368616E676991
:100600006E6720746F204469726563746F72793A03
:1006100020003A20004D6F756E74696E67204400AB
:1006200000002200250028002B002E00310034009D
:1006300002010000050108010B0100002000230059
:10064000260029002C002F003200000100000301C9
:100650000601090100000A0B02090C0D0E08070330
:100660000401000000000000000000000000000085
:10067000000000000000000000000000000000007A
:100680001211100000000000000000000000000037
:10069000000000000000000000004F6666004F6E82
:1006A000004F6666004F6E004F6666004F6E004F4B
:1006B0006666004F6E004F6666004F6E00446576BA
:1006C00069636520436F6E6669670000002100243E
:1006D0000027002A002D0030003300010100000433
:1006E0000107010A01010210202008081020401013
:1006F00020408002010201080402010102040810E6
:100700002040808040201008040201800402018003
:10071000402010080402010804020101020408102C
:1007200020408001020408102040800505050507CF
:100730000508080808020202020A0A08080404045C
:100740000401010101010101010303030303030388
:1007500003040707070C0C0C0C0C0C0C0C02020217
:100760000206060606060606060B0B0B0B0B0B0B0A
:100770000B2C3058005344206572726F72436F64C3
:10078000653A203058004E6F20636172642C2077E8
:10079000726F6E6720636869702073656C6563743F
:1007A0002070696E2C206F72205350492070726F38
:1007B000626C656D3F0043616E2774206163636501
:1007C000737320534420636172642E20446F206E43
:1007D0006F74207265666F726D61742E004E6F20AB
:1007E0006572726F7220666F756E642E0043616E63
:1007F0002774206F70656E20726F6F742064697249
:100800006563746F72792E00496E76616C6964203D
:10081000666F726D61742C207265666F726D6174A3
:100820002053442E002020204E6F2053442043614B
:100830007264004368616E67696E6720746F20742C
:10084000686520496E697469616C204469723A2058
:10085000004465627567204D6F646520446973616B
:10086000626C6564004465627567204D6F64652045
:10087000456E61626C65640044313A203C626F6F82
:10088000743E3A2000426F6F74204469736B2049B4
:100890006E6465783A2000426F6F74204469736B10
:1008A000204469723A2000456E61626C6564004EB6
:1008B0006F20447269766573004465627567204DE8
:1008C0006F646520686173206265656E206469737A
:1008D00061626C65640044312C2044322C20443326
:1008E00020616E642044342068617665206265650D
:1008F0006E20656E61626C656400496E6974696141
:100900006C697A696E6720454550524F4D002E0044
:1009100045726173696E6720454550524F4D3A00EC
:10092000454550524F4D204E6F7420496E69746991
:10093000616C697A65640041444520566363203DDB
:10094000200041444520566363203D2000456E74DD
:100950006572696E6720566F6C74616765205465B7
:100960007374204D6F646500467265652053524173
:100970004D3A2000456E746572696E6720436F6E54
:1009800066696775726174696F6E204D6F6465008A
:10099000456E61626C696E6720616C6C204465769F
:1009A000696365730044697361626C696E672044B2
:1009B00065766963652035005374617274696E678A
:1009C0003A2041444520760062793A205365616EB1
:1009D000204D79657273004144452020202020205D
:1009E0007600206973206C6172676572207468619B
:1009F0006E2066696C653A20003A204572726F720B
:100A000020736176696E6720626C6F636B202D20A6
:100A1000426C6F636B206C6F636174696F6E3A2018
:100A20000044004572726F723A2057726974696EA1
:100A30006720746F206120524F4D2046696C6520FD
:100A40006E6F7420737570706F727465640020200F
:100A50002020202020202020202020202020003A9C
:100A60002057726974696E673A200044003A204545
:100A700072726F723A20496E76616C6964204368C5
:100A800065636B73756D2C20426C6F636B3A004429
:100A9000003A204572726F723A2052657175657323
:100AA00074656420626C6F636B206F7574206F6671
:100AB0002072616E67653A20004400206973206CE3
:100AC0006172676572207468616E2066696C653A50
:100AD00020003A204572726F72206C6F6164696EFB
:100AE0006720626C6F636B202D20426C6F636B20FC
:100AF0006C6F636174696F6E3A200044006B005242
:100B00004F4D2046696C652053697A653A2000573D
:100B100061726E696E673A20524F4D2066696C654E
:100B2000206C6172676572207468616E2033326B6D
:100B30002C206C6F6164696E672033326B0020205B
:100B40002020202020202020202020202020003AAB
:100B50002052656164696E673A200044003A20457E
:100B600072726F723A205265717565737465642094
:100B7000626C6F636B206F7574206F662072616E9C
:100B800067653A20004400456E68616E63656420C5
:100B9000426C6F636B204D6F646520456E61626CC3
:100BA000656400436F6D70617469626C6520426CAE
:100BB0006F636B204D6F646520456E61626C656488
:100BC00000536F66742052657365742066726F6D92
:100BD000204164616D4E657400436F6D706174698E
:100BE000626C6520426C6F636B204D6F64652045BD
:100BF0006E61626C65640048617264205265736561
:100C0000742066726F6D204164616D4E657400449E
:100C1000313A203C626F6F743E3A20004D6F756E22
:100C200074696E6720426F6F74204469736B20494A
:100C30006D61676500000A37154A11241FBECFEFAA
:100C4000D1E2DEBFCDBF00E00CBF13E0A0E0B2E018
:100C5000EAEBFFE900E00BBF02C007900D92A2365D
:100C6000B107D9F72AE1A2E6B3E001C01D92AA3884
:100C7000B207E1F716E0CCE1D6E000E006C021972C
:100C80000109802FFE010E94914ECB31D10780E0F7
:100C90000807A9F70E9487370C94CC4FB1C98091FF
:100CA0007B00877F80937B0080E480937C00809131
:100CB0007A00806480937A0080917A0086FDFCCF70
:100CC000809178009091790008950895DB01149641
:100CD0004D915C9115976D917C91DC01ED91FC91AA
:100CE0000280F381E02D1994EF92FF920F931F93EE
:100CF000CF93DF938C017B01D0E0C0E0F701EC0FD4
:100D0000FD1F6491662361F0D801ED91FC91019083
:100D1000F081E02DC8011995892B11F02196EECFB5
:100D2000CE01DF91CF911F910F91FF90EF90089529
:100D3000AF92BF92CF92DF92EF92FF920F931F93E9
:100D4000CF93DF936C017B018B01040F151FEB0127
:100D50005E01AE18BF08C017D10759F06991D601DE
:100D6000ED91FC910190F081E02DC6011995892B40
:100D700079F7C501DF91CF911F910F91FF90EF900F
:100D8000DF90CF90BF90AF900895FC01538D448DBC
:100D9000252F30E0842F90E0821B930B541710F026
:100DA000CF96089501970895FC01918D828D981733
:100DB00061F0A28DAE0FBF2FB11D5D968C91928D0B
:100DC0009F5F9F73928F90E008958FEF9FEF08953C
:100DD000FC01918D828D981731F0828DE80FF11D05
:100DE000858D90E008958FEF9FEF0895FC01918D20
:100DF000228D892F90E0805C9F4F821B91098F7319
:100E00009927089585E497E1F1DF21E0892B09F422
:100E100020E0822F0895FC01A48DA80FB92FB11DE9
:100E2000A35ABF4F2C91848D90E001968F73992720
:100E3000848FA689B7892C93A089B1898C918370FE
:100E400080648C93938D848D981306C00288F389F7
:100E5000E02D80818F7D80830895EF92FF920F9324
:100E60001F93CF93DF93EC0181E0888F9B8D8C8D56
:100E700098131AC0E889F989808185FF15C09FB74A
:100E8000F894EE89FF896083E889F989808183700D
:100E9000806480839FBF81E090E0DF91CF911F91BC
:100EA0000F91FF90EF900895F62E0B8D10E00F5FDD
:100EB0001F4F0F731127E02E8C8D8E110BC00FB6B4
:100EC00007FCFACFE889F989808185FFF5CFCE014B
:100ED000A2DFF2CFEB8DEC0FFD2FF11DE35AFF4F98
:100EE000F0829FB7F8940B8FEA89FB89808180623A
:100EF000D0CFCF93DF93EC01888D8823B1F0AA89FE
:100F0000BB89E889F9898C9185FD03C0808186FDC4
:100F10000CC00FB607FCF7CF8C9185FFF2CF808114
:100F200085FFEDCFCE0177DFEACFDF91CF91089536
:100F300080E090E0892B21F065DF81110E940000A4
:100F400080E090E0892B49F080E090E0892B29F047
:100F50000E94000081110E94000080E090E0892B37
:100F600049F080E090E0892B29F00E940000811177
:100F70000E94000080E090E0892B49F080E090E042
:100F8000892B29F00E94000081110C940000089523
:100F90008150823108F05AC0E82FF0E08827EC52E7
:100FA000F84F8F4F0C94914EF407F807E607EC07C3
:100FB000F0072608FB07010805080B080F081308AF
:100FC00019081D082608210827082B088091800091
:100FD0008F77809380000895809180008F7DF9CF76
:100FE00080918000877FF5CF84B58F7784BD089589
:100FF00084B58F7DFBCF8091B0008F778093B00058
:1010000008958091B0008F7DF9CF809190008F7707
:10101000809390000895809190008F7DF9CF80910A
:101020009000877FF5CF8091A0008F778093A000FC
:1010300008958091A0008F7DF9CF8091A000877FD7
:10104000F5CF809120018F778093200108958091C2
:1010500020018F7DF9CF80912001877FF5CFCF933D
:10106000DF93282F30E0F901EC5AF94F8491F90110
:10107000EB51F94FD491F901E55DF84FC491CC23C0
:1010800099F0811185DFEC2FF0E0EE0FFF1FE65C99
:10109000F94FA591B491EC91ED2381E090E009F432
:1010A00080E0DF91CF91089580E090E0FACF1F9328
:1010B000CF93DF93282F30E0F901EC5AF94F849158
:1010C000F901EB51F94FD491F901E55DF84FC49165
:1010D000CC23A1F0162F81115BDFEC2FF0E0EE0F97
:1010E000FF1FE05EF94FA591B4918FB7F894EC9192
:1010F000111108C0D095DE23DC938FBFDF91CF9113
:101100001F910895DE2BF8CFCF93DF9390E0FC0181
:10111000EB51F94F2491855D984FFC018491882310
:10112000D1F090E0880F991FFC01E553F94FA5918C
:10113000B491FC01E05EF94FC591D491623071F435
:101140009FB7F8943C91822F809583238C93E881FC
:101150002E2B28839FBFDF91CF9108958FB7F894EE
:10116000EC912E2B2C938FBFF6CF3FB7F894809144
:10117000090790910A07A0910B07B0910C0726B5BB
:10118000A89B05C02F3F19F00196A11DB11D3FBFBF
:10119000BA2FA92F982F8827BC01CD01620F711D8E
:1011A000811D911D42E0660F771F881F991F4A9588
:1011B000D1F708958F929F92AF92BF92CF92DF9214
:1011C000EF92FF926B017C01D0DF4B015C01C114F7
:1011D000D104E104F104B1F0C8DF681979098A0982
:1011E0009B09683E73408105910588F321E0C21A8E
:1011F000D108E108F10888EE880E83E0981EA11C52
:10120000B11CE5CFFF90EF90DF90CF90BF90AF90F3
:101210009F908F9008952FB7F89460910507709173
:10122000060780910707909108072FBF089508953A
:10123000CF93DF93EC01E981FA81908181819CBD9C
:101240008DBDE981FA8160E0828131DF81E08B83AD
:10125000DF91CF9108958EBD0DB407FEFDCF0895A7
:101260008FEF8EBD0DB407FEFDCF8EB508950F93A1
:101270001F93CF93DF93EC01CEDF8B01F1DF8F3F24
:1012800061F0C9DF601B710BC617D707B8F780E0A4
:10129000DF91CF911F910F91089581E0F9CFCF9306
:1012A000DF93FC012381222351F0EC010180F281C4
:1012B000E02D61E08281FBDE8FEFCDDF1B82DF91CD
:1012C000CF910895EF92FF920F931F93CF93DF93E7
:1012D000EC017B01A0DF8B01C3DF8C838F3F91F496
:1012E0009ADF601B710B693E7340B0F385E588831C
:1012F000CE01D5DF80E0DF91CF911F910F91FF905C
:10130000EF9008958E3F11F080E5F1CF8FEF8EBD05
:10131000F701D701A150BE4F9FEF0DB407FEFDCFDF
:101320008EB59EBD8193AE17BF07B9F70DB407FE0A
:10133000FDCF8EB58C931C8293DF92DF81E0DBCFF3
:101340000F931F93CF93DF938C01862FEA0183DFE6
:1013500088818EBD8981FE013296DE5F0DB407FE65
:10136000FDCF8EBDEC17FD0711F08191F7CF0DB4C5
:1013700007FEFDCF8FEF6FDF8FEF6DDF71DFF801BD
:1013800084838F71853051F087E58083C80187DFC2
:1013900080E0DF91CF911F910F91089581E0F9CF07
:1013A000DF92EF92FF920F931F93CF93DF938C0105
:1013B000C62FD22FF32EE42ED52EFC01838181116E
:1013C00002C0C80135DFCC2319F08CE291E04FDF79
:1013D0008C2F806440DF8D2D3EDF8E2D3CDF8F2DE6
:1013E0003ADF8D2F38DF87E8C11101C085E933DF8F
:1013F00037DFCBE035DFF801848387FF02C0C150BF
:10140000C9F7DF91CF911F910F91FF90EF90DF907F
:1014100008950F931F93CF93DF93EC0189018D8182
:10142000833039F089E0440F551F661F771F8A9576
:10143000D1F79A01AB0168E1CE01B2DF882331F028
:1014400082E38883CE012BDF10E01CC0A8016EEF81
:10145000CE0176DF8823B1F380ED97E008DF182F07
:101460008AE5112371F320E030E0A9016DE0CE019F
:1014700097DF882311F089E2E4CFF2DE8111FBCF00
:10148000CE010DDF812FDF91CF911F910F91089534
:101490000F931F93CF93DF93EC0189018D818330EC
:1014A00039F089E0440F551F661F771F8A95D1F7E1
:1014B0009A01AB0161E1CE0173DF882331F080E353
:1014C0008883CE01ECDE10E008C0B801CE01FADE60
:1014D000182F8823B1F3CE01E2DE812FDF91CF9167
:1014E0001F910F910895EF92FF921F93CF93DF9377
:1014F000FC01208111E020FF13C0EC017C01F7E02A
:10150000EF0EF11C4B815C816D817E81E981FA8156
:101510009701808191817DDF182F811108C010E033
:10152000812FDF91CF911F91FF90EF9008958881D7
:1015300081FD04C088818E7F8883F2CFE981FA81A2
:101540004B815C816D817E8184859585A685B7857B
:10155000480F591F6A1F7B1F97018081918159DFB6
:101560008111E8CFDCCFCF92DF92EF92FF921F93F1
:10157000CF93DF93EC016A017B01122F8B819C8159
:10158000AD81BE818C159D05AE05BF05A9F0CE01CC
:10159000AADF81110AC090E080E0DF91CF911F9116
:1015A000FF90EF90DF90CF90089512FF0CC018824B
:1015B000CB82DC82ED82FE8213708881182B188327
:1015C000CE010796EACFE981FA819E01295F3F4F5C
:1015D000B701A601808191815BDF8111E8CFDBCF6C
:1015E0008F929F92AF92BF92CF92DF92EF92FF9233
:1015F0000F931F9310920B1841E050E060E070E0F1
:1016000040930E1850930F18609310187093111890
:1016100026E038E1309328182093271810922618D6
:101620004FEF5FEFBA014093291850932A18609347
:101630002B1870932C18882309F44EC020E040E04A
:1016400050E0BA0186E298E18EDF009761F480E015
:101650001F910F91FF90EF90DF90CF90BF90AF90D0
:101660009F908F900895FC01E254FE4F20812F77C8
:1016700071F78A539E4FFC01C080D180E280F380D5
:10168000C114D104E104F10411F320E0B701A60173
:1016900086E298E168DFFC01892BC9F28385948595
:1016A00081159240A1F68089823089F686859785DA
:1016B000892B69F22585209308188FEF820F80937C
:1016C000091880E091E0291769F08F5F893041F4B3
:1016D00088E080930A18BBCFC12CD12C7601D5CFDE
:1016E000990FF1CF80930A184689578970E060E01E
:1016F0004115510521F444A155A166A177A140935C
:1017000012185093131860931418709315182685A7
:10171000378546015701820E931EA11CB11C809291
:101720001A1890921B18A0921C18B0921D182189AB
:10173000328930930D1820930C18440F551F661FE3
:10174000771F480D591D6A1D7B1D40932218509329
:101750002318609324187093251821893289A5E0F5
:10176000220F331FAA95E1F721503E4F232F332735
:101770002695420F531F611D711D409316185093FB
:10178000171860931818709319180389148930E09A
:1017900020E00115110521F400A111A122A133A11E
:1017A000C41AD50AE60AF70AC00ED11EE21EF31EBD
:1017B00004C0F694E794D794C7948A95D2F7D701DA
:1017C000C6010196A11DB11D80931E1890931F188C
:1017D000A0932018B093211885EFC8168FE0D80683
:1017E000E104F10420F48CE080930B1830CF80E109
:1017F00025EFC2162FEFD206E104F10468F084A5AC
:1018000095A5A6A5B7A58093221890932318A09319
:101810002418B093251880E280930B1881E018CF2C
:101820000F931F93CF93DF93EC014091FA175091E0
:10183000FB176091FC177091FD178091EC17909148
:10184000ED1720E080968FDE009709F444C0A09148
:10185000EA17B091EB17AF70BB2725E0AA0FBB1FAB
:101860002A95E1F7A80FB91F1097A9F1AD0138E04B
:1018700070E080E06EE2FA019191AF019032F1F0F8
:10188000883039F49E01270F311DF90160837F5F95
:1018900030E18A0101501109F80190812FEB290FE5
:1018A0002A3130F41C962C911C97232309F0905E6A
:1018B0008E01070F111DF80190837F5F8F5F8B30C2
:1018C000D1F6FE01E70FF11D108281E0DF91CF918B
:1018D0001F910F91089580E0F9CF8F929F92AF9260
:1018E000BF92CF92DF92EF92FF920F931F934230FD
:1018F00051056105710560F480E01F910F91FF9023
:10190000EF90DF90CF90BF90AF909F908F90089511
:10191000FC01C08CD18CE28CF38CC416D506E60693
:10192000F70650F3480159016A017B018581803235
:1019300039F584899589A689B78917E076956795E1
:10194000579547951A95D1F7480F591F6A1F7B1F66
:1019500023E0CF01809607DE009771F2E894C7F884
:10196000DD24EE24FF24CC0CDD1CCC0CDD1C8C0D06
:101970009D1DFC0180829182A282B38281E0BDCF55
:10198000803109F0B9CF44895589668977894D0D31
:10199000511D611D711D23E0CF018096E4DD00978C
:1019A00009F4AACFDD24EE24FF24CC0CDD1CC80EE4
:1019B000D91EF60111830083E1CFCF92DF92EF921F
:1019C000FF920F931F93CF93DF9342305105610530
:1019D000710550F48FEFDF91CF911F910F91FF9020
:1019E000EF90DF90CF900895FC01C08CD18CE28CF9
:1019F000F38CC416D506E606F70660F389016A0182
:101A00007B01EC0185818032B1F584899589A689B5
:101A1000B789E7E07695679557954795EA95D1F7A9
:101A2000480F591F6A1F7B1F22E0CE0180969BDD65
:101A3000009781F2E894C7F8DD24EE24FF24CC0C53
:101A4000DD1CCC0CDD1C8C0D9D1DFC018081918169
:101A5000A281B381BF70488D598D6A8D7B8D4817E7
:101A600059076A077B0730F1F80180839183A283CD
:101A7000B38381E0B0CF803109F0ACCF4489558980
:101A8000668977894D0D511D611D711D22E0CF01C1
:101A9000809669DD009709F49DCFDD24EE24FF24B4
:101AA000CC0CDD1CC80ED91EF60180819181B0E0FE
:101AB000A0E0D1CF80E08FCFFC019C01255F3F4F9C
:101AC00080E080FB879587F99191890F2E173F075A
:101AD000C1F70895CF93DF93FC012081211104C049
:101AE00081E0DF91CF910895EC01828182FF38C0BF
:101AF00044895589668977898681978121E0809616
:101B000032DD009729F489818160898380E0E9CF03
:101B1000EC81FD81EF70FF2725E0EE0FFF1F2A9576
:101B2000E1F7E80FF91F309771F38081853E59F393
:101B3000888183FF08C0888D998DAA8DBB8D848F85
:101B4000958FA68FB78F8C8D9D8D938F828F8C8D67
:101B50009D8DAE8DBF8DB58BA48B8A818B7F8A8343
:101B60008E819F818096BFDC882369F2B9CF4F9226
:101B70005F926F927F928F929F92AF92BF92CF921D
:101B8000DF92EF92FF920F931F93CF93DF93EC01BD
:101B90004A015B014C845D846E847F84A881AA2302
:101BA00009F485C0488959896A897B89481559058E
:101BB0006A057B0569F081149104A104B10451F414
:101BC0001C861D861E861F86888A998AAA8ABB8AD9
:101BD00081E072C0A3FF58C0088D198D2A8D3B8DFE
:101BE000081519052A053B0508F461C0EE81FF813F
:101BF000848190E009968A019B0101501109210915
:101C00003109082E04C036952795179507950A9433
:101C1000D2F775016401B1E0CB1AD108E108F108EF
:101C200004C0F694E794D794C7948A95D2F7C01667
:101C3000D106E206F30628F0452B462B472B09F088
:101C400051C0A6FF4AC0848D958DA68DB78D8C8717
:101C50009D87AE87BF878E01045F1F4FC114D104DB
:101C6000E104F10409F4B0CF4C855D856E857F8574
:101C700098018E819F81A1DE91E0C91AD108E10807
:101C8000F10818165CF313C0A5FFB0CFEE81FF81F9
:101C90008681978125E0880F991F2A95E1F7B0E0AA
:101CA000A0E088159905AA05BB0508F08DCF4C86E4
:101CB0005D866E867F8680E0DF91CF911F910F91C8
:101CC000FF90EF90DF90CF90BF90AF909F908F905C
:101CD0007F906F905F904F9008958C8D9D8DAE8D0D
:101CE000BF8DB5CFC01AD10AE20AF30AB4CFCF93A1
:101CF000DF93EC01EFDE1882DF91CF9108953F92E0
:101D00004F925F926F927F928F929F92AF92BF920B
:101D1000CF92DF92EF92FF920F931F93CF93DF93B7
:101D200000D01F92CDB7DEB74C01FC0182818460E8
:101D30008283A680B7804484558466847784F501C5
:101D4000C084D184E284F384C414D504E604F70487
:101D500010F011E003C07301620110E0FFEFCF1A31
:101D6000DF0AEF0AFF0AF501808D918DA28DB38DF8
:101D70008C159D05AE05BF0538F411112FC0C08428
:101D8000D184E284F384E5CF4C145D046E047F04B7
:101D900029F19E012F5F3F4FB701A601C5010DDE5E
:101DA00087FD1CC08823D1F289819A81AB81BC81D7
:101DB000892B8A2B8B2B91F6112329F0F501C086F4
:101DC000D186E286F3860FEF1FEF2FEF3FE0B701DA
:101DD000A601C50182DD382E811118C0312C832D5A
:101DE0000F900F900F900F90DF91CF911F910F9157
:101DF000FF90EF90DF90CF90BF90AF909F908F902B
:101E00007F906F905F904F903F90089541145104E0
:101E10006104710431F4F401C486D586E686F78640
:101E2000DECF97018601B301A201C50156DD811104
:101E3000F2CFD4CF462F4450550B96E0949FF0013B
:101E4000959FF00D1124EC59FC4F6058608311826E
:101E500024E0228391E0938384832827922795832B
:101E6000089590E024E034E0829FB001839F700DDC
:101E7000929F700D112423E030E040E00497F901B7
:101E8000E60FF71FE95FF840508145272F5F3F4F6E
:101E9000233054E0350799F724E034E0829FF001C5
:101EA000839FF00D929FF00D1124E65EF44F408366
:101EB0000895DC0114964D915C91159730E020E077
:101EC00090E080E02417350799F0ED91FC9111978F
:101ED000309759F410926203E2E6F3E060816F32CA
:101EE00009F401962F5F3F4FEDCFE20FF31FF6CFBE
:101EF0002130310511F490E080E0089589B190E03F
:101F000080E04A99FBCF853823E0920711F489B12C
:101F100008950196F6CF0496DDCD90E080E0089517
:101F2000CF93DF93EC0160E08E81C1D861E08E81B8
:101F3000BED860E08E81BBD88BE891E00197F1F7C5
:101F4000DF91CF910895CF92DF92EF92FF920F939E
:101F50001F93CF93DF936C017C0187E0E80EF11CA7
:101F6000D0E0C0E0062F10E0B8010C2E02C075953D
:101F700067950A94E2F76170F70181917F0197D824
:101F80002196C430D10581F7C601DF91CF911F9111
:101F90000F91FF90EF90DF90CF90C2CFCF92DF9262
:101FA000EF92FF920F931F93CF93DF93EC01F62EE6
:101FB000642F8C817CD88D818F3F11F060E077D8C1
:101FC0000F2D10E08F8584FF23C06E0187E0C80EBF
:101FD000D11CF12CE12CB8010E2C02C0759567952F
:101FE0000A94E2F76170F60181916F0160D8FFEF0A
:101FF000EF1AFF0A88E0E816F10469F7CE01DF91D5
:10200000CF911F910F91FF90EF90DF90CF9088CFED
:10201000B80184E0759567958A95E1F7CE0193DF65
:102020006F2DCE01DF91CF911F910F91FF90EF9017
:10203000DF90CF9088CF40E0682F8CE59AE1AECF5B
:1020400081E0F9DF8BE39FE10197F1F70895CF93EA
:10205000DF93823029F490916B1A986090936B1AF9
:1020600080936F1A1092701A80E48093711A80E145
:102070008093721A80E58093731A61E08091601AF0
:1020800043D88091611A8F3F11F061E03DD861E043
:102090008091621A39D8CCE5DAE19E012C553A419B
:1020A00080916B1A84FD0AC084E090E02196281785
:1020B00039073CF461E08E8127D8EFCF88E090E0CB
:1020C000F5CF8BE39DE00197F1F760E08091601A16
:1020D0000E94570860E08091621A0E945708809120
:1020E000611A8F3F19F060E00E94570880916B1AC7
:1020F00084FD2CC063E08CE59AE125DFCBE4D6E4D7
:10210000CE010197F1F763E08CE59AE11CDF21979E
:10211000F1F763E08CE59AE116DF83E592E0019741
:10212000F1F762E08CE59AE10EDF80916B1A806234
:1021300082DF84E080936C1A8CE07DDF81DF82E0B7
:1021400080936D1A86E0DF91CF9175CF806273DF47
:102150008BE496E40197F1F780916B1A80626BDF54
:1021600083E592E00197F1F780916B1A806263DF5B
:10217000DCCF90916F1A891710F08FEF890FE82F3D
:10218000F0E0E45AF54E8489806855CF41E006DFDF
:1021900081E090E008958F929F92AF92BF92DF927C
:1021A000EF92FF920F931F93CF93DF93EC017B018C
:1021B0002881222309F4B9C08A8180FFB6C08888AB
:1021C0009988AA88BB8823FF21C0888D998DAA8D04
:1021D000BB8D88199909AA09BB0982309105A1050F
:1021E000B10518F5009709F530E020E0A901481B7A
:1021F000590BCA01DF91CF911F910F91FF90EF9082
:10220000DF90BF90AF909F908F90089525FF0DC0F5
:10221000EE81FF818681978135E0880F991F3A957D
:10222000E1F78815990509F486C084011170EE81E3
:10223000FF81B501A40189E076956795579547958B
:102240008A95D1F725FF26C0848D958DA68DB78DF3
:10225000480F591F6A1F7B1F8E819F8120E0809647
:1022600082D9009709F461C0800F911FFC01808121
:10227000F701808388899989AA89BB890196A11D64
:10228000B11D888B998BAA8BBB8B21E030E090E04D
:1022900080E0ACCFD380D4220115110581F4D11098
:1022A0000EC089288A288B2881F526FF29C0848DB5
:1022B000958DA68DB78D8C879D87AE87BF87EE8164
:1022C000FF814C855D856E857F854250510961098E
:1022D0007109848104C0440F551F661F771F8A95BA
:1022E000D2F780899189A289B389840F951FA61F8F
:1022F000B71FAC01BD014D0D511D611D711DACCF4E
:102300008C8D9D8DAE8DBF8DD6CF4C855D856E85B8
:102310007F859E01245F3F4FCF014FDB87FD05C0C6
:102320008111CDCF8881807749F48981826089834A
:102330008FEF9FEF5FCF30E020E0A9CF21E030E0CA
:1023400081E090E053CFCF93DF931F92CDB7DEB7FC
:10235000BE016F5F7F4F86EE97E11DDF019731F47D
:10236000898190E00F90DF91CF9108958FEF9FEFDB
:10237000F9CFEF92FF920F931F93CF93DF931F92AA
:10238000CDB7DEB77C01962FF7014089518962896C
:1023900073898A019B0185E03695279517950795E6
:1023A0008A95D1F70F7011F0911128C0BE016F5FAF
:1023B0007F4FC701F0DE813051F090E080E00F9058
:1023C000DF91CF911F910F91FF90EF900895F7014A
:1023D00080899189A289B3894F96A11DB11D808BF7
:1023E000918BA28BB38BF701868197818796F0E260
:1023F0000F9F90011124820F931FE1CF405E5F4F2A
:102400006F4F7F4F408B518B628B738BECCF2F9232
:102410003F924F925F926F927F928F929F92AF9274
:10242000BF92CF92DF92EF92FF920F931F93CF93C1
:10243000DF9300D000D000D01F92CDB7DEB79E83CF
:102440008D833B015A834983DC018C9183FFE8C073
:1024500012968C9181FFE4C083FDD6C0E981FA8198
:10246000AF0170E060E0ED81FE8180899189A289F1
:10247000B38980959095A095B09584179507A60788
:10248000B70708F4CDC0C980DA8022242A94322C00
:1024900021013C96FC83EB83ED81FE8140895189CB
:1024A00062897389C114D10409F478C18681978146
:1024B0008A019B0169E036952795179507956A95DE
:1024C000D1F7DC011396EC910E237A01B1E0FB22E7
:1024D00001111DC0ED81FE81448555856685778596
:1024E000E114F10409F092C141155105610571052E
:1024F00009F4A1C02B813C8160DA87FD91C0811174
:1025000006C08D819E81FBDB882309F489C0AD81E3
:10251000BE811696ED91FC9117971C964D915D9199
:102520006D917C911F974250510961097109848115
:1025300004C0440F551F661F771F8A95D2F7808904
:102540009189A289B389840F951FA61FB71FAC017B
:10255000BD01400F511D611D711DE114F10429F4ED
:10256000C114B2E0DB0608F086C080E092E08E196C
:102570009F0986018C159D0508F48C01E114F10476
:10258000A1F4AD81BE8150968D909D90AD90BC9090
:10259000539758968D919D910D90BC91A02D25E05B
:1025A00088169906AA06BB0608F421E0CF0180969A
:1025B0000E94B30A0097A1F1A801B3018E0D9F1DDF
:1025C0000E948A4FE00EF11EE114B2E0FB0649F4CE
:1025D000ED81FE818681978180960E94730A88230F
:1025E000F9F0ED81FE8180899189A289B389800FFC
:1025F000911FA11DB11D808B918BA28BB38B600E9F
:10260000711EC01AD10A48CFAD81BE8158964D9136
:102610005D916D917C915B97CD01A9DA81111ECFFF
:10262000AD81BE8111968C911197816011968C932A
:102630008FEF9FEFCCC0ED81FE81848D958DA68DAF
:10264000B78D0097A105B10579F4CF0158DB882338
:1026500039F3ED81FE8184859585A685B785848FC4
:10266000958FA68FB78F53CFED81FE818487958795
:10267000A687B7874CCF83A194A1A5A1B6A1C11409
:1026800024E0D20608F470C09601232F3327269544
:102690008280801A912C2815390508F449014817C1
:1026A00059076A077B0770F0880D991DA11DB11DA0
:1026B000481759076A077B0728F410A223A234A2FF
:1026C00045A256A2AD81BE811696ED91FC91E080A7
:1026D000F180F7018581833039F099E0440F551F6F
:1026E000661F771F9A95D1F79A01AB0169E1C7017F
:1026F0000E94D009882351F083E3D7018C93C7014E
:102700000E944F09C7010E944F098ACF530110E070
:1027100000E080ED97E008151905A1F00E94370947
:10272000811104C08BE5F7018083E9CFA5016CEF2F
:10273000C7010E94A009882311F30F5F1F4FFEEF0E
:10274000BF1AE7CF0E943709882351F0102F0027C6
:10275000110F8DEF0E942B09C7010E944F0941CF35
:1027600086E5D7018C93CECF481759076A077B07B8
:1027700029F410A223A234A245A256A2AD81BE81A3
:102780001696ED91FC919301808191810E94090A36
:10279000882309F445CF00E012E023CFED81FE81CC
:1027A000808D918DA28DB38D84179507A607B707ED
:1027B00038F48281408F518F628F738F846082835F
:1027C000ED81FE81828187FD1BC089819A812A96D5
:1027D0000FB6F894DEBF0FBECDBFDF91CF911F9132
:1027E0000F91FF90EF90DF90CF90BF90AF909F90B0
:1027F0008F907F906F905F904F903F902F900895B3
:102800008D819E8167D98111E0CF0ACFFC014250B2
:10281000510961097109848104C0440F551F661F65
:10282000771F8A95D2F780899189A289B389480F49
:10283000591F6A1F7B1F99CE0496E9CDCF93DF9372
:102840001F92CDB7DEB7698341E050E0BE016F5FF4
:102850007F4F0496DCDD0F90DF91CF910895FC014E
:10286000808181110FC080E2DF01982F1D929A951F
:10287000E9F777836683DB0115969C91903129F007
:10288000903211F080E0089580E4808381E08283BB
:1028900008952F923F924F925F926F927F928F9204
:1028A0009F92AF92BF92CF92DF92EF92FF920F93DF
:1028B0001F93CF93DF93CDB7DEB7A0970FB6F894F1
:1028C000DEBF0FBECDBF8C016B0119821A828091D1
:1028D000E617882309F4CDC06D30710508F4C9C02E
:1028E0009091E917911128C0807609F18FE2D80103
:1028F0008C9311961C9299249394892DA0960FB6CF
:10290000F894DEBF0FBECDBFDF91CF911F910F9125
:10291000FF90EF90DF90CF90BF90AF909F908F90FF
:102920007F906F905F904F903F902F900895C801D7
:102930000E94100C982EE1CF8091EE179091EF1726
:10294000A091F017B091F1176091EC177091ED170D
:10295000FE0131965F010097A105B10509F070C035
:10296000CF017DDF882309F484C066246394712C31
:10297000F12CE12C28014C0C5D1CF1E04F1A5108A0
:102980008091E917861508F474C04091EA175091B8
:10299000EB174619570970E060E085E0440F551FBA
:1029A000661F771F8A95D1F7C501E1D8982E882335
:1029B00009F45FC060E0C501DCDCFC01892B09F48F
:1029C00058C083858F3009F054C080818F716812A0
:1029D00050C0A8014E0D5F1D1F01970160E0D1019D
:1029E0006530E8F511968D919C91009799F02C1522
:1029F0003D05D0F48F37910510F08FE390E02F5F05
:102A00003F4FDA018D93AD016F5FB2E02B0E311CA9
:102A10006D3029F72C153D0538F4808186FF04C000
:102A2000200F311FD9011C92D2011C92BDE0EB0E88
:102A3000F11C2FEF621A720A808186FFA1CF5DCF51
:102A40002CE111922A95E9F720E1298321E02B83DB
:102A500078876F838D8F9E8FAF8FB8A386CF6B30B3
:102A600020F414968D919C91C0CF16968D919C91D7
:102A7000BCCFD8011C92912C40CFCF92DF92EF9225
:102A8000FF920F931F93CF93DF93FC0180E2DF014E
:102A90001D928A95E9F7EB01AE81BF81B783A683CA
:102AA00055834483CC8CDD8CEE8CFF8CC086D18624
:102AB000E286F3864F705527ED01A79695E0440F07
:102AC000551F9A95E1F7BE01640F751FEB018B85C9
:102AD00083FD52C0CD01840F951FEC018AA9877137
:102AE0008083EB019B85987111F488608083038358
:102AF00081E0213009F482E08283828181FF03C07A
:102B000080818171C9F593960D911D912D913C9114
:102B10009697048B158B268B378BA40FB51FDB96EE
:102B20004D915C91DC9770E060E0BA015527442735
:102B3000ED01CF5BDF4F0881198130E020E0402BB1
:102B4000512B622B732B448F558F668F778FAD5B24
:102B5000BF4F8D919D910D90BC91A02D808F918F35
:102B6000A28FB38F81E0DF91CF911F910F91FF90E2
:102B7000EF90DF90CF900895108280E0F4CF2F92F5
:102B80003F924F925F926F927F928F929F92AF92FD
:102B9000BF92CF92DF92EF92FF920F931F93CF934A
:102BA000DF9300D0CDB7DEB76C017B836A83FA0177
:102BB000DB018C918077B9F480E00F900F900F903B
:102BC000DF91CF911F910F91FF90EF90DF90CF9009
:102BD000BF90AF909F908F907F906F905F904F903D
:102BE0003F902F900895D6018C918111E5CFA1805F
:102BF000B2808081837011E041F0C5010C966DE0D8
:102C000070E00E946A4E11E0160F7F0140E050E034
:102C1000BA018A819B810E94B70D1982212C312C27
:102C200000E04701B6E08B0E911CEA81FB814088F1
:102C300051886288738861E0CF019BDB009709F4BB
:102C4000BBCFDC012C91253E09F491C0222309F46D
:102C500099C0311668F12E3209F492C0FC01338517
:102C60003F3009F05CC0011125C026FFDECF022FE6
:102C70000F71F585F983202EE22DE150FF0BAF0196
:102C8000FDE0F49F9001F59F300D11242A153B05BE
:102C900008F076C0FC01712C64E0671598F0818122
:102CA0009281A216B306B9F4892B09F069C0BDCF91
:102CB000312CD1CF2A94221163C02585B9812B17DD
:102CC000D9F25EC08AE0871518F084819581E9CF3A
:102CD00086819781E6CF8F3F910511F008F050C0B3
:102CE0004FEB480F4A3108F4805EB9016F5F7F4FA8
:102CF000D70113964D915C91240F351FD9019C91FA
:102D00002FEB290F2A3108F4905E981339C0739481
:102D10003296BDE07B1609F488CF9B01BDCF33FD11
:102D20002FC00023B9F0E1E02E1246CF0E945C0DC7
:102D3000F981F81341CFB301A20185E0769567953B
:102D4000579547958A95D1F720E06A817B81C60126
:102D500094DE33CF4BE050E0B4010E947D4F892BCD
:102D600009F063CFD7018C9180FD5FCFE4CF31169E
:102D700038F43394222309F41FCF253E09F06BCF9A
:102D800000E053CF3116A8F317CF2F923F924F9206
:102D90005F926F927F928F929F92AF92BF92CF92EB
:102DA000DF92EF92FF920F931F93CF93DF93CDB7F4
:102DB000DEB7E7970FB6F894DEBF0FBECDBF7C013C
:102DC0008A0119821A82DC018C918823D1F080E07B
:102DD000E7960FB6F894DEBF0FBECDBFDF91CF915F
:102DE0001F910F91FF90EF90DF90CF90BF90AF9029
:102DF0009F908F907F906F905F904F903F902F901B
:102E00000895FB018081807711F3DA018C91FA013A
:102E10008F3209F4A2C0FE01F296FFABEEABF801CF
:102E20009F012F5F3F4F8081803209F4ACC0FDA32A
:102E3000ECA39F01A9014E1B5F0B8901D9018D9164
:102E40009D01882371F08F3209F09FC0CF01840F5C
:102E5000951F8C01DC012D91CD012032D1F32F3251
:102E6000C1F3DA01AE0FBF1FAD014E1B5F0BEA17B6
:102E7000FB0709F4A4C08E918E32B1F38032A1F326
:102E80004F3F510511F00CF0A2CF5BA34AA3DE0126
:102E900097966D0180E28D93AEA8BFA8AA16BB06D7
:102EA000D1F7DF01CD018E1B9F0B2D912E32D1F377
:102EB0002032C1F377247394009709F0712C9A01A2
:102EC000215031095F01A40EB51E2F3F320709F0D2
:102ED00079C08EA0512CB7E0BAAB312C612CA8E0A0
:102EE0004A2E841795070CF0ACC0DF01A80FB91F5C
:102EF000AC90ADAAAA2DA03209F4A1C0AE3221F443
:102F00008217930709F09BC09DA8B92DB232A9F092
:102F1000BC3799F0BA52B63018F4A92DAD3269F425
:102F2000BDA9BA53B63048F0BDA9BB55B33028F09F
:102F3000BDA9B152BE3508F44FC08217930709F0FE
:102F4000BDC08AA98A3009F4C4C0C901BAE0BAABCD
:102F5000A8E03A2EB0E14B2E5EC08F0181918F32F6
:102F6000E1F3DB0116966D917C91811103C0C701DD
:102F700076DC2ECFCE01019672DCBE016F5F7F4FF3
:102F8000811149CF24CFF9014BCF8C3509F41FCFE4
:102F9000982F977F923209F41ACF8A3309F417CF0A
:102FA000982F9F7B9C3309F412CF92EC980F9230AC
:102FB00008F40DCF80528F3508F43CCF08CF50E095
:102FC00040E063CFD5019E905D01BEE29B1609F4FF
:102FD00080CF2150310979CF8217930709F4B1CFFF
:102FE000BAA9B31508F46EC0BDA9B156BA31D0F470
:102FF000ADA9A052ADAB542822242394230C560132
:10300000A30CB11CD501ADA8AC92A6E0BA2E322C0F
:10301000B21408F0822C019664CF712CBFE5BDABD1
:10302000BFE59B2EBFEBB90DBA3130F76428E4CF72
:10303000C901AAE0AAABA8E03A2EB0E14B2E712C50
:10304000EACF8EA28FA1803209F4C1CE772009F198
:10305000852D862111F082E0582E59A2F801808139
:10306000AE014F5D5F4F882331F1C70188DD8823B2
:1030700009F4ADCE80E2F701DE01119601900D92C8
:103080008A95E1F7C7010E94770EBE016F5F7F4FFF
:10309000C6CE81E089A3912CF601E80DF91D8EE7DB
:1030A0008083E8E2F0E0EC0FFD1F8E0E9F1E81E3AF
:1030B000D4018C93D3CFC70162DD8ACEAAA9A31510
:1030C00008F0ABCFBAA9BA3021F0281739070CF0B5
:1030D000AFCF8EA2712CB6CFCF93DF93CDB7DEB733
:1030E000A0970FB6F894DEBF0FBECDBF19821A822B
:1030F000FC0120812F3221F52181211121C08DE297
:103100009AE10E94770E66E078E18DE29AE1A7DB12
:1031100081110AC080E0A0960FB6F894DEBF0FBE02
:10312000CDBFDF91CF91089580912D1A807791F3D3
:103130008DE29AE1909344178093431781E0EBCF9F
:10314000AC016DE27AE1CE0101961FDE882311F316
:1031500099819077F9F290E2FE013196ADE2BAE101
:1031600001900D929A95E1F790912D1A907701F7C1
:10317000D2CFFF920F931F93CF93DF93EC018091F7
:10318000E617882339F080E0DF91CF911F910F91EE
:10319000FF90089590912D1A9077A9F3F62E20971D
:1031A00009F445C0AE014150510970E060E085E08E
:1031B000440F551F661F771F8A95D1F78DE29AE15C
:1031C0000E94B70D8823F9F260E08DE29AE1D1D830
:1031D000FC01892BC1F283858F3081F580818F714D
:1031E000813061F515850C2FC531D10508F004E15A
:1031F00060E08DE29AE1BDD8009729F2FC012081C0
:10320000253E09F4C0CF222309F4BDCF2E3209F4A4
:10321000BACF002321F00E945C0D8113B4CF2F2D73
:10322000AE016DE27AE186EE97E127DCADCF40E0BA
:1032300050E0BA018DE29AE10E94B70D00E010E083
:10324000D7CFCF92DF92EF92FF920F93CF938091DF
:10325000E617811116C080912D1A807791F0809128
:103260003D1A90913E1AA0913F1AB091401A8F7169
:103270009927AA27BB2700E0C0E0892B8A2B8B2B3C
:1032800019F080E02FC000E0C0903D1AD0903E1AA7
:10329000E0903F1AF090401A60E08DE29AE169D820
:1032A000009779F3FC012081222359F32E3259F340
:1032B000253E49F3338533FD1CC0002321F00E94D5
:1032C0005C0D8C13DECFB701A60185E0769567957E
:1032D000579547958A95D1F720E06DE27AE186EE21
:1032E00097E1CBDBCF910F91FF90EF90DF90CF90E4
:1032F00008953F3041F626FFC7CF022F0F71C585D5
:10330000C3CF4091781A5091791A8417950700F528
:103310002091741A3091751A415051095093791ABD
:103320004093781A481B590BBC016F5F7F4F620FA7
:10333000731F820F931F0E94A34FE091741AF091A4
:10334000751A8091781A9091791AE80FF91F1082F6
:1033500008950F931F93CF93DF934115510541F0CB
:10336000FC01048115810115110539F4FB0110825E
:10337000DF91CF911F910F9108954150510940174E
:10338000510708F48A01EB01FC0160817181A801F9
:10339000CE010E94A34FC00FD11F1882E9CFAF9278
:1033A000BF92CF92DF92EF92FF920F931F93CF9332
:1033B000DF932091781A3091791AFC01448155816C
:1033C000E901C41BD50B4115510549F12115310502
:1033D00031F12417350718F1C217D30710F0E901AE
:1033E00021975C01C090741AD090751AC6010FEF36
:1033F0001FEF7601EC0EFD1EE816F90690F0F501C0
:10340000608171810E94B24F009759F09C012C1984
:103410003D09C217D30708F089010196EDCF0FEFE0
:103420001FEFC801DF91CF911F910F91FF90EF9097
:10343000DF90CF90BF90AF900895680F791F589894
:1034400020E52A95F1F700000000000000000000D0
:1034500028E030E041E0FC015081542309F434C0FD
:10346000589AFAE4FA95F1F700C000000000000055
:10347000000000000000000000000000000000004C
:10348000000000000000000000000000440F215078
:10349000310909F7589AEAE4EA95F1F700C000000B
:1034A000000000000000000000000000000000001C
:1034B00000000000000000000000000001966817F6
:1034C000790709F0BCCF089558985AE45A95F1F756
:1034D00000C000000000000000000000000000002C
:1034E00000000000000000000000000000000000DC
:1034F000000000000000CACF680F791F4A9BFECF72
:103500002AE22A95F1F700C0000038E020E0422FBF
:1035100050E055954795242FE0E5EA95F1F7000036
:103520000000000000000000000000004A9B20682E
:10353000315069F7F5E4FA95F1F70000FC012193A9
:10354000CF016E177F07D1F60895FB01019000208F
:10355000E9F73197AF01461B570BDC01ED91FC9168
:103560000280F381E02D199462EB72E085E497E12B
:10357000ECCFCF93DF93BC0185E497E10E94740602
:10358000EC01F2DF8C0F9D1FDF91CF9108950F9317
:103590001F9380916303811132C00E940B09009137
:1035A0001102109112022091130230911402601B3B
:1035B000710B820B930B693C710581059105D0F06D
:1035C00080913B17811116C00E940B096093110274
:1035D00070931202809313029093140290E080E0A3
:1035E000499905C00196823127E29207C9F781E027
:1035F00080933B1782E08CBB1F910F9108958CE85C
:1036000092E0B7DF8EE692E0B4DF81E080930002C3
:1036100010926303EFCFCF93DF93BC0185E497E172
:103620000E946606EC01A0DF8C0F9D1FDF91CF91F9
:1036300008958F929F92AF92BF92EF92FF920F9355
:103640001F93CF93DF93CDB7DEB7A1970FB6F89452
:10365000DEBF0FBECDBF7C01FA01CB0119A2223023
:1036600008F42AE08E010F5D1F4F822E912CB12CA1
:10367000A12CBF01A50194010E94F44CF901CA01DB
:103680006A3004F5605DD8016E938D01232B242BE5
:10369000252B79F790E080E0109719F0BD01C70164
:1036A00054DFA1960FB6F894DEBF0FBECDBFDF91F9
:1036B000CF911F910F91FF90EF90BF90AF909F908F
:1036C0008F900895695CDFCFCF92DF92EF92FF92E7
:1036D000CF93DF936C01990FEE08FF086A307105F4
:1036E000E9F42AE0F7FE1BC06DE285E497E10E9451
:1036F0002D07EC0144275527BA014C195D096E09C5
:103700007F092AE085E497E194DF8C0F9D1FDF910C
:10371000CF91FF90EF90DF90CF900895262FB701C3
:10372000A60185E497E1DF91CF91FF90EF90DF90C4
:10373000CF907FCFCF93DF936AE070E0C5DFEC01DD
:1037400013DF8C0F9D1FDF91CF91089572CFCF9320
:10375000DF939A01AB01BC0185E497E1F7DFEC014F
:1037600003DF8C0F9D1FDF91CF9108959A01462FA3
:1037700050E070E060E0EACFCF93DF93AB01682FB9
:1037800085E497E1F3DFEC01EFDE8C0F9D1FDF9105
:10379000CF9108952F923F924F925F926F927F92B6
:1037A0008F929F92AF92BF92CF92DF92EF92FF9251
:1037B0001F93CF93DF93EC016A017B01722EAB0163
:1037C0009601CB01B6010E94664E65EB72E0811155
:1037D00026C046015701E894B7F82FEF3FEF4FE7B7
:1037E0005FE7C501B4010E94664E81110CC02FEF46
:1037F0003FEF4FE75FE7C501B4010E94A64B69EBBD
:1038000072E0181664F02FEF3FEF4FE75FE4C70157
:10381000B6010E94624E1816ACF46DEB72E0CE0158
:10382000DF91CF911F91FF90EF90DF90CF90BF90ED
:10383000AF909F908F907F906F905F904F903F9050
:103840002F9083CE2FEF3FEF4FE75FECC701B6011C
:103850000E94A64B87FDE1CF20E030E0A901C7011F
:10386000B6010E94A64B312C212C87FF0DC0E881A8
:10387000F9810190F081E02D6DE2CE0119951C01D6
:10388000F7FAF094F7F8F09410E060E070E080E070
:103890009FE3711641F020E030E040E251E40E94E5
:1038A0008E4D1F5FF6CFA70196010E94174D2B0189
:1038B0003C010E94F64D4B015C012AE0BC01A401D1
:1038C000CE01B7DE7C01E20CF31C1123D9F1C50156
:1038D000B4010E94AA4B9B01AC01C301B2010E943A
:1038E000164D4B015C01E881F9810190F081E02DDA
:1038F0006EE2CE011995E80EF91E115018F120E084
:1039000030E040E251E4C501B4010E940B4C2B01B0
:103910003C010E94F64D4B01B12CA12C2AE0B501CF
:10392000A401CE0186DEE80EF91EC501B4010E9495
:10393000AA4B9B01AC01C301B2010E94164D4B0181
:103940005C01DBCFC701DF91CF911F91FF90EF901A
:10395000DF90CF90BF90AF909F908F907F906F90AF
:103960005F904F903F902F9008950F931F93CF93A8
:10397000DF938C01EB010E94C24C8883C801019641
:103980000E94C24C8983CE01DF91CF911F910F918C
:1039900008950F931F93CF93DF93CDB7DEB72D9785
:1039A0000FB6F894DEBF0FBECDBF1A861B861C86ED
:1039B0001D8680913C17811198C180914217811119
:1039C00094C110913B17111190C128E0812F90E014
:1039D00095958795182F30E53A95F1F7000000008E
:1039E0000000000000004A9B1068215079F785E430
:1039F0008A95F1F70000812F8F7080934117909185
:103A00001107843069F090911007853049F090914A
:103A10000F07863029F0873009F075C290910E07A4
:103A2000992309F470C280578C87812F90E0B4E00D
:103A300095958795BA95E1F78D30910509F0F5C117
:103A400004E014E087E592E00197F1F700C0000080
:103A500061E070E0CE010C96F0DC69E070E0CE0130
:103A600001964ADD898190E0A4E095958795AA9515
:103A7000E1F7069709F0AEC187E592E00197F1F70B
:103A800000C0000061E070E0CE010C96D6DC61E081
:103A900070E0CE010A9630DD8F8190E0B0E0A0E0CA
:103AA000B82FAA27992788274E8150E070E060E060
:103AB000BA0155274427840F951FA61FB71F4D81B4
:103AC00050E070E060E0762F652F542F4427840F7C
:103AD000951FA61FB71F2C81820F911DA11DB11D1F
:103AE0008093271790932817A0932917B0932A172C
:103AF0008F3E2EEB92072DEAA2072EEDB20711F4AE
:103B00001092000220910002213051F4AA27BB2715
:103B10008093271790932817A0932917B0932A17FB
:103B20008A8590E054E0959587955A95E1F7843021
:103B3000910509F020C1E0914117E450FF0BEE0F11
:103B4000FF1FEE0FFF1FEF5FFD4F4081518162812C
:103B500073818091271790912817A0912917B09110
:103B60002A17481759076A077B0709F000C187E53C
:103B700092E00197F1F700C0000061E070E0CE0133
:103B80000C965BDC61E070E0CE010B96B5DC8B85BA
:103B900090E034E0959587953A95E1F7039709F021
:103BA000B1C0209141172450330B209FC001219FA9
:103BB000900D309F900D112464E074E0895E984F61
:103BC0003CDC61E070E0CE010D9696DC8D8590E0E6
:103BD00024E0959587952A95E1F78230910509F5BE
:103BE000609141178091271790912817A09129176C
:103BF000B0912A170097A044B10588F0862F845011
:103C0000990BFC01EE0FFF1FEE0FFF1FEF5FFD4F43
:103C10008FEF9FEFDC0180839183A283B38380E4E5
:103C200001C10D97B9F469E971E085E497E10E945B
:103C300074064091271750912817609129177091A9
:103C40002A172AE030E085E497E180DD8FE891E0F3
:103C500090DCF8CE68E771E085E497E10E94740695
:103C600040912717509128176091291770912A17B2
:103C70002AE030E085E497E169DD6AE671E085E4F9
:103C800097E10E9474068091411790E060E170E036
:103C900080961ADD6CE571E085E497E10E94740678
:103CA00060E170E08D8568DD10914117612F81E43E
:103CB0000E941A0F212F2450330BF901EE0FFF1F22
:103CC000EE0FFF1FEF5FFD4F8FEF9FEFDC01808353
:103CD0009183A283B3830E940B0960933D17709375
:103CE0003E1780933F179093401784E08CBB2D962E
:103CF0000FB6F894DEBF0FBECDBFDF91CF911F91FD
:103D00000F91089565E471E085E497E10E947406DF
:103D100040912717509128176091291770912A1701
:103D20002AE030E085E497E111DD67E371E085E4A6
:103D300097E10E9474068091411790E060E170E085
:103D4000C096C2DC69E271E085E497E10E947406E6
:103D500060E170E08B8510DD10914117612F81E4E7
:103D60000E941A0F812F8450990BFC01A7CF81E08C
:103D700080933C17B0CF0D9709F0ADCF87E592E067
:103D80000197F1F700C0000061E070E0CE010C96F1
:103D900054DB209141172450330B44E054E0249F1E
:103DA000C001259F900D349F900D112464E074E0B4
:103DB000895E984FA1DB87E592E00197F1F700C09B
:103DC000000061E070E0CE010C9637DB81E080936B
:103DD000421781CF67E271E085E497E10E947406A3
:103DE000809141176AE070E08350990B6DDC63E1CC
:103DF00071E085E497E10E9474068091411790E09C
:103E00006AE070E0805A9F4F5FDC61E071E085E41A
:103E100097E10E94740660E170E08981ADDC6091F9
:103E2000411782E40E941A0F56CF0197A1F587E54A
:103E300092E00197F1F700C0000020914117245053
:103E4000330B46E0429FC001439F900D112466E072
:103E500070E08C599C4FF1DA61E070E0CE010D9674
:103E60004BDB10914117BE016F5F7F4F80E991E0FE
:103E70009C01129FC001139F900D112476DD898152
:103E80009A81612F892B09F0CACE8091391781114F
:103E9000C6CE83E4C7CF6FEF70E085E497E10E9460
:103EA0007406809141176AE070E08350990B0CDC36
:103EB00064EE70E085E497E10E94740660E170E0D2
:103EC000812F5ADC6091411781E40E941A0F87E527
:103ED00092E00197F1F700C00000809141178054F3
:103EE000898361E070E0CE010196A7DA81E08093DA
:103EF0003A170E947E0FEA9887E199E090932B028F
:103F000080932A02F2CE0E947E0FEFCE0C94C24C18
:103F1000AF92BF92CF92DF92EF92FF920F931F93D7
:103F2000CF93DF93DC01CD90DC901197C114D104C5
:103F300039F01496CD91DC918C017601209761F4D3
:103F4000DF91CF911F910F91FF90EF90DF90CF9075
:103F5000BF90AF90089575015701BFEFAB1ABB0A30
:103F6000F7018081082E000C990B0E948E4B892B43
:103F700091F72197CC0DDD1D8881082E000C990B3F
:103F80000E948E4B892B29F0CE15DF0510F021976A
:103F9000F3CFAE014F5F5F4F4E195F09D801159601
:103FA0005C934E931497CE14DF0420F4B701C6013E
:103FB0000E948A4FD801ED91FC91119714968D9132
:103FC0009C91E80FF91F1082BBCFCF93DF93FC01C8
:103FD000C081D181209761F08991882349F0082E12
:103FE000000C990B0E94754FFE0131978083F4CF2E
:103FF000DF91CF910895FC0124813581232B39F481
:1040000021E0FB018081882349F020E007C0808106
:1040100091810E94934F21E0892BB9F7822F089557
:104020000F931F93CF93DF938C01EB01FC018081F1
:1040300091810097E1F06881798161157105A9F09E
:10404000428153812C813D814217530770F00E94B9
:104050009C4F8C819D81F801958384831D821C82F5
:10406000DF91CF911F910F9108950E94C14A8881DD
:104070009981F801918380838A819B8193838283D4
:104080008C819D8195838483198218821B821A8278
:10409000E5CFCF93DF93EC0188819981009711F0F0
:1040A0000E94C14A198218821D821C821B821A82B8
:1040B000DF91CF910895FC01808191810C94C14AD8
:1040C0000F931F93CF93DF93EC0188819981009721
:1040D00059F02A813B812617370730F081E0DF91C4
:1040E000CF911F910F9108958B016F5F7F4F0E94B9
:1040F000994E009759F0998388831B830A832C81FA
:104100003D81232B59F7FC011082E8CF80E0E7CFF7
:10411000EF92FF920F931F93CF93DF936115710579
:1041200041F480E0DF91CF911F910F91FF90EF90CC
:10413000089541155105A9F07B01EC010C811D8109
:10414000040F151FB801BCDF882359F3288139817A
:104150008C819D81B701820F931F0E949C4F1D830C
:104160000C8381E0DFCFEF92FF920F931F93CF93E9
:10417000DF93CDB7DEB72D970FB6F894DEBF0FBE35
:10418000CDBF7C01CB01BA012AE08E010F5F1F4F2A
:10419000A8010E94544BF80101900020E9F73197E3
:1041A000AF01401B510BB801C701B2DF811102C042
:1041B000C7016FDFC7012D960FB6F894DEBF0FBEA3
:1041C000CDBFDF91CF911F910F91FF90EF90089598
:1041D000CF93DF93EC01FB0101900020E9F73197C9
:1041E000AF01461B570B94DF811102C0CE0151DF96
:1041F000CE01DF91CF910895CF93DF93EC01FB01C6
:10420000448155816081718183DF811102C0CE01BB
:1042100040DFCE01DF91CF910895EF92FF920F938F
:104220001F93CF93DF93EC017B018A01BA0148DF32
:1042300081110AC0CE012DDFCE01DF91CF911F91F8
:104240000F91FF90EF9008951D830C83B701888133
:1042500099810E949C4FF0CFFB0101900020E9F76B
:104260003197AF01461B570BD8CF0F931F93CF93B6
:10427000DF9300D000D000D0CDB7DEB78C01862F01
:10428000F8011182108213821282158214824AE090
:10429000BE016F5F7F4F90E00E94754BBE016F5F64
:1042A0007F4FC801D9DF29960FB6F894DEBF0FBE45
:1042B000CDBFDF91CF911F910F910895CF93DF93E1
:1042C000EC01FB018617970741F060817181611550
:1042D000710539F044815581A0DFCE01DF91CF9186
:1042E0000895D7DEFACFFC01118210821382128268
:1042F00015821482E3CF0F931F93CF93DF9300D0E7
:1043000000D0CDB7DEB764E77AE1CE010196EBDFEE
:10431000CE0101960E94590F8C01CE010196CBDE91
:104320000130110589F482E090E0909318028093A7
:10433000170226960FB6F894DEBF0FBECDBFDF91F1
:10434000CF911F910F91089581E090E00230110507
:1043500064F38091150790911607039720F383E08B
:1043600090E0E3CFFC011182108213821282158249
:104370001482FB0101900020E9F73197AF01461B41
:10438000570B4BCFAF92BF92CF92DF92EF92FF923B
:104390000F931F93CF93DF936C015B017A01890127
:1043A0002417350720F48F2D7901042F182F64EB83
:1043B00072E0C601D7DFD5011496CD91DC91EC16E1
:1043C000FD06D8F40C171D0708F4E801D501ED919E
:1043D000FC911197EC0FFD1F108110826D917C9163
:1043E0006E0D7F1DC6016115710599F035DFF50170
:1043F00080819181C80FD91F1883C601DF91CF91A9
:104400001F910F91FF90EF90DF90CF90BF90AF90F2
:1044100008953FDEECCFAF92BF92CF92DF92EF9242
:10442000FF920F931F93CF93DF93CDB7DEB7C456A0
:10443000D1090FB6F894DEBF0FBECDBF5C016B0192
:10444000CB0164DD8E010F5F1F4F7801C01AD10AC6
:10445000F701E01BF10B882341F0C6018E0D9F1D73
:1044600055DDF70181937F01F3CFE00FF11F10823B
:10447000B801C50177DFC501CC59DF4F0FB6F894FD
:10448000DEBF0FBECDBFDF91CF911F910F91FF9087
:10449000EF90DF90CF90BF90AF9008954F925F92D2
:1044A0006F927F928F929F92AF92BF92CF92DF9244
:1044B000EF92FF920F931F93CF93DF93CDB7DEB7A9
:1044C000C850D2400FB6F894DEBF0FBECDBF082F44
:1044D00010E080E991E0089F5001099FB00C189FFF
:1044E000B00C1124C50104960E94C24CF82E6AE457
:1044F00072E085E497E10E947406680183E0C81ABF
:10450000D108C60117D9ECE0FE121BC08FE192E082
:1045100030D8C85FDD4F0FB6F894DEBF0FBECDBFF9
:10452000DF91CF911F910F91FF90EF90DF90CF908F
:10453000BF90AF909F908F907F906F905F904F90C3
:1045400008957E01FFEFEF1AFDEFFF0A64EB72E0C2
:10455000C70108DFB50167597F4FCE0101965BDFC8
:10456000BE016F5F7F4FC7015BDDCE010196A3DD0A
:10457000BE01695F7D4FC5010296F7D9F7018081C1
:1045800091810E946C1861E0C95FDD4F888199813B
:10459000C750D2400E94B9184090FE175090FF17A4
:1045A0006090001870900118530142012AE0B694FF
:1045B000A794979487942A95D1F7000F111F000FA5
:1045C000111FF801EF50FE4F8FEF9FEFDC0180834A
:1045D0009183A283B38360E172E085E497E10E9456
:1045E00074064AE050E0C301B201B1D86DEF71E04A
:1045F00085E497E10E9474064AE050E0C501B401E9
:10460000A6D885E497E10E947907FAE6FA95F1F7D2
:1046100000C081E048168CEF58068FEF68067806D8
:1046200008F046C0FE01319685EE8193EE15FF0538
:10463000E1F7880C991CAA1CBB1C412C512C32019F
:10464000439408E210E084149504A604B70428F10A
:1046500040E052E0BE016F5F7F4F82EE97E10E9423
:104660001C1486EE97E10E946A0D6BEF71E085E401
:1046700097E10E947406C201B8010E947E4E892B08
:1046800031F40E94B41A85E497E10E947907EFEFB4
:104690004E1A5E0A6E0A7E0AD6CF8BEE91E00E9419
:1046A000B91A86EE97E10E94770EC70104DD31CF7B
:1046B00069EE71E085E497E10E9474066AE070E0BB
:1046C000C60102D887EC91E0EACFFF920F931F93C7
:1046D000CF93DF938C01EB01F8800E94C24CF81657
:1046E00021F06F2DC8010E94CA4CCE01DF91CF91FD
:1046F0001F910F91FF900895FF920F931F93CF93F7
:10470000DF93EC018B01FB01F0800E94C24CF81694
:1047100021F06F2DCE010E94CA4CF801F180219644
:10472000CE010E94C24CF81621F06F2DCE010E94DE
:10473000CA4CC801DF91CF911F910F91FF9008954E
:104740000C94CA4CCF92DF92EF92FF920F931F937B
:10475000CF93DF937C018B01DB011496CD90DC902D
:10476000D0E0C0E0CC15DD05CCF4F8018481958162
:10477000C817D90728F40190F081E02D309759F43B
:1047800010926203E2E6F3E06081C7018C0F9D1F87
:10479000D7DF2196E7CFEC0FFD1FF6CF60E0C60113
:1047A0008E0D9F1DDF91CF911F910F91FF90EF9084
:1047B000DF90CF90C5CF6F927F928F929F92AF92F2
:1047C000BF92CF92DF92EF92FF920F931F93CF93FE
:1047D000DF93CDB7DEB7AC970FB6F894DEBF0FBE50
:1047E000CDBF782E64EB72E0CE018196BBDD64EB29
:1047F00072E0CE018796B6DD072D10E080E991E0EA
:10480000089F7001099FF00C189FF00C11244701BC
:1048100045E0840E911CB401CE010196FCDDBE0181
:104820006F5F7F4FCE018196FBDBCE01019643DCAB
:10483000570189E6A80EB11CB501CE010196EBDD4A
:10484000BE016F5F7F4FCE018796EADBCE010196F6
:1048500032DC8FA198A50E946C18682E49A15AA13C
:1048600019821A826DE27AE1CE0101960E94C51684
:10487000680193E0C91AD10804501109882309F48A
:1048800077C0662009F474C065EC71E085E497E1B7
:104890000E9474066AE070E0C6010E94641B62EC2C
:1048A00071E085E497E10E947406BE01695D7F4F67
:1048B00085E497E10E94660661EC72E0CE0187967E
:1048C0009ADB811106C060EC71E085E497E10E94FB
:1048D0007406CE0181960E940B1B672D80E40E9416
:1048E0001A0FF801EE0FFF1FEE0FFF1FEF5FFD4FD6
:1048F0008FEF9FEFDC0180839183A283B38384E0F9
:1049000094E0089F9001099F300D189F300D1124ED
:10491000F901E95EF84F80EB870D808384E08183A5
:10492000128283E090E0FC01E20FF31FE95EF84F92
:104930001082019684309807B1F7CE018796BBDBD1
:10494000CE018196B8DBAC960FB6F894DEBF0FBEF1
:10495000CDBFDF91CF911F910F91FF90EF90DF902E
:10496000CF90BF90AF909F908F907F906F90089561
:10497000672D83E40E941A0F60E0C701E1DE60E06A
:10498000C7010296DDDE60E0C7010496D9DE64EB64
:1049900072E0CE010196E6DCBE016F5F7F4FC4017D
:1049A000D1DECE01019687DB64EB72E0CE01019689
:1049B000D9DCBE016F5F7F4FC501C4DECE01019619
:1049C0007ADB6EEB71E085E497E10E9474066AE0A1
:1049D00070E0C6010E94641B80EB91E00E94B91A4E
:1049E0008ECF3F924F925F926F927F928F929F9263
:1049F000AF92BF92CF92DF92EF92FF920F931F93ED
:104A0000CF93DF93CDB7DEB72C970FB6F894DEBF08
:104A10000FBECDBF8C016B01442E6DB67EB6842EC9
:104A2000912CC40101962DB73EB7281B390B0FB648
:104A3000F8943EBF0FBE2DBF8DB79EB701967C0187
:104A400064EB72E0CE0107968DDCF601EA52FA4F74
:104A50005F01808163EC72E0882321F0813029F5C9
:104A600067EC72E0C8017EDCCE01079624DBC8014A
:104A70000FB6F8947EBE0FBE6DBE2C960FB6F8949E
:104A8000DEBF0FBECDBFDF91CF911F910F91FF9081
:104A9000EF90DF90CF90BF90AF909F908F907F90DE
:104AA0006F905F904F903F90089564EB72E08F3F5E
:104AB000C9F2512CCC0CDD1C960124583C4F6901E5
:104AC0009FE2392E60E0F601808191810E94B91841
:104AD000811105C0539486EE97E10E94770EFCE0A9
:104AE000F41508F459C08091E617882309F452C0E0
:104AF000807609F44BC0F7013082118281E0811188
:104B000005C0539486EE97E10E94770EB701CE015F
:104B1000019628DCBE016F5F7F4FCE01079680DAD9
:104B2000CE010196C8DAFAE0F51508F03AC06CEC4F
:104B300072E0CE01079690DB86EE97E10E94770E39
:104B4000F50180818230A9F46AED72E0CE01019610
:104B500009DCBE01695F7F4FCE0101964DDB6AEC37
:104B600072E036DBBC01CE010796A8DBCE010196D0
:104B7000A2DAF80111821082138212821582148245
:104B8000BE01695F7F4FC8014BDA6ECFC7010E943B
:104B9000100CB5CF80E0B3CFB401C7010E94491417
:104BA000AECF86EE97E10E94770E51108BCFC4CF27
:104BB0005F926F927F928F929F92AF92BF92CF92AD
:104BC000DF92EF92FF920F931F93CF93DF93CDB7B6
:104BD000DEB7CB50D1400FB6F894DEBF0FBECDBFCD
:104BE0001092160710921507F6EDCF2EF5E0DF2E86
:104BF000ACE7EA2EA3E0FA2EF701D6012FEF8FEFF4
:104C00009FEF35E0E63DF30721F02D9381939193DB
:104C1000F8CF64EB72E0CE018A5F9E4FA3DB64E7BE
:104C20007AE1CE0101965FDBCE0101960E94590F19
:104C30008C01CE0101963FDA0130110509F0B7C0B1
:104C4000109316070093150781E08093D70522E0A3
:104C5000B22E3CE0A32E48E1942E57E1852E66E16A
:104C6000762E7BE0672EEAE05E2E0091150710910C
:104C700016070C3281E0180708F06EC10E94211956
:104C8000882309F494C18091E61781FD8BC06FEFF2
:104C900070E0CE0101960E944914BE016F5F7F4F04
:104CA000CE0193955FDBBE017395CE018A5F9E4F67
:104CB000B7D9CE019395FFD9CE018A5F9E4F28D9EF
:104CC000CE018A5F9E4F81D9C65FDE4F2881398130
:104CD000CA50D1403327A90144505109BE016A5F2F
:104CE0007E4FCE0193954EDBCE0193956ED9809188
:104CF000E61784FDB7C063E073E0CE0193957BD9DE
:104D0000811131C06CED72E0CE01939574D981119F
:104D10002AC061EE72E0CE0193956DD9811123C056
:104D200066EE72E0CE01939566D981111CC06BEEE0
:104D300072E0CE0193955FD9811115C060EF72E0EA
:104D4000CE01939558D981110EC065EF72E0CE0166
:104D5000939551D9811107C06AEF72E0CE01939506
:104D60004AD98823E1F00F5F1F4F10931607009375
:104D70001507F801EE0FFF1FE458FC4F8091EA176A
:104D80009091EB179183808363E073E0CE0193955C
:104D900032D98823E1F0F801EA52FA4F5082CE016D
:104DA000939589D986EE97E10E94770E5ECF023007
:104DB00011050CF44CCF1092D70582E090E090934F
:104DC00016078093150781E08093D80540CF6CEDDE
:104DD00072E0CE0193950FD9882329F0F801EA52A9
:104DE000FA4F6082DCCF61EE72E0CE01939503D979
:104DF000811121C066EE72E0CE019395FCD881113D
:104E00001AC06BEE72E0CE019395F5D8811113C0F4
:104E100060EF72E0CE019395EED8811111C065EF7D
:104E200072E0CE019395E7D8882379F0F801EA5231
:104E3000FA4F8082B4CFF801EA52FA4FA082AFCF86
:104E4000F801EA52FA4F7082AACF6AEF72E0CE01FF
:104E50009395D1D8882309F4A2CFF801EA52FA4FEA
:104E600090829DCF0F5F1F4F109316070093150779
:104E7000F801EE0FFF1FE458FC4F8091EA17909164
:104E8000EB17918380830A521A4FF801B08287CFC3
:104E9000019693C001E010E0F2E0EF0EF11C3FEF4D
:104EA000C31AD30A809115079091160780179107AE
:104EB000C0F16AE070E0C8010E94641B65EA72E01C
:104EC00085E497E10E947406F7014081518170E00A
:104ED00060E02AE085E497E10E94191B63EA72E032
:104EE00085E497E10E9474064AE050E0F601608193
:104EF00085E497E10E94B61B60EA72E085E497E1E1
:104F00000E94740643E6B801CE0101966ADDCE0127
:104F100001960E940B1BCE010196CDD80F5F1F4F4B
:104F2000BBCFCE018A5F9E4FC6D8C55FDE4F0FB69E
:104F3000F894DEBF0FBECDBFDF91CF911F910F91CF
:104F4000FF90EF90DF90CF90BF90AF909F908F90A9
:104F50007F906F905F9008950E942119182F86EE20
:104F600097E10E94770E112311F187EC92E00E94E5
:104F7000B91A81E00E94B91066EB72E08CE59AE103
:104F80000E94740681E00E94B91067EA72E08CE525
:104F90009AE10E94740680E49CE9A0E0B0E080936E
:104FA000190290931A02A0931B02B0931C02209145
:104FB00015073091160781E090E08217930708F0FB
:104FC00069CFA7EDB5E00CE713E0AD01465D5540B4
:104FD0004217530708F05CCF4D915C91541778F459
:104FE000BD0161507109FB0150834C93F80142816E
:104FF00053816481758173836283558344830E5F1B
:105000001F4FE3CF8F929F92AF92BF92CF92DF92CA
:10501000EF92FF920F931F93CF93DF93CDB7DEB73D
:1050200066970FB6F894DEBF0FBECDBF0E944F0645
:105030008C0189E10E942F08E82E87E10E942F0849
:10504000A82E88E10E942F08C82E8AE10E942F080E
:10505000B82E86E10E942F08D82E8AE20E942F08DF
:105060000233110514F0E110CFC2909103079111A2
:10507000CBC2812C912C54010233110514F0E110A4
:1050800015C028E8821623E19206A104B10409F4B0
:105090003AC20E944F068C0189E10E942F08E82E37
:1050A0004FEF841A940AA40AB40AE6CF58E885168A
:1050B00053E19506A104B10409F425C28091741A44
:1050C0009091751A0E946C1881E08093030760919B
:1050D000170270911802FB01EA52FA4F808196EF95
:1050E000980F933028F09AEE980F933008F09CC0F8
:1050F00043E6CE01079675DC65E176E085E497E14D
:105100000E947406809138176AE070E08350990B12
:105110000E94641B62E176E085E497E10E947406D8
:10512000CE0107960E940B1B60913817E62EF12CDA
:10513000F701EE0FFF1FEE0FFF1FEF50FE4F8FEF37
:105140009FEFDC0180839183A283B38380E40E947C
:105150001A0F00E911E067E172E0E09EC001E19EF4
:10516000900DF09E900D1124C7DA60911702709196
:105170001802660F771F64587C4F20913817209FC4
:10518000C001219F900D11240296B6DA609117029A
:10519000709118026A527A4F20913817209FC001EF
:1051A000219F900D1124049690DABE01695F7F4F14
:1051B000CE01019698D820913817209FC001219FD9
:1051C000900D1124BE016F5F7F4F0596BBDACE01B3
:1051D00001960E945B2064E77AE1CE01019683D8B4
:1051E00020913817209FC001219F900D1124BE01EE
:1051F0006F5F7F4F87599F4FA5DACE0101960E94BE
:105200005B201092391781E090E0A0E0B0E080933D
:105210001D0290931E02A0931F02B0932002CE01A4
:1052200007960E945B20AAC0811140C061EC72E029
:1052300084E79AE111D86AEF75E085E497E10E946E
:10524000740684E79AE10E940B1B8091741A909176
:10525000751A0E946C1880E00E94B91069EE75E022
:105260008CE59AE10E94740680E00E94B91064E720
:105270007AE18CE59AE10E94660680E49CE9A0E070
:10528000B0E080931D0290931E02A0931F02B09382
:10529000200281E00E94B91068ED75E08CE59AE18A
:1052A0000E94740685DC81E090E0C1C1813009F084
:1052B00097C08091781A9091791A01970E9481196C
:1052C00061EC72E0CE0101964DD8CE0101960E94AC
:1052D000CF198C01CE0101960E945B201016110699
:1052E0000CF469C061EC72E084E79AE10E942C2121
:1052F00060EC75E085E497E10E94740684E79AE12A
:105300000E940B1B8091741A9091751A0E946C1860
:1053100080E00E94B9106FEA75E08CE59AE10E9486
:10532000740680E00E94B91064E77AE18CE59AE1A6
:105330000E94660680E49CE9A0E0B0E080931D0234
:1053400090931E02A0931F02B093200281E00E945E
:10535000B9106EE975E08CE59AE10E94740628DCCC
:105360000E947B2181E090E0A0E0B0E080931902F0
:1053700090931A02A0931B02B0931C020E940B0987
:1053800060932E1770932F178093301790933117D7
:1053900066960FB6F894DEBF0FBECDBFDF91CF91FA
:1053A0001F910F91FF90EF90DF90CF90BF90AF9043
:1053B0009F908F900895980150E040E064E77AE173
:1053C000CE0101960E94C221BE016F5F7F4F84E72C
:1053D0009AE10E941020CE0101960E945B2088CFA6
:1053E000823061F643E6CE010D96FBDA61EC72E0A5
:1053F00084E79AE10E94FB1F29893A8921503109EB
:1054000041E050E0BE01635F7F4F882309F467C02D
:10541000CE0101960E94C22164E77AE1CE0107968F
:105420000E947321BE016F5F7F4FCE0107960E94DD
:10543000FC20BC0184E79AE10E945E21CE01079620
:105440000E945B20CE0101960E945B2066E875E019
:1054500085E497E10E94740684E79AE10E940B1BA1
:105460008091741A9091751A0E946C1880E00E94C5
:10547000B91065E775E08CE59AE10E94740680E05A
:105480000E94B91064E77AE18CE59AE10E94660611
:1054900080E49CE9A0E0B0E080931D0290931E029E
:1054A000A0931F02B093200281E00E94B91064E62D
:1054B00075E08CE59AE10E9474067ADB0E947B21FC
:1054C00081E090E0A0E0B0E08093190290931A028E
:1054D000A0931B02B0931C02CE010D96A2CECE016A
:1054E00001960E94C22164E77AE1CE0107960E94EC
:1054F000732161EC72E0CE0107960E94E820BE01A4
:105500006F5F7F4F94CF2091381780E991E0AC0115
:10551000249FC001259F900D11240E94C24C882316
:1055200009F46DC067E575E085E497E10E947406B3
:10553000809138178350990B0E949A1BF09038176E
:105540006F2D83E40E941A0F00E911E060E0F09EE5
:10555000C001F19E900D1124F3D820913817209F9F
:10556000C001219F900D112460E00296E9D820919E
:105570003817209FC001219F900D112460E00496F0
:10558000DFD864EB72E0CE0101960E94B221209137
:105590003817209FC001219F900D1124BE016F5F1D
:1055A0007F4F0596CFD8CE0101960E945B2064EB19
:1055B00072E0CE0101960E94B22120913817209FFF
:1055C000C001219F900D1124BE016F5F7F4F87594D
:1055D0009F4FB8D8CE0101960E945B2010923917D8
:1055E00081E090E0A0E0B0E080931D0290931E0265
:1055F000A0931F02B093200280930307BFCE809137
:105600003917813069F78ECF980123533109273C30
:10561000310510F0A11012C080911702909118026C
:105620008130910549F48091150790911607909368
:1056300018028093170296CE0197F9CF98012B5F3D
:105640003109273C310510F0C1100EC080911702BE
:105650009091180220911507309116078217930731
:1056600009F421CE0196E3CF0A3852E0150714F071
:10567000B110CDC0909103079111C9C0C12CD12C9C
:1056800076010A38124014F0B11014C098E8C91617
:1056900093E1D906E104F10409F47FC00E944F06AA
:1056A0008C0186E10E942F082FEFC21AD20AE20A6B
:1056B000F20AE7CF48E8C41643E1D406E104F10456
:1056C00009F46BC081E0809303078091781A909170
:1056D000791A01970E94811961EC72E0CE0101965E
:1056E0000E94B221CE0101960E94CF198C01CE01F9
:1056F00001960E945B2010161106D4F161EC72E055
:1057000084E79AE10E942C216FE375E085E497E13C
:105710000E94740684E79AE10E940B1B8091741A20
:105720009091751A0E946C1880E00E94B9106EE288
:1057300075E08CE59AE10E94740680E00E94B91041
:1057400064E77AE18CE59AE10E94660680E49CE9D0
:10575000A0E0B0E080931D0290931E02A0931F0270
:10576000B093200281E00E94B9106DE175E0F3CDA5
:10577000980150E040E064E77AE1CE0101960E9492
:10578000C221BE016F5F7F4F84E79AE10E94102023
:10579000CE0101960E945B20B7CF61EC72E084E7F6
:1057A0009AE10E942C2165E075E085E497E10E9472
:1057B000740684E79AE10E940B1B8091741A909101
:1057C000751A0E946C1880E00E94B91064EF74E0B2
:1057D0008CE59AE10E94740680E00E94B91064E7AB
:1057E0007AE18CE59AE10E94660680E49CE9A0E0FB
:1057F000B0E080931D0290931E02A0931F02B0930D
:10580000200281E00E94B91063EE74E0A4CD9D2DCA
:10581000023553E0150714F0D110C3C020910307DF
:10582000211138C2C12CD12C76010235134014F05D
:10583000911115C098E8C91693E1D906E104F10465
:1058400009F472C00E944F068C0186E10E942F0865
:10585000982F2FEFC21AD20AE20AF20AE6CF48E8DE
:10586000C41643E1D406E104F10409F45DC081E00B
:1058700080930307809138178530D9F1A8F48430DC
:1058800021F16091381783E090E00E94A02381E02D
:1058900090E0A0E0B0E080931D0290931E02A093E0
:1058A0001F02B09320026ACD863089F1873049F714
:1058B00080911107811129C080911007811109C0C1
:1058C00080910F0781110DC012C0809110078823AD
:1058D00021F085E080933817D4CF80910F0788237B
:1058E00011F086E0F7CF80910E07882371F087E0F2
:1058F000F1CF80910F078111F4CF80910E078111B4
:10590000F6CF80911107882321F384E0E3CF8091C3
:105910000E078111ECCF809111078111F6CF809194
:1059200010078111D6CFDDCF80912C178130D9F4AB
:1059300080912D17813059F510922C1780E00E942C
:10594000B91062ED74E08CE59AE10E94740684EC73
:1059500094E00E94B91A81E08093030780E49CE9F7
:10596000A0E0B0E098CF811112C080912D17813056
:1059700071F480932C1780E00E94B91063EB74E0FF
:105980008CE59AE10E94740686EA94E0E2CF80E01A
:105990000E94B91065E974E08CE59AE10E947406F2
:1059A000DACF811177C1F0900307F11073C164EB76
:1059B00072E0CE010D960E94B22169EA76E0CE0136
:1059C00001960E940B22BE016F5F7F4FCE010D96A4
:1059D0000E941020CE0101960E945B20BE016D5EE8
:1059E0007F4F80E496E00E94B51C84E496E00E941C
:1059F000C24C2B893C89232B09F448C18A3009F019
:105A00004CC060EF72E0CE0101960E94B221BE014F
:105A1000635F7F4FCE0107960E947321AE014F5FF7
:105A20005F4FBE01695F7F4F8B899C890E941D3645
:105A30009E8B8D8BCE0107960E945B20CE01019636
:105A40000E945B208D899E8942E0F42E892B09F00B
:105A50004FC063E073E0CE0101960E94B221BE0107
:105A6000635F7F4FCE0107960E947321AE014F5FA7
:105A70005F4FBE01695F7F4F8B899C890E941D36F5
:105A80009E8B8D8BCE0107960E945B20CE010196E6
:105A90000E945B20FF24F3942BC0863109F0C4C020
:105AA00065EF72E0CE0101960E94B221BE01635FF4
:105AB0007F4FCE0107960E947321AE014F5F5F4F6B
:105AC000BE01695F7F4F8B899C890E941D369E8B2A
:105AD0008D8BCE0107960E945B20CE0101960E941D
