:10000000F8C700000C94EA4B0C94BF4B0C94944B33
:100010000C94694B0C943E4B0C94134B0C94E84A93
:100020000C94BD4A0C942A080C942A080C942A08B3
:100030000C942A080C942A080C942A080C942A0878
:100040000C942A080C942A080C942A080C942A0868
:100050000C942A080C942A08FDC700000C94734ADB
:10006000F9C700000C943D4A0C94134AF3C70000F2
:10007000F1C70000EFC70000EDC70000EBC70000AC
:10008000E9C70000E7C70000E5C70000E3C70000BC
:10009000E1C70000DFC70000DDC70000DBC70000CC
:1000A000D9C70000D7C70000D5C70000D3C70000DC
:1000B000D1C70000CFC70000CDC70000CBC70000EC
:1000C000C9C70000C7C70000C5C70000C3C70000FC
:1000D000C1C70000BFC70000BDC70000BBC700000C
:1000E000B9C700003A204572726F723A20556E6BA4
:1000F0006E6F776E20436F6D6D616E643A200044C1
:10010000002C2052656365697665642074686973A4
:100110003A20003A204572726F723A204578706535
:10012000637465643A2000440020202052656365B2
:10013000697665643A2000202020457870656374F4
:1001400065643A20004572726F723A2053656E649E
:10015000696E6720426C6F636B3A2000202020524A
:10016000656365697665643A2000202020457870D3
:1001700065637465643A20004572726F723A205369
:10018000656E64696E6720426C6F636B3A20002075
:1001900052657472792E2E2E004572726F723A205B
:1001A00053656E64696E6720426C6F636B3A200022
:1001B0003A203C204E6F204469736B203E0044007F
:1001C0002F003A200044003A204572726F723A20A4
:1001D00046696C6520746F6F206C6172676520746E
:1001E0006F20666F726D6174004400466F726D61BE
:1001F0007420636F6D706C657465002E004E756DB4
:10020000626572206F6620426C6F636B733A2000E8
:1002100053697A65206F662066696C653A200045EF
:1002200072726F723A20466F726D617474696E6794
:10023000206120524F4D2046696C65206E6F7420FE
:10024000737570706F72746564005265636569766A
:10025000656420466F726D617420436F6D6D616ED1
:100260006420666F722044726976652044004D6F89
:10027000756E74696E672044313A20004E6F2042DB
:100280006F6F74204469736B2020202000426F6FD1
:1002900074204469736B204F6E00426F6F7420446A
:1002A00069736B204F6E2020202000426F6F7420F6
:1002B0004469736B204F666600426F6F7420446917
:1002C000736B204F6666202020004C6F6164696E5E
:1002D00067204469722E2E2E20200020202020200E
:1002E0002020202020202020202020004368616E34
:1002F00067696E6720746F204469726563746F72FA
:10030000793A20004C6F6164696E67204469722EEF
:100310002E2E2020002020202020202020202020E1
:100320002020202020004368616E67696E6720747A
:100330006F204469726563746F72793A2000556E5C
:100340006D6F756E74696E672044004C6F616469EF
:100350006E67204469722E2E2E202000202020203F
:100360002020202020202020202020200043686101
:100370006E67696E6720746F204469726563746F7D
:1003800072793A20004C6F6164696E67204469722B
:100390002E2E2E2020002020202020202020202053
:1003A000202020202020004368616E67696E67204E
:1003B000746F204469726563746F72793A20004CDF
:1003C0006F6164696E67204469722E2E2E202000B2
:1003D000202020202020202020202020202020201D
:1003E000004368616E67696E6720746F20446972AC
:1003F0006563746F72793A20003A20004D6F756E14
:1004000074696E67204400436F6D70617469626C3B
:100410006520426C6F636B204D6F646520456E6193
:10042000626C656400536B697070696E67207468F4
:100430006973207265736574003A20003A003A00CF
:10044000202020202046696C657320202020202059
:100450000020202020546F6F204D616E79202020D5
:1004600020005761726E696E673A204D6178696D40
:10047000756D204E756D626572206F662046696CE1
:1004800065732052656163686564003A003A003A1A
:10049000004E756D626572206F662046696C6573EB
:1004A0003A0043757272656E7420446972656374B4
:1004B0006F72793A0046696C657320696E20426CF0
:1004C0006F636B3A0046696C656E616D65204C65C3
:1004D0006E6774683A004164616D20436F6D6D61B1
:1004E0006E643A205344204361726420446972650B
:1004F00063746F727920426C6F636B3A20004164C1
:10050000616D20436F6D6D616E643A204375727248
:10051000656E74204469736B206F6E2044004368DD
:10052000616E67696E6720746F20446972656374D9
:100530006F72793A20004368616E67696E67207454
:100540006F204469726563746F72793A2000436862
:10055000616E67696E6720746F20446972656374A9
:100560006F72793A20003A20004D6F756E74696E93
:1005700067204400556E6D6F756E74696E67204418
:10058000004164616D20436F6D6D616E643A205768
:10059000726974696E6720746F20746865204C43BB
:1005A00044203A004164616D20436F6D6D616E645B
:1005B0003A2052656672657368204C434400526568
:1005C000626F6F74696E672E2E2E004465627567C8
:1005D000204D6F64653A2000446576696365203775
:1005E0003A200044657669636520363A2000446508
:1005F0007669636520353A20004465766963652035
:10060000343A20004164616D20436F6D6D616E640A
:100610003A2057726974696E672041444520436FE0
:100620006E6669670044656C65746520436F6D6D27
:10063000616E64204572726F7200526566726573F6
:1006400068696E67204469726563746F72793A20D5
:100650000044656C6574696E672046696C653A2074
:100660000044656C6574696E67204469723A2000C5
:1006700043616E27742044656C657465205B2E2E83
:100680005D0043616E27742044656C657465205B72
:100690002F5D0044656C65746520436F6D6D616E00
:1006A0006420436F6E6669726D6564004164616DBC
:1006B00020436F6D6D616E643A2044656C657465AE
:1006C00020496D6167652046696C6500496E7661F9
:1006D0006C69642046696C6520547970653A200025
:1006E0004572726F72206372656174696E6720660D
:1006F000696C650046696C65204E616D653A200045
:100700004372656174652044445020496D6167659A
:10071000004572726F72206372656174696E672042
:1007200066696C65003A20002E003A200046696C2C
:1007300065204E616D653A200043726561746520E5
:100740004469736B20496D61676500446972656334
:10075000746F7279204E616D653A20004372656155
:1007600074652061204469726563746F7279004614
:10077000696C652053697A653A20004E756D626533
:1007800072206F6620426C6F636B733A2000416485
:10079000616D20436F6D6D616E643A2043726561D7
:1007A000746520496D616765004572726F722072D1
:1007B000656E616D696E6720646972004E657720B1
:1007C000446972204E616D653A20004F6C6420448C
:1007D0006972204E616D653A20004F6C6420446957
:1007E00072204E756D6265723A20004572726F72AA
:1007F000206F70656E696E672066696C6520666F34
:10080000722072656E616D65004572726F72207242
:10081000656E616D696E672066696C65004E65770F
:100820002046696C65204E616D653A20004F6C640E
:100830002046696C65204E616D653A20004F6C64FE
:100840002046696C65204E756D6265723A200041E4
:1008500064616D20436F6D6D616E643A2052656E08
:10086000616D6520496D61676500436C6561726902
:100870006E67204375742F436F70792046696C65ED
:100880006E616D6500436C656172696E67204375CA
:10089000742F436F70792046696C656E616D6500D9
:1008A00044656C6574696E672046696C653A200022
:1008B0004572726F72204372656174696E6720447D
:1008C000657374696E6174696F6E2046696C652129
:1008D000004572726F72204F70656E696E672053AB
:1008E0006F757263652046696C65210046696C65A9
:1008F00020457869737473202D2052656E616D698F
:100900006E6700506173746520436F6D6D616E6436
:10091000202D20436F707900506173746520436F00
:100920006D6D616E64202D204D6F766500436F7094
:10093000792046696C653A20004375742046696CDD
:10094000653A2000466F726D617420436F6D6D6172
:100950006E6420436F6E6669726D656400466F72E7
:100960006D617420436F6D6D616E64204572726FAE
:1009700072004164616D20436F6D6D616E643A2059
:10098000466F726D61742044003A003A003A005399
:10099000443D00203A2000203A2000203A20005315
:1009A0004420436F6D6D616E643A200000002200A8
:1009B000250028002B002E00310034000201000029
:1009C000050108010B01000020002300260029007A
:1009D0002C002F0032000001000003010601090174
:1009E00000000A0B02090C0D0E08070304010000A9
:1009F00000000000000000000000000000000000F7
:100A000000000000000000000000000012111000B3
:100A100000000000000000000000000000000000D6
:100A20000000000000004F6666004F6E004F6666D3
:100A3000004F6E004F6666004F6E004F6666004FB7
:100A40006E004F6666004F6E0044657669636520F0
:100A5000436F6E6669670041444520566363203DDD
:100A6000200041444520566363203D2000000021C2
:100A700000240027002A002D00300033000101006F
:100A800000040107010A01010210202008081020BB
:100A9000401020408002010201080402010102040A
:100AA00008102040808040201008040201800402C9
:100AB0000180402010080402010804020101020420
:100AC0000810204080010204081020408005050520
:100AD00005070508080808020202020A0A080804B5
:100AE00004040401010101010101010303030303E3
:100AF000030303040707070C0C0C0C0C0C0C0C0272
:100B000002020206060606060606060B0B0B0B0B78
:100B10000B0B0B2C3058005344206572726F7243DC
:100B20006F64653A203058004E6F20636172642C08
:100B30002077726F6E6720636869702073656C65DB
:100B400063742070696E2C206F722053504920709E
:100B5000726F626C656D3F0043616E277420616344
:100B60006365737320534420636172642E20446F65
:100B7000206E6F74207265666F726D61742E004E08
:100B80006F206572726F7220666F756E642E0043FF
:100B9000616E2774206F70656E20726F6F742064B1
:100BA00069726563746F72792E00496E76616C6943
:100BB0006420666F726D61742C207265666F726D51
:100BC00061742053442E002020204E6F2053442077
:100BD00043617264004368616E67696E6720746F79
:100BE0002074686520496E697469616C204469727B
:100BF0003A20004465627567204D6F646520446942
:100C00007361626C6564004465627567204D6F6452
:100C10006520456E61626C65640044313A203C6237
:100C20006F6F743E3A2000426F6F74204469736B9B
:100C300020496E6465783A2000426F6F74204469E1
:100C4000736B204469723A2000456E61626C656482
:100C5000004E6F2044726976657300446562756763
:100C6000204D6F646520686173206265656E206445
:100C7000697361626C65640044312C2044322C201D
:100C8000443320616E6420443420686176652062BC
:100C900065656E20656E61626C656400496E69749D
:100CA00069616C697A696E6720454550524F4D0005
:100CB0002E0045726173696E6720454550524F4D55
:100CC0003A00454550524F4D204E6F7420496E6991
:100CD0007469616C697A6564004672656520535277
:100CE000414D3A2000456E746572696E6720566FFB
:100CF0006C746167652054657374204D6F64650082
:100D0000456E746572696E6720436F6E66696775BC
:100D1000726174696F6E204D6F646500456E61622B
:100D20006C696E6720616C6C2044657669636573DD
:100D300000456E61626C696E672044657669636523
:100D400020340044697361626C696E672044657683
:100D50006963652035005374617274696E673A2067
:100D600041444520760062793A205365616E204DFA
:100D700079657273004144452020202020207600B0
:100D8000206973206C6172676572207468616E20DF
:100D900066696C653A20003A204572726F72207362
:100DA0006176696E6720626C6F636B202D20426CE8
:100DB0006F636B206C6F636174696F6E3A200044DF
:100DC000004572726F723A2057726974696E6720BB
:100DD000746F206120524F4D2046696C65206E6F04
:100DE0007420737570706F72746564002020202009
:100DF000202020202020202020202020003A2057C2
:100E0000726974696E673A200044003A2045727234
:100E10006F723A20496E76616C696420436865633D
:100E20006B73756D2C20426C6F636B3A0044003A13
:100E3000204572726F723A205265717565737465E0
:100E40006420626C6F636B206F7574206F66207214
:100E5000616E67653A20004400206973206C6172FE
:100E6000676572207468616E2066696C653A20005F
:100E70003A204572726F72206C6F6164696E6720F0
:100E8000626C6F636B202D20426C6F636B206C6F04
:100E9000636174696F6E3A200044006B00524F4DDD
:100EA0002046696C652053697A653A200057617263
:100EB0006E696E673A20524F4D2066696C65206CF2
:100EC0006172676572207468616E2033326B2C200A
:100ED0006C6F6164696E672033326B0020202020C4
:100EE000202020202020202020202020003A2052D6
:100EF000656164696E673A200044003A2045727269
:100F00006F723A2052657175657374656420626C06
:100F10006F636B206F7574206F662072616E6765FA
:100F20003A20004400436C656172696E6720437526
:100F3000742F436F70792046696C656E616D650032
:100F4000456E68616E63656420426C6F636B204D13
:100F50006F646520456E61626C656400436F6D70FF
:100F6000617469626C6520426C6F636B204D6F64C5
:100F70006520456E61626C656400536F6674205233
:100F8000657365742066726F6D204164616D4E6596
:100F90007400436F6D70617469626C6520426C6FA0
:100FA000636B204D6F646520456E61626C65640003
:100FB000486172642052657365742066726F6D209B
:100FC0004164616D4E65740044313A203C626F6F3C
:100FD000743E3A20004D6F756E74696E6720426FE3
:100FE0006F74204469736B20496D61676500034D20
:100FF0000E6011241FBECFEFD1E2DEBFCDBF00E0F7
:101000000CBF13E0A0E0B2E0EAEEFBEC00E00BBFA7
:1010100002C007900D92A03AB107D9F72AE1A0EAE1
:10102000B3E001C01D92AA3CB207E1F717E0C8EF98
:10103000D7E000E006C021970109802FFE010E9441
:101040009E64C73FD10780E00807A9F70E94804D42
:101050000C94E4650C94000080917B00877F809362
:101060007B0080E480937C0080917A008064809390
:101070007A0080917A0086FDFCCF80917800909173
:10108000790008950895DB0114964D915C911597B0
:101090006D917C91DC01ED91FC910280F381E02D5A
:1010A0001994EF92FF920F931F93CF93DF938C01CC
:1010B0007B01D0E0C0E0F701EC0FFD1F64916623D7
:1010C00061F0D801ED91FC910190F081E02DC80113
:1010D0001995892B11F02196EECFCE01DF91CF919A
:1010E0001F910F91FF90EF900895AF92BF92CF9212
:1010F000DF92EF92FF920F931F93CF93DF936C01D8
:101100007B018B01040F151FEB015E01AE18BF08B8
:10111000C017D10759F06991D601ED91FC9101906A
:10112000F081E02DC6011995892B79F7C501DF9172
:10113000CF911F910F91FF90EF90DF90CF90BF90D4
:10114000AF900895FC01538D448D252F30E0842FFE
:1011500090E0821B930B541710F0CF9608950197DF
:101160000895FC01918D828D981761F0A28DAE0FCC
:10117000BF2FB11D5D968C91928D9F5F9F73928F53
:1011800090E008958FEF9FEF0895FC01918D828D7F
:10119000981731F0828DE80FF11D858D90E008954C
:1011A0008FEF9FEF0895FC01918D228D892F90E0A4
:1011B000805C9F4F821B91098F739927089585E862
:1011C00097E1F1DF21E0892B09F420E0822F0895D7
:1011D000FC01A48DA80FB92FB11DA35ABF4F2C91AC
:1011E000848D90E001968F739927848FA689B789A3
:1011F0002C93A089B1898C91837080648C93938D9A
:10120000848D981306C00288F389E02D80818F7D3C
:1012100080830895EF92FF920F931F93CF93DF93F4
:10122000EC0181E0888F9B8D8C8D98131AC0E88922
:10123000F989808185FF15C09FB7F894EE89FF89F1
:101240006083E889F98980818370806480839FBF8F
:1012500081E090E0DF91CF911F910F91FF90EF908F
:101260000895F62E0B8D10E00F5F1F4F0F7311279F
:10127000E02E8C8D8E110BC00FB607FCFACFE889DB
:10128000F989808185FFF5CFCE01A2DFF2CFEB8D0A
:10129000EC0FFD2FF11DE35AFF4FF0829FB7F8943A
:1012A0000B8FEA89FB8980818062D0CFCF93DF9357
:1012B000EC01888D8823B1F0AA89BB89E889F98976
:1012C0008C9185FD03C0808186FD0CC00FB607FCA4
:1012D000F7CF8C9185FFF2CF808185FFEDCFCE01D6
:1012E00077DFEACFDF91CF91089580E090E0892BFE
:1012F00021F065DF81110E94000080E090E0892BE1
:1013000049F080E090E0892B29F00E9400008111D3
:101310000E94000080E090E0892B49F080E090E09E
:10132000892B29F00E94000081110E94000080E0BA
:1013300090E0892B49F080E090E0892B29F00E9411
:10134000000081110C94000008958150823108F052
:101350005AC0E82FF0E08827EF54F64F8F4F0C94D7
:101360009E64D109D509C309C909CD09030AD80961
:10137000DE09E209E809EC09F009F609FA09030AAD
:10138000FE09040A080A809180008F77809380000C
:101390000895809180008F7DF9CF80918000877FB4
:1013A000F5CF84B58F7784BD089584B58F7DFBCF4D
:1013B0008091B0008F778093B00008958091B00045
:1013C0008F7DF9CF809190008F7780939000089562
:1013D000809190008F7DF9CF80919000877FF5CF2D
:1013E0008091A0008F778093A00008958091A00045
:1013F0008F7DF9CF8091A000877FF5CF809120016C
:101400008F77809320010895809120018F7DF9CFFF
:1014100080912001877FF5CFCF93DF93282F30E095
:10142000F901E052F64F8491F901E957F54FD49153
:10143000F901E353F54FC491CC2399F0811185DF75
:10144000EC2FF0E0EE0FFF1FEA53F64FA591B49199
:10145000EC91ED2381E090E009F480E0DF91CF9101
:10146000089580E090E0FACF1F93CF93DF93282F69
:1014700030E0F901E052F64F8491F901E957F54F58
:10148000D491F901E353F54FC491CC23A1F0162F69
:1014900081115BDFEC2FF0E0EE0FFF1FE455F64FFC
:1014A000A591B4918FB7F894EC91111108C0D09523
:1014B000DE23DC938FBFDF91CF911F910895DE2B48
:1014C000F8CFCF93DF9390E0FC01E957F54F2491DB
:1014D0008353954FFC0184918823D1F090E0880FCD
:1014E000991FFC01E359F54FA591B491FC01E45516
:1014F000F64FC591D491623071F49FB7F8943C9146
:10150000822F809583238C93E8812E2B28839FBF85
:10151000DF91CF9108958FB7F894EC912E2B2C93F7
:101520008FBFF6CF3FB7F894809148079091490755
:10153000A0914A07B0914B0726B5A89B05C02F3F45
:1015400019F00196A11DB11D3FBFBA2FA92F982FE9
:101550008827BC01CD01620F711D811D911D42E0E4
:10156000660F771F881F991F4A95D1F708958F92AC
:101570009F92AF92BF92CF92DF92EF92FF926B0158
:101580007C01D0DF4B015C01C114D104E104F10402
:10159000B1F0C8DF681979098A099B09683E734070
:1015A0008105910588F321E0C21AD108E108F1080C
:1015B00088EE880E83E0981EA11CB11CE5CFFF9039
:1015C000EF90DF90CF90BF90AF909F908F90089555
:1015D0002FB7F894609144077091450780914607B2
:1015E000909147072FBF08950895CF93DF93EC01A3
:1015F000E981FA81908181819CBD8DBDE981FA816B
:1016000060E0828131DF81E08B83DF91CF910895AB
:101610008EBD0DB407FEFDCF08958FEF8EBD0DB4C6
:1016200007FEFDCF8EB508950F931F93CF93DF93E1
:10163000EC01CEDF8B01F1DF8F3F61F0C9DF601B72
:10164000710BC617D707B8F780E0DF91CF911F91D4
:101650000F91089581E0F9CFCF93DF93FC012381AF
:10166000222351F0EC010180F281E02D61E08281C2
:10167000FBDE8FEFCDDF1B82DF91CF910895EF92DC
:10168000FF920F931F93CF93DF93EC017B01A0DFB9
:101690008B01C3DF8C838F3F91F49ADF601B710B4A
:1016A000693E7340B0F385E58883CE01D5DF80E0E5
:1016B000DF91CF911F910F91FF90EF9008958E3F92
:1016C00011F080E5F1CF8FEF8EBDF701D701A1506A
:1016D000BE4F9FEF0DB407FEFDCF8EB59EBD81932B
:1016E000AE17BF07B9F70DB407FEFDCF8EB58C93CB
:1016F0001C8293DF92DF81E0DBCF0F931F93CF93A8
:10170000DF938C01862FEA0183DF88818EBD89817A
:10171000FE013296DE5F0DB407FEFDCF8EBDEC17E5
:10172000FD0711F08191F7CF0DB407FEFDCF8FEFCC
:101730006FDF8FEF6DDF71DFF80184838F7185308C
:1017400051F087E58083C80187DF80E0DF91CF918A
:101750001F910F91089581E0F9CFDF92EF92FF92F0
:101760000F931F93CF93DF938C01C62FD22FF32EAD
:10177000E42ED52EFC018381811102C0C80135DF22
:10178000CC2319F08CE291E04FDF8C2F806440DF96
:101790008D2D3EDF8E2D3CDF8F2D3ADF8D2F38DFF4
:1017A00087E8C11101C085E933DF37DFCBE035DFE2
:1017B000F801848387FF02C0C150C9F7DF91CF9140
:1017C0001F910F91FF90EF90DF9008950F931F935B
:1017D000CF93DF93EC0189018D81833039F089E06B
:1017E000440F551F661F771F8A95D1F79A01AB01E9
:1017F00068E1CE01B2DF882331F082E38883CE0135
:101800002BDF10E01CC0A8016EEFCE0176DF88232D
:10181000B1F380ED97E008DF182F8AE5112371F30B
:1018200020E030E0A9016DE0CE0197DF882311F0C0
:1018300089E2E4CFF2DE8111FBCFCE010DDF812FF3
:10184000DF91CF911F910F9108950F931F93CF9325
:10185000DF93EC0189018D81833039F089E0440FF9
:10186000551F661F771F8A95D1F79A01AB0161E179
:10187000CE0173DF882331F080E38883CE01ECDE74
:1018800010E008C0B801CE01FADE182F8823B1F3AA
:10189000CE01E2DE812FDF91CF911F910F9108954C
:1018A000EF92FF921F93CF93DF93FC01208111E011
:1018B00020FF13C0EC017C01F7E0EF0EF11C4B811F
:1018C0005C816D817E81E981FA81970180819181BE
:1018D0007DDF182F811108C010E0812FDF91CF919B
:1018E0001F91FF90EF900895888181FD04C0888149
:1018F0008E7F8883F2CFE981FA814B815C816D8193
:101900007E8184859585A685B785480F591F6A1FF6
:101910007B1F97018081918159DF8111E8CFDCCF56
:10192000CF92DF92EF92FF921F93CF93DF93EC0160
:101930006A017B01122F8B819C81AD81BE818C1548
:101940009D05AE05BF05A9F0CE01AADF81110AC031
:1019500090E080E0DF91CF911F91FF90EF90DF90BA
:10196000CF90089512FF0CC01882CB82DC82ED82EA
:10197000FE8213708881182B1883CE010796EACF58
:10198000E981FA819E01295F3F4FB701A60180815D
:1019900091815BDF8111E8CFDBCF8F929F92AF9275
:1019A000BF92CF92DF92EF92FF920F931F9310920C
:1019B0004B1841E050E060E070E040934E185093C7
:1019C0004F18609350187093511826E438E1309303
:1019D000681820936718109266184FEF5FEFBA01EE
:1019E0004093691850936A1860936B1870936C1841
:1019F000882309F44EC020E040E050E0BA0186E6BA
:101A000098E18EDF009761F480E01F910F91FF90C5
:101A1000EF90DF90CF90BF90AF909F908F90089500
:101A2000FC01E254FE4F20812F7771F78A539E4FBD
:101A3000FC01C080D180E280F380C114D104E104B4
:101A4000F10411F320E0B701A60186E698E168DF12
:101A5000FC01892BC9F28385948581159240A1F6FA
:101A60008089823089F686859785892B69F225855C
:101A7000209348188FEF820F8093491880E091E0FF
:101A8000291769F08F5F893041F488E080934A1804
:101A9000BBCFC12CD12C7601D5CF990FF1CF80933C
:101AA0004A184689578970E060E04115510521F4D4
:101AB00044A155A166A177A14093521850935318A1
:101AC0006093541870935518268537854601570141
:101AD000820E931EA11CB11C80925A1890925B1822
:101AE000A0925C18B0925D182189328930934D180C
:101AF00020934C18440F551F661F771F480D591D22
:101B00006A1D7B1D4093621850936318609364189C
:101B10007093651821893289A5E0220F331FAA9599
:101B2000E1F721503E4F232F33272695420F531FB5
:101B3000611D711D409356185093571860935818A3
:101B4000709359180389148930E020E001151105BC
:101B500021F400A111A122A133A1C41AD50AE60AD9
:101B6000F70AC00ED11EE21EF31E04C0F694E794DD
:101B7000D794C7948A95D2F7D701C6010196A11DC3
:101B8000B11D80935E1890935F18A0936018B09376
:101B9000611885EFC8168FE0D806E104F10420F43F
:101BA0008CE080934B1830CF80E125EFC2162FEFE9
:101BB000D206E104F10468F084A595A5A6A5B7A511
:101BC0008093621890936318A0936418B09365187B
:101BD00080E280934B1881E018CF8F929F92AF9252
:101BE000BF92CF92DF92EF92FF920F931F934230FA
:101BF00051056105710560F480E01F910F91FF9020
:101C0000EF90DF90CF90BF90AF909F908F9008950E
:101C1000FC01C08CD18CE28CF38CC416D506E60690
:101C2000F70650F3480159016A017B018581803232
:101C300039F584899589A689B78917E076956795DE
:101C4000579547951A95D1F7480F591F6A1F7B1F63
:101C500023E0CF01809664DE009771F2E894C7F824
:101C6000DD24EE24FF24CC0CDD1CCC0CDD1C8C0D03
:101C70009D1DFC0180829182A282B38281E0BDCF52
:101C8000803109F0B9CF44895589668977894D0D2E
:101C9000511D611D711D23E0CF01809641DE00972B
:101CA00009F4AACFDD24EE24FF24CC0CDD1CC80EE1
:101CB000D91EF60111830083E1CFCF92DF92EF921C
:101CC000FF920F931F93CF93DF934230510561052D
:101CD000710550F48FEFDF91CF911F910F91FF901D
:101CE000EF90DF90CF900895FC01C08CD18CE28CF6
:101CF000F38CC416D506E606F70660F389016A017F
:101D00007B01EC0185818032B1F584899589A689B2
:101D1000B789E7E07695679557954795EA95D1F7A6
:101D2000480F591F6A1F7B1F22E0CE018096F8DD05
:101D3000009781F2E894C7F8DD24EE24FF24CC0C50
:101D4000DD1CCC0CDD1C8C0D9D1DFC018081918166
:101D5000A281B381BF70488D598D6A8D7B8D4817E4
:101D600059076A077B0730F1F80180839183A283CA
:101D7000B38381E0B0CF803109F0ACCF448955897D
:101D8000668977894D0D511D611D711D22E0CF01BE
:101D90008096C6DD009709F49DCFDD24EE24FF2454
:101DA000CC0CDD1CC80ED91EF60180819181B0E0FB
:101DB000A0E0D1CF80E08FCF9F92AF92BF92CF9221
:101DC000DF92EF92FF920F931F93CF93DF9300D098
:101DD0001F92CDB7DEB75C016A017B0119821A82BE
:101DE0001B821C829E012F5F3F4FB701A601C501D8
:101DF00064DF982E87FD33C000E010E09801B70142
:101E0000A601C501EADE882351F1F501408551851F
:101E1000628573854C155D056E057F0550F0F1E018
:101E2000CF1AD108E108F108F501C086D186E28613
:101E3000F386C980DA80EB80FC809110D3CF0F90BD
:101E40000F900F900F90DF91CF911F910F91FF9006
:101E5000EF90DF90CF90BF90AF909F90089580E07B
:101E6000EECFBF92CF92DF92EF92FF920F931F932C
:101E7000CF93DF93DB01FC019F012F5F3F4F8081F8
:101E8000803209F49EC01496FC93EE9313979F0141
:101E900089010E1B1F0B722F632FE90189919E018F
:101EA000882379F08F3209F08EC0CF01800F911F07
:101EB000782F692FEC012991CE012032C9F32F32FE
:101EC000B9F3EA0178836983E801CE0FDF1F8E0141
:101ED0000E1B1F0BCE17DF0709F495C08A918E32B7
:101EE000B1F38032A1F30F3F110511F00CF06DC07A
:101EF00012961C930E931197ED012696CD014196F3
:101F000020E229938C179D07E1F7EF019E012E1B1C
:101F10003F0B89918E32D1F38032C1F381E02115DC
:101F2000310509F080E0A80141505109EF01C00FCF
:101F3000D11F4F3F540709F069C0F12C67E0B12C65
:101F400070E0D8E0ED2E201731070CF0ACC06F0127
:101F5000C20ED31EE6019881903209F483C09E32EE
:101F600021F42417350709F07DC0D92F9232E1F012
:101F70009C37D1F0C6EDDC2ED90EC5E0CD1510F0A2
:101F80009D3291F4C6ECDC2ED90EC5E0CD1560F47F
:101F9000C5EADC2ED90EC2E0CD1530F4CFEDDC2E33
:101FA000D90ECDE5CD15C8F52417350709F076C053
:101FB0006A3009F477C06AE098E0B92EC0E1EC2EEF
:101FC00052C0F90159CF8C3559F480E0DF91CF919F
:101FD0001F910F91FF90EF90DF90CF90BF900895E9
:101FE000982F977F923289F38A3379F3982F9F7BCA
:101FF0009C3359F392EC980F923038F380528F351E
:1020000008F446CFE2CF10E000E072CF9A919E3202
:1020100009F493CF415051098CCF2417350741F271
:102020006B15F0F1CFE9DC2ED90EC9E1CD1508F121
:102030009052FE28DD24D394DB0CED01CB0DD11D95
:102040009E83D6E0DD1518F01596DC921597BD2C11
:102050000AC04217530734F19A016AE0D8E0BD2E56
:1020600080E1E82E80E02F5F3F4F6DCF80E09FE55D
:10207000DFE5D154DA31F0F67E29DCCF81E08C93B4
:1020800015966C911597A60FB11D8EE716968C9339
:10209000169781E317968C9381E098CF6B1530F7F4
:1020A0006A30B9F680E016969C911697903209F442
:1020B0008CCF882319F37F2111F0D2E0FD2EFC9202
:1020C00085CFFC019C01255F3F4F80E080FB879519
:1020D00087F99191890F2E173F07C1F708954F9205
:1020E0005F926F927F928F929F92AF92BF92CF92A8
:1020F000DF92EF92FF920F931F93CF93DF93EC0148
:102100004A015B014C845D846E847F84A881AA238C
:1021100009F485C0488959896A897B894815590518
:102120006A057B0569F081149104A104B10451F49E
:102130001C861D861E861F86888A998AAA8ABB8A63
:1021400081E072C0A3FF58C0088D198D2A8D3B8D88
:10215000081519052A053B0508F461C0EE81FF81C9
:10216000848190E009968A019B010150110921099F
:102170003109082E04C036952795179507950A94BE
:10218000D2F775016401B1E0CB1AD108E108F1087A
:1021900004C0F694E794D794C7948A95D2F7C016F2
:1021A000D106E206F30628F0452B462B472B09F013
:1021B00051C0A6FF4AC0848D958DA68DB78D8C87A2
:1021C0009D87AE87BF878E01045F1F4FC114D10466
:1021D000E104F10409F4B0CF4C855D856E857F85FF
:1021E00098018E819F8169DD91E0C91AD108E108CB
:1021F000F10818165CF313C0A5FFB0CFEE81FF8184
:102200008681978125E0880F991F2A95E1F7B0E034
:10221000A0E088159905AA05BB0508F08DCF4C866E
:102220005D866E867F8680E0DF91CF911F910F9152
:10223000FF90EF90DF90CF90BF90AF909F908F90E6
:102240007F906F905F904F9008958C8D9D8DAE8D97
:10225000BF8DB5CFC01AD10AE20AF30AB4CFCF932B
:10226000DF93EC01262F4C895D896E897F898E81F1
:102270009F81809655DB009771F02C813D812F70F6
:10228000332745E0220F331F4A95E1F7820F931F52
:10229000DF91CF91089590E080E0FACF0F931F93E4
:1022A000CF93DF93EC0190912618911106C080E046
:1022B000DF91CF911F910F910895907629F08FE2D1
:1022C0008883198281E0F4CF60E086E298E1C7DF7D
:1022D000DC01009761F3AC0138E070E090E06EE261
:1022E000FA018191AF018032F1F0983039F49E010A
:1022F000270F311DF90160837F5F30E18A010150B2
:102300001109F80120818FEB820F8A3130F41C967D
:102310008C911C97832309F0205E8E01070F111DFD
:10232000F80120837F5F9F5F9B30D1F6FE01E70FAE
:10233000F11D1082C7CF3F924F925F926F927F92B2
:102340008F929F92AF92BF92CF92DF92EF92FF92C5
:102350000F931F93CF93DF9300D01F92CDB7DEB7BB
:102360004C01FC01828184608283A680B780448412
:10237000558466847784F501C084D184E284F38433
:10238000C414D504E604F70410F011E003C073018F
:10239000620110E0FFEFCF1ADF0AEF0AFF0AF50132
:1023A000808D918DA28DB38D8C159D05AE05BF05D9
:1023B00038F411112FC0C084D184E284F384E5CFB6
:1023C0004C145D046E047F0429F19E012F5F3F4F82
:1023D000B701A601C50171DC87FD1CC08823D1F2BD
:1023E00089819A81AB81BC81892B8A2B8B2B91F6B9
:1023F000112329F0F501C086D186E286F3860FEF1E
:102400001FEF2FEF3FE0B701A601C501E6DB382E35
:10241000811118C0312C832D0F900F900F900F90C9
:10242000DF91CF911F910F91FF90EF90DF90CF90B0
:10243000BF90AF909F908F907F906F905F904F90E4
:102440003F900895411451046104710431F4F40182
:10245000C486D586E686F786DECF97018601B3016E
:10246000A201C501BADB8111F2CFD4CF40E050E028
:10247000BA0135CE809614CACF93DF93FC01208138
:10248000211104C081E0DF91CF910895EC01828198
:1024900082FF26C061E0CF01E2DEFC01892B29F436
:1024A00089818160898380E0EECF8081853EC1F3A0
:1024B000888183FF08C0888D998DAA8DBB8D848FFC
:1024C000958FA68FB78F8C8D9D8D938F828F8C8DDE
:1024D0009D8DAE8DBF8DB58BA48B8A818B7F8A83BA
:1024E0008E819F81C7DF8823D9F2CCCFCF93DF9332
:1024F000EC01C2DF1882DF91CF910895462F44503E
:10250000550B96E0949FF001959FF00D1124E55D29
:10251000F84F60586083118224E0228391E0938316
:10252000848328279227958308953F924F925F9244
:102530006F927F928F929F92AF92BF92CF92DF92D3
:10254000EF92FF920F931F93CF93DF9341D80091A7
:1025500051071091520720915307309154074B01B6
:102560005C01801A910AA20AB30A89E10E940C0A4E
:10257000382E87E10E940C0A482E88E10E940C0A3E
:10258000582E8AE10E940C0A682E86E10E940C0AED
:10259000782E8AE20E940C0AD82F0E942C088C0107
:1025A000823391058CF562E370E080E090E00E9458
:1025B000B70A0E942C088C01C2970CF00AC18091C6
:1025C000A103811106C181E08093A103C12CD12C0C
:1025D00076010E942C08C2976CF428E8C21623E109
:1025E000D206E104F10471F08FEFC81AD80AE80AA4
:1025F000F80AEFCFC1E028E8C21623E1D206E104D1
:10260000F10441F5CBE526C08A3F91050CF048C0A6
:1026100062E370E080E090E00E94B70A0E942C081C
:102620008C018A3F91050CF0D4C084EB881691048C
:10263000A104B10408F4CDC00E94E80A60935107D8
:10264000709352078093530790935407C12CD12C59
:102650007601C2E03110E5C062E370E080E090E016
:102660000E94B70A89E10E940C0A892B09F0C0C0B8
:102670008091A1038111BCC081E08093A10389E115
:102680000E940C0A892B09F0A9C020EAC21626E88C
:10269000D20621E0E206F10409F0BDC0CBE5A8C0F6
:1026A000823C914024F562E370E080E090E00E947B
:1026B000B70A0E942C088C01023C81E018070CF03C
:1026C00088C024EB82169104A104B10408F481C0EF
:1026D0000E94E80A60935107709352078093530752
:1026E00090935407C12CD12C7601C3E0B3CF0A38A4
:1026F00082E01807ACF562E370E080E090E00E94B1
:10270000B70A0E942C088C018A3892400CF061C0F4
:102710008091A10381115DC081E08093A103C12C50
:10272000D12C76010E942C088A3892404CF488E81B
:10273000C81683E1D806E104F10461F4CEE58ACF3E
:10274000C4E028E8C21623E1D206E104F10409F04E
:1027500081CFF4CF8FEFC81AD80AE80AF80AE2CF7F
:10276000023523E01207ACF562E370E080E090E010
:102770000E94B70A0E942C088C01023583E01807DA
:1027800044F58091A103811124C081E08093A103CD
:10279000C12CD12C76010E942C08823593404CF438
:1027A00088E8C81683E1D806E104F10461F4CFE5B6
:1027B00051CFC5E028E8C21623E1D206E104F104B6
:1027C00009F048CFF4CF8FEFC81AD80AE80AF80A00
:1027D000E2CFC12CD12C7601C0E03CCFC1E080EA31
:1027E000C81686E8D80681E0E806F10408F056CF5E
:1027F0008C2FDF91CF911F910F91FF90EF90DF9081
:10280000CF90BF90AF909F908F907F906F905F9090
:102810004F903F9008952FEFC21AD20AE20AF20AAF
:102820002ECF41101DC062E370E080E090E00E9476
:10283000B70A87E10E940C0A892BD1F684EB88162F
:102840009104A104B104A0F20E94E80A6093510728
:10285000709352078093530790935407C2E0C8CFF8
:10286000511031C062E370E080E090E00E94B70A4E
:1028700088E10E940C0A892B89F424EB82169104CA
:10288000A104B10458F00E94E80A609351077093C4
:1028900052078093530790935407C3E081E03812A6
:1028A000A7CF4812A5CF5812A3CF6812A1CF781294
:1028B0009FCFD13009F09CCF033513400CF498CF53
:1028C0001092A10395CF611032C062E370E080E006
:1028D00090E00E94B70A8AE10E940C0A892BF1F667
:1028E0008091A1038111DACF81E08093A1038AE175
:1028F0000E940C0A892B51F480EAC81686E8D80693
:1029000081E0E806F10469F4CEE5C8CFC4E020EA2E
:10291000C21626E8D20621E0E206F10408F4BECF92
:10292000F3CF8FEFC81AD80AE80AF80AE0CF71107F
:1029300033C062E370E080E090E00E94B70A86E175
:102940000E940C0A892B09F0A9CF8091A103811163
:10295000A5CF81E08093A10386E10E940C0A892B18
:1029600051F420EAC21626E8D20621E0E206F1047C
:1029700069F4CFE593CFC5E080EAC81686E8D806AB
:1029800081E0E806F10408F489CFF3CF2FEFC21AF3
:10299000D20AE20AF20AE0CFD11180CF62E370E0FE
:1029A00080E090E00E94B70A8AE20E940C0A892B1C
:1029B00009F074CF8091A103811170CF81E08093E1
:1029C000A103C6E06BCF90E024E034E0829FB00129
:1029D000839F700D929F700D112423E030E040E042
:1029E0000497F901E60FF71FE55BF8405081452792
:1029F0002F5F3F4F233054E0350799F724E034E050
:102A0000829FF001839FF00D929FF00D1124E25AF6
:102A1000F44F40830895DC0114964D915C91159715
:102A200030E020E090E080E02417350799F0ED9148
:102A3000FC911197309759F41092A003E0EAF3E06B
:102A400060816F3209F401962F5F3F4FEDCFE20FA7
:102A5000F31FF6CF2130310511F490E080E00895A6
:102A600089B190E080E04A99FBCF853823E0920756
:102A700011F489B108950196F6CF0496FDCC90E04B
:102A800080E00895CF93DF93EC0160E08E810E9497
:102A9000340A61E08E810E94340A60E08E810E94D7
:102AA000340A8BE891E00197F1F7DF91CF91089517
:102AB000CF92DF92EF92FF920F931F93CF93DF930A
:102AC0006C017C0187E0E80EF11CD0E0C0E0062F2D
:102AD00010E0B8010C2E02C0759567950A94E2F7D4
:102AE0006170F70181917F010E94340A2196C43000
:102AF000D10579F7C601DF91CF911F910F91FF901A
:102B0000EF90DF90CF90BECFCF92DF92EF92FF9207
:102B10000F931F93CF93DF93EC01F62E642F8C81DC
:102B20000E94340A8D818F3F19F060E00E94340AC0
:102B30000F2D10E08F8584FF24C06E0187E0C80E42
:102B4000D11CF12CE12CB8010E2C02C075956795B3
:102B50000A94E2F76170F60181916F010E94340AD4
:102B6000FFEFEF1AFF0A88E0E816F10461F7CE01E3
:102B7000DF91CF911F910F91FF90EF90DF90CF9059
:102B800081CFB80184E0759567958A95E1F7CE010C
:102B90008FDF6F2DCE01DF91CF911F910F91FF90AD
:102BA000EF90DF90CF9084CF40E0682F8CE99AE1DE
:102BB000ABCF81E0F9DF8BE39FE10197F1F7089557
:102BC000CF93DF93823029F49091AB1A9860909361
:102BD000AB1A8093AF1A1092B01A80E48093B11AA6
:102BE00080E18093B21A80E58093B31A61E080910E
:102BF000A01A0E94610A8091A11A8F3F19F061E02A
:102C00000E94610A61E08091A21A0E94610ACCE9E7
:102C1000DAE19E012C593A418091AB1A84FD0BC038
:102C200084E090E021962817390744F461E08E8112
:102C30000E94610AEECF88E090E0F4CF8BE39DE044
:102C40000197F1F760E08091A01A0E94340A60E0D9
:102C50008091A21A0E94340A8091A11A8F3F19F024
:102C600060E00E94340A8091AB1A84FD2CC063E0BE
:102C70008CE99AE11DDFCBE4D6E4CE010197F1F7B0
:102C800063E08CE99AE114DF2197F1F763E08CE9C6
:102C90009AE10EDF83E592E00197F1F762E08CE9BB
:102CA0009AE106DF8091AB1A80627EDF84E0809338
:102CB000AC1A8CE079DF7DDF82E08093AD1A86E08C
:102CC000DF91CF9171CF80626FDF8BE496E4019743
:102CD000F1F78091AB1A806267DF83E592E001979C
:102CE000F1F78091AB1A80625FDFDCCF9091AF1A71
:102CF000891710F08FEF890FE82FF0E0E456F54EBA
:102D00008489806851CF41E0FFDE81E090E0089542
:102D1000FC01808181110FC080E2DF01982F1D929C
:102D20009A95E9F777836683DB0115969C9190313C
:102D300029F0903211F080E0089580E4808381E0F2
:102D400082830895CF92DF92EF92FF920F931F93A9
:102D5000CF93DF93FC0180E2DF011D928A95E9F7B2
:102D6000EB01AE81BF81B783A68355834483CC8CAE
:102D7000DD8CEE8CFF8CC086D186E286F3864F70A8
:102D80005527ED01A79695E0440F551F9A95E1F759
:102D9000BE01640F751FEB018B8583FD16C0CD014D
:102DA000840F951FEC018AA987718083EB019B85B5
:102DB000987111F48860808303832370213009F4B3
:102DC0004AC030F0223009F444C0108280E038C09C
:102DD00081E08283828181FF03C080818171A9F7B4
:102DE00093960D911D912D913C919697048B158B87
:102DF000268B378BA40FB51FDB964D915C91DC972A
:102E000070E060E0BA0155274427ED01CF5BDF4F4A
:102E10000881198130E020E0402B512B622B732B6D
:102E2000448F558F668F778FAD5BBF4F8D919D918E
:102E30000D90BC91A02D808F918FA28FB38F81E0D8
:102E4000DF91CF911F910F91FF90EF90DF90CF9086
:102E5000089583E0BECF82E0BCCFAF92BF92CF9205
:102E6000DF92EF92FF920F931F93CF93DF93EC01CA
:102E7000888185FF0DC010E0812FDF91CF911F91D8
:102E80000F91FF90EF90DF90CF90BF90AF9008959B
:102E900088899989AA89BB8981159E4FAF41B1055F
:102EA00050F7CE0148DA182F882329F3EE81FF81ED
:102EB000CC84DD84EE84FF8432E0C31AD108E108BB
:102EC000F108848104C0CC0CDD1CEE1CFF1C8A952B
:102ED000D2F780899189A289B389C80ED91EEA1ECA
:102EE000FB1E25E0B701A601CF0180960E94900C41
:102EF0005C01892B09F4BFCF80E092E0F5019C01D1
:102F0000119221503040E1F701E0EE81FF81828192
:102F1000081780F49501B701A601400F511D611DEE
:102F2000711D808191810E94E60B882309F4A3CF53
:102F30000F5FEBCF90E0B0E0A0E029E0880F991F91
:102F4000AA1FBB1F2A95D1F7488959896A897B89AD
:102F5000840F951FA61FB71F888B998BAA8BBB8BDD
:102F60008BCF0F931F93CF93DF934115510541F002
:102F7000FC01048115810115110539F4FB01108252
:102F8000DF91CF911F910F91089541505109401742
:102F9000510708F48A01EB01FC0160817181A801ED
:102FA000CE010E94BB65C00FD11F1882E9CFCF931D
:102FB000DF93FC014481558164177507C8F49B01B8
:102FC000EC01808191814150510955834483461B16
:102FD000570B6F5F7F4F680F791F820F931F0E94FF
:102FE000BB65E881F9818C819D81E80FF91F108212
:102FF000DF91CF910895AF92BF92CF92DF92EF927F
:10300000FF920F931F93CF93DF932091B81A3091C3
:10301000B91AFC0144815581E901C41BD50B411546
:10302000510549F12115310531F12417350718F102
:10303000C217D30710F0E90121975C01C090B41AC0
:10304000D090B51AC6010FEF1FEF7601EC0EFD1EF2
:10305000E816F90690F0F501608171810E94CA6559
:10306000009759F09C012C193D09C217D30708F0AD
:1030700089010196EDCF0FEF1FEFC801DF91CF91CE
:103080001F910F91FF90EF90DF90CF90BF90AF9086
:103090000895680F791F589825E42A95F1F70000E4
:1030A00000000000000000000000000028E030E008
:1030B00041E0FC015081542309F440C0589AFAE4DD
:1030C000FA95F1F700C000000000000000000000C9
:1030D00000000000000000000000000000000000F0
:1030E000000000000000000000000000440F21501C
:1030F0003109F9F6589AE0E5EA95F1F70000000089
:1031000000000000000000000000000000000000BF
:1031100000000000000000000000000000000000AF
:10312000000000000000000000000000000000009F
:1031300001966817790709F0AECF089558985AE4B8
:103140005A95F1F700C000000000000000000000E8
:10315000000000000000000000000000000000006F
:10316000000000000000C2CF680F791F4A9BFECF0D
:103170002AE22A95F1F700C0000038E020E0422F53
:1031800050E055954795242FE0E5EA95F1F70000CA
:103190000000000000000000000000004A9B2068C2
:1031A000315069F7F5E4FA95F1F70000FC0121933D
:1031B000CF016E177F07D1F60895FB010190002023
:1031C000E9F73197AF01461B570BDC01ED91FC91FC
:1031D0000280F381E02D199462EB72E085E897E1BB
:1031E000ECCFCF93DF93BC0185E897E10E945108B3
:1031F000EC01F2DF8C0F9D1FDF91CF9108950F93AB
:103200001F938091A303811132C00E94E80A0091AC
:103210001102109112022091130230911402601BCE
:10322000710B820B930B693C710581059105D0F000
:1032300080917B17811116C00E94E80A60931102E9
:1032400070931202809313029093140290E080E036
:10325000499905C00196823127E29207C9F781E0BA
:1032600080937B1782E08CBB1F910F91089585E2BC
:1032700094E0B7DF87E094E0B4DF81E08093000260
:103280001092A303EFCFCF93DF93BC0185E897E1C2
:103290000E944308EC01A0DF8C0F9D1FDF91CF91AE
:1032A00008958F929F92AF92BF92EF92FF920F93E9
:1032B0001F93CF93DF93CDB7DEB7A1970FB6F894E6
:1032C000DEBF0FBECDBF7C01FA01CB0119A22230B7
:1032D00008F42AE08E010F5D1F4F822E912CB12C35
:1032E000A12CBF01A50194010E940163F901CA014B
:1032F0006A3004F5605DD8016E938D01232B242B79
:10330000252B79F790E080E0109719F0BD01C701F7
:1033100054DFA1960FB6F894DEBF0FBECDBFDF918C
:10332000CF911F910F91FF90EF90BF90AF909F9022
:103330008F900895695CDFCFCF92DF92EF92FF927A
:10334000CF93DF936C01990FEE08FF086A30710587
:10335000E9F42AE0F7FE1BC06DE285E897E10E94E0
:103360000A09EC0144275527BA014C195D096E0979
:103370007F092AE085E897E194DF8C0F9D1FDF919C
:10338000CF91FF90EF90DF90CF900895262FB70157
:10339000A60185E897E1DF91CF91FF90EF90DF9054
:1033A000CF907FCFCF93DF936AE070E0C5DFEC0171
:1033B00013DF8C0F9D1FDF91CF91089572CFCF93B4
:1033C000DF939A01AB01BC0185E897E1F7DFEC01DF
:1033D00003DF8C0F9D1FDF91CF9108959A01462F37
:1033E00050E070E060E0EACFCF93DF93AB01682F4D
:1033F00085E897E1F3DFEC01EFDE8C0F9D1FDF9195
:10340000CF910895CF93DF93AC0170E060E02AE0A4
:1034100085E897E146DFEC01DFDE8C0F9D1FDF9131
:10342000CF910895CF93DF93BC0185E897E1C5DE86
:10343000EC01D2DE8C0F9D1FDF91CF9108950F9389
:103440001F93CF93DF938C01EB010E94CF6288839F
:10345000C80101960E94CF628983CE01DF91CF918E
:103460001F910F9108950F931F93CF93DF93CDB7C3
:10347000DEB72D970FB6F894DEBF0FBECDBF1A860C
:103480001B861C861D8680917C1781112EC1809120
:10349000821781112AC110917B17111126C128E0D2
:1034A000812F90E095958795182F30E53A95F1F7A3
:1034B000000000000000000000004A9B106821503E
:1034C00079F785E48A95F1F70000812F8F7080935A
:1034D000811790915007843069F090914F078530A3
:1034E00049F090914E07863029F0873009F06BC281
:1034F00090914D07992309F466C280578C87812FDC
:1035000090E0B4E095958795BA95E1F78D309105F7
:1035100009F0E6C104E014E087E592E00197F1F7D5
:1035200000C0000061E070E0CE010C96B2DD69E001
:1035300070E0CE01019618DE898190E0A4E09595B7
:103540008795AA95E1F7069709F09FC187E592E074
:103550000197F1F700C0000061E070E0CE010C9629
:1035600098DD61E070E0CE010A96FEDD8F8190E08B
:10357000B0E0A0E0B82FAA27992788274E8150E015
:1035800070E060E0BA0155274427840F951FA61FFD
:10359000B71F4D8150E070E060E0762F652F542F0B
:1035A0004427840F951FA61FB71F2C81820F911DE2
:1035B000A11DB11D80936B1790936C17A0936D178D
:1035C000B0936E178F3E2EEB92072DEAA2072EEDD9
:1035D000B20711F41092000220910002213051F440
:1035E000AA27BB2780936B1790936C17A0936D1736
:1035F000B0936E178A8590E054E0959587955A951B
:10360000E1F78430910509F011C1E0918117E45090
:10361000FF0BEE0FFF1FEE0FFF1FEF5FFD4F40810F
:1036200051816281738180916B1790916C17A09189
:103630006D17B0916E17481759076A077B0709F095
:10364000F1C087E592E00197F1F700C0000061E06A
:1036500070E0CE010C961DDD61E070E0CE010B96AE
:1036600083DD8B8590E034E0959587953A95E1F779
:10367000039709F0A2C0209181172450330B209F9B
:10368000C001219F900D309F900D112464E074E0E3
:10369000855A984FFEDC61E070E0CE010D9664DD46
:1036A0008D8590E024E0959587952A95E1F7823005
:1036B000910541F580916B1790916C17A0916D1752
:1036C000B0916E17E0918117E450FF0B0097A04472
:1036D000B10508F064C00E94E80A60937D177093FA
:1036E0007E1780937F179093801784E08CBB2D9674
:1036F0000FB6F894DEBF0FBECDBFDF91CF911F9103
:103700000F9108950D97B9F469E971E085E897E1A3
:103710000E94510840916B1750916C1760916D1782
:1037200070916E172AE030E085E897E147DE8FE878
:1037300091E057DDF1CE68E771E085E897E10E94FE
:10374000510840916B1750916C1760916D177091F3
:103750006E172AE030E085E897E130DE6AE671E036
:1037600085E897E10E9451088091811790E060E11F
:1037700070E08096E1DD6CE571E085E897E10E94FC
:10378000510860E170E08D852FDE10918117612F67
:1037900081E40E947E12812F8450990BFC01EE0F70
:1037A000FF1FEE0FFF1FEF5FFD4F8FEF9FEFDC015D
:1037B00080839183A283B3838ECF65E471E085E833
:1037C00097E10E94510840916B1750916C176091DE
:1037D0006D1770916E172AE030E085E897E1EEDD15
:1037E00067E371E085E897E10E94510880918117B5
:1037F00090E060E170E0C0969FDD69E271E085E8ED
:1038000097E10E94510860E170E08B85EDDD109139
:103810008117612F81E40E947E12212F2450330BE7
:10382000F901BDCF81E080937C1755CF0D9709F04A
:1038300052CF87E592E00197F1F700C0000061E008
:1038400070E0CE010C9625DC209181172450330BBB
:1038500044E054E0249FC001259F900D349F900DBB
:10386000112464E074E0855A984F7EDC87E592E08D
:103870000197F1F700C0000061E070E0CE010C9606
:1038800008DC81E08093821726CF67E271E085E84B
:1038900097E10E945108809181176AE070E083509F
:1038A000990B4ADD63E171E085E897E10E945108D8
:1038B0008091811790E06AE070E0805A9F4F3CDD74
:1038C00061E071E085E897E10E94510860E170E0F5
:1038D00089818ADD6091811782E40E947E12FBCE8D
:1038E0000197D1F587E592E00197F1F700C000005C
:1038F000209181172450330B46E0429FC001439F23
:10390000900D112466E070E0855D984FC2DB61E0A8
:1039100070E0CE010D9628DC10918117BE016F5F1B
:103920007F4F80E991E09C01129FC001139F900D91
:10393000112485DD89819A81143049F464E0892B52
:1039400049F480917917811105C083E4C6CF612FB6
:10395000892BD9F380E4C1CF6FEF70E085E897E160
:103960000E945108809181176AE070E08350990BA2
:10397000E3DC64EE70E085E897E10E94510860E1C5
:1039800070E0812F31DD6091811781E40E947E1209
:1039900087E592E00197F1F700C000008091811760
:1039A0008054898361E070E0CE01019672DB81E092
:1039B00080937A1755D8EA9884EF9AE090932B0277
:1039C00080932A0292CE4CD890CE0C94CF622F9244
:1039D0003F924F925F926F927F928F929F92AF929F
:1039E000BF92CF92DF92EF92FF920F931F93CF93EC
:1039F000DF9300D000D000D01F92CDB7DEB79E83FA
:103A00008D833B015A834983DC018C9183FFEBC09A
:103A100012968C9181FFE7C083FDD8C0E981FA81BD
:103A2000AF0170E060E0ED81FE8180899189A2891B
:103A3000B38980959095A095B09584179507A607B2
:103A4000B70708F4D0C0C980DA8022242A94322C27
:103A500021013C96FC83EB83ED81FE8140895189F5
:103A600062897389C114D10409F47CC1868197816C
:103A70008A019B0169E036952795179507956A9508
:103A8000D1F7DC011396EC910E237A01B1E0FB2211
:103A900001111FC0ED81FE814485558566857785BE
:103AA000E114F10409F097C1411551056105710553
:103AB00009F4A4C02B813C810E945D0E87FD93C058
:103AC000811107C08D819E810E949B11882309F47A
:103AD0008AC0AD81BE811696ED91FC9117971C9618
:103AE0004D915D916D917C911F97425051096109F3
:103AF0007109848104C0440F551F661F771F8A9582
:103B0000D2F780899189A289B389840F951FA61F56
:103B1000B71FAC01BD01400F511D611D711DE114A6
:103B2000F10429F4C114B2E0DB0608F088C080E09B
:103B300092E08E199F0986018C159D0508F48C0171
:103B4000E114F104A1F4AD81BE8150968D909D9059
:103B5000AD90BC90539758968D919D910D90BC91CE
:103B6000A02D25E088169906AA06BB0608F421E0D8
:103B7000CF0180960E94900C0097A9F1A801B30193
:103B80008E0D9F1D0E949765E00EF11EE114B2E0BC
:103B9000FB0649F4ED81FE818681978180960E9423
:103BA000500C882301F1ED81FE8180899189A289E1
:103BB000B389800F911FA11DB11D808B918BA28BAA
:103BC000B38B600E711EC01AD10A46CFAD81BE8183
:103BD00058964D915D916D917C915B97CD010E94BE
:103BE0006F1081111BCFAD81BE8111968C91119701
:103BF000816011968C938FEF9FEFCDC0ED81FE8198
:103C0000848D958DA68DB78D0097A105B10581F4A2
:103C1000CF010E949B11882331F3ED81FE818485C1
:103C20009585A685B785848F958FA68FB78F51CF41
:103C3000ED81FE8184879587A687B7874ACF83A1C8
:103C400094A1A5A1B6A1C11424E0D20608F470C0C5
:103C50009601232F332726958280801A912C2815D0
:103C6000390508F44901481759076A077B0770F0BE
:103C7000880D991DA11DB11D481759076A077B07BB
:103C800028F410A223A234A245A256A2AD81BE817F
:103C90001696ED91FC91E080F180F70185818330EB
:103CA00039F099E0440F551F661F771F9A95D1F799
:103CB0009A01AB0169E1C7010E94AD0B882351F065
:103CC00083E3D7018C93C7010E942C0BC7010E948C
:103CD0002C0B89CF530110E000E080ED97E0081530
:103CE0001905A1F00E94140B811104C08BE5F701A6
:103CF0008083E9CFA5016CEFC7010E947D0B88236B
:103D000011F30F5F1F4FFEEFBF1AE7CF0E94140B96
:103D1000882351F0102F0027110F8DEF0E94080B00
:103D2000C7010E942C0B3FCF86E5D7018C93CECFE5
:103D3000481759076A077B0729F410A223A234A267
:103D400045A256A2AD81BE811696ED91FC919301DC
:103D5000808191810E94E60B882309F444CF00E022
:103D600012E021CFED81FE81808D918DA28DB38DEA
:103D700084179507A607B70738F48281408F518FC3
:103D8000628F738F84608283ED81FE81828187FDE3
:103D90001BC089819A812A960FB6F894DEBF0FBEA8
:103DA000CDBFDF91CF911F910F91FF90EF90DF90EA
:103DB000CF90BF90AF909F908F907F906F905F90CB
:103DC0004F903F902F9008958D819E810E943C12CC
:103DD0008111DFCF08CFFC014250510961097109FF
:103DE000848104C0440F551F661F771F8A95D2F740
:103DF00080899189A289B389480F591F6A1F7B1F47
:103E000096CE0496E4CDCF93DF931F92CDB7DEB765
:103E1000698341E050E0BE016F5F7F4F0496D7DDBC
:103E20000F90DF91CF9108952F923F924F925F9222
:103E30006F927F928F929F92AF92BF92CF92DF92BA
:103E4000EF92FF920F931F93CF93DF9300D01F92B7
:103E50001F92CDB7DEB79D838C831B014A01DC0125
:103E60008C91882309F4EBC012969C91129790FFD5
:103E7000E6C083FF1AC058968D919D910D90BC911C
:103E8000A02DEC81FD814089518962897389841B51
:103E9000950BA60BB70BA40170E060E0481759071B
:103EA0006A077B07C8F04C0117C085FF15C0AC81BD
:103EB000BD811696ED91FC9117978681978155E00B
:103EC000880F991F5A95E1F750962D913C91821BCE
:103ED000930B8815990538F384011982EC81FD81D3
:103EE0003C96FB83EA830115110509F44AC1EC8174
:103EF000FD8180899189A289B3895C01F1E0BF22AB
:103F0000EC81FD812081E680F7802C013D0149E0B4
:103F100076946794579447944A95D1F7F70125FF13
:103F200033C0848D958DA68DB78D480E591E6A1E9F
:103F30007B1EAC81BD811696ED91FC91A114B1045C
:103F400009F088C00115B2E01B0708F483C043A143
:103F500054A165A176A1441655066606770609F4B4
:103F600079C0011524E0120708F0A0C09101B30147
:103F7000A201808191810E94250C882309F45FC0F1
:103F8000C12C82E0D82E7FC0338134213983A11423
:103F9000B10491F4311110C0892B8A2B8B2BC1F500
:103FA00026FF33C0848D958DA68DB78DEC81FD8164
:103FB00084879587A687B787AC81BD811696ED91DA
:103FC000FC9117971C964D905D906D907C901F977B
:103FD000B2E04B1A510861087108848104C0440C96
:103FE000551C661C771C8A95D2F780899189A28915
:103FF000B389840D951DA61DB71D2C013D01E981D6
:104000004E0E511C611C711C94CFEC81FD81CACFF6
:10401000AC81BD811C964D915D916D917C911F97F6
:104020002A813B81C7010E945D0E87FD08C0811176
:10403000C3CFEC81FD818081807709F0A2C0AC8183
:10404000BD8111968C911197826011968C938FEFA0
:104050009FEF9AC080E092E08A199B09680180175F
:10406000910708F46C0120E0B301A201CF01809612
:104070000E94900C009719F3BC016A0D7B1DA601EC
:10408000C1010E9497652C0C3D1CEC81FD8180894B
:104090009189A289B3898C0D9D1DA11DB11D808BB5
:1040A000918BA28BB38B0C191D091DCF6801CD2CF0
:1040B000DD24C694AC81BD818C9185FD08C08281D0
:1040C000B9818B1B90E08C159D0508F46C0144169A
:1040D000550666067706D0F4AC81BD811696ED9143
:1040E000FC91E080F180F70185818330F9F4A30130
:1040F000920162E1C7010E94AD0B8823F9F081E3D0
:10410000D7018C93C7010E942C0B99CF4C0D5D1DDC
:10411000611D711D4416550666067706E8F6CF0147
:1041200080960E94500C8111D7CF89CF29E0440C92
:10413000551C661C771C2A95D1F7D9CF3101CA14BA
:10414000DB0469F0B301C7010E943F0B882309F427
:1041500076CFBFEFAB1ABB0AEEEF7E1AF0CF20E0AE
:1041600030E0A9016CE0C7010E94AD0B882311F07B
:1041700088E2C6CFDC2CCC24DD0CC7010E942C0BBE
:1041800082CFC401801B910B0F900F900F900F9066
:104190000F90DF91CF911F910F91FF90EF90DF90E3
:1041A000CF90BF90AF909F908F907F906F905F90D7
:1041B0004F903F902F900895CF93DF931F92CDB7EC
:1041C000DEB741E050E0BE016F5F7F4F86E298E1CD
:1041D0002BDE019731F4898190E00F90DF91CF9130
:1041E00008958FEF9FEFF9CFEF92FF920F931F93F8
:1041F000CF93DF931F92CDB7DEB77C01962FF701E7
:1042000040895189628973898A019B0185E03695CD
:104210002795179507958A95D1F70F7011F0911191
:104220002AC041E050E0BE016F5F7F4FC701FCDD57
:10423000813051F090E080E00F90DF91CF911F919D
:104240000F91FF90EF900895F70180899189A289DD
:10425000B3894F96A11DB11D808B918BA28BB38B1F
:10426000F701868197818796F0E20F9F90011124D4
:10427000820F931FE1CF405E5F4F6F4F7F4F408BA8
:10428000518B628B738BECCF2F923F924F925F9248
:104290006F927F928F929F92AF92BF92CF92DF9256
:1042A000EF92FF920F931F93CF93DF93CDB7DEB7BB
:1042B000A0970FB6F894DEBF0FBECDBF8C016B0187
:1042C00019821A8280912618882309F4C5C06D309E
:1042D000710508F4C1C08091291881111EC0C80160
:1042E0000E944E11982E892DA0960FB6F894DEBF2D
:1042F0000FBECDBFDF91CF911F910F91FF90EF9037
:10430000DF90CF90BF90AF909F908F907F906F90F5
:104310005F904F903F902F90089580912E1890912C
:104320002F18A0913018B091311860912C1870910D
:104330002D18FE0131965F010097A105B10509F026
:1043400072C0CF010E948816882309F485C06624B4
:104350006394712CF12CE12C28014C0C5D1CF1E0D4
:104360004F1A510880912918861508F475C040919C
:104370002A1850912B184619570970E060E085E023
:10438000440F551F661F771F8A95D1F7C5010E94FC
:104390006F10982E882309F45FC060E0C50124DF08
:1043A000FC01892B09F458C083858F3009F054C073
:1043B00080818F71681250C0A8014E0D5F1D1F01D2
:1043C000970160E0D1016530E8F511968D919C91DF
:1043D000009799F02C153D05D0F48F37910510F01A
:1043E0008FE390E02F5F3F4FDA018D93AD016F5F58
:1043F000B2E02B0E311C6D3029F72C153D0538F439
:10440000808186FF04C0200F311FD9011C92D20188
:104410001C92BDE0EB0EF11C2FEF621A720A808134
:1044200086FFA0CF60CF2CE111922A95E9F720E119
:10443000298321E02B8378876F838D8F9E8FAF8FA9
:10444000B8A385CF6B3020F414968D919C91C0CF8A
:1044500016968D919C91BCCFD8011C92912C43CF84
:10446000CF92DF92EF92FF920F93CF938091261815
:10447000811116C080916D1A807791F080917D1A1C
:1044800090917E1AA0917F1AB091801A8F7199270E
:10449000AA27BB2700E0C0E0892B8A2B8B2B19F0C1
:1044A00080E030C000E0C0907D1AD0907E1AE0908D
:1044B0007F1AF090801A60E08DE69AE195DE009711
:1044C00079F3FC012081222359F32E3259F3253E42
:1044D00049F3338533FD1DC0002321F00E94611094
:1044E0008C13DECFB701A60185E0769567955795C9
:1044F00047958A95D1F720E06DE67AE186E298E16A
:104500000E94A216CF910F91FF90EF90DF90CF9075
:1045100008953F3039F626FFC6CF022F0F71C585AB
:10452000C2CF9F92AF92BF92CF92DF92EF92FF9253
:104530000F931F93CF93DF93CDB7DEB7A0970FB63E
:10454000F894DEBF0FBECDBF19821A82DC012C9118
:1045500023FF16C012962C9121FF12C08C01FC0182
:10456000448D558D668D778D411551056105710519
:1045700049F461E0C8010E942F117C01009749F4C1
:1045800080E073C0868197810E94DC0E8111F1CF9B
:10459000F7CF0E946110982E85EEF7018083D80135
:1045A0001C9216968D919C910E943A12882341F399
:1045B000F8019381992309F458C080859185A285DB
:1045C000B385668177819E012F5F3F4F6901009718
:1045D000A105B10509F05BC0C9010E9488168823B6
:1045E00079F2EE24E394F12C25EEA22ED801139655
:1045F0008C9113978E1520F214964D915C914E1963
:104600005F0970E060E085E0440F551F661F771F6B
:104610008A95D1F7C6010E946F10882309F4B0CFA4
:1046200060E0C601E1DDFC01892B09F4A9CF838597
:104630008F3009F0A5CF9081892F8F71E812A0CF1C
:10464000858589119DCFA082D8011696ED91FC91A8
:1046500080A1816080A3BFEFEB1AFB0A96FFC6CF53
:10466000F801868197810E943A12A0960FB6F894BD
:10467000DEBF0FBECDBFDF91CF911F910F91FF9095
:10468000EF90DF90CF90BF90AF909F9008952CE176
:10469000F60111922A95E9F720E1298321E02B8385
:1046A00078876F838D8F9E8FAF8FB8A39ACFBF927D
:1046B000CF92DF92EF92FF920F931F93CF93DF93EE
:1046C000FC018081882359F080E0DF91CF911F9118
:1046D0000F91FF90EF90DF90CF90BF900895DB0196
:1046E0009C91907789F3122F7A01EB016F014115AC
:1046F000510509F442C04150510970E060E085E085
:10470000440F551F661F771F8A95D1F7CD010E9470
:104710006F108823C9F260E0CE0166DDFC01892BB1
:1047200099F283858F3061F580818F71813041F5F9
:10473000B5840E2DB5E1EB16F10408F004E160E05C
:10474000CE0152DD009709F4BFCFFC012081253E48
:1047500009F4BACF222309F4B7CF2E3209F4B4CF2B
:10476000002321F00E9461108B11AECF212FA701F1
:10477000BE01C6010E94A216A8CFCB010E9436122C
:1047800000E0B12CDCCFCF92DF92EF92FF920F933B
:104790001F93CF93DF93CDB7DEB7A0970FB6F894F2
:1047A000DEBF0FBECDBFFC0119821A8290819077C7
:1047B00081F480E0A0960FB6F894DEBF0FBECDBFA7
:1047C000DF91CF911F910F91FF90EF90DF90CF90ED
:1047D00008958F01CF010E943612F801C088D18858
:1047E000E288F38860E0C801FFDC009711F5F8016A
:1047F00081818111DECFF8018081982F907609F0B8
:1048000070C084FFD6CFC8010E94361261E0C80193
:10481000EBDC009709F056C0F80181818111C9CF06
:1048200088E0F8018083828182608283C80179DE1A
:10483000C1CFFC0120812223F1F2253E71F22E32FC
:1048400061F2838583FDC9CF95E0F694E794D79410
:10485000C7949A95D1F720E0A601B801CE01019640
:1048600026DF882309F4A5CF898184FF24C0CE01E7
:10487000019689DF882309F49CCFFFEFCF1ADF0A66
:10488000A60170E060E085E0440F551F661F771FAA
:104890008A95D1F7F80180899189A289B389841713
:1048A0009507A607B70709F498CFC8010E946F10B3
:1048B000811193CF7ECF8B8182608B83CE01019655
:1048C00030DED8CFFC012081222309F4A9CF253E78
:1048D00009F49CCF2E3209F499CF838583FD96CFBE
:1048E00068CF81E067CFAF92BF92CF92DF92EF9215
:1048F000FF920F931F93CF93DF93DC01CD90DC9059
:104900001197C114D10439F01496CD91DC918C012A
:104910007601209761F4DF91CF911F910F91FF9065
:10492000EF90DF90CF90BF90AF9008957501570141
:10493000BFEFAB1ABB0AF7018081082E000C990B60
:104940000E949B61892B91F72197CC0DDD1D8881F9
:10495000082E000C990B0E949B61892B29F0CE1523
:10496000DF0510F02197F3CFAE014F5F5F4F4E1977
:104970005F09D80115965C934E931497CE14DF040B
:1049800020F4B701C6010E949765D801ED91FC9112
:10499000119714968D919C91E80FF91F1082BBCF4F
:1049A000CF93DF93FC01C081D181209761F0899181
:1049B000882349F0082E000C990B0E948265FE01A5
:1049C00031978083F4CFDF91CF910895FC0124814A
:1049D0003581232B39F421E0FB018081882349F0C4
:1049E00020E007C0808191810E94AB6521E0892B86
:1049F000B9F7822F08950F931F93CF93DF938C0104
:104A0000EB01FC01808191810097E1F0688179815F
:104A100061157105A9F0428153812C813D814217B6
:104A2000530770F00E94B4658C819D81F8019583D5
:104A300084831D821C82DF91CF911F910F91089575
:104A40000E94BA6088819981F801918380838A816C
:104A50009B81938382838C819D819583848319823A
:104A600018821B821A82E5CFCF93DF93EC018881F5
:104A70009981009711F00E94BA60198218821D82F4
:104A80001C821B821A82DF91CF910895FC018081E4
:104A90009181009711F00C94BA6008950F931F93C1
:104AA000CF93DF93EC0188819981009759F02A8197
:104AB0003B812617370730F081E0DF91CF911F91BE
:104AC0000F9108958B016F5F7F4F0E94A66400973E
:104AD00059F0998388831B830A832C813D81232B82
:104AE00059F7FC011082E8CF80E0E7CFEF92FF9208
:104AF0000F931F93CF93DF936115710541F480E00D
:104B0000DF91CF911F910F91FF90EF900895411584
:104B10005105A9F07B01EC010C811D81040F151FCB
:104B2000B801BCDF882359F3288139818C819D81AC
:104B3000B701820F931F0E94B4651D830C8381E02F
:104B4000DFCFEF92FF920F931F93CF93DF93CDB7F9
:104B5000DEB72D970FB6F894DEBF0FBECDBF7C0138
:104B6000CB01BA012AE08E010F5F1F4FA8010E94FE
:104B70006161F80101900020E9F73197AF01401B16
:104B8000510BB801C701B2DF811102C0C7016CDF50
:104B9000C7012D960FB6F894DEBF0FBECDBFDF91D3
:104BA000CF911F910F91FF90EF900895CF93DF93D6
:104BB000EC01FB0101900020E9F73197AF01461BA2
:104BC000570B94DF811102C0CE014EDFCE01DF9181
:104BD000CF910895CF93DF93EC01FB014481558180
:104BE0006081718183DF811102C0CE013DDFCE0182
:104BF000DF91CF910895EF92FF920F931F93CF9380
:104C0000DF93EC017B018A01BA0148DF81110AC000
:104C1000CE012ADFCE01DF91CF911F910F91FF903E
:104C2000EF9008951D830C83B701888199810E94BC
:104C3000B465F0CFFB0101900020E9F73197AF0197
:104C4000461B570BD8CF0F931F93CF93DF9300D002
:104C500000D000D0CDB7DEB78C01862FF8011182CD
:104C6000108213821282158214824AE0BE016F5FA5
:104C70007F4F90E00E948261BE016F5F7F4FC8014D
:104C8000D9DF29960FB6F894DEBF0FBECDBFDF91F6
:104C9000CF911F910F910895CF93DF93EC01FB010A
:104CA0008617970741F0608171816115710539F0B0
:104CB00044815581A0DFCE01DF91CF910895D4DEEC
:104CC000FACFFC01118210821382128215821482A3
:104CD000E3CF0F931F93CF93DF9300D000D0CDB7D6
:104CE000DEB764EB7AE1CE010196EBDFCE010196EF
:104CF0000E940B158C01CE010196C8DE0130110512
:104D000089F482E090E0909318028093170226962F
:104D10000FB6F894DEBF0FBECDBFDF91CF911F91CC
:104D20000F91089581E090E00230110564F38091C5
:104D3000590790915A07039720F383E090E0E3CF5F
:104D4000FC01118210821382128215821482FB01EF
:104D500001900020E9F73197AF01461B570B4BCF6D
:104D6000AF92BF92CF92DF92EF92FF920F931F9379
:104D7000CF93DF936C015B017A018901241735071A
:104D800020F48F2D7901042F182F64EB72E0C601F7
:104D9000D7DFD5011496CD91DC91EC16FD06D8F441
:104DA0000C171D0708F4E801D501ED91FC9111974E
:104DB000EC0FFD1F108110826D917C916E0D7F1D97
:104DC000C6016115710599F035DFF501808191818A
:104DD000C80FD91F1883C601DF91CF911F910F9182
:104DE000FF90EF90DF90CF90BF90AF9008953CDEA2
:104DF000ECCFAF92BF92CF92DF92EF92FF920F93E0
:104E00001F93CF93DF93CDB7DEB7C456D1090FB64A
:104E1000F894DEBF0FBECDBF5C016B01CB010E94D9
:104E2000E51C8E010F5F1F4F7801C01AD10AF701F0
:104E3000E01BF10B882349F0C6018E0D9F1D0E94D7
:104E4000E51CF70181937F01F2CFE00FF11F108283
:104E5000B801C50175DFC501CC59DF4F0FB6F89415
:104E6000DEBF0FBECDBFDF91CF911F910F91FF909D
:104E7000EF90DF90CF90BF90AF9008952F923F9228
:104E80004F925F926F927F928F929F92AF92BF925A
:104E9000CF92DF92EF92FF920F931F93CF93DF9306
:104EA00000D000D000D0CDB7DEB74C017F836E8339
:104EB000FA01DB018C918077D1F480E029960FB65E
:104EC000F894DEBF0FBECDBFDF91CF911F910F9140
:104ED000FF90EF90DF90CF90BF90AF909F908F901A
:104EE0007F906F905F904F903F902F900895D401E6
:104EF0008C918111E2CFA180B280808183703324B4
:104F00003394882349F0C5010C966DE070E00E944F
:104F1000776433243394360E29837F01EE81FF8139
:104F2000F987E887CF010E9436121C821D821A82FF
:104F3000212C10E000E01B8297012A5F3F4F3F8346
:104F40002E83A885B98550964D905D906D907C908C
:104F5000539795E076946794579447949A95D1F730
:104F6000620161E0CD0140D9009709F061C0E88598
:104F7000F98581818111A1CFE981E4FF9ECF8E2F38
:104F800083708150823008F098CF112311F0CC80CB
:104F9000DD801315F8F460E08885998525D9892B83
:104FA00009F0E4C0A885B98511968C91811185CF4F
:104FB000888599850E942D17882309F47ECFA885BE
:104FC000B9851696ED91FC918281823018F4105FBC
:104FD000131570F3BB81BB2309F4F7C0F7015580AB
:104FE00002E010E08EE7482E3701F6E06F0E711CEC
:104FF000D70111962D913C911297C801820F931FF2
:105000001396ED91FC912E0F3F1F2E173F0709F4C9
:10501000AFC0AC01B5E0440F551FBA95E1F7840F5E
:10502000951F4191042E000C550B84279527EDCF39
:10503000DC012C91253E11F021110EC0111102C08E
:105040004C825D82131508F41F5F222309F494CF6C
:10505000253E21F400E075CF131550F12E32D1F327
:10506000FC0133853F3009F05AC0011123C026FFEF
:1050700068CF022F0F71F585FA83202EE22DE150C3
:10508000FF0BAF01FDE0F49F9001F59F300D11245F
:105090002A153B05F8F6FC01D12C64E06D1590F063
:1050A00081819281A216B306B1F4892B99F649CF7A
:1050B00010E0D4CF2A942211CDCF2585BA812B17A9
:1050C000E9F2C8CF8AE08D1518F084819581EACF86
:1050D00086819781E7CF8F3F910511F008F0BACF15
:1050E0004FEB480F4A3108F4805EB9016F5F7F4F84
:1050F000D70113964D915C91240F351FD9019C91D6
:105100002FEB290F2A3108F4905E9813A3CFD39484
:105110003296BDE0DB1609F414CF9B01BECF33FD00
:1051200099CF002399F0E1E02E12C7CE0E946110C2
:10513000FA818F13C2CEB981B6FDBFCE2981A601F7
:1051400068857985C4010E94A216B8CE4BE050E074
:105150006E817F810E948A65892B09F0F2CED7018A
:105160008C9180FFE8CF31E03B83EBCE1F5F11CF06
:10517000B3E0B51510F4A3E05A2E34E0350D282F16
:105180002F702A3008F089C0205DF701E30FF11D70
:105190002683F4E096958795FA95E1F731505316FA
:1051A00070F3F701E50DF11D4682888599850E940F
:1051B000361261E08885998517D8009709F06FC08D
:1051C000E885F9858181811178CEA60170E060E0E3
:1051D000E5E0440F551F661F771FEA95D1F78885D4
:1051E00099850E946F10882309F467CE0FEF030D95
:1051F000102F3FE0532E3701B6E06B0E711C4DE0CF
:10520000442E112309F477C060E0888599850E94B7
:10521000F4206C01892B09F450CEA885B985169627
:10522000ED91FC9180A1816080A3312E101302C00A
:10523000689436F8F601308253861486C3010E94C2
:105240006110D6011D968C931D975B961C921E9241
:105250005A97F70123813481832D8F718150990BE7
:10526000489EA001499E500D1124F60160E04A15A8
:105270005B0570F5D901A40FB51F8C91082E000CA9
:10528000990B653080F5928381836F5F4F5F5F4F2D
:1052900032966D3061F71150B4CF295C76CFDC01C6
:1052A0002C91222309F491CF1B962C9123FD81CFC1
:1052B0004BE050E0BC01C3010E948A65892B09F0D4
:1052C00078CF0F5F1F4F0436110509F091CEF5CD51
:1052D00081E090E0A416B50611F490E080E091958D
:1052E00081959109CECF6B3018F495838483CDCF0F
:1052F00097838683CACFA885B98550964D905D90D7
:105300006D907C90539760E0CD010E94F42000974F
:1053100009F4D3CD25E076946794579447942A9561
:10532000D1F7620120E2FC0111922A95E9F7F70119
:1053300036962BE0DC0101900D922A95E1F7D7011A
:105340002C912871FC01248721E238E2318B208BDB
:1053500040E058E057874687338B228B318F208F70
:10536000578B468BA885B9851696ED91FC9180A147
:10537000816080A3E3CEDF92EF92FF920F931F93A1
:10538000CF93DF93CDB7DEB7E3970FB6F894DEBFC8
:105390000FBECDBF7C018B015BAB4AABD22E198215
:1053A0001A82FC018081882379F080E0E3960FB6B1
:1053B000F894DEBF0FBECDBFDF91CF911F910F914B
:1053C000FF90EF90DF900895FB018081807769F373
:1053D000EAA9FBA980818F32D9F4EAA9FBA98081CF
:1053E0008F3221F43196FBABEAABF7CFF80166813F
:1053F0007781811104C0C7010E948816D7CFCE01E2
:1054000001960E948816882381F28E010F5F1F4F3C
:10541000AE014E5C5F4FBE016F5D7F4F8AA99BA9B5
:105420000E94310F882309F4C0CFEAA9FBA980812B
:105430008823B1F020E0AE014F5D5F4FB801C70196
:105440001DDD882309F4B1CF80E2F701DE0111965A
:1054500001900D928A95E1F7C7010E947612D5CF8F
:105460002D2DAE014F5D5F4FB801C70107DD9ECF07
:10547000CF93DF93CDB7DEB7A0970FB6F894DEBF1A
:105480000FBECDBF19821A8220E0AC016DE67AE131
:10549000CE01019670DFA0960FB6F894DEBF0FBE66
:1054A000CDBFDF91CF910895CF93DF93CDB7DEB716
:1054B000A0970FB6F894DEBF0FBECDBF19821A8237
:1054C000FC0120812F3229F52181211122C08DE696
:1054D0009AE10E94761266E478E18DE69AE10E94F4
:1054E000881681110AC080E0A0960FB6F894DEBF3E
:1054F0000FBECDBFDF91CF91089580916D1A807757
:1055000091F38DE69AE1909384178093831781E05D
:10551000EBCF20E0AC016DE67AE1CE0101962BDF06
:10552000882309F399819077F1F290E2FE01319698
:10553000ADE6BAE101900D929A95E1F790916D1A5E
:105540009077F9F6D1CF4F925F926F927F928F92C0
:105550009F92AF92BF92CF92DF92EF92FF920F9302
:105560001F93CF93DF93CDB7DEB7C850D2400FB6AD
:10557000F894DEBF0FBECDBF082F10E080E991E0A8
:10558000089F5001099FB00C189FB00C1124C50151
:1055900004960E94CF62F82E6AE472E085E897E1F3
:1055A0000E945108680183E0C81AD108C6010E9410
:1055B000D219ECE0FE121CC08FE192E00E94F118BB
:1055C000C85FDD4F0FB6F894DEBF0FBECDBFDF91D1
:1055D000CF911F910F91FF90EF90DF90CF90BF90F0
:1055E000AF909F908F907F906F905F904F900895B5
:1055F0007E01FFEFEF1AFDEFFF0A64EB72E0C701D7
:105600009FDBB50167597F4FCE010196F2DBBE01EA
:105610006F5F7F4FC701EFD9CE01019637DABE0128
:10562000695F7D4FC50102960E941F1AF7018081B4
:1056300091813ADFC95FDD4F48815981C750D2401F
:1056400021E06DE67AE186E298E131D840903E189B
:1056500050903F18609040187090411853014201DB
:105660002AE0B694A794979487942A95D1F7000FCF
:10567000111F000F111FF801EF50FE4F8FEF9FEF2A
:10568000DC0180839183A283B38360E172E085E8CB
:1056900097E10E9451084AE050E0C301B2010E9424
:1056A000DF196DEF71E085E897E10E9451084AE04B
:1056B00050E0C501B4010E94DF1985E897E10E941E
:1056C0005609FAE6FA95F1F700C081E048168CEF2A
:1056D00058068FEF6806780608F046C0FE0131963E
:1056E00085EE8193EE15FF05E1F7880C991CAA1C45
:1056F000BB1C412C512C3201439408E210E084146D
:105700009504A604B70428F140E052E0BE016F5FA3
:105710007F4F82E298E10E94011F86E298E10E9499
:105720003C126BEF71E085E897E10E945108C201DD
:10573000B8010E948B64892B31F40E94EC1885E833
:1057400097E10E945609EFEF4E1A5E0A6E0A7E0A32
:10575000D6CF8BEE91E00E94F11886E298E10E948C
:105760007612C70193D92CCF69EE71E085E897E1F5
:105770000E9451086AE070E0C6010E949C1987EC03
:1057800091E0E9CFCF93DF93CDB7DEB7A0970FB607
:10579000F894DEBF0FBECDBF19821A8221E0AC01A2
:1057A0006DE67AE1CE010196E6DD882321F0CE0197
:1057B00001960E949122A0960FB6F894DEBF0FBE0C
:1057C000CDBFDF91CF910895FB01242F6091831706
:1057D00070918417AF01CFCDDF92EF92FF920F93BC
:1057E0001F93CF93DF93CDB7DEB7A0970FB6F89492
:1057F000DEBF0FBECDBF8C01DB019C91907709F419
:1058000095C07B0122E5C80139DB882309F48EC0ED
:1058100081E0F801828380E1D82ED082C8010E9405
:105820002D17882309F482C0F80184859585A68503
:10583000B785848F958FA68FB78FC8010E943612C7
:10584000C8010E943C12882309F470C061E0C801BD
:105850000E942F11FC01892B09F468C0D38680E2D5
:10586000DE01119601900D928A95E1F78EE289830F
:10587000FE013296CE010C9620E22193E817F9073B
:10588000E1F7D8011696ED91FC9117975C964D9132
:105890005D916D917C915F97425051096109710949
:1058A000848104C0440F551F661F771F8A95D2F765
:1058B00080899189A289B389480F591F6A1F7B1F6C
:1058C00021E0CF0180960E94900C009779F120E2B0
:1058D000FE013196DC0101900D922A95E1F72EE24E
:1058E0002A83F701448D558D668D778D7E8B6D8B68
:1058F0005C8F4B8F20E2FE013196DC019096019087
:105900000D922A95E1F7D80116968D919C91A0965B
:105910000FB6F894DEBF0FBECDBFDF91CF911F91C0
:105920000F91FF90EF90DF900C943A1280E0A096D8
:105930000FB6F894DEBF0FBECDBFDF91CF911F91A0
:105940000F91FF90EF90DF900895DF92EF92FF921A
:105950000F931F93CF93DF93CDB7DEB7E3970FB6C7
:10596000F894DEBF0FBECDBF7C018B015BAB4AABB1
:10597000D22E19821A82FC018081882379F080E07E
:10598000E3960FB6F894DEBF0FBECDBFDF91CF9187
:105990001F910F91FF90EF90DF900895FB018081A0
:1059A000807769F3EAA9FBA980818F32A9F4EAA97B
:1059B000FBA980818F3221F43196FBABEAABF7CFA4
:1059C000F80166817781CE0101960E9488168823AE
:1059D000B1F28E010F5F1F4FAE014E5C5F4FBE01F3
:1059E0006F5D7F4F8AA99BA90E94310F882339F2EE
:1059F000EAA9FBA98081882309F120E0AE014F5D6F
:105A00005F4FB801C7013ADA882361F080E2F701FD
:105A1000DE01119601900D928A95E1F7C7010E946F
:105A20007612D7CFDD2009F4AACFAE014F5D5F4FCC
:105A3000B801C701D1DE8111E9CFA1CFAE014F5D21
:105A40005F4FB801C701C8DE9BCFCF92DF92EF92C4
:105A5000FF920F931F93CF93DF93CDB7DEB7C0565E
:105A6000D1090FB6F894DEBF0FBECDBF19A21AA29E
:105A700022961FAE229723961FAE2397DC012C910E
:105A8000287189F480E0C05ADF4F0FB6F894DEBF6A
:105A90000FBECDBFDF91CF911F910F91FF90EF907F
:105AA000DF90CF9008951696ED91FC91DB0116964C
:105AB0002D913C91E217F30729F76A017B018C01D4
:105AC0000E943C1280E2F801DE01AF5BBF4F019003
:105AD0000D928A95E1F760E0C8010E942F11FC0148
